:020000040050AA
:100000004252434D63666753000000003200000017
:10001000030110000427004FF4B0010320086070B2
:1000200047000006010401042700010104C05D002F
:1000300000000306FFFFFFFFFFFF00011C0014503C
:100040000000F053000004500000145000001000A5
:0C005000000000000000000000FE0000A6
:101400004252434D63666744000000002C93010084
:1014100003030B4359573230383230413100160341
:101420000200000301480004270010B500210C2031
:1014300091F5E3FC04460021072091F5DEFC002C29
:1014400012D0002810D0012101808170074AC0F815
:101450000320002222600B22A280E180A0602046AF
:10146000BDE81040D7F559BF10BD4F0C0000060174
:101470000401042700010BD08005000000000000DB
:1014800010B5044B9847044B9847BDE81040034BF8
:10149000184700BF115450004D0C27007DCA500062
:1014A00002D0314642F73CB22DE9FF0F284600F04A
:1014B000A1F9BDE8FF0F42F742B2000094F84A20BC
:1014C0001AB194F852202CF72DB100F0FDF92CF749
:1014D0002DB10CB4204600F0FCF910B10CBC2CF777
:1014E00012B20CBCBDE8F0810FB42046294600F0D2
:1014F0004EFA0FBC15F0040F0CD00FB4204629464D
:1015000000F016FA01280FBC04D1A07B79F7F8F59A
:1015100070F79BB170F700B24FF0010200F030FE9F
:1015200062F7B8B12046BDE8F04100F033BA0000E0
:101530000FB4304649463A46234600F097FA012850
:101540000FBC03D1BCF762F198F762B3BDE8F08736
:1015500002B02046BDE8104099F72CB1BDE810401C
:1015600000F0A4BBC0F8BC1100F0AAFB3FF726B006
:10157000BDE8F04F00F008BC0A20A4F80B0010BD35
:1015800008D00FB4504600F095FD122805D00FBCCE
:101590002DF758B7B0782DF751B70FBC2DF791B78D
:1015A0000FB400F09FFD0FBC29F7DAB1034873F7C1
:1015B00003F400F0D1FD73F7EAB400000C680F00EB
:1015C00001D1034810B12068B3F776B3B3F789B3FC
:1015D000115D200003B40848016821F40071016026
:1015E00040F6DC30C0F22000016821F00701891DBF
:1015F000016003BCFEF6BCB5488133004FF21353C3
:10160000C0F207036168994203D0E569D61B7DF7F4
:101610001DB77DF713B700009360D36013610FB45B
:1016200000F0B2FF10B90FBCA9F771B60FBCBDE84E
:10163000F08F1A2C06D1D1F8003243F6F012134085
:1016400090431843C1F80002AAF7EEB07DF735F3D6
:101650000320BDE8F081000048F23810C0F23300EA
:10166000006804F745B7000000F0E8FFB0F718B7CE
:10167000BDE8FC4101F01CB86C6116F77EB30000B8
:10168000016000B501F0A6F800BD000007D346F2E6
:101690000C61C0F220010B88D11A01F7E3B001F709
:1016A000E3B000000CF72CF048F2DC20C0F233006D
:1016B000016841F0010101600CF728B0411C00D124
:1016C0000025284408F7CAF601F757B6012801D9C2
:1016D00001F7F4B56846494601F09AF8002802D0AF
:1016E000062501F74BB601F713B6384601F0A7F807
:1016F00001F787F602F70FB001F0A8B80068D0F83C
:10170000D81059B12DE9FF01404601F0BFF818B1DA
:10171000BDE8FF0130F714B2BDE8FF0130F715B2A4
:10172000BDE8FF4701F06CB9BDE8F04101F040BAF7
:101730000AD02DE9FF0F314601F077FA06D0BDE857
:10174000FF0F301D35F75CB135F768B1BDE8FF0F0D
:1017500035F79EB1204601F0F0FA204667F7A0B2B7
:101760002046BDE8304001F0F8BABDE8F04101F094
:1017700010BB00003046BDE8F04101F0E1BB807EC7
:1017800000F0EF0008B10B2038BD04F797B400005B
:1017900003B40C98C188022905D103BC0498002821
:1017A00004D0CAF7A1B203BCCAF79EB2CAF747B1C8
:1017B00001F00DFD0D4629F7C8B5000018B1A5626E
:1017C0002663D1F76DB62820F8BD000002F08AFD2F
:1017D00003460E460DF796B501880291322003901C
:1017E00039F71CF292F7BCB7BDE8384003F0C6B831
:1017F00013F74CB7104901EB40108189491C8181D6
:1018000070470D4A4AF6444092F8761009B1012912
:101810000AD192F8791041B1012909D0022903D0E7
:10182000032901D14BF6803070474FF47A5070474E
:101830004FF4FA407047000020E2200003490248BC
:10184000C1F8A00070470000B9D90908A0452000E0
:1018500070B50546A0F7E5F4002438B9164890F8AD
:101860003B00C00702D1B0F773F508B12C6010E05F
:10187000124EB460124C206840F4807020607CF7F7
:1018800021F72860206820F480702060AFF23F00CC
:10189000B060012070BDAFF2470008498860704712
:1018A00010B57CF79FF407490870002010BDAFF217
:1018B0000F0002490860704740102000087D20009A
:1018C000DC0B2000C015210017481849008A086069
:1018D0007047C18840F67B438A1F9A4220D2038911
:1018E000B3F5FA7F1CD242890A2A19D3B2F5486FA0
:1018F00016D85B1C4B43B3EB820F11DAC2787AB176
:101900004B1E082B00DD08239A4209DC82888A429C
:1019100006D8407CC0F30400052801D3102801D963
:101920000020704701207047E0142000048331003C
:1019300070B50646164805680021284661F724F46C
:10194000044605F00300012813D034B196F8E000F6
:10195000800702D5042C18D3241FE84380070AD03F
:10196000306D012161F757F7A0420ED3A80706D0CA
:1019700009E044B1EAE7FB2C07D834B1F6E730467A
:1019800091F7C7F008B1012070BD002070BD70470D
:10199000988B31002DE9FC410646407C80467AF761
:1019A000F0F50546404684F78DF2070045D007F173
:1019B00008007AF708F4040004D107F10C007AF764
:1019C00002F40446346003203074207BF06004F19C
:1019D0001400B06070606168074609B12846884706
:1019E0002046BBF713F7002827D0C068800724D50E
:1019F00095F8DD003C78012801D1062C1DD020216E
:101A000040469CF7EEF795F8DD00012815D1052C2E
:101A100013D10020CDE90000002295F8DE00134626
:101A200062F727F3E86B022140F00400E86395F8C1
:101A3000DE00BDE8FC4162F702B3BDE8FC810000B6
:101A400001460020097D132903D0072900D105484C
:101A50007047044810387047AFF21B000249C1F8C4
:101A60008801704718535100A47F200010B51C4610
:101A70001F2803D2114B1B5C8B4209D00146104634
:101A800098F78EF06068002198F703F0002010BDF1
:101A9000012010BD70B50546487D0C46122803D1C3
:101AA00095F8DE009CF78BF721462846BDE870408C
:101AB00098F7BCB390F8DE009CF781B7285351002B
:101AC0002DE9F04740484149407E0978884202D9D3
:101AD0000020BDE8F0873E4DE86BC00701D0012033
:101AE000F7E77DF7E6F081463B48DFF8E880002421
:101AF0000278D8F8000060E000EB84010968E1B3E7
:101B0000A94259D000EB84000668488F06F5D076CC
:101B1000012854D1D1F8A80380BB301D50F768F0DC
:101B2000D8F800004FF4727A00EB84075246396807
:101B3000274852F7A8F5307C162810D12748D6F848
:101B4000E430A0F1E402EC3602F1EC0102F582721D
:101B5000B34202D1C0E9001201E0C0E900213868B7
:101B6000D0F8A80310B91E48C5F8AC03464638683B
:101B700051467EF719F2306801E01DE01FE000EBEE
:101B800084000560C5F8F051006800F5D070417D13
:101B9000032906D0012906D0022909D0042909D039
:101BA0000DE0104900E01049001D50F718F006E064
:101BB0000E49F9E70E49F7E7641C94429CDB48465E
:101BC0007DF77BF08BE70000A0142000905C2000E4
:101BD000F816200094142000921420007C19200094
:101BE000A01A2000000E2000F00D2000F80D2000AB
:101BF000080E200070B5044674F7ADF7224E0020A1
:101C00004FF4461530742148016811B9D5F8941085
:101C10000160BE20C5F89400002042F74DF61C4834
:101C2000016941F001010161016841F001010160B8
:101C3000A079C0B1607C012800D0002058F732F0B4
:101C4000B27914494FF48200BAB1134A1268C0F84D
:101C500050211248006808600B48BBF7E3F3BDE869
:101C6000704074F76EB5227961792068BCF76BF02B
:101C70000B48808AC5F80403E2E70A4A1268C0F8F4
:101C800050210948E6E7000024F1200038752000C3
:101C900060016500E0044100C4F72000CCF720009B
:101CA000E0142000C8F72000D0F7200010B5B0F7EE
:101CB00015F40249086020F0004010BD50292000B2
:101CC00070B523480078042837D3224A4FF4CA005D
:101CD00011788B080364446C8B07DB0EFF2505FA33
:101CE00003F6B44311269E4026434664002606644C
:101CF000194B1C7844EA0111C0F8181251788A086F
:101D00000264436C8A07D20E9540AB43022595408E
:101D10001D434564066444EA011141F48031C0F872
:101D20001C124FF00111C0F820120121C0F824123A
:101D30000A48016841F40051016070BD0949084832
:101D400008603EF738B5AFF20B00074908607047EE
:101D500056692000C1152100536920003402320069
:101D6000006CDC0294692000CC692000044900204A
:101D7000086070470349086070470249486070472F
:101D800030502000244B20002DE9FC4790F839709A
:101D9000054600F11C06B81CC0B240F080010024CA
:101DA0003A48A9F75BF2A87B694679F79EF100985B
:101DB000DFF8DC8010F0030006D001281BD00228D9
:101DC0001CD003280CD11CE00198A96A8842009815
:101DD0001BD9022178F78EF53060B8F800007060EA
:101DE00095F83A00DFF8AC9090B199F80210684687
:101DF00078F746F63BE001210098EBE702210098D6
:101E000001E00121009878F775F53060A86AE6E7EF
:101E100099F8021099F803000144E8E7781C05F1ED
:101E20002C01C0B28CF7CBF38046DDE9001040EA0C
:101E30004120194901EB840188671849E0020860D4
:101E4000B8F14F0F09D208F1020040EAC42048F26D
:101E5000801108431149091D08602819641C80F885
:101E60003E7099F80210684678F70AF647466946C8
:101E7000304679F733F0012803D14F2F01D2042CDB
:101E8000CCD385F842402046BDE8FC8704016000C1
:101E9000E00D2000721B200000E0310000E931005D
:101EA00010B504467448006873F7DAF70100734808
:101EB000B0F8FE004FEA007007D0002801DA704940
:101EC00000E070494831202205E0002801DA6C4921
:101ED00000E06C49182220467BF7F6F708B1002095
:101EE00010BD012010BD70B598B0044600F1180572
:101EF00006210CA865F762F7062221460CA865F7B3
:101F00007CF7401C44D1604906220E46204665F706
:101F100074F7401C3CD1062229460CA865F76DF7E2
:101F2000401C35D106223146284665F766F7401C2D
:101F30002ED10622294612A865F7E1F7062221468E
:101F400006A865F7DCF706A906232246084665F7CA
:101F5000CDF7224606231146684665F7D9F769464C
:101F600006232246084665F7D3F747496A46062303
:101F70002439104665F7D5F76A46062306A91046A8
:101F800065F7C6F70622694612A865F736F710B15D
:101F9000002018B070BD0120FBE770B5A0B004466A
:101FA00000F12005082110A865F708F7082221464E
:101FB00010A865F722F7401C44D1344908220E4688
:101FC000204665F71AF7401C3CD10822294610A884
:101FD00065F713F7401C35D108223146284665F7CE
:101FE0000CF7401C2ED10822294618A865F787F760
:101FF0000822214608A865F782F708A90823224687
:10200000084665F773F7224608231146684665F7C8
:102010007FF7694608232246084665F779F71B498A
:102020006A4608232439104665F77BF76A46082379
:1020300008A9104665F76CF70822694618A865F7E5
:10204000DCF610B1002020B070BD0120FBE710B518
:10205000094C201DFFF724FF08B1002010BD2068A7
:1020600073F7FEF6002804F1040002D0BDE810402A
:1020700093E7BDE8104036E710D92000401020005B
:1020800068710F00E0D9200088D720006CD82000AC
:1020900010B5941D25F722F1082084F8290010BD01
:1020A00003480C214170017003218170C170704799
:1020B0009E732000401D017A03290BD1084AD0F8F5
:1020C00016109078B1F57A5F20F0C00004D0B1F519
:1020D000FA5F02D0122070474030907000207047A5
:1020E0003E5D20002DE9F0410446164E164D174F77
:1020F00024E0174853F7E0F600BB1349144853F7A0
:1021000025F6288806EB8000006818B911491020D0
:102110007DF7C3F02888FF280CD20B2806D028F7BB
:10212000C3F3288806EB8000016805E0064800F04C
:102130002FF903E0396809B103488847641ED8D2F3
:10214000BDE8F081FC690F00E4C82000C41521003F
:102150008CC82000040000810749072081F84A014B
:102160000648027801209040401E4FF6C072104091
:10217000A1F8640070470000401020002D5C200092
:102180002DE9F74FDFF8F0810446DFF8F0A1D8F829
:1021900000009346A04225D1794F3E6820E0351FCC
:1021A000A5421CD0284677F77AF618B9284677F763
:1021B0006FF6A0B1BBF1010F03D1A87CA17C8842CE
:1021C00007D2A87CA17C884209D99AF800108842DD
:1021D00005D3019800B105600120BDE8FE8F366887
:1021E000BE42DCD10026D8F800004FF0FF35B146E2
:1021F0004746F8B1C17C03291CD177F747F603287D
:1022000008D03868A17C807C884213D39AF80010EB
:1022100088420FD33F68384676F712F3A84205D3B9
:10222000A84207D1B97CB27C914203D905463E460B
:102230004FF001095348D0F800802CE098F80F00C7
:10224000A8F10407032824D1387D0D2821D1384670
:1022500077F71CF603280ED0BBF1010F03D1B87C31
:10226000A17C884207D2B87CA17C884211D99AF817
:10227000001088420DD3384676F7E2F2A84204D324
:1022800007D1B97CB27C914203D905463E464FF056
:102290000109D8F800803B498845CFD13A48076802
:1022A00018E0B97BA27C381F914212D9334A1278C8
:1022B00091420ED3804674F78DF6A84205D308D11B
:1022C00098F81210B27C914203D9054646464FF069
:1022D00000093F682C488742E3D12C484FF00008A2
:1022E000076824E0381F08F10108BBF1010F03D192
:1022F000817CA27C914207D2817CA27C914212D93E
:102300001E4A127891420ED3824674F763F6A842B1
:1023100005D308D19AF81210B27C914203D9054630
:1023200056464FF00009B8F1030F03D23F68174833
:102330008742D7D1681C03D0182D05D3681E0DE045
:102340004FF6FF70002609E0B9F1000F3146204634
:1023500002D076F737F301E076F781F2A18921B157
:10236000814201D2401A00E00020019900293FF487
:1023700034AF0E6031E70000100E2000D00D2000B9
:10238000000E2000080E2000F80D2000F00D2000A7
:1023900070B50646057940887AF7F3F004002AD034
:1023A0000F2D06D0112D0CD03046BDE8704089F7B6
:1023B0002FB4E06BC0021ED5A06C40F40070A06486
:1023C0000EE00D480078C00615D5606C80050CD570
:1023D00094F8DE009CF7F3F2606C20F40070606407
:1023E0002046BDE8704089F73FB2A06C810502D558
:1023F00020F40070A06470BDE01420000A48016859
:1024000041F000710160704708490320086070477F
:10241000074902200870704706490120087070477C
:10242000054935200870704728153200E0823300D6
:102430006C592000876D20000262200070B54FF4B7
:102440004E11012822D004281FD11B4A194801F53A
:1024500037719060086840F004000860086820F058
:10246000010008601548164C4FF0010505606068D2
:1024700000B1804702F069FC1248057001F0B2F823
:102480001148226801689143016070BD01F5A07197
:10249000086820F47F4008604FF0000048600B4956
:1024A00040F21450086070BDAFF26F0004498860BC
:1024B00070470000854D5000687E2000D86A2000DB
:1024C000C81521003F1C2000A8752000A40B200087
:1024D00070B52B4D002404EB8400295C41B12844E5
:1024E00003794288407800F00F01000901F72AF7CC
:1024F000641CE4B2082CEED313F7A7F201280FD125
:102500004FF44810816E21F47F4181661D480168B7
:1025100041F002010160BDE87040002013F70BB4E8
:1025200070BD70B5144606460D4601F7E0F600286A
:1025300020D0304601F7C9F60121A940884304F0B4
:102540000101A940084381B2304601F7C8F60C49A1
:10255000002305EB061203EB83000D5C5DB108441C
:1025600045886D0407D54078904204D103EB830081
:102570000844047170BD5B1CDBB2082BEBD370BD4B
:10258000FC0B200000C4320070B501200026174B60
:102590000402174D566108291FD004DC05290FD00D
:1025A000072904D114E0202906D0372901D00020C2
:1025B00070BD4FF4717101E040F2EC41518070BD8B
:1025C0000B490C3951601021517040F2045109E05F
:1025D0005560567040F2245104E055600821517056
:1025E00040F2345151809360D46070BD1C80330040
:1025F000B08333000E48016821F4804101604FF040
:102600000001C0F8441170470A480068400401D036
:10261000002070470120704710B503F76BF720B911
:102620000548007808B1012010BD002010BD000051
:102630005C81330058813300B8FC20002DE9F04163
:10264000164800681649174C174D184E884216D088
:102650001FE0124F308840222B683F1D396844F834
:102660002010994201D1521EF8D254F820109942FC
:1026700009D0401C2960202800D300203080AFF70B
:10268000DDF61F28E5D105490020091F0860BDE8D7
:10269000F081BDE8F041AFF7CDB60000042635006B
:1026A000FFFF0F20F80C2000D4152100F40C2000AF
:1026B0002DE9FC41074668460AF79AF6284EDDE9FF
:1026C000002430688168C068551A64EB000419F76B
:1026D000B1F6022811D02348016811B3A5FB01030C
:1026E00004FB0131002205FB02111F4A1F4B127827
:1026F0001B7812FB03F2D31720E019F7A7F6642129
:102700004843A0FB0513002202FB053200FB042412
:102710000D467DF7CEF10A21B0FBF1F200232846E9
:102720000BE040F6EC30A5FB001304FB0030002268
:1027300005FB0204642200230846214698F7FEF5B3
:102740000B4A0023801841F10001520098F7F6F57A
:1027500031680968084439460AF7F9F6BDE8FC8192
:10276000EC582000C40B2000BA0B2000B80B20004E
:1027700020A107002DE9F04104460D461EF717F68B
:10278000062805D000201B4920B10888860002E0F9
:102790000120F8E70E8818480021078817480068CC
:1027A000C8301EF72BF501461548006880030CD58C
:1027B0002068B04209D97A18904206D9421C01D04B
:1027C000401A20600120BDE8F0812878401E287062
:1027D0000020F8E70B48C16A44F2036221EA0201D3
:1027E000C1624FF004010160704708490648086063
:1027F00070470000800C2000420C2000D8152100FA
:10280000A00B20002C813300C1212100940C20005A
:1028100070B504460D461EF7CAF50146094806295B
:1028200006D002782368A9188B4204D8002070BD16
:1028300000788200F6E7581A2060012070BD024936
:10284000087070473D5B2000DC15210008B50C487E
:102850000090FF2269464FF4BC700AF72EF3094836
:10286000016821F40071016007484FF000018160A8
:102870004FF080020260C1604FF003018160FEE70B
:10288000FEE7FEE7488133000090320010B500F00B
:10289000B5FC0446022808D07BF78DF15A2804D2F3
:1028A00020467BF773F1022801D2012010BD0020E1
:1028B00010BDA0F13201282903D84E49088001201B
:1028C0007047002070472DE9F047044602207BF74F
:1028D00072F1484F8046388850B902207BF74DF19D
:1028E0000A2801D8462002E0142821D85020388038
:1028F000D4F8D800404DDFF8049101264FF00C0ABF
:10290000C0B339880A39884503DBB4F8D4000028FD
:102910002ED10027C4F8D870206B58B1806948B117
:10292000EE60226BA18A506E9369002298471EE0E8
:102930005A20DCE7D9F80010002091F86B10C91C70
:102940001BE02269D2F8882002EB80021268A242C2
:1029500011D1C0EBC002296F0AEB82000844026863
:10296000002A05D0EE602069483000219047EF60D2
:10297000BDE8F08704E0401CC0B28142E1D8F7E72F
:1029800002207BF718F139888842F1D3B4F8D400DB
:102990000028EDD0C4F8D860206B38B183692BB122
:1029A000A18A406EBDE8F04701221847D9F800100F
:1029B000002091F86B10C91C18E02269D2F8882019
:1029C00002EB80021268A2420ED1C0EBC002296F56
:1029D0000AEB820008440268002AC9D02069BDE8D9
:1029E000F047483001211047401CC0B28142E4D872
:1029F000BEE70000DE15210068932000345F200050
:102A00002DE9F04FDFF84CB287B004004FF000081A
:102A1000DBF80000DFF840A28946154647464646E7
:102A2000059018D0DAF8A420AAB1A06C0090B4F8F0
:102A30004C00ADF8040094F84E008DF806002079A3
:102A40008DF80700208CADF8080069460E2003952C
:102A50009047012835D004F1700004908DB184B105
:102A6000B9F1000F05D0B9F8140028804FF0010823
:102A700001E0FF2028800020E880294604987BF7A9
:102A80003EF17649C86800281BD1B8F1000F1BD071
:102A900094F88E00022802D0012803D005E0B1F896
:102AA000860000E0488800280BD0E06D002808D19F
:102AB00004987BF77BF1002803D00146204633F7CA
:102AC000AAF407B0BDE8F08FDBF80000884609697A
:102AD000C0EB001000EB400001EB800452E094F8E2
:102AE0008E00022802D0012803D005E0B8F8860045
:102AF00001E0B8F80200E8B3D8F88C50C5B12869F5
:102B0000C06DA8B9B5F8D40090B105F1CC007BF741
:102B10004DF15FEA00090BD0284667F7E5F1294639
:102B2000484666F712F42869494633F774F429E0F9
:102B30002068A0B1E06D90B9207904280FD104F18C
:102B400070007BF733F128B10146204633F763F478
:102B5000012717E0204667F740F20028F4D1DBF8A0
:102B60000000761C401CCBF800009AF8AD20824291
:102B700007D100E00AE00020CBF80000D8F81040B0
:102B800000E0B4349AF8AD00B042A8DC002F98D031
:102B9000059ADBF800005946824292D1401C086039
:102BA0009AF8AD2082428CD10020CBF8000088E753
:102BB0002DE9F041294E80463169401AB421B0FB1D
:102BC000F1F0C7B200242AE004EB4405D6F89000E7
:102BD000691C415CB94220D1415DFF2917D04046B4
:102BE00067F753F118B10022232143F702F096F85A
:102BF0009420501EA0420ADDD6F89000E91C121B5A
:102C00000144521E284402EB420251F73CF596F86B
:102C10009400401E86F8940001E0641CE4B296F82B
:102C20009400A042D0D8BDE8F08170B50C460500F4
:102C300006D07AF71DF70C34A04201D3012070BDF5
:102C400028467AF737F706A14FF6F77009F73AF1F9
:102C5000002070BDE0152100D8C02000689320003E
:102C60006C326361705F6C696E6B5F63686B5F7021
:102C70006B745F73746172743A2064726F70706900
:102C80006E6720686369207061636B657400000083
:102C90002DE9F84F054690F87C6090F88E004FF0D3
:102CA000000A022801D185F87CA005F14800002423
:102CB000DFF8A4814FF00409DFF8A0B1009033E001
:102CC000D5F8880000EB84010868A0B1EA6A904258
:102CD00029D0C4EBC407D8F8702009EB87073A4421
:102CE000126802B3C1F800A065F742F7D8F8700087
:102CF0003844076810E0211D01208840304202D18D
:102D000056EA04000FD1C4EBC402D8F8701009EBE6
:102D100082000844076837B195F88E30B5F88C20EA
:102D200000210098B847641CDBF8000090F86B00A5
:102D3000C01CA042C4DCBDE8F88F10B590F88E101E
:102D4000022909D144490622803148307BF7BCF082
:102D5000002801D14049C86710BD414B10B502465B
:102D600093F8AE30A1F14000834210DD3A4BC0EB46
:102D7000401404EB80105B6903EB8000036833B1FF
:102D800012B10369934202D1828A8A4200D00020A4
:102D900010BD2DE9F0410B46042115468046022A5C
:102DA00004D0032D04D0012D04D004E0082102E05A
:102DB0000C2100E006210B2265F7B4F7020049D090
:102DC0000020958202F11603022D0BD00124032D61
:102DD00011D0012D36D01C804046BDE8F0410021C5
:102DE00033F79BB323F8020B98F88E10022900D01A
:102DF00088201860F0E723F8020B00211860586063
:102E0000022018700420DFF850C0144F0FE0C1EB0F
:102E1000C106DCF8705000EB860635442D682DB1F4
:102E20001D780E1D04FA06F635431D70491C3D68D9
:102E300095F86B50ED1C8D42E9DC187800F08E009F
:102E40001870C9E723F8020B06480068008910389B
:102E50001880C1E7BDE8F08168932000345F20004E
:102E6000D8C02000385F20002DE9F0470025064635
:102E70008946A8467BF71DF70746F4694AF2050024
:102E800007E06168814202D1E2684A4506D02546E2
:102E90002468002CF5D1B8F1000F14D02068BDB122
:102EA0002860306AA04200D135624FF0FF3106F150
:102EB00024007BF7EBF638467BF7FFF62046BDE8AB
:102EC000F047FFF607B13846BDE8F0477BF7F5B6A7
:102ED000F061E6E710B504467CF7B7F594F82100F9
:102EE000002806D021461248FFF7BEFF002084F8D4
:102EF000210010BD10B5040001D0606A18B90D4959
:102F000010207CF7CAF17BF7D4F6002284F8212048
:102F10007BF7D3F608498C4202D008498C4201D194
:102F2000206900E0606B616ABDE81040084700005E
:102F30007CC020000402008100F6200030F6200052
:102F4000F0B4DFF84CC000220225DCF8803018E035
:102F500013F81210B0F86860B14210D11146641E27
:102F600008E005EB410703EB41061F44491C3F887D
:102F7000378089B28C42F4DCACF8864001E0521C08
:102F800092B2BCF886409442E2D8F0BC1EF796B3E9
:102F90000C94200070B5000A64F795F004460420F4
:102FA0002EF7DCF4054684B1022104F10D0065F72B
:102FB000E3F450B1D0F8880000EB85000068D0F849
:102FC000D800002800D08F2070BD872070BD70B55C
:102FD0000C46401EC0B2022101EB002615463046C9
:102FE000FFF7D8FF002806D12A4621463046BDE823
:102FF00070404CF7A4B670BD70B5054637F786F63D
:103000000446284624F759F7002C0ED000280CD08F
:10301000D0F80D10C4F88A10B0F81100A4F88E0092
:1030200014F8990F40F00200207070BD70B50500D3
:103030000C4604D1A06810B12068FFF7DDFF2146DF
:1030400028467FF7B9F706461DB9A06808B123F7EF
:10305000DFF6304670BD03490860AFF22F004CF731
:103060004BB700009C6120002DE9F0410D4616464B
:103070001F460846CBF735F7040015D0CCF756F2BB
:103080002968C0F81110A988A0F81510817909B92C
:10309000A17981718680078002210172BDE8F0412B
:1030A00000220421CBF701B73046BDE8F0412EF7EE
:1030B000D2B10B4808218176032101770A2141779B
:1030C000142181774FF4FA61018442F6E061418472
:1030D00000218184AFF26F0140F8241C704700008A
:1030E000086020002DE9FC410546D0F878010C4627
:1030F00020B12846BDE8FC41CDF75DB7A668A878A9
:10310000B17888422AD10120C5F878016079CDF7DD
:10311000ECF4C5F86C01207B85F8850105F1E4002D
:103120006C223146074651F7AEF2D5F86C01002209
:103130000E21CDF7E9F4A76028464DF78DF501463D
:103140001020CDE90040D5F86C2102B1521DE86E87
:10315000042323F785F6A660BDE8FC8129202070B2
:10316000002060706079CDF7C0F4217902B022466A
:10317000BDE8F041CEF77CB72DE9FC410546B0F83B
:1031800076000C4680070BD5192020700020607057
:1031900002B02846BDE8F0410A460F214DF7D6B4EB
:1031A000A16805F1E4000E466C22074651F76BF268
:1031B000A76028464DF750F501460C20CDE90040A8
:1031C000E86E0C23002223F74BF6A660C4E73EB559
:1031D000054637F79BF504000DD1002100910191C0
:1031E00002AA694628467FF71DF6012803D16846E2
:1031F00037F7BBF6044620463EBD000010B5044636
:103200000838017907487AF70FF4E10708D1002858
:1032100005D00169044A914202D190F8220010BD04
:10322000002010BD28842000EFBEADDE2DE9F04166
:1032300038480025384ED0F8784612E004F10E00E8
:103240000121074668F772F620B90221384668F76F
:103250006DF618B141F6A570BDE8F0816D1C04F55E
:103260008A743068007AA842E8DC2A4800252F4694
:10327000D0F878460FE0B4F86E00000608D5A4F840
:103280006E7084F89970682104F19A007CF78CF6CE
:103290006D1C04F58A743068007AA842EBDCBDE846
:1032A000F04128F7D8B032F761B170B504460D4649
:1032B000164646F744F210B141F6A97070BD324689
:1032C0002946204624F744F318B1A0F5F851A43953
:1032D000F4D1104991F8D22381F8D02370BD53F76F
:1032E00037B410B50C0006D040B1022168F7E2F502
:1032F00060B15D3003E041F6A87010BD074828B109
:103300000168216040686060002010BD41F6AA702D
:1033100010BDE6E738852000345F20005688200085
:1033200010B50F4CD4F8940000280FD1FEF769FABD
:1033300004F14404A18840F74BF40B490948886024
:103340000A494FF0FF3008600220207010BD084984
:1033500001200870AFF237000649C86070470000CE
:1033600020E220003909210008E32000BC152100DB
:1033700000622000089A20000178FF2903D0082964
:1033800001D80F4A11704178FF2903D0042901D8D0
:103390000C4A11708178FF2903D0142901D80A4AF8
:1033A0001170C178FF2903D0142901D8074A118070
:1033B0000079FF2803D0102801D80549087070470C
:1033C00092142000E21B2000846D20001475200060
:1033D0009014200070B50446234800788001D0F78F
:1033E000FCF30720FFF4C6FE204D10B1296801B19F
:1033F000884700F0C8FE6968002907D0042C01D96D
:10340000012000E00020BDE87040084770BD10B505
:103410002921A0B1826892B1154A136843F48073E0
:103420001360124BC2685A60027812B1012A03D0AD
:1034300005E0D0F750F401E0D0F70FF4014608465C
:1034400010BD10B503F78CF2352010BD10B580F714
:10345000C3F008B1002010BD00F02CFE08B101201F
:1034600010BD022010BD000038622000E4152100CC
:103470004881330070B50E46144904461248097B52
:10348000012916D04FF44E120021C2F8A010016895
:1034900021F0020101600020E0F720F705463146E7
:1034A0002046E1F75DF004462846E0F717F720B222
:1034B00070BD002070BD0548006870470348406833
:1034C00070470248806870474480330014652000CC
:1034D0002DE9F04104468068884616461F4640079D
:1034E0000BD500212346104A0846CFF7B5F60F4901
:1034F00018207BF7C9F6CFF720F794B1B8F1000F89
:103500000FD004F1300538462F7002F795F70246C8
:1035100033464146204679F77EF66E600020BDE8CE
:10352000F0812920FBE7000048535100040300818B
:1035300070B50546012000F01AFA52F746F57BF700
:10354000B8F30446284609F710F3054620467BF7F2
:10355000B4F352F73CF5002000F009FA284670BD9C
:103560002DE9F04105460C00164602D0B4F5FA7F6D
:1035700002D90020BDE8F081012000F0F8F952F7EF
:1035800024F57BF796F30746FF233246214628466B
:1035900009F7E3F1044638467BF78FF352F717F546
:1035A000002000F0E4F92046E4E7F0B501464FF4CE
:1035B000A80202EB41240120002147026318625C4B
:1035C0005D789E78ED43DB78EDB2954205D1B2424D
:1035D00003D1DB43DBB2934200D00020091DB94286
:1035E000ECD3F0BD70B59CB041F764F001280CD16C
:1035F000FFF7DBFF2B4D4FF4007460B122462946E4
:1036000029487AF761F400284AD01CB00020BDE8B0
:10361000704041F71DB00320FFF7C7FF01283FD1DD
:1036200040F719F5012834D140F700F5012830D1D1
:10363000264622461D4C2946206851F724F029468B
:103640001B4D3246286851F71EF000200121CDE9BC
:1036500004010A9020680890164803907CF72CF229
:103660004FF47A71B0FBF1F02168134CC1F84801B6
:103670002068401C2060684647F7B9F52868099023
:103680002068401C2060684647F7BAF5002040F7E4
:10369000DFF740F709F51CB0BDE8704040F704B50E
:1036A0001CB070BD0006540000025400A858200051
:1036B000B05820000100008080632000FEF63AB27E
:1036C00008B593480090FF2269464FF4BC7009F793
:1036D000F4F3D0F714F108BD10B5044614F73CF329
:1036E000204614F752F38B4C55202070204614F7D7
:1036F0008FF3002811D02078C82802D16078642880
:1037000003D0BDE8104014F7CFB38349EC20087014
:103710008248017841F00101017010BD8048C06904
:10372000A0F5A00070477F49086070474FF4A27071
:10373000704770B504460025AEF713F76D1C44F8CA
:10374000040B042DF8DB70BD2DE9F0410D46012678
:1037500014464FF4A27102F11807022D05D0012D75
:1037600006D000263046BDE8F08104F1280001E0D3
:1037700004F12C00804620467CF716F4256038467C
:103780003C46FFF7D6FF802221464046D8F721F578
:10379000E8E738B502464FF4A2746B4621464FF471
:1037A000485086F7F8F6BDF8001019B9A04201D1CB
:1037B000012038BD002038BDF8B504465A480078CD
:1037C00008B907F7BCF66B4622464FF4A2714FF4D6
:1037D000485086F7EEF6C5B2BDF80000E8B9236898
:1037E0004FF48C7104F11806012B05D0022B05D083
:1037F0002820ADF8000010E02C3400E028342046EA
:103800007CF7D2F3802231462046D8F7E2F4BDF8A7
:10381000000010B90DB10120F8BD0020F8BD08B5B9
:1038200069464FF4485086F7D1F6BDF8000008B15C
:10383000002008BD012008BD2DE9F84F9046DDE9C4
:103840000A521E46914652F8083B0024012B02D032
:10385000022B33D040E099F8284009F12C0A174692
:1038600088B925E02CB93B461A4601215046D8F7C5
:1038700006F6385D16F8011B484005F8010B38556F
:10388000641C04F00F04B8F10108EBD213E02CB96A
:103890003B461A4601215046D8F7F1F516F8010BC0
:1038A000395D414005F8011B3855641C04F00F04D4
:1038B000B8F10108EBD289F828400CE0002313602E
:1038C00051609360D16009F128003346414600956C
:1038D000D6F797F100B901242046BDE8F88F48607B
:1038E00070474068704710B5012000F040F852F76B
:1038F0006CF30E490120087010BD0C4910B5002072
:10390000087052F764F3BDE81040002000F02FB8B3
:10391000FEE7FEE7F20B2000B4582000CC58200050
:103920002C0520004C582000786320007C052000E6
:1039300010B517481EF79CF0164800210160416041
:1039400010BD10B597F7C6F612490120486010481F
:103950001EF797F0002010BD10B597F7DCF60D4963
:10396000002048600A481EF78CF0002010BD10B5FA
:1039700001284FF0000108D0AFF223009AF7ACF411
:10398000BDE8104002481EF723B1AFF24900F5E749
:1039900074722100EC1521002DE9F04104467648AF
:1039A0000F46154601781E4619B90121017000F035
:1039B00009FA4EB1042C0DD1384600F024F948B173
:1039C00041F6AE70BDE8F0810A2C03D115B9384636
:1039D00000F0FEF90020F5E700280DD167480068E7
:1039E000400609D44FF44810C16F21F00201C167AD
:1039F000C16F41F00401C1677047AFF22300604915
:103A0000086470474FF44810C16F21F00201C1678C
:103A1000C16F41F00401C16770475A49002808602E
:103A200000D1EFE7704770B557484FF0FF34650895
:103A3000006820B18047411C01D0002170BD2046A4
:103A4000294670BD4C4948607047504800680028BE
:103A500002D04F4901200870704700B587B01C2183
:103A600068467BF730F14B480590002003903C20DE
:103A7000ADF810004848019048480290002269467D
:103A800007202DF72EF707B000BD10B5FFF7E5FFB3
:103A9000BDE810403BF753B338B50C4640490860C9
:103AA000114620467EF706F608F7EAF13D4AAFF2E6
:103AB00025013D4879F700F635490120087002F7E5
:103AC00019F568B1FD20ADF8000094F875008DF887
:103AD000020000236A4603214FF6264020F796F5A0
:103AE000002038BD2DE9FC41064602F703F5D0BBA6
:103AF000CEB33078052836D1B6F8037000243846A6
:103B000029F7AAF06946384625F724F0DFF89C80AB
:103B100024E0274804EB840101EB8411D0F87806F7
:103B20007E2202EB810108440088B84214D121486A
:103B30007AF789F10EE02968062268467AF7C4F11F
:103B400028B929461B487AF750F179F7B3F7284688
:103B50007AF77DF10500EED1641CE4B2D8F80000DC
:103B6000007AA042D5D81448016809B13046884788
:103B70000320BDE8FC8100005C1721002004360012
:103B8000089A20006C1721004C6220003E5E200045
:103B9000876D200011950300D59603002B97030035
:103BA0006462200055F1030089222100345F200067
:103BB00038852000389D20005062200030B5A3B029
:103BC00004460D46882168467BF77DF0206800900A
:103BD000A088ADF8040022486946D0F8DC251320FF
:103BE0009047040008D0822128467CF7DDF1FF20B1
:103BF000287023B0204630BD82220DF106012846F0
:103C000050F741F5F5E710B5A2B037F77FF00400A3
:103C100009D0694604F10E00FFF7D0FF01009DF8BE
:103C2000000018D103E041F6AA7022B010BDFF28B1
:103C300011D0052801D008280DD194F85D00032883
:103C40000BD8074991F87913032906D8054A02EBE6
:103C50008000085C08B10020E7E741F6AE70E4E7B9
:103C6000388520008B53510070B50E46A2B0054632
:103C7000144669463046FFF7A1FF01004FF00000EF
:103C80008DF884002078A278E37830D19DF8761002
:103C900004292CD1052818D295F87112052914D2BF
:103CA000120707D595F87522120703D500EB80009F
:103CB0005F4A03E05E4A00EB800019321044085C62
:103CC00018B19DF87700984211D93068C5F81D00E9
:103CD000B088A5F821000A208DF8840021AA1721B8
:103CE000284642F769F29DF8840022B070BD00209A
:103CF000FBE72DE9F0410E468046898806F1080071
:103D00004C4C0D1892B015F8017B84F8F472708851
:103D100084F8F502781E0E280AD2204635F7B7F748
:103D200030B1012F11D0022F0FD00C2F21D037E04E
:103D30000A208DF80000D8F80010C4F81D10B8F85B
:103D40000400A4F821006A4635E094F8230030B955
:103D5000012F04D140463AF7C3F084F84B002A46BD
:103D600041462046FFF780FF002828D132490870DD
:103D700016E0B4F84C00C00512D5402168467AF729
:103D8000A2F70023684615F8011BC1545B1C202BC9
:103D9000F9DB0146202204F59A707AF795F030B1EC
:103DA00012B031464046BDE8F04135F7D5B30B209F
:103DB0008DF8400010AA1721204642F7FDF112B0FD
:103DC000BDE8F081AFF2D5001C49096F0864704767
:103DD0007CB5184C05460146062204F11D007AF711
:103DE00073F038B904F27124287A2071A879207010
:103DF000E879A07010480078002818D010484FF0DB
:103E000000060660284636F781F704000FD00096BA
:103E10000622694604F1820001967AF755F00028DF
:103E200005D12868C4F88200A888A4F886007CBD63
:103E30009B5351000C9620005D17210068932000D1
:103E40005462200005490A46126810B142F08060B1
:103E500001E022F08060086070470000240F20001D
:103E600002490148086670479D3F5000089A2000AB
:103E70002DE9F04714461F4606460D4600F737F277
:103E8000002868D0724805EB061200EB820061043E
:103E900001680AD541F0080101603A4629463046DA
:103EA00000F738F224F4804402E021F008010160B8
:103EB00055EA06004FF44E1706D1D7F8000224F455
:103EC000807400F48070044305EB06104FF44E122A
:103ED00002EB80002107804643F6F01911D5012E30
:103EE00001D10A2D12D024F00801A0F80012D7F851
:103EF000D802800605D40120A84081B2304600F7E0
:103F0000D9F14CF20F61012E0BD00CE0B7F868121A
:103F10004CF2076001EA090120400843A7F8680253
:103F2000E5E70A2D19D0A8F80042012E13D10A2D79
:103F300005D00B2D03D00C2D01D00D2D0BD160041D
:103F400009D5200507D444F400600A2D0FD007EBF3
:103F50008501A1F84002BDE8F087B7F8682204EABD
:103F6000010002EA09021043A7F86802E7E7B7F880
:103F70006822084002EA09021043A7F86802EAE74B
:103F8000334A40F28C4142F820104FF44E1202EBBB
:103F900080004FF4C061C0F80012704770B506464B
:103FA00000200C4615461070272E00D970BD3046F3
:103FB000A7F778F4010002D03046A7F73BF40120C0
:103FC0005B2C3AD00BDC582C37D003DC64B3572C75
:103FD00022D132E0592C30D05A2C1DD12DE04FF493
:103FE0004811812C1BD004DC5C2C26D0802C13D1F2
:103FF0000CE0822C05D0832C0ED13046FFF7C0FF99
:104000000BE0D1F8182222F4005203E0D1F8182274
:1040100022F40042C1F818222870012070BDD1F8A6
:10402000182222F48042F5E721463046A7F741F4F2
:104030000749042041F82600EFE7573CE1B230463B
:1040400000F02AF9E9E7C9B2C0B2A7F7F3B300005C
:104050000084330038B5DBB2049C0094E0F7DBF059
:1040600038BD13484FF459110088C2B24A60C0F3FA
:104070004702CA60020A8A60400A0861704710B5A8
:10408000E0F776F00A49F020088010BD0849B0F545
:10409000005F088002D341F6FF720A800A2801D22D
:1040A0000A200880DDE702480088C0B2704700009F
:1040B0006417210002F7B2B402F7B4B202F7B8B243
:1040C00002F794B22DE9F84F041EDDE90DB8DDF8D2
:1040D00030900D4616461F4602D04FF0010001E019
:1040E0004FF0000082460BD1204801218160026818
:1040F00022F003020260026842F0020202604160A4
:1041000002F7FFF11A4814B1012C09D013E0057031
:10411000A0F80160C0F80370504686F7BDF20AE0CF
:1041200014490D7014490E80C0F80770504686F788
:10413000B3F286F7A9F5012D0BD1B9F1000F12D01A
:10414000002308F00F014FEA18104FF48C4200F7DB
:10415000F9F0CDF800B0DDE90A124B46504686F77B
:10416000EEF2BDE8F88F0123EBE70000B400320067
:10417000A4652000946520009665200033490860FE
:1041800033490860704770B52020A7F77FF30546D4
:104190002120A7F77BF30446282D01D1282C2BD012
:1041A000BBF74EF5CFF711F4CFF719F4282D07D050
:1041B00020212846A7F73EF320212846A7F779F3C8
:1041C000282C07D021212046A7F734F321212046AF
:1041D000A7F76FF31F48006808B1BBF777F51E48D3
:1041E000002102680846BBF7EAF418480068002876
:1041F00002D0BDE87040C1E770BD70B50C461749EC
:10420000150003D1884201D9002070BD024600216B
:104210000846BBF7D4F41249D1F81C0200F0FE00A6
:10422000284344B1012C02D0022C0AD107E0C0B2CD
:1042300040F0060005E000F0F900801C01E000F00D
:10424000F900C1F81C02012070BD000068172100B0
:104250002C223500B8642000C4642000689D290029
:104260000020350038B5049C24B100240094BDF72B
:10427000CDF338BD0124F9E7BDF79BB3BDF73CB4DE
:10428000BDF748B4014601208840BDF755B301464B
:1042900001208840BDF70EB30F4A02EB8000026890
:1042A00022F47F620260026840F2173303EB0111CF
:1042B0000A430260704710B564290BD8B0FBF2F0D6
:1042C0004FF6FF72141A48436421B0FBF1F01C60F2
:1042D000101A586010BD000000843300034901200B
:1042E0000860704701480068704700006C172100A3
:1042F00010B500F10904B0F8090000210DF74FF2E4
:1043000040F6B8307BF7CAF1D4F803004FF47A7165
:10431000B0FBF1F00022BDE81040282102F720B3E5
:10432000002008602648042B3CD0082B40D03F2BAF
:1043300040D1B2F5EC7F1CD0A2F58073C93B03D10C
:10434000836B0B60C36B4B60102A16D0B2F5EE7F07
:1043500017D0162A19D0262A1BD0A2F58073D93B74
:1043600003D1836A0B60C36A4B60B2F5ED7F15D051
:1043700020E0026C0A60406C0EE0826C0A60C06C47
:104380000AE002690A60406906E082690A60C06961
:1043900002E0026A0A60406A48600BE0026B0A6051
:1043A000406BF9E7022A05D102680A604068F3E72A
:1043B000262A01D00868704782680A60C068EBE767
:1043C000701721000121517105215170007B9071FE
:1043D000704710B590F90D101446007B07F034F8C3
:1043E000A0710020607110BD2DE9FC41144600252C
:1043F0000646ADF8045000F10902C07A0F460728BE
:1044000001D0172810D1507A70B901A900914FF44A
:1044100040700623D21C002100F06EF938B122460C
:10442000394630469BF7CBF26571BDE8FC8111201F
:104430006071FAE72DE9F041AA4D00F10907002665
:10444000B5F86400B7F803101446884202D15671DB
:10445000BDE8F081002071F7E5F208B10C200DE015
:10446000B7F80300B0FA80F1C1F1200290FAA0F190
:10447000B1FA81F1491C072902D212206071E7E7E5
:10448000A5F8640085F84B2185F84A116671DFE7CD
:104490002DE9F04100F1090517468089052170F7E3
:1044A000CFF70646B5F8030078F705F1804695F991
:1044B0000540AEF7BEF303468B4800218EB9B8F134
:1044C000000F0ED1B5F80310FD2905D0FE2905D047
:1044D000FF2905D0022013E0032102E0012100E0C2
:1044E0000221804AD27C120701D5112008E090F900
:1044F0000020A24203DB90F90E20A24202DD302010
:104500007871A5E7794D2A7842B16A78AF7800EBE7
:1045100042021770EF785770002204E001222A70DF
:10452000FAE7521CD2B200EB420797F90070A7429B
:1045300001DB9A42F5D30AB1521ED2B200EB42001F
:104540006A7090F90030AB7090F801C085F803C034
:10455000032914D0C578E71AA5EB0C057D4390F923
:1045600002700470FB1A95FBF3F3634443708EB141
:1045700086F8A0203068BDE8F041AEF733B35C4C5C
:104580001846A376AEF731F55A49096860F30F2152
:1045900061825DE74046BDE8F04178F723B310B58E
:1045A00001004FF0000007D0012904D109210220A9
:1045B0007BF7AAF3C0B210BD0821F8E710B50024BC
:1045C000801E082821D2DFE800F004060B0D0F1131
:1045D0001315022000E003207BF7BBF2C4B214E005
:1045E0000420F9E70520F7E70620F5E70720F3E7C1
:1045F0000820F1E709207BF7C6F24FF448114FF489
:10460000E040086009207BF7BEF2204610BD10B5DF
:104610004FF4481420680220FFF7D0FF00280ED086
:10462000206845F6FF7108402060206840F4006073
:1046300020600020FFF7B3FF002800D0012010BD4C
:1046400070B500F10904407B0026154609280BD0FF
:10465000FFF7DDFFA0B12079FFF7B0FF80B1E07870
:10466000FFF79DFF50B90BE00120FFF798FF0028EE
:1046700005D02079FFF7A2FF002800D06E7170BD31
:104680001220687170BD70B54FF44816144630683A
:104690003168C0F30330C1F3031508B10B2001E00A
:1046A0007BF7BBF3A0713068B0F5E04F07D0072D62
:1046B00015D2DFE805F012100E0C0A0806000920DA
:1046C0000CE002200AE0032008E0042006E00520B8
:1046D00004E0062002E0072000E00820E07100204E
:1046E000607170BD401020006C0B2000C0172100CD
:1046F000E0142000048331002DE9F04F102585B02F
:104700000024064691469B46A0460DF10C0A01ABDB
:1047100002AA00212846CDF800A043F710F507466D
:10472000029810B90199FE2969D0019943F781F4E3
:10473000B0B10199F0B2884267D10298B0EB162F60
:1047400063D103994FF00108594513D93149182015
:104750007AF79AF54FF400311220FDF6C2F031E0FD
:104760002D4918207AF790F54FF480311220FDF68C
:10477000B8F0CCE7042304AA0021284843F7A8F2A4
:10478000002004AAC300115C99402143401C0C4640
:104790000428F7D304F00300C0F1040008441030EB
:1047A0008246002106F77FF604000BD002464FF444
:1047B000A00653460021304643F78AF2E819014625
:1047C000821D0BE0002005B0BDE8F08F635CFF2B7D
:1047D00017D10D1A19F805306354491C8A42F5D8CF
:1047E0004FF40071304643F788F750B153462246E4
:1047F0000021304643F783F3204606F783F3404613
:10480000E1E7204606F77EF3DCE70399E81945184F
:104810007DE7000004050081040400810C005000C5
:1048200050490860704710B540B1FFF7F9FF4D4897
:1048300010210068BDE810407BF7B6B34A48F4E7A2
:104840004848006870474748006808B100887047CA
:104850004FF0FF30704743490968002900D00880B5
:10486000704740480068002800D0001D704710B510
:1048700006223C4B0021521E1C680C44491C247922
:1048800084540629F7D310BD3648006808B1C078B3
:1048900070474FF0FF30704732490968002900D057
:1048A000C87070472F48006808B1408970474FF0C2
:1048B000FF3070472B490968002900D048817047B4
:1048C0002848006808B1808970474FF0FF30704772
:1048D00024490968002900D0888170472148006870
:1048E00008B1C08970474FF0FF3070471D49096813
:1048F000002900D0C88170471A480068002802D0FB
:10490000807800F00100704716480068002803D046
:10491000817841F0010181707047124800680028D9
:1049200003D0817821F00101817070470D48006843
:1049300018B1807800F0020070474FF0FF307047E8
:1049400008480068002803D0817841F00201817096
:10495000704704480068002803D0817821F00201E4
:1049600081707047C41721009C722100002801D17A
:104970000149087070470000D5F7200038B5324C67
:10498000206880B30021684635F79CF32068D0F892
:1049900002007EF7D1F32068417811B1012913D0CC
:1049A00022E0D0F811206AB1D0F8151051B19DF86D
:1049B0000000104435F7BBF32449086098B124483F
:1049C0007EF7ECF3002038BD22490320096881F806
:1049D000BC0021494FF480700880204901204872B2
:1049E0008FF7ABF6EEE7FFE7282038BD38B5044671
:1049F0001B480D46007880B1F4B10021684635F7B8
:104A000061F39DF80000211A042048810E48CD81F1
:104A1000026872B1107848B10BE01248C36B1BB149
:104A20000A46214600209847282038BD50780128A2
:104A300004D0204635F716F4292038BD0A4800680E
:104A400000F0C0F8002038BDBC612000C461200027
:104A50007D310800345820004D5E20003E5E20006D
:104A6000A4612000089A2000241C21002DE9F047B1
:104A70005C4EDFF874A1DFF8748104460D46002710
:104A80004FF00409F06094F8AD0105286BD005DC07
:104A9000C8B101284FD0042806D13FE0112844D0E6
:104AA000142836D0152851D04FF480711120FCF60F
:104AB00018F74F4918207AF7F9F394F8AD01C006BA
:104AC000E1D5BDE8F0877068006830B14949102031
:104AD0007AF7E3F37068006828B97168B8F1000FDD
:104AE000C1F8008006D0706801681031016084F858
:104AF000AD91E2E70C20FDF623F20146022048606A
:104B000004F1C000886030688068FDF629F3142045
:104B10000EE0A807D1D584F8AD71CEE7B068076084
:104B200004F58C7010F765F4C7E7E804C5D50120DB
:104B300084F8AD01C1E7B068326801685268114479
:104B4000016004F58C7010F719F4B6E7E804B4D5E9
:104B500029487AF77AF7052084F8AD013068B16802
:104B600080680860A9E7B068006818B92349102078
:104B70007AF793F37068006818B9214910207AF722
:104B80008CF3706800681038C4F8B001A0F80A907F
:104B9000B1680968C181D4F8B0214AF206015160B8
:104BA00084F8AD71DAF80010D1F81D2012B1C18976
:104BB000103090477168C1F80080D4F8B00107F751
:104BC00093F17AE7102280F8AE21C0F8B4114AF2CE
:104BD00007024A600A7A00F58C7042F020020A72DD
:104BE0000AF776B1181C2100BC612000FA7421007C
:104BF000040900810406008138F0200004070081C8
:104C00000408008170B5554E0024307810B17AF751
:104C10007DF504465248007838B952485249006838
:104C200008605248524900680860BCF7A1F7514D2E
:104C300040B1286830B1C07B10B177F75DF008B1A2
:104C4000686820B195F83900032813D015E028686A
:104C50000168896901B18847286886F76EF128687C
:104C600075F71BF358B12868BCF7C1F7BCF7D2F74A
:104C700038B904E077F774F168B173F701F072F7AF
:104C8000B3F6307828B17AF741F5011B012046F7D9
:104C90000EF3012070BD73F7F4F172F7F1F7012004
:104CA00073F786F0EBE770B52C4E0024307810B126
:104CB0007AF72CF504462A48007838B92E482A4954
:104CC000006808602D482A4900680860BCF750F762
:104CD000284D48B1286838B1C07B012802D077F749
:104CE0000BF008B1686820B195F83900032813D09B
:104CF00015E028680168C96901B18847286886F706
:104D00004EF1286875F7C9F258B12868BCF76FF7FB
:104D1000BCF780F738B904E077F722F168B172F791
:104D200075F772F761F6307828B17AF7EFF4011B66
:104D3000022046F7BCF2012070BD73F7A2F172F7B2
:104D400065F7012073F734F0EBE7AFF247110C4839
:104D50000160AFF2AD018160704700006D1E200060
:104D600078742000C8F7200050014100D0F72000DF
:104D7000E0044100100E2000C4F72000CCF7200012
:104D80005C80200010B50446042811D371F7E3F6C7
:104D90000DF55EFA052C01D01BF757F71BF729F725
:104DA0001BF7A7F721F774F0BDE8104071F7C9B4FD
:104DB00010BD0000044903484860054903480860E5
:104DC0007047000061312100E85D2000543221006D
:104DD0009456200030B500F10904002589B0B0F8E0
:104DE000090029460CF721F5E01CFDF7D6F830B193
:104DF00008236A46E11C0848B6F73AF105E0FF22AD
:104E00002021684696F711F31225694628469FF738
:104E10001BF309B030BD0000ACE1200070B5BB4B06
:104E2000BB4CBC4D9847BC4BD3E9000120F07F4000
:104E3000A047BA4BD3E9000120F07F40A047B84B10
:104E4000D3E9000120F07F40A047B64BD3E9000131
:104E500020F07F40A047B44BD3E9000120F07F4011
:104E6000A047B24BD3E9000120F07F40A047B04BF0
:104E70009847B04BD3E9000120F07F40A047AE4BEC
:104E8000D3E9000120F07F40A047AC4BD3E90001FB
:104E900020F07F40A047AA4BD3E9000120F07F40DB
:104EA000A047A84B9847A84BD3E9000120F07F40CA
:104EB000A047A64B9847A64BD3E9000120F07F40BE
:104EC000A047A44BD3E9000120F07F40A047A24BAC
:104ED000D3E9000120F07F40A047A04BD3E90001B7
:104EE00020F07F40A0479E4BD3E9000120F07F4097
:104EF000A0479C4BD3E9000120F07F40A0479A4B8C
:104F0000D3E9000120F07F40A047984BD3E900018E
:104F100020F07F40A047964BD3E9000120F07F406E
:104F2000A047944BD3E9000120F07F40A047924B6B
:104F3000D3E9000120F07F40A047904BD3E9000166
:104F400020F07F40A0478E4BD3E9000120F07F4046
:104F5000A0478C4BD3E9000120F07F40A0478A4B4B
:104F6000D3E9000120F07F40A047884BD3E900013E
:104F700020F07F40A047864BD3E9000120F07F401E
:104F8000A047844BD3E9000120F07F40A047824B2B
:104F9000D3E9000120F07F40A047804B9847804B29
:104FA0009847804BD3E9000120F07F40A0477E4B1B
:104FB000D3E9000120F07F40A0477C4BD3E90001FA
:104FC00020F07F40A0477A4BD3E9000120F07F40DA
:104FD000A047784BD3E9000120F07F40A047764BF3
:104FE000D3E9000120F07F40A047744BD3E90001D2
:104FF00020F07F40A047724BD3E9000120F07F40B2
:10500000A047704BD3E9000120F07F40A0476E4BD2
:10501000D3E9000120F07F40A8476C4BD3E90001A1
:1050200020F07F40A0476A4BD3E9000120F07F4089
:10503000A047684BD3E9000120F07F40A047664BB2
:10504000D3E9000120F07F40A047644BD3E9000181
:1050500020F07F40A047624BD3E9000120F07F4061
:10506000A047604BD3E9000120F07F40A0475E4B92
:10507000D3E9000120F07F40A0475C4BD3E9000159
:1050800020F07F40A0475A4BD3E9000120F07F4039
:10509000A047584BD3E9000120F07F40A047564B72
:1050A000D3E9000120F07F40A047544BD3E9000131
:1050B00020F07F40A047524BD3E9000120F07F4011
:1050C000A047504BD3E9000120F07F40A0474E4B52
:1050D000D3E9000120F07F40A0474C4BD3E9000109
:1050E00020F07F40A0474A4BD3E9000120F07F40E9
:1050F000A047484B9847484BD3E9000120F07F4038
:10510000A047464BD3E900018AE000BF0D3E5100A5
:10511000D1CF0000F9CF00009C1E2100A41E210069
:10512000B41E2100AC1E2100BC1E2100C41E2100A3
:10513000713E5100CC1E2100D41E2100DC1E210036
:10514000E41E2100213D51002C1C2100293D51006D
:10515000341C21003C1C2100441C21004C1C21005B
:10516000541C21005C1C2100641C21006C1C2100CB
:10517000741C21007C1C2100841C21008C1C21003B
:10518000941C21009C1C2100A41C2100AC1C2100AB
:10519000B41C2100BC1C2100C41C2100593D51003D
:1051A0007D3D5100CC1C2100D41C2100DC1C2100C1
:1051B000E41C2100F41C2100EC1C2100041D210032
:1051C000FC1C21000C1D2100141D2100241D2100A8
:1051D0002C1D2100341D21001C1D21003C1D21001F
:1051E000441D21004C1D21005C1D2100541D210087
:1051F000641D21006C1D2100741D21007C1D2100F7
:10520000841D21009C1D21008C1D2100941D210066
:10521000A41D2100953D5100B41D2100AC1D2100AD
:1052200020F07F40A047594BD3E9000120F07F4098
:10523000A047574BD3E9000120F07F40A047554BD2
:10524000D3E9000120F07F40A047534BD3E9000190
:1052500020F07F40A047514BD3E9000120F07F4070
:10526000A0474F4BD3E9000120F07F40A0474D4BB2
:10527000D3E9000120F07F40A0474B4BD3E9000168
:1052800020F07F40A047494BD3E9000120F07F4048
:10529000A047474BD3E9000120F07F40A047454B92
:1052A000D3E9000120F07F40A047434BD3E9000140
:1052B00020F07F40A047414BD3E9000120F07F4020
:1052C000A0473F4BD3E9000120F07F40A0473D4B72
:1052D000D3E9000120F07F40A0473B4BD3E9000118
:1052E00020F07F40A047394BD3E9000120F07F40F8
:1052F000A047374BD3E9000120F07F40A047354B52
:10530000D3E9000120F07F40A047334BD3E90001EF
:1053100020F07F40A047314BD3E9000120F07F40CF
:10532000A0472F4B98472F4B98472F4BD3E90001AD
:1053300020F07F40A0472D4BD3E9000120F07F40B3
:10534000A0472B4BD3E9000120F07F40A847294B11
:105350009847294BD3E9000120F07F40A047274B15
:10536000D3E9000120F07F40A047254BD3E900019D
:1053700020F07F40A047234BD3E9000120F07F407D
:10538000A047BDE87040204B184700BFBC1D21005E
:10539000CC1D2100C41D2100D41D2100E41D2100CD
:1053A000DC1D2100EC1D2100FC1D2100F41D21004D
:1053B000041E21000C1E2100141E2100241E2100A9
:1053C0001C1E21002C1E2100341E21003C1E210029
:1053D000441E21004C1E2100541E21005C1E210091
:1053E000A93D5100BD3D5100641E21006C1E2100ED
:1053F000741E2100D93D51007C1E2100841E210015
:105400008C1E2100941E2100F53D510070470000C4
:10541000F8B5234B234C244E244F9847002533687E
:10542000AB4204F102041BD8214C224E224F00252E
:105430003368AB4204F10C0419D8204C204E1E4FA7
:1054400000253368AB4204F1100418D81D4C1E4EE1
:10545000194F00253368AB4204F10C0417D8F8BD8E
:1054600014F8011C14F8020CB8470135D7E754F8BA
:105470000C3C54E902121878B8470135D8E754F8C3
:10548000103C54E903121878B8470135D9E754F8AD
:105490000C3C54E902121878B8470135DAE700BF2E
:1054A000DD340800543F5100503F51007134080072
:1054B000383F5100343F510071320800243F510001
:1054C000203F5100203F51001C3F5100F0B587B0F4
:1054D000144605460E461F4618220B4B002168460F
:1054E000984724B10223ADF80030ADF80440BDF870
:1054F0003030ADF816306A46044BADF814703146C2
:105500002846984707B0F0BD416D0000D5290D0031
:1055100030B589B004460D46064B1C22002101A877
:105520009847054BADF8065001AA0221204698473E
:1055300009B030BD416D0000E3290D0010B50446EF
:1055400008B9002010BD094B24220146084898479D
:10555000084B62681B69934202D0E2689342F0D123
:10556000034B0022DA639A640120EBE7316D0000FF
:105570007C3221002C0520000B4B1A690B4B59681B
:105580008A4202D0D9688A420CD199685A62480886
:1055900002EB5102C3E90A200022C3E90C229A63FC
:1055A00001207047002070472C0520007C3221002C
:1055B000034B186BB0FA80F040094002704700BFFF
:1055C0007C32210038B50E4B02469847A8B10D49F0
:1055D0008B6C9BB14C6C944210D3096C521AB2FB89
:1055E000F0F202F00704D2080120995C00FA04F4FA
:1055F0000C42E5B202D12943995438BD0020FCE7A2
:10560000B15550007C3221002DE9F0471F4C276B2B
:10561000054689461646002F35D1E36BDFF870A0AA
:10562000DFF870801BB31C4B984768B1D047A06A65
:1056300025F4FF73A0F5A00023F001034FF40071DF
:105640001844164B9847C047A06AA0F5A00005442F
:10565000D047134B324649462846984718B9A36BA2
:105660003344A3633746C0473846BDE8F087C0F3EC
:105670000803002BE8D1D047A06AA0F5A0004FF4A2
:1056800000712844DDE70027EEE700BF7C322100EF
:10569000E7385000FB385000C55550006F3A0D00F8
:1056A0005D3A0D0038B5074B1D6B144635B99B6A42
:1056B000A3F5A0031844044B984700B100242046EA
:1056C00038BD00BF7C3221004B3A0D0070B5134B42
:1056D0004FF4007098470446F8B1114E114B756AAB
:1056E000A5F5A00501464FF400722846984704220C
:1056F00006F138010C4B204698470C4B98470C4B51
:105700004FF40071284698470A4B4FF40072214627
:1057100028469847084B9847012070BD610D050049
:105720007C3221004B3A0D00316D0000E73850000B
:105730006F3A0D005D3A0D00FB385000034B1B6BB8
:105740000BB9034B18470020704700BF7C32210083
:10575000CD56500010B5034B9847BDE81040024BA2
:10576000184700BF3D575000C136500008B5064BE2
:1057700001465B6A054804221844054B9847B0FA75
:1057800080F0400908BD00BF7C3221000800B0FF56
:105790004B3A0D002DE9F04F574D85B006462020BD
:1057A0009B46CDE90012A84704462020A84707469B
:1057B0002020A84780462020A847009B03F1400AEC
:1057C00005464E4B59465046984720B101994C4BDF
:1057D0003046984739E0009BDFF828912033029348
:1057E00006F1400303935A46474B514620469847DB
:1057F0005B46224651463846C84701995B462246D9
:105800002046C84701995B463A4620313846C8478A
:10581000009ADFF8F8C05B4621462046E0475B4629
:1058200039463846029ADFF8E4C0E047334B594620
:1058300020469847D0B1314B59463846984788B1F1
:105840000199334B5A46304698472046314CA04781
:105850003846A0474046A0472846234605B0BDE845
:10586000F04F184703982C4B5946B2E75B46224647
:10587000514606F14000C847DFF88CA05A46214641
:105880002846D0475B46224629464046C847009AEC
:105890005B4629462846C847204B5A46294620469B
:1058A00098475A4639463046D047DFF860C05B46D5
:1058B000E246224631463046E0475B4642463146A4
:1058C0003046D446E047D4465B4632462946284611
:1058D000E0475B463A4629462846C847029A5B4657
:1058E00041464046C8475B464246294606F12000ED
:1058F000D446E047A9E700BF610D05002F7E0600F2
:10590000DF6E0B00ED7E0600FF7E0600237F0600A3
:10591000E56E0B00650D0500BD7D0600C97E060025
:105920002DE9F0471E460746914688461946134B17
:10593000984707EB860C09EB860E0023B34201D192
:10594000BDE8F08707EB83004946002451F8045B6B
:1059500058F8232005FB02FAA2FB052502681AEB82
:10596000040445F10005121945F100048E4540F884
:10597000042BEBD14CF8044B0133DFE7BD7D06006F
:10598000F0B5074600205B0004469C4200D1F0BD04
:1059900051F8245052F824602D182CBF012000200B
:1059A000761947F8246028BF40F001000134ECE785
:1059B0002DE9F047254D0446402088461646A84765
:1059C00007464020A8470546002F3CD000283AD083
:1059D0004146DFF87C90DFF87CA020222046C847B3
:1059E00033461D4A21462846D047202229462046D4
:1059F000C8471A4A334621462846D04741462A46D8
:105A0000DFF85C8033463846C04720228046B9180C
:105A10002046C847B8F1000F0DD0214620460F4A56
:105A2000104C3346A047104C3846A0472846234622
:105A3000BDE8F047184709490C4B324620469847C5
:105A40000028EADCEFE7BDE8F08700BF610D050044
:105A5000316D000021595000640A2100840A2100A0
:105A600081595000AF7E0600650D0500FB7D0600E4
:105A70002DE9F74F5F4C009020200F4690469A4644
:105A8000A04706462420A04705462420A0470446F8
:105A9000002E00F0AC80002D00F0A980002800F05E
:105AA000A6805246DFF85091DFF850B141463046AB
:105AB000C84751462846D84751462046D847012274
:105AC000CDF80490DFF838912A604E4B51463846A5
:105AD000984700286DD1DFF830B10AE052463946C8
:105AE0003846C8472A68D10729D45246294628464D
:105AF000C8473A68D207F1D5DFF80CB1326812F026
:105B0000010F314652462AD0404BDFF804B13846E7
:105B10009847002853463CDB324639463846D8473A
:105B20005346224629462846D8470028CDD053461A
:105B3000424629462846DFF8D0B0D847C5E7534645
:105B4000424629462846D8475246286229462846D2
:105B5000C847D5E9072142EAC172EA61C9E7304680
:105B6000C8472268D30704D4524621462046C84776
:105B7000C4E75346424621462046D8475246206253
:105B800021462046C847D4E9072142EAC172E261B2
:105B9000B4E73A4631463046D84753462A4621466E
:105BA0002046D847002890D05346424621462046FA
:105BB000C1E7164F524641462046B847002810DB41
:105BC0000098134F534642462146B8473046114E7F
:105BD000B0472846B0472046334603B0BDE8F04FF3
:105BE0001847DDE90003524621469847EEE703B027
:105BF000BDE8F08F610D0500D77D0600BD7D060074
:105C0000DB7E06002F7E0600957E0600FB7D0600EB
:105C1000AF7E0600650D050070B590B01D460446C8
:105C2000044E6846B047044B2A46694620469847CA
:105C300010B070BD21595000B15950002DE9F04FFE
:105C400095B0954B03920D4640220021824604A850
:105C50009847924B4022294604A8984728B94FF00C
:105C6000000A504615B0BDE8F08FDFF834B260206E
:105C7000D84707466020D84701902020D847009099
:105C80002020D84706462020D84702902020D84719
:105C900081462020D84780462020D847044620202F
:105CA000D847834697B1019B6BB1009B5BB156B15E
:105CB000029B43B1B9F1000F05D0B8F1000F02D03B
:105CC0000CB100282CD1774B38469847019B13B173
:105CD0001846744B9847009B13B11846714B984770
:105CE00016B1704B30469847029B13B118466D4B66
:105CF0009847B9F1000F02D06A4B48469847B8F16F
:105D0000000F02D0674B4046984714B1654B2046C0
:105D10009847BBF1000FA2D0624B584698479EE7C8
:105D2000009B03F12002029B06F1200103F1200CED
:105D30009AF801009AF80030000440EA03609AF8EB
:105D4000033003439AF8020043EA002342F8043D7B
:105D500068782B78000440EA0360EB780343A87866
:105D600043EA002341F8043D95F8210095F82030DE
:105D7000000440EA036095F82330034395F82200BD
:105D800043EA00234CF8043D009B93420AF1040AC5
:105D900005F10405CCD1444A0299DFF810A1444D25
:105DA00008232046D047434A082321465846A8479F
:105DB000404A009908232046A84708235A4621460E
:105DC0004846A8473B4A082331462046A8475A463A
:105DD000082321464046A847374B082120469847CC
:105DE000012323602246082349464846A847082342
:105DF000224641464046A847039B13B32F4D3049E6
:105E000008234A463846A847039901980823424682
:105E1000A847019A2B4D082339463846A84707F171
:105E200040052946284A08232046D0472846274BC4
:105E30000822214698472A460823254D39463846E8
:105E4000A8472149234B082230469847002805DB04
:105E50001D4A214D082331463046A8470F4B114DAE
:105E60002022394630469847B0FA80FA3846A8478B
:105E70000198A8470098A8473046A8470298A84725
:105E80004846A8474046A8472046A84758464FEAF4
:105E90005A1AA847E5E600BF416D0000C9DE0700B9
:105EA000610D0500650D0500840A2100715A50003E
:105EB000195C5000A40A2100BD7D060059720B0038
:105EC000ACD82000955750006CD82000FF7E06000B
:105ED000ED7E0600FB7D0600AF7E060070B50D4C22
:105EE000A08998B10C4B0D4D98470D4B04F12C0037
:105EF00098470C49012304F12C000022A84704F123
:105F00002C00094BBDE8704001211847BDE87040E6
:105F1000064B1847D03221001B2A0D0051640000A7
:105F2000D9640000DD5E50007B64000055575000CE
:105F3000174A128873B512F001060B4614D0154AA1
:105F4000156845B1012300914FF6027201461846CB
:105F5000A84702B070BD104C01224FF60271A44652
:105F600002B0BDE87040604792070ED5094A156837
:105F700035B10091012301464FF602723046E7E742
:105F8000064C01224FF60271E9E78520E1E700BFE8
:105F9000C83221004435210093290D0081290D00CC
:105FA000F0B5394C85B000238DF80E30D4F864324A
:105FB000A58923BB08BB354B984700BB052323604D
:105FC00003238DF80E300DF10E01314B2846984712
:105FD000304B1B680BB102209847D4F86432002B79
:105FE0003AD0D4F86832002B36D001228DF80F2039
:105FF0000DF10F01032098472EE0274BDCE7274ED9
:106000000323236033889A0718D43388DB0723D50A
:106010001F4B0DF10E0128469847E8B91D4B1B6830
:106020000BB103209847D4F86432FBB100238DF8FC
:106030000F30D4F86832002BDAD10DE0184B1F680E
:106040000DF10E035FB100934FF602720123294652
:106050000020B8470028D8D1012005B0F0BD114F6D
:1060600001224FF602712846B847F3E70E4B0F485E
:106070000F4C98470F490D4801232A46A0470E4B65
:106080000A4801219847E7E7D032210071655000A6
:10609000315F50004035210039665000C832210080
:1060A0004435210081290D00D9640000FC32210013
:1060B00051640000DD5E50007B6400000A884FF6EA
:1060C00003739A4210B519D14A88012A18D88B68EF
:1060D0001B88012B16D90C48CC680388012A05D1EE
:1060E0001B0A23708B681A80002010BD2370038860
:1060F000CA681B0A53708B680222F4E70120F4E798
:106100000720F2E70D20F0E7C83221004FF60273B6
:10611000994237B5044627D1154D2868032810D178
:10612000144B1B6803B19847D5F864325BB1D5F8BE
:10613000683243B100248DF807400DF107010320B8
:106140009847002011E00C4B204698470B4B0C4819
:106150000C4C98470C490A4801230022A0470B4BDE
:10616000074801219847ECE7012003B030BD00BF8C
:10617000D0322100403521001B2A0D00D9640000D7
:10618000FC32210051640000DD5E50007B640000A1
:106190002DE9FF410D78674C0023012D0646884606
:1061A0008DF80E3021D1C822271D009206221146FB
:1061B000DFF884813846C047604B47F8045C0DF136
:1061C0000E01304698475E4B1B680BB12846984736
:1061D000D4F864320BB9012548E0D4F86832002BBA
:1061E000F9D0002101209847F5E7072D1BD10523A1
:1061F00023600DF10E01514B9847514B1B680BB1B9
:1062000002209847D4F864320BB900252EE0D4F868
:106210006832002BF9D001228DF80F200DF10F010B
:1062200003209847F1E72768012F0CD0022F41D0B7
:10623000002FD0D002238DF80E300DF10E013F4B10
:1062400030469847E1E7022DF4D1042ADDDDD4F889
:1062500064323A4F73B93B4B9847054650B9042313
:106260000DF10E0130468DF80E30B847284604B0C7
:10627000BDE8F0814FF0FF326262334A02231268B8
:1062800023600023C4E9063323826AB998F8022008
:1062900098F8013003EB022398F8032003EB024344
:1062A00098F8042003EB02630DF10E0130466361A0
:1062B000B84790E7032DBDD1042AA6DD6269E369E2
:1062C0009A421ED0052323600DF10E011B4B8DF861
:1062D0000E5098471A4B1B680BB138469847D4F8B4
:1062E0006432002B3FF477AFD4F86832002B3FF4D0
:1062F00072AF01258DF80F500DF10F010320984763
:10630000B4E7114B114A196889B998F8020098F856
:10631000013003EB002398F8030003EB004398F8E7
:10632000040003EB006323620948904753E701210F
:10633000FAE700BFD0322100E12C0D00315F5000A0
:1063400040352100795550003C352100E36D0200B5
:10635000A15F50002DE9FF47404C2368022B0D46FA
:1063600016460BD13E4B1B68002B30D0636923BB14
:106370003C493D4B08222846984708B1002023E0BD
:106380003A4B684698470028F8D0BDF800302A8973
:106390009A4201D0002BF1D1AA7A9DF802309A429C
:1063A000ECD36A7B2B7B03EB0223AA7B03EB024338
:1063B000EA7B03EB026350336361DFF8B4802D4F57
:1063C000DFF8B4904EB9012004B0BDE8F087606AF0
:1063D0002A4B92B298476062EFE7A069626983191D
:1063E000B3F5007FE369ACBFC0F5007AB246034461
:1063F00053449342C2DC6430524629462044C0478D
:10640000A3695344B3F5007FA36104D0E2696169D5
:106410001A448A4218D1D4F86422E069C2B1D4F88F
:106420006822AAB1CDE90103039701A90220904790
:10643000D4E9062313440022A2616269E361934216
:1064400002BF636ADB436362A6EB0A065544B9E701
:10645000DA1C22F003023946C847E9E7D0322100AE
:106460003C352100623F5100C9DE07006D575000E6
:10647000316D0000343321000956500011F2030041
:1064800008B50B884FF6037293420ED04FF6057293
:10649000934215D04FF60272934219D14A890F4B9D
:1064A000C9689847B0B1002008BD4B89022B13D1B1
:1064B000CB685A781B7803EB0223094A1380F2E772
:1064C0004A89084BC96898470028ECD18120EBE73E
:1064D0000120E9E78520E7E70D20E5E7916150001D
:1064E000C832210055635000074B00225A60826871
:1064F0003AB1C2881A820168062203F10800034BF0
:1065000018471A82704700BFCC322100316D00005D
:1065100070B58AB04FF4A0031546124A01934FF4A8
:106520008053CDE90623CDE908230F4C05931A4487
:10653000029202F577320E46C4F8700204920B4BB9
:106540004FF477324FF4802101A80392984738B175
:1065500000230120C4E99D65C4E9000384F82C30C0
:106560000AB070BD00045000CC3221003D555000EF
:106570002DE9F043164ED6F87432ADF5017D0BB11E
:1065800004209847DFF84C90DFF84C804FF0FF3440
:106590000020B569854208D8706AE443031B58425D
:1065A00058410DF5017DBDE8F08300F50077AF425D
:1065B0002CBF2D1A4FF40075EA1C22F00302694625
:1065C000C8472046AAB26946C04704463846E0E7B5
:1065D000CC322100A556500011F20300F0B5154E43
:1065E0009BB005460C460CB91BB0F0BD64220021DF
:1065F00001A8B0472F4601A900224FF0200C17F840
:10660000015B81F802C005F00F0328099F2D94BF9C
:10661000303037300132092B94BF30333733944256
:1066200008704B703D4603D0202A01F10301E6D1EA
:10663000A41AD8E7416D00002DE9F047284D294BF9
:10664000D5F81880284FDFF8A490ADF5966D442258
:10665000002168469847264B11A89847254B0021F2
:1066600011A89847A8F140060020B04223D3224B3E
:10667000224E2CA911A898472CA82021B047D5F864
:1066800070026021B047AC69403C24F0030004F084
:106690000304442269466C44B84720464021B04771
:1066A000D5F87022164B21462CA89847C0B20DF59C
:1066B000966DBDE8F08700F5806AB24526BF08F503
:1066C0007074A4EB0A044FF48064E21C22F003020D
:1066D0002CA9B84722462CA911A8C8475046C4E7A0
:1066E000CC322100416D0000A55650007D6E500057
:1066F0000567500011675000016F5000DD655000C4
:106700003D5C5000014B6C2200211847416D000098
:10671000234A2DE9F041B1F1000818BF9646214AFD
:106720002149224F224E234D234C18BF944602F19B
:10673000794208BF8E4602F57402204902F50162D3
:1067400008BF8C461E4918BF11461E4A18BF17467F
:106750001D4A18BF164602F1D14202F5C01202F5D9
:106760001E6218BF1546194A034618BF144618483A
:10677000C3F86880A2F11162A2F50C22A2F28E2267
:1067800018BF02460020C3E90000C3E902ECC3E9D8
:106790000417C3E90665C3E90842BDE8F08100BFFC
:1067A000D89E05C107D57C3667E6096A3AF54FA53C
:1067B0007F520E518C68059BABD9831F85AE67BB9A
:1067C00072F36E3C39590EF7310BC0FFA78FF96495
:1067D000A44FFABE2DE9F04FD1B0031D059308ABCD
:1067E000019300F124030693019A059B53F8040FCB
:1067F00042F8040B06989842F8D10DF1400901F1D6
:1068000040004A464B780C781B0443EA0463CC787A
:1068100023438C78043143EA0423884242F8043B42
:10682000F0D1019B019A01999948D3F81CC0D3F883
:1068300010809268C9680290D3E9056BD3E90073B0
:10684000CA468646DEF80000DAF800404FEAF8252E
:1068500085EAB81520448BEA060485EA786504EADF
:10686000080484EA0B0428442044604447EA0304F3
:106870004FEA773C07EA03058CEAB70C14402C4337
:106880008CEAB75CA44401448444DAF80440DEF89E
:106890000400204488EA06040C4074405844204414
:1068A0004FEAF12484EAB11484EA716420444FEA87
:1068B0007C354CEA07040CEA070B85EABC051C4052
:1068C00044EA0B0485EABC55254405440244DAF841
:1068D0000840DEF80800204481EA0804144084EAF5
:1068E0000804304420444FEAF22484EAB21484EAD3
:1068F000726420444CEA05064FEA75340CEA050B35
:1069000084EAB5043E4046EA0B0684EAB5543444B2
:1069100004440344DAF80C60DEF80C0006444644F4
:1069200081EA020808EA03084FEAF32088EA01082E
:1069300080EAB31080EA73604644064407EB060819
:106940004FEA743045EA040705EA040B80EAB40014
:1069500007EA0C0747EA0B0780EAB4503844304492
:10696000DAF81070DEF810603E440E4482EA03014B
:1069700001EA080151400E444FEAF82181EAB811BA
:1069800081EA78610E4444EA00074FEA703104EA74
:10699000000B81EAB0012F4047EA0B0781EAB051B2
:1069A00039443144B444DAF81470DEF814603E44DB
:1069B000164483EA080202EA0C025A4016444FEADF
:1069C000FC2282EABC1282EA7C62164405EB060BCA
:1069D0004FEA713240EA010500EA0107254082EAE8
:1069E000B1023D4382EAB1522A443244DEF81850E3
:1069F000DAF8186035441D4488EA0C0303EA0B03F7
:106A000083EA08031D444FEAFB2383EABB1383EAAE
:106A10007B631D4466194FEA723341EA0204044065
:106A200001EA020783EAB2033C4383EAB2532344F8
:106A30002B44DEF81C40DAF81C502C448CEA0B0581
:106A40003540444485EA0C052C444FEAF62585EA96
:106A5000B61585EA76652C4400EB040842EA030586
:106A60004FEA733002EA030780EAB3000D403D436A
:106A700080EAB3502844071906480EF1200E7045ED
:106A80000AF1200A7FF4DEAE09F1C000079003E0AE
:106A90006C3F5100AC3F5100D9F83800D9F8045090
:106AA000D9F800404FEAF04E8EEA704E8EEA902EF2
:106AB000D9F8240020444FEAB54484EAF51484EA66
:106AC000D5047044204404908BEA06044FEAF82071
:106AD00080EAB81004EA080480EA786084EA0B04CB
:106AE00004440298006C04440498C9F8400004442B
:106AF000644401EB040A4FEA773047EA030107EAEE
:106B0000030C80EAB700114041EA0C0180EAB7505B
:106B10000844D9F83C104FEAF14C8CEA714C2044FF
:106B20008CEA912CD9F80840D9F828100D444FEA86
:106B3000B44181EAF41181EAD40165440D4402991B
:106B4000C9F84450496C88EA060C0CEA0A0C59440E
:106B500029448CEA060C8C444FEAFA2181EABA11E6
:106B600081EA7A61614402EB010B47EA000C4FEACB
:106B7000703207EA000E82EAB0020CEA030C4CEA1B
:106B80000E0C82EAB05262440A440499D9F80CC04F
:106B90004FEAF14E8EEA714E8EEA912ED9F82C1002
:106BA0000C444FEABC4181EAFC1181EADC01A644B5
:106BB0008E440299C9F848E0896C88EA0A0404EA1C
:106BC0000B043144714484EA08040C444FEAFB216D
:106BD00081EABB1181EA7B6121440B44039340EAC3
:106BE00002044FEA723300EA020683EAB2033C4031
:106BF000344383EAB25323440B44D9F81060D9F8E4
:106C000030104FEAF54484EA754484EA95240CEB8D
:106C100001054FEAB64181EAF61181EAD601254421
:106C20000D440399DDF80CC0C9F84C508AEA0B04F6
:106C30000C400299C96C4144294484EA0A040C447A
:106C400003994FEAF12181EABC1181EA7C61214478
:106C500007EB01084FEA733442EA030702EA030C28
:106C600084EAB304074047EA0C0784EAB3543C447F
:106C70000C44D9F81470D9F834104FEAFE4C8CEA61
:106C80007E4C0E444FEAB7418CEA9E2C81EAF71104
:106C900081EAD70166440E440399C9F850608BEA33
:106CA000010C0299096D0CEA080C31444FEAF82EE8
:106CB0008CEA0B0C51448EEAB81E61448EEA786E61
:106CC0008E4400EB0E0C4FEA743143EA040003EAF1
:106CD000040A81EAB401104040EA0A0081EAB45192
:106CE00001444FEAF54080EA754080EA9520D9F8E2
:106CF00038507144D9F818E03D4405444FEABE408D
:106D000080EAFE1080EADE0005440398C9F854507A
:106D100080EA080707EA0C0747400298406D2844BC
:106D2000584407444FEAFC2080EABC1080EA7C60AB
:106D3000384402EB000B44EA01074FEA713204EADF
:106D4000010A1F4082EAB10247EA0A0782EAB15209
:106D50003A4402444FEAF64080EA764080EA9620C0
:106D6000D9F83C60D9F81C70DDF80CA076440644D4
:106D70004FEAB74080EAF71080EAD700064402984D
:106D8000C9F85860806D88EA0C0E30440EEA0B0E8C
:106D90004FEAFB268EEA080E504486EABB16704482
:106DA00086EA7B6630441E1841EA020E4FEA7233CF
:106DB0000EEA040E83EAB20301EA020A4EEA0A0E60
:106DC00083EAB253734403444FEAF54080EA7540C6
:106DD00080EA9520049DD9F820E03D4405444FEA1F
:106DE000BE4080EAFE1080EADE0005440298C9F841
:106DF0005C50C06D8CEA0B07284437404FEAF625FB
:106E000087EA0C07404485EAB615384485EA76657A
:106E1000284404EB000842EA03054FEA733402EA0F
:106E2000030784EAB3040D403D4384EAB3542C4481
:106E30002718029820300290079809F12009484548
:106E40007FF42AAECDF83CC00B91CDF838B00A9251
:106E50000D960993CDF830800897019B059953F85A
:106E6000042B019351F8043F059113440B60069BDA
:106E70008B42F2D1002051B0BDE8F08F2DE9F843EC
