:020000040000FA
:1000000030340010850200008D0200008F020000D5
:100010009102000093020000950200000000000021
:10002000000000000000000000000000A503000028
:1000300099020000000000001D04000059040000A7
:100040009F0200009F020000FB0A0000950B0000C9
:100050003B0B0000E5090000290A0000950A00009A
:100060009F020000150C0000853D01009F0200006A
:100070009F0200009F0200009F0200009F020000FC
:100080009F0200007D6000009B320000CF0A00004C
:10009000E50A00009F0200009F0200009F0200008E
:1000A000996800009F020000996C00009F02000008
:1000B0009F0200009F0200009F0200009F020000BC
:1000C0009F0200009F0200009F02000000F002F863
:1000D00000F080F80AA090E8000C82448344AAF162
:1000E0000107DA4501D100F075F8AFF2090EBAE860
:1000F0000F0013F0010F18BFFB1A43F0010318475C
:1001000040360200703602000A444FF0000C10F82E
:10011000013B13F0070408BF10F8014B1D1108BF85
:1001200010F8015B641E05D010F8016B641E01F825
:10013000016BF9D113F0080F1EBF10F8014BAD1C75
:100140000C1B09D16D1E58BF01F801CBFAD505E093
:1001500014F8016B01F8016B6D1EF9D59142D6D3ED
:1001600070470000103A24BF78C878C1FAD8520707
:1001700024BF30C830C144BF04680C607047000021
:100180000023002400250026103A28BF78C1FBD8A0
:10019000520728BF30C148BF0B6070471FB59DE8AC
:1001A000030015F08DFB15F027FE04000020002150
:1001B0001FF018FD401C606015F088FA1FBD10B5D7
:1001C00015F0FCFA10BD03B4FFF7F9FF03BC14F0FF
:1001D00070FD000006F0DCFE1146FFF7DFFF1DF0AA
:1001E0003FFE044800211DF031FF1DF04BFE00F0E2
:1001F0006EF80000A4030010FEE7FEE71A4810B5F1
:10020000007848B11FF09CF930B1184900EB40006C
:1002100001EB4010603810BD154810BD154A10B5EF
:1002200011680346082900D3FEE7134800EB0110CC
:10023000491C186011601EF0C7FC012010BD0A495E
:100240000978002905D000684FF6FF71DFF82CC04F
:1002500000DF704704490978002903D00068DFF8FF
:1002600020C000DF7047000075040010981A0010CD
:10027000D42A0010BC030010F81D0010B1EC0100DE
:10028000D9EB01000948804709480047FEE7FEE72F
:10029000FEE7FEE7FEE7FEE7FEE7FEE7FEE7FEE736
:1002A00004480549054A064B70470000996E000056
:1002B000CD000000302C0010303400103030001021
:1002C0003030001000487047D42A001070470446B0
:1002D000AFF300802046FFF776FF70477047704706
:1002E00010B5044606F07AFE0068005DC00602D52F
:1002F00004F1200010BD204610BD704721436587E2
:1003000040F2010CC1F2000C604740F2270CC1F230
:10031000000C604740F23F0CC1F2000C604740F215
:10032000271CC1F2000C604740F2730CC1F2000CB4
:10033000604740F2BF1CC1F2000C604780F309889F
:100340007047EFF309807047684680F309880448D6
:100350000078C00714BF0220032080F31488704780
:10036000FF6F0000DFF818C0EFF305831B0618BF0E
:100370006047EFF31483DB0708BF604700DF704777
:10038000C9E50100DFF818C0EFF305831B0618BFAD
:100390006047EFF31483DB0708BF604700DF704757
:1003A00061E80100EFF30980816911F8021CF1B9DD
:1003B00090E80F10E047EFF3098C8CE80700144B2E
:1003C00093E8060091420FD039B12CE9F00FC1F843
:1003D00028C00CB41EF036FE0CBC1A60D2F828C03F
:1003E000BCE8F00F8CF309886FF0020E704710B56F
:1003F000084A1268914209D8074C54F8214090E805
:100400000F10A047EFF3098C8CE80F0010BD00001F
:100410007C040010A4610100A46101001EF07CFCBA
:100420000C4B93E80600914210D0EFF3098C2CE9B5
:10043000F00FC1F828C00CB41EF004FE0CBC1A600A
:10044000D2F828C0BCE8F00F8CF309886FF0020ED8
:10045000704700007C0400101EF0BCFEE0E70000C6
:10046000FFF74BFF1EF0B6FEDAE700002DE9F05F64
:1004700000273C4606F0B4FCDFF810B4DBF880013E
:1004800010F00B0F01D01DF0EBFC1DF0FBFCDFF8B2
:1004900000A4DFF800944FF00108BAF80000FE4D08
:1004A0000026A0F52541023945D04AF20151884283
:1004B00041D0DBF880114BF2036241F3800C0CF168
:1004C000010C904201D1012100E000215CEA010C05
:1004D00016D085F8D1622E62904201D089F8008052
:1004E000EE4999F800C081F800C0DFF8B4C3642178
:1004F000CCF80010EB490E70EB490E70EB490E7012
:10050000904201D0AAF80060E948EA490670EA483A
:1005100081F800800670E9480670E9480670E948ED
:100520000670E9480670E94800EB07117F1CFFB22E
:100530000E70032FF8D300F047FD00F0E7FB00F04A
:1005400034FC05F0B4FD4FF4FA4000F0A9FBE0489C
:1005500003F00EFCDBF880015F4640F38001BAF83F
:100560000020491CA2F5364003380FD0002001437B
:1005700015D0FA201DF068FC02F0CDFE2043C4B275
:10058000002003F012FA012802D006E00120EEE775
:10059000D04803F04FFD641CE4B200F0F7FC02F019
:1005A00065FB00B34FF0FF314FF4027003F08BFF97
:1005B000641CE4B2B648DFF820B30088A0F52541FA
:1005C000023962D04AF2015188425ED095F820008B
:1005D000C00730D002F001FC00282CDA296A0A207A
:1005E00088430BD104E0286A40F001002862E1E76B
:1005F000480703D595F8E203022803D240F2092008
:1006000003F061FF95F82000800605D44FF0FF311C
:1006100040F20A2003F057FF95F82000400608D466
:1006200095F8E30328B14FF0FF314FF4037003F066
:100630004AFF641CE4B2D7F8800110F0090F0CD017
:100640004FF48471CBF85C1001F0E7F84FF4A4711B
:10065000CBF85C102021CBF85810A0480068A0B15E
:100660009F48A04A007812684100404202EB4000D7
:10067000401C02F017FFB5F8C202012102F012FF80
:10068000B5F8C802012102F00DFF02F015FCDFF8F9
:1006900058A28AF8000000F00BFB7D480088A0F506
:1006A000254102397ED04AF2015188427BD0D7F8E9
:1006B0008011490726D5A0F53641033922D09AF892
:1006C0000000C00602D589F8008001E089F80060CA
:1006D000724899F80010017095F8F30258B14FF480
:1006E000E1200DF0DFF895F8CC0601284FF000006E
:1006F00005D00DF003F91F2002F0E8FEC4E010F071
:1007000045F8F8E7D7F88001C0077CD0012002F057
:10071000DDFE764890F82410754801707248007824
:10072000C00602D5734981F8008032201DF08CFB91
:10073000DFF8C4A110218AF8001095F8F40210B176
:1007400018218AF8001095F8F20258B10CF04CFE0E
:1007500030B19AF8001041F080018AF8001001E0F1
:10076000641CE4B295F8F30298B301200DF062FB2B
:1007700000282FDD9AF8001041F040018AF800109F
:1007800095F8EC0310B3002012F0B2FA002818DD3F
:100790000320CBF81C00D7F88001C0070BD095F8D8
:1007A000ED0301E0CEE041E0544908705449C0EB4C
:1007B0000010800008809AF8001041F004018AF8C7
:1007C0000010002012F02CFA4E48067000200DF0A8
:1007D00095F801E0641CE4B24FF0000114B140F25E
:1007E000F51001E040F2F71000F0DCFE00214FF4BC
:1007F000FA6000F0D7FF3C4A1078C10612D495F891
:10080000D71279B900E03FE095F8E213022909D048
:10081000042907D099F80010204B21F0010189F834
:100820000010197080F0100010702DE0202002F0F0
:100830004DFE0822691C344800F028FE2D49404630
:1008400081F800809AF8001009060ED495F8F2029B
:10085000012807D04FF496200CF02AFB2B490620E4
:1008600008700CE04FF4E120F6E71149097831B146
:100870000E4908701449087002200DF03FF8B5F8D1
:10088000C802012102F00EFE032041E000C00F402B
:100890000CC0072007C0072028C00720D8E1072088
:1008A00018C00720D7E1072007E2072008C007206B
:1008B000F8E10720E0E107205DEF07207203001058
:1008C00064EF072065EF0720FCE107207CEF07209D
:1008D000793D0000B802020000C00920C8E10720ED
:1008E000D4E10720CCE10720D5E1072000400240F9
:1008F0005AEF072065030010D6E1072006E2072023
:1009000004E2072009C00720040002000AC00720F3
:10091000264908702648284906702648067081F83E
:100920000080264806702648067026481421067066
:10093000254806702548067025480670254806801B
:1009400025480170D7F88001400703D14FF4967015
:1009500002F0BCFDD7F88001D7F880110843C7F832
:1009600080011E48006810B1122000F013F8132017
:1009700000F010F81A484FF400210680CBF83C1024
:100980004900CBF8381000F01CFC0BF0C1F9002036
:10099000BDE8F09F00F01F02012191404009800056
:1009A00000F1E020C0F8001170470000FBE10720D3
:1009B000F9E10720FAE1072006C007205DEF0720D4
:1009C000720300105EEF07205FEF072060EF072043
:1009D00061EF072062EF0720C3EF0720C8E107207F
:1009E0000CC00720FE4908B5886800F00E000228F8
:1009F00004D0042803D0087D8DF8000008BDF94A12
:100A0000507948B10A78F8490878401CC0B208709B
:100A100001F65C210A5408BD09781078401CC0B268
:100A20001070F24A115408BDF14918B4886800F0FA
:100A30000E00022804D0042804D0087D8DF80000A0
:100A400018BC7047E84AE74BD07880060DD554783B
:100A50001078401C844217D009781078401CC0B22E
:100A6000107002F65C221154EAE75C781878401C9A
:100A7000844209D009781878401CC0B21870DB4B4A
:100A8000195406209071DBE70120987018BC0620ED
:100A900000F096BCD74908B5886800F00E0002281F
:100AA00010D0042801D0087D0EE0CE4A537A107A87
:100AB000401C834207D00978107A401CC0B21072E3
:100AC000CD4A115408BD08788DF8000008BDC6490C
:100AD00001208870C948D0F8401141F00201C0F8E7
:100AE00040117047BF490020C870C448D0F8401179
:100AF00041F00401C0F840117047C148816801F518
:100B00007A718161B8490A6912B10A69521E0A6193
:100B1000B44AD36813B1D3685B1ED36013695B1CFE
:100B20001361CA68521CCA6003E00168026811437D
:100B3000016001680029F8D17047B248806AC00698
:100B40000FD4B1480168C9060CD5A6498A69521C60
:100B50008A6103E0016841F0100101600168C90683
:100B6000F8D470470168890610D59F498A69521CDC
:100B70008A6103E0016841F0200101600168890693
:100B8000F8D47047016802681143016001680029C8
:100B9000F8D170479B4810B5816A924AC90617D5AB
:100BA000D3780021182B00D3D170984B5B6DDB04F8
:100BB0000CD5C16A964BD47843F82410046BD178D5
:100BC00003EB8103491CD1709C6609E0D17007E0FA
:100BD0005169491C516103E00168026811430160D9
:100BE00001680029F8D110BD854B10B59968894A74
:100BF00003E09C68641A0A2C0BD2D468E406F8D48B
:100C0000906003E09868401A142802D2D068C006A9
:100C1000F8D410BD70B5804D286810F4282F27D166
:100C2000FFF76EFB704E04241C36305DFFF7DCFFCF
:100C3000641E14F0FF04F8D16A49887904281DD095
:100C400004208871C979C0B20843FFF7CDFF6F480F
:100C500040228265416D4906FCD5C265674850F85F
:100C6000C41F21F480610160286820F428202860D6
:100C70006A48016802681143016070BD0820E0E71E
:100C800072B6AA21480701725521017262B67047F7
:100C900072B6AA21480701725521017262B67047E7
:100CA0004FF47A714843C906486003200870E7E7AB
:100CB00010B5142000F084FB132000F081FB1220FB
:100CC00000F07EFB4D4C0720C4F848010020C4F81A
:100CD0004C010621122004F5A07400F087FB0F21BF
:100CE000132000F083FB0C21142000F07FFB206810
:100CF000216808432060122000F06DFB132000F0F3
:100D00006AFBBDE81040142000F065BB70B53B489D
:100D100050F8C41F424A114301603948022444601C
:100D2000C46001254561816801F57A7181610168BE
:100D300002681143016045600D21204600F056FB1A
:100D4000022000F032FB2F4844602F494C60C46001
:100D5000CC60026803681A4302600A680B681A4391
:100D60000A600022826282628D6045604D602B487D
:100D70004461F921C16046F62001C1640E210320BF
:100D800000F034FB032000F010FB1021042000F0E1
:100D90002DFB042000F009FB1C21092000F026FB9C
:100DA000BDE87040092000F000BB144810B550F8B1
:100DB000C41F41F00801016009480021416007217A
:100DC00001728321017304210170032101738521C4
:100DD00080F82810012141601E21052022E000003A
:100DE00000C000403803001004C0072060C907207D
:100DF000000001400080094060CB072000C00F4088
:100E000000800040000009400040094000C0092067
:100E100028C807200000034000C0024000800140B5
:100E20004400C00000F0E2FABDE81040052000F0E8
:100E3000BCBA2DE9F041F84DF84E48F22A070324D8
:100E4000C8B156F8C41F41F010013160F4490022C6
:100E50004A6007220A7283220A73B0F5165F1ED019
:100E60008522B0F5E13F1ED0B0F5E12F1ED0B0F5E0
:100E7000962F1FD020E0062000F0A2FA2869B84380
:100E8000286156F8C40F20F010003060E548C178A2
:100E900021F00201C170E4488461BDE8F08168205E
:100EA0000870212004E00820087004E00C70C120C4
:100EB000886201E00C708A620C73087C40F0C0000C
:100EC0000874012048602869384328611D210620E4
:100ED00000F08CFABDE8F041062000F066BA2DE97A
:100EE000F041CD4FCD4D040012D04FF4E1384FF416
:100EF0001656B4F5E12F03D0444501D0B442CCD10D
:100F0000D5F8C400C00117D5072000F059FA18E041
:100F1000C449C87820F00400C870C449087007208C
:100F200000F04EFA386820F4A000386055F8C40F7D
:100F300020F080702860B0E755F8C40F40F0807052
:100F40002860386840F4A0003860B948002141604A
:100F500007210172832101730121B44201D13022A2
:100F600002E0444502D10422027000E00170032235
:100F70000273852280F8282041601F21072000F09D
:100F800035FABDE8F041072000F00FBAA548A649A0
:100F900024304FF4004290F8E3330BB18A6100E053
:100FA000CA6190F8E2034FF4803201280AD0022887
:100FB00008D0042806D0CA61032802D1964900054A
:100FC000C86570478A61F7E7934B30B44FF475609A
:100FD00018604FF4BE1058604FF0A8701861924826
:100FE000402181619349C1614FF0916181639249D0
:100FF000C1638A49D1F88021D20704D06022C2653A
:101000004FF4847203E04FF4A472C265202282651B
:101010004FF08054C0F89840D1F88011814A4907B8
:1010200008D511894AF20155A94218D0A1F52545E4
:10103000023D14D000215171804901608049016254
:101040004FF4B4710164C0F880404FF44C20186430
:101050004FF4201058647B48D86430BC96E751792F
:10106000127951EA020502D04FF00055856341B173
:101070006C49243191F8EC13032902D04FF400118C
:101080008161002AD8D084634FF480118161D3E755
:101090006D498A688B689B1A8342FBD3704710B5F1
:1010A0005E4CD4F8C41041F48051C4F8C41001223D
:1010B0006649824042EA010365490B600B6843F0D0
:1010C00080730B600B6B1342FCD001EB8000006956
:1010D0000022C0F30B100A6054F8C41F21F48051A1
:1010E000216010BD30B54C4C25692069400503D501
:1010F000206920F4806020614B494FF0C070C863C4
:101100000320FFF7CCFF2561800830BD2DE9F05F9B
:10111000DFF810A180460AF11C0A05249AF80000A5
:101120000025C0F38100032800D10125DFF82491B8
:10113000D9F8141021F00101C9F81410FFF7E0F8F4
:10114000394E4027F765DFF8D0B0DBF810004005D6
:101150000DD40220FFF748FDB765706D4006FCD541
:10116000F7650DB1FFF7D1F803201CF06DFE98F87C
:10117000000038B12B49D8F80020CA6198F8040063
:1011800081F8200055B1D9F8141041F00101C9F8D7
:1011900014100CE0285DFFF727FD00E05546641EA3
:1011A000E4B2F7D2B765706D4006FCD5F765DBF8A1
:1011B000101041F48061CBF81010BDE8F05FFFF72C
:1011C000A4B870B51448016921F480610161134825
:1011D000D0F8C400400604D51E48416921F0010141
:1011E0004161114C4025E565FFF78AF80220FFF7C1
:1011F000FBFCA565606D4006FCD5E565BDE870406B
:10120000FFF783B81449002009794A072DD40A074B
:1012100024D5012029E0000000C0024000C00F409A
:101220000000014004C0072000C00920D8E10720C9
:10123000008009400004340000001431438435006C
:1012400000009C35030808200080004000022000B8
:10125000004003400080014038030010CA0601D559
:10126000022002E0490600D50320684A104490F8A5
:10127000D21292F8CA0600EB8000401D48430A21B2
:10128000B0FBF1F0704730B5604D0B46243D30B9EE
:10129000FFF7B8FF696948436421B0FBF1F0C82447
:1012A00053B95A496B6991F8F02391F8CA16491C51
:1012B00059434A43B2FBF4F388B1C82800D3C7208E
:1012C0007BB1C82B00D3C723514AC0F1C701916439
:1012D00053621164C721C72805D3546404E0012078
:1012E000EEE70123F0E751649161792010654948E8
:1012F0000169490508D4C16911F4401F04D19169FD
:10130000491E916009215160C16941F44011C161D8
:1013100030BD414841688907FCD4017D8906F9D573
:1013200070473A4A10B5243A4AF2025010813748C1
:1013300090F8CE0220B13948016841F00401016003
:101340003748D0F8801021F00201C0F88010AA249C
:10135000C0F88C405523C0F88C30D0F88810890133
:10136000FBD4D0F8801021F00101C0F88010C0F843
:101370008C40C0F88C30D0F88810C901FBD4012112
:10138000C0F804110023C0F80C31C0F8C03020BFF1
:10139000FFF776FC138105F07FFD4FF4FA40FFF76D
:1013A0007FFCBDE8104005F01BBD00F01F020121CD
:1013B00091404009800000F1E020C0F80011704722
:1013C00000F01F02012191404009800000F1E0205F
:1013D000C0F88011704700F01F02012191404009C0
:1013E000800000F1E020C0F880127047C906090EA5
:1013F000002806DA00F00F0000F1E02080F8141D4C
:10140000704700F1E02080F80014704728C00720E2
:101410000080014000C0024000C0004010ED00E02C
:1014200000C00F40202803D37E2801D80120704738
:1014300000207047302803D3392801D80120704795
:1014400000207047A0F16101192901D82038C0B2ED
:10145000704700B50146002207E002EB820011F858
:10146000012B02F00F0202EB40020878FFF7E2FFC7
:101470000028F2D1104600BD02E001F8012B401C0B
:101480000278002AF9D100200870704704E0521E4B
:1014900001F8013BD2B2401C0378002BF7D10020A9
:1014A000521ED2B202D301F8010BF9E7704730B5F2
:1014B000FD4CFE4B05E01A8810F8015BA554521C48
:1014C0001A80491EF7D230BD10B5F74CF74B04E037
:1014D00019886254491C1980401C0278002AF7D1EF
:1014E00010BD10B50146002001E0401C80B211F88B
:1014F000012B002AF9D1ED4BEB4A040A1988545408
:10150000491C89B25054491C198010BD30B504469D
:1015100010460023E64A09E0E55C5B1C85EA1025DD
:101520009BB232F8155085EA002080B28B42F3D38B
:1015300030BD0022EAE7F0B50022DE4EA0F1010E38
:101540001CE006EB820C1546DCF8D0402946274605
:1015500009E006EB8103D3F8D030A34201D21C4648
:101560000D46491CC9B28142F3D306EB8501521CDA
:1015700051F8D03FCCF8D030D2B20F607245E0DBEA
:10158000F0BD30B503004FF0FF3409D0002005E076
:1015900031F810509D4204D0401CC0B29042F7D3A5
:1015A000204630BD2DE9FE4F0546C3A000240DC8DE
:1015B000C44F8DE80D000526DFF80C83A1463C7072
:1015C000B5F5C87F09D2880701D508203870C8074B
:1015D00063D0387840F004004DE0BC49086940050C
:1015E00045D598F80000430741D50B698A4623F496
:1015F00080630B614FF0E0234915C3F88011C0F3FD
:101600008101DFF8CCB2032906D040F0800088F8D1
:101610000000FEF775FE07E080218BF8001019E04E
:1016200018F80600FFF7E0FA761EF6B2F8D2A948DD
:1016300040228265416D4906FCD5C265A64850F836
:10164000C41F21F480610160DAF8001021F4282120
:10165000CAF8001032201CF0F7FBA048416921F0C5
:1016600001014161092001F0ECFA8BF80090B5F519
:10167000FA7F02D2302038700FE0B5F5FC7F2AD215
:10168000B5F5FB7F01D2202000E040203870E8074C
:1016900002D04FF07C6400E0914C3B7888F8003039
:1016A000B5F5FA7F43D200216E460A22B5FBF2F06F
:1016B00002FB1050B5FBF2F5375CC1EBC10C07FA29
:1016C0000CF73C4313F00C0F1BD038B1012811D09C
:1016D00007281BD10EE088F8009028E039B1E80710
:1016E00002D1A81E02280FD244F000540EE044F0AC
:1016F00080540BE011B144F4C01407E044F4C0245A
:1017000004E0012902D108B924F47E54491CC9B26D
:101710000229CBD3E80701D044F40314022D06D3E9
:10172000042D02D244F4803401E044F07074C8F80F
:101730000140BDE8FE8F10B5FFF7D4FC00FB00F1BF
:1017400001FB00F240F2EB53B2FBF3F2891A6FF4A3
:10175000037200FB0210634908444FF47A71B0FB36
:10176000F1F0614982080868A2EB90021044086019
:101770005E4991F8E313002913D0C0EB0010C82193
:10178000B0FBF1F010F0FF0000D10120010341EAAD
:10179000002040F018020221BDE810408A2001F02C
:1017A00082BA10BD2DE9F0410446FF2902D0084657
:1017B000FFF769FD4E48FFF7A9FC002C23DB4D4ED7
:1017C00030784D4D28704D4F0AE0FFF759FA01204F
:1017D0001CF03AFB14B1641E02D105E0387818B948
:1017E000287831788842F0D028783178884207D03C
:1017F0002878401CC0B228704149085CBDE8F081DF
:101800004FF0FF30FAE70020F8E710B5FFF7CAFF06
:101810000446FFF7D6FC204610BD2DE9F047334FB4
:1018200000264FF4FA7897F8D602022801D24FF436
:101830007A7801254FF0FF392946BC20FFF7B2FE28
:1018400097F8D602A8421BD30124E1B24046FFF725
:10185000A9FF6400802CF8D9012D4FF0C80122D0D7
:101860004046FFF79FFFFFF7ACFC01210846FFF75A
:101870000AFD40461CF0E8FA6D1CEDB2032DDBD3E7
:1018800097F8CD0201213044C830FFF78BFE97F85E
:10189000D2024006010E4846FFF784FFBDE8F0473C
:1018A000012003F04BBC2DE060CC0720C4E10720F1
:1018B0003003020028C807203F065B4F666D7D0796
:1018C0007F6F00003C03001020C0072000C00240D2
:1018D0003F03001000C0092000C00F4000800140FD
:1018E0000000C0F3400D030018C0072028C00720E7
:1018F000FE6F0000380300103903001006C00720F7
:1019000060C907204846FFF74DFF002003F0C8FCE0
:101910006421B0FBF1F640461CF096FAA3E770B5DF
:10192000FE4AFF4D0021127895F8F54205EB0213AF
:1019300010E003EB410292F82164864208D892F845
:101940002224824204D905EB4100B0F8D20370BDD5
:10195000491CC9B28C42ECD8002070BD2DE9F0477B
:10196000EF4F04003946B7F8E803B1F8E81320F068
:10197000010040F45055EB4821F007014FF0FF39CA
:101980004FF480224FF0020641F450515FD0C26301
:10199000DFF89483012C24D9032C07D1E34B424672
:1019A000E3A002F0C3FD002002F0BBFA40F2564073
:1019B000054306EB05220321422001F074F9032CB4
:1019C00027D0282002F025FA25F4405506EB052201
:1019D0000321422001F067F9032C24D0052002F0F6
:1019E00018FA4CF6F970054097F8E803032100F067
:1019F0000700284340F49A6506EB0522422001F0D7
:101A000052F978B3032C18D0CB48007802F001FAD1
:101A100025E0C64B42462946C5A002F087FD0020BE
:101A200002F07FFAD0E7C14B42462946C0A002F03F
:101A30007DFD002002F075FAD3E7BC4B42462946F3
:101A4000BBA002F073FD002002F06BFA07E0826396
:101A500006EB01220321422001F025F910B10120FB
:101A6000BDE8F087FFE74846FAE770B5AC4DB449EA
:101A7000B24CB5F8DC0248431EF04FFAB14AB24B03
:101A80001EF0C6F81EF01CFA00EB4001C9000A2245
:101A9000B1FBF2F2AD492060B1FBF2F1AC4A11604A
:101AA00095F8CC326BB14FF47A73584340F24963E6
:101AB000B0FBF3F020604FF47A704143B1FBF3F0D8
:101AC000106095F8D802116848436421B0FBF1F02A
:101AD000106095F8DB02216848439E49B1FBF0F0A5
:101AE0009549097808449C492D30086070BD70B54F
:101AF00002469A488A4E03680A20B3FBF0F032444B
:101B0000C1B292F8035400208D4211D892F80844D3
:101B10008C420DD3A5420BD096F8D042084654B162
:101B200092F81C0496F8E92402448A4201D8081A63
:101B300070BD002070BD92F81C14C82901D0084661
:101B400070BD96F8CF120029FAD0C72BF8D803F150
:101B5000C80070BD724910B5034691F8D622012025
:101B6000022A0FD36D496E4C032A0978214404D10F
:101B700091F817249A4200D8032091F81214994240
:101B800000D8022010BD70B5754D00202880754822
:101B900002F0EEF874A002F00DFA614CE07BFFF762
:101BA00041FC30B104F10F0002F004FA5F2002F0B2
:101BB0001BF96E4829880144042004F0AAFA5F202A
:101BC00002F012F9C321D4F8E80202F063FA2E20E1
:101BD00002F00AF966A002F0EDF9BDE870400020BD
:101BE00002F002B9F0B5002507462C46064601E092
:101BF0006D1CEDB216F8010B0028F9D1384610E043
:101C00008E5C521C90F800C092B2664503D1641CF1
:101C1000E4B2401C01E000243846AC4201D1104639
:101C2000F0BD9A42ECD14FF0FF30F0BD70B500240A
:101C30004FF480652B4641F2E80221464B4801F003
:101C4000E3FB4A494B4AD1F8FC02801805D04A4AC6
:101C5000801806D0494AD04203D1072051F82020ED
:101C60000AB1002070BD401CC0B20A28F6D900207D
:101C700051F82020401CC0B214440728F8D3C8698A
:101C8000001BC861294639480AF080FC40F2024333
:101C900082220021354801F0B7FB012070BD10B54C
:101CA000374C207848B101F007F9002805DB3549A9
:101CB000097829B13449012008700020207010BD36
:101CC0003249F9E72DE9F05F314B044600251878D9
:101CD0003049087030480278DFF8C0B08BF8002037
:101CE000DFF87C802E4EDFF8BCA0A946A8F8005093
:101CF0002E2C07D1307840F0200030702A4802782E
:101D00008AF80020194FFEF7BBFF22490A782048C5
:101D10000078824277D00878401C47E0D7E107205E
:101D200028C0072000C0092084000500FE6F0000C5
:101D30004943333700000000C3EF0720ECE10720E0
:101D4000A0860100FD1873D7D477204100180D8FAD
:101D5000F0E1072040AC2700F4E10720E8E107208C
:101D6000C4E10720033E000053435F0060CC07201E
:101D700056544600DFBC9A78A9EC307513CF12CFC9
:101D800006C007207803001065EF0720D5E1072083
:101D90003803001039030010400300104103001005
:101DA00007C0072005C0072004C00720C0B2087084
:101DB000FA490D5CB8F800003D54401C80B2A8F808
:101DC000000007F80090284602F0D6F8B8B338783B
:101DD000212805D041280BD00021612814D008E02B
:101DE000307840F002003070781C02F0E3F81DE01B
:101DF00001210022114303D0317841F002013170FA
:101E0000242803D004E028E00122F3E7022C09D0C3
:101E1000307840F002003070E14802F0CBF8022C3C
:101E200004D006E0307840F00400F4E70A2001F026
:101E3000A3FFA8F80090307820F006003070172D2E
:101E40000DD1307840F002003070D6A002F0B2F828
:101E5000307820F00200307001E0022C02D02E2CED
:101E600010D01EE0D04800789BF8002059469042E0
:101E700017D00878CD4A0244401C0870107801F051
:101E8000B3FF0EE09AF800205146C948007882421C
:101E900007D00878C74A0244401C0870107801F047
:101EA0006BFF1A2D7FF42FAF2E2C03D1307820F04A
:101EB00020003070BDE8F09F2DE9F05F4FF416551B
:101EC00000264FF4FA40FEF7EBFEBB490878820784
:101ED00005D5BDE8F05FB949B9A002F0A3B8DFF8B5
:101EE000E4828B46352188F80000B7A002F07FFA23
:101EF000A0F1310104297CD2322804D0332805D046
:101F0000342806D007E04FF4E13504E04FF496257D
:101F100001E04FF4E1253421B9A002F068FA04464B
:101F20003138032865D2DFF808A3312C04D0322CD5
:101F300011D0332C49D04FE03321BEA002F057FA24
:101F4000A0F131010229B5D2322800D12E2628462F
:101F50000AF0AEFF40E0C2A002F07AF8DFF820936A
:101F600099F8F30238B10BF0AFFF071E24DD99F8A2
:101F7000F30220B10EE001200BF0C0FCF5E728468B
:101F80000BF090FCDAF814105046490302D54FF4D8
:101F90008021C161012F04DD43F69821B9A002F030
:101FA000F2FCBBA0401C02F005F8202001F01CFF51
:101FB000BB4802F04DF80FE098F800108BF80010C5
:101FC000B8A1BB4802F02EF82DE0022010F028FE48
:101FD0002846FEF784FF0226B648007808B1FFF7CE
:101FE0005EFE01201BF030FF5F469BF80000454677
:101FF00000E01CE088F800003046FFF763FE332C59
:1020000002D1002010F00CFE0020FEF712FF28780D
:1020100038700321CAF81C104FF48021CAF8181038
:1020200064201BF011FFBDE8F05F01F086BF41E7BF
:1020300070B59349072081F8EA039FA19FA001F0A2
:10204000F1FF202001F0D0FE9A4D0024012001F084
:102050007FFF00F040FF012102F01CF8C82001F0D2
:1020600060FFC0B22C7001F087FF0028EED0BDE801
:10207000704001F062BF30B5814D4FF40040002147
:10208000A5F8E40205F5397001236A1892F8A54213
:10209000012C0DD192F8B1220488102A03D203FA40
:1020A00002F2944303E0103A03FA02F2144304806C
:1020B000491CC9B20C29E8D330BD70B5704C221848
:1020C00092F8A532012B0BD0022B3BD100218A20A4
:1020D00092F8B1220125102A06D29540294306E044
:1020E000B4F8E4124420F3E7103A9540A943012BD9
:1020F00009D0022B0CD074496D4801F093FFBDE864
:10210000704001F01ABF022202EB012203210FE00E
:1021100094F8200040060ED511F00700EFD001061C
:1021200041EA004141EA002040F0100204218A20E7
:1021300000F0B9FDE3E74FF0FF314FF4037002F018
:10214000C2F9DCE770BD10F8011B01E05140401CF2
:1021500002782A2A01D0002AF8D1084670470246A0
:10216000002059B107E0521C2C2B01D1491EC9B2E5
:10217000401C002903D01378002BF4D100207047B5
:1021800010F8011B41B102E0401C402904D0017845
:102190000029F9D10120704798E0000060C90720AC
:1021A00060CC07202B2B2B004003001060CB0720B6
:1021B00004C0072060CA072007C007201E1D0200B8
:1021C0000A000000D8E1072053656C656374204263
:1021D00061756420726174650A312E2039363030A1
:1021E0000A322E203131353230300A332E2033304E
:1021F000373230300A342E20343630383030000058
:1022000053656C656374204D6F64656D0A312E20D3
:10221000426C7565746F6F74680A322E2047534D97
:102220002F475052530A332E2047505300000000CE
:1022300000C0092053656C65637420426C75657439
:102240006F6F74680A312E204C61697264203733D5
:102250003053410A322E20524E34363738000000B7
:102260000A506F7765722047534D2F554D545320B8
:102270006D6F64656D2E20576169742E2E2E0000DF
:1022800028C00720504220444F4E450D000000005A
:10229000204D6F64656D2F456D61696C0000000015
:1022A0005015020047534D2F475052530000000075
:1022B000691F020006C007203A2000005475726EA4
:1022C0002073776974636800261F0200002062E7AC
:1022D0002DE9F84FFC4EDFF8F483054631784FF0D6
:1022E000FF3488F8001000F0D6FEF948C16941F4C7
:1022F0004011C16101220021462000F006FDC0F31B
:10230000001703220221442000F0FFFC009020F47B
:102310000040022101EB00220321442000F0C3FC15
:10232000002824D0EB484FF4FA79C0F800901FB190
:1023300006E002680AB903E0E7490A78002AF8D003
:10234000E4480068002812D005201BF07DFDFFF74F
:10235000A6FC4FF0010A86F800A01B2001F00CFD3E
:1023600035B1012D59D0022D6DD0032D6ED070E006
:10237000DA49DB4881F800A00178DA480170DA4DCB
:102380002978DFF868B38BF80010DFF8489340F63F
:10239000B831C9F8001037E0D2490A78D04800783F
:1023A00082420CD098F8000020F0010030700878CC
:1023B000401CC0B20870CE49085C01F0DDFC9BF8FF
:1023C00000005C462978884215D086F800A0207865
:1023D000401CC0B22070C749085C01F0CDFCC64863
:1023E000017841B121782A78914204D1002101700D
:1023F000062000F026FCD9F800004C4620B9FEF774
:102400003FFC40F6B8302060B34800780028C3D0C5
:10241000B2490020012408701BE00AF0B4FB044616
:102420003F214D46484601F05BFD002811DB52205C
:1024300001F0A2FC2021284601F052FD0A21284685
:1024400001F04EFD05E00AF039FC01E00AF0F6FB70
:102450000446AA49009841EA00220321442000F0E2
:1024600022FC17B90A201BF0EFFCFFF718FC98F8C4
:1024700000003070002C08DA601C09D014F10C0F39
:1024800003D02146D22002F01EF82046BDE8F88F86
:102490004FF0FF314FF4FA70F5E72DE9F05F4FF0A0
:1024A000050B4FF0640A96A001F084FD00244FF064
:1024B000FF39DFF85C8201F040FD042C08D095A0C4
:1024C000801C01F077FD0121601C01F0E3FD14E0A8
:1024D00093A001F06FFD98F8E21303290DD1B8F82D
:1024E000E40241F6026141EA00220321442000F0A7
:1024F000DAFB8E494FF480308861AFF244218CA022
:1025000001F090FD042C06D208EB040797F8D25294
:1025100007F2D22702E098F8F053874F03212846AC
:1025200001F0B8FD022C03D204F10101284604E0B9
:1025300006D14FF0000105F5C870FFF733F803E04E
:10254000032C15D0042C17D009EB4500C1B2002094
:10255000FFF728F9064601F00FFD20B3641CE4B232
:102560005C45A8D300F097FDBDE8F05F01F0E5BC45
:10257000002140F2F710E0E701212846FFF712F8AA
:1025800098F8F01398F8D20209EB410109EB4000EA
:10259000C9B2C0B2FEF777FE6848FEF7B7FD00206B
:1025A00001F0BFFCD6E72B2E04D02D2E06D01B2E1B
:1025B00009D011E055450FD26D1C02E0012D0BD959
:1025C0006D1E3D7008E098F8E203022801D004284F
:1025D00002D10020FFF77CFE032001F0B9FC91E757
:1025E0002DE9F34F012485B01220CDE900044848BD
:1025F00006270026B0F8C8B206984FF47A7AA046AB
:102600003546B146029628B14C4B4D4A21464D48BD
:1026100001F08CFF002007F007FE90B13C48B0F8B5
:10262000CA02E8B348490844811E10F8019C0D789D
:10263000C11E0E78011F09780091411F10F8068C09
:102640000F7833494048B1F8CA22104403903F48FC
:10265000806800F00F0202EB0900401C00F0FF0947
:10266000B9F13B0F26D96D1CA9F13C00EDB200F089
:10267000FF093B2D1ED93C3D761CF6B2EDB2172E5C
:1026800018D9183E08F1010000F0FF08F6B2B8F1C1
:102690001C0F0FD9A8F11C0000F0FF087F1C00E000
:1026A00056E0FFB20C2F05D90C3F0098FFB2401C3A
:1026B000C0B200900A20B4FBF0F200FB12400028E8
:1026C000019876D078E0000007C00720D8E1072005
:1026D00000C002404403001006C007203D03001064
:1026E00004C0072005C0072038030010390300107C
:1026F00060CA072060C907203A030010020080006A
:102700004C4544204272696768746E6573730000BB
:1027100028C007202D20436F6C6F7220000000003E
:1027200050574D2065787465726E000000C0092016
:1027300020696E202500000018C40720FE6F0000ED
:10274000060001004710020080DD072000800040E5
:10275000FE4DBBF1000F1ED0ABF1010128784FF404
:102760008067B7FBF0F00A26B0FBF6F0401C00EBE8
:102770008000430041F2D202F54800F045FE28787F
:10278000B7FBF0F0B0FBF6F000EB8001F04800EB97
:1027900041000A3048E72978EE4A48424942126827
:1027A00001EB810102EB4002114401EB4001D5E74E
:1027B000FFE7404240B2019000FB0AF00FFA80FBB5
:1027C000AAF101000FFA80FAE34890F8DB0200EB6F
:1027D0008001BAEB410F03DC4FF47A7AFEF750FA2E
:1027E00003984FEA1B2101700398002180F801B083
:1027F0008170C17000F1040B069868B18BF80080FD
:102800008BF8017000998BF802108BF803608BF83D
:1028100004508BF8059013E0CF48B0F8CA12CC48AA
:10282000001D0144062003F074FCCB48B0F8CA1226
:10283000C748C01D0144052003F06BFC8BF8054020
:10284000C648006820B101F0E8F908B10120029003
:102850000698A8B16420B4FBF0F100FB114010B160
:10286000059884420CD1062001F072FB0621204617
:1028700001F010FC0A2001F00BFB01F07DFB28B9F0
:1028800020460599641C8842FFF4DBAE02980028BC
:1028900005D007B00B20BDE8F04F00F017BE07B021
:1028A000BDE8F08F2DE9FC5FFA20019000F004FBF9
:1028B00006004FF4962000907ED4A948A949F4B2AE
:1028C0000078097860400840DFF89CA2A74FDFF845
:1028D000A0B2DFF8848200064FF001094FF0000536
:1028E0004FD5200638783CD480060DD58BF80050A3
:1028F00001200DF04BFF9BF8000018B100F0DCFA4E
:10290000060004D4F4B202E0C8201BF09DFA98F847
:10291000F2024646012801D0009802E04FF4E1207F
:1029200000900AF0C5FA40B39249484681F80090F9
:1029300096F8EC13022901D28F490D7039788F4A2D
:1029400041F0820139700621117096F8F2122E2999
:1029500001D18B49087096F8D70270B18AF80050FF
:102960000BE0874920F0820038700D7098F8D7127C
:1029700019B1C00701D08AF800908BF80050814847
:1029800005707749097884EA01007649097808409A
:10299000400649D57C48007818B398F8CC0600BBAF
:1029A0007A4E60061ED402200AF0A8FF41F2707130
:1029B00077A001F0E8FF00E0A5E0387840F04200A1
:1029C000387098F8D70208B18AF80050694981F840
:1029D000009086F8009098F8EC03022820D2664810
:1029E00005701DE03078D8B140F6B83169A001F02B
:1029F000CAFF002804DA6A4801886A4801F028FE04
:102A0000694935704FF480208861387820F04200A1
:102A1000387098F8D71219B1C00701D08AF8009021
:102A20008BF80050574805704D4800786040C0064C
:102A300023D55E49E00617D54E485D4E032380F846
:102A4000009038784A4640F00100387033708006B4
:102A500004D5087810B957480821017098F8D702B2
:102A600038B18AF8002004E0387820F0010038708E
:102A70000D708BF80050434805709BF800005E46CF
:102A8000DFF800B19BF8001008430DD098F8EA0376
:102A900038B114201BF0D8F900F01DFA464981F82E
:102AA000009035708BF800503248017831B30570D2
:102AB00001981BF0C9F9414801F0BCFA3048007890
:102AC00018B13FA001F076FA06E03F4801F072FA33
:102AD0000021362001F077FC3C4800783C49087022
:102AE0003C48056098F8D71209B98AF8005098F860
:102AF000EC03022802D22E490320087036493878A8
:102B0000087017480470BDE8FC9F34494BF203601D
:102B10000880FEF756FB324850F8C41F41F490611C
:102B2000016021482F49C1634FF48011C1612E48D3
:102B3000022100250170457085702C4803222B4628
:102B40000068294944692120A04751E0D4E10720C9
:102B500080DD0720CCE1072028C00720C8E107203E
:102B6000D5E10720D6E1072066EF072007C0072040
:102B700006C007206503001009C007200AC007200F
:102B80008703001065EF072008C00720F8E1072041
:102B900030300D00434152524945520D00000000B3
:102BA000C4E1072060CC072000C00920800300108A
:102BB000FBE1072086030010E0E107209C020200F1
:102BC00050494E203D200000060702003803001047
:102BD0003903001060030010D8E107200CC0072063
:102BE00000C00F4000001034A0E10720880300104F
:102BF000072000F06BFC184818494FF40062007879
:102C00000968404201EB40011548491C00F016FBE1
:102C1000134C1448B4F8CA22B4F8C81204F2C224FF
:102C200000F00CFB628821880F4800F007FB4FF092
:102C30008040456003210170AA2101725521017273
:102C4000FEE700F01F02012191404009800000F1E1
:102C5000E020C0F800117047D4E10720CCE1072044
:102C600028C0072080DD072060D9072070B5F7480D
:102C7000F74C016A21F0010101622068816800209F
:102C800088470646206801690220884740EA060511
:102C90002068A021826A02209047EE4A2843202122
:102CA00082F8001470BD2DE9F0410E46EA49E84D66
:102CB00040080A602968002332464C69E649A0476B
:102CC000E64FB86806EBC60101EB061100EBC10444
:102CD00002E0B868A04204D82868C06A8047C007EC
:102CE000F7D12868C06A8047C00707D12868406AC2
:102CF0008047B04202D10120BDE8F081286801215F
:102D0000826A042090470020F6E72DE9F84F144628
:102D10000022DFF8449300924FF0FF3889F800104A
:102D2000102C02D94046BDE8F88FC94E4FEA500A30
:102D3000012330681A46C84945695046A847C74F1D
:102D4000BD68C83507E0B868A84204D93068C06AD1
:102D50008047C0071ED13068C06A8047C007F2D1E3
:102D60000098002833DB3068002322468569BA4981
:102D70005046A847B86804EBC40101EB041100EB0E
:102D8000C1050AE0B868A84207D93068C06A804720
:102D9000C00702D0CDF8008019E03068C06A8047D3
:102DA000C007EFD10098002811DB3068406A8047E7
:102DB000A0420CD16846032C07D84946641EE4B2F1
:102DC00003D30A5D00F8012BF8E70098ABE7306801
:102DD0000121826A04209047A4E770B5A04801252C
:102DE0002905816332201BF02FF89E4A03214220DF
:102DF000FFF759FFAE1E002859D09A4A0321121D31
:102E00004220FFF750FF914C06220321206A40F038
:102E1000020020624420FFF746FFF0B194F8E2136D
:102E2000022901D0042905D1B4F8E40240F400409D
:102E3000A4F8E402B4F8E402022101EB0022032129
:102E40004420FFF730FF20B1206A40F004002062E8
:102E500003E094F8E203022829D24FF6037202211C
:102E60004620FFF720FF10B3206A012240F008003F
:102E700020625C215820FFF748FF002817DB206AFA
:102E800040F02000206294F8E30398B1764A0321D1
:102E90008A20FFF708FF60B141F2130204218A2063
:102EA000FFF701FF206A40F04000206202E0304658
:102EB00070BD3546284670BD10B501220021462060
:102EC000FFF723FF002805DA40F2092000F0FEFAA0
:102ED0004FF0FF3010BD10B5FFF7EEFF0721814323
:102EE00008D05A4890F8DA02401C884202D3491EA2
:102EF000C8B210BD002010BD70B5544D102495F817
:102F00002000400708D5B5F8E402022101EB0022B9
:102F100003214420FFF7C7FE95F8E203032803D1FD
:102F20004F494FF48030C86195F82000400603D423
:102F300009E0641EE4B206D3102204218A20FFF7C0
:102F4000B2FE0028F5D04948C16921F44011C161A1
:102F500070BD2DE9F05F464B3C4E4FF000091B78E9
:102F6000B6F8E42203EB43034D4610244946B3462A
:102F700006EBC30A4FF0010C0BEB010696F8A532E5
:102F8000FBB10AEB410797F87184804511D8012BFA
:102F900002D0022B07D00CE096F8B1820CFA08F8A8
:102FA00048EA020205E096F8B1820CFA08F848EA0D
:102FB000050597F8727487420FD8012B02D0022BB7
:102FC00006D00AE096F8B1320CFA03F39A4304E013
:102FD00096F8B1320CFA03F39D43491CC9B20C298F
:102FE000CAD39BF820005E46400718D522EA124754
:102FF000022000EB072203214420FFF754FEB6F81D
:10300000E412B9420BD096F8E203032805D1380741
:1030100003D013494FF4803088614FF0010996F8CE
:103020002000400634D568072BD0280640EA05402A
:1030300040EA052040F010052A4604218A20FFF7C7
:1030400032FEB8B124B34FF0010921E028C00720B7
:10305000880300100AE000E0A0E1072000800040A3
:1030600000C00920020001001620600000C00240DC
:10307000D7E10720641EE4B2DED3E3E7641EE4B2C6
:1030800006D2102204218A20FFF70DFE0028F5D079
:103090004846BDE8F09F10B5FEF793F8BDE8104034
:1030A0002AE7000010B5052409E0574819F02AFF67
:1030B00040B155481AF034F80A201AF0C5FE641ED3
:1030C000F3D200E054B151A019F044FF4FF48063F3
:1030D0000022181A8A4101DA012010BD002010BD1B
:1030E00070B54B4C4B48216812F0AAFE054620688B
:1030F00011F071FF284670BD10B547A147A011F02F
:10310000F9FF4349086028B1FFF7EAFF002801DB17
:10311000012010BD002010BD70B504463C4DC00715
:1031200003D0286808B111F017FFA00703D568681D
:1031300008B111F011FF600706D5A868002803D078
:10314000BDE8704011F008BF70BD10B5FFF7C8FFB3
:1031500035A1304811F0CEFF2D490028486000D03D
:10316000012010BD2A4810B5012243689102294868
:1031700012F01AFF012801D06FF00A0010BD2B4990
:1031800091F82820027091F82420427011F8202F25
:1031900082700A7BC2700A7E0271898BC180002016
:1031A000704710B522A11B4811F0A4FF1849002850
:1031B000886000D0012010BD2DE9F05FDFF854A039
:1031C000DFF84CB01B4E8846814600244FF48067E0
:1031D000C6F800A050463A460121DBF8083012F04C
:1031E0004AFE05000DD014493B468222097830681A
:1031F00004FB018100F008F9641CBD4201D14C457B
:10320000E6D32046BDE8F09FFDFF010055303A00AF
:103210008C03001060CC0720610000005553424928
:103220004E464F2E54585400770000000040024094
:1032300072000000DCE10720D4E107202DE9F04115
:103240000E46FC491446096821B3FB49FB4F8846EA
:1032500008601DE03D68AC4200D8254600210846C4
:10326000FDF758F82A4604218420FDF758F8314626
:10327000761C0020FDF74EF8002204218820FDF77F
:103280004EF83868D8F80020241A0244C8F8002004
:10329000002CDFDC3046BDE8F081E948016921F40B
:1032A00080610161E74850F8C41F41F490610160FA
:1032B000E648E549C1634FF48011C161FDF7E0FCC8
:1032C000E348022103220170002141708170E1482E
:1032D0000B46DF49006844692120A047DE48DF49EA
:1032E0004FF4006200780968404201EB4001DC487D
:1032F000491CFFF7A3FFDA4CDA48B4F8CA22B4F845
:10330000C81204F2C224FFF799FF62882188D648C8
:10331000FFF794FFFEE72DE9F05FC64D0024082774
:103320002C60FCF7EDFFC449C948CC4E086004701E
:10333000C24C40F6FF7A4FF4047B80464FF4847908
:103340000222012141F29F00FCF7E9FF98F80010EA
:103350001F2908D001201AF077FD28687F1E3FD072
:103360000028EDD03DE098F8010024380528F4D27B
:10337000DFE800F0030910151D004FF4007028600D
:1033800040F2FF702AE001202860C6F800A0C4F8CF
:103390000090E2E702202860C6F800A004E00420C4
:1033A000286041F6FF703060C4F800B0D5E708200F
:1033B00028600222012141F2D700FCF7B0FF98F803
:1033C000001098F80100814206D141F6FF7030608C
:1033D0004FF484602060C0E747F6FF703060D6E7A6
:1033E00048B121684FF48460B0FBF1F09A4908704D
:1033F0000020BDE8F09F984901200870002030604F
:1034000020604FF4FF70F4E72DE9F0470D46A2F578
:1034100080511E4617464FF00409D23903D0A7F554
:103420008051E83901D14FF00809DFF810A2DAF82D
:103430000040A4B3822F01D1A64200D81C46DFF879
:10344000F88129466D1CC8F800000020FCF762FFD7
:10345000224649463846FCF762FF822F1FD1DAF830
:1034600000105046C246741A804616E0DAF8002072
:10347000D8F800609119CAF80010B44200D8264666
:1034800029466D1C0020FCF745FF32464946384668
:10349000FCF745FFD8F80000241A002CE6DC28468B
:1034A000BDE8F08770B50D4663490446684808607A
:1034B00009E02146641C0020FCF72CFF00220421B7
:1034C0008120FCF72CFF6D1EF3D270BD70B5644DEA
:1034D0000446010AB5F8C402634A1154511C44540D
:1034E000491C0144062002F014FE5F48B5F8C412DE
:1034F000401D0144052002F00CFEB5F8C402564EF2
:10350000083080B2A5F8C40231784FF48062B2FB73
:10351000F1F1814233D80020A5F8C4024548006883
:1035200030B14648B5F8C21202684F48FFF786FE30
:1035300030784A4942424042096800EB800001EB82
:1035400042010844B5F8C212884201D800EB42019A
:10355000491CA5F8C2128BB2B5F8C0128B420AD131
:10356000884205D800EB4200401CA5F8C00202E0EA
:10357000491CA5F8C01201211846FFF793FF3B4BE9
:10358000B3F90000844230D0A4F1DC003849394A54
:10359000B0F5A07F09D91F2C07D01078460723D497
:1035A0000C2C0DD0802C15D01EE0107840F01400AB
:1035B000107095F8C706B8B1087840F0100012E016
:1035C00040F02400107095F8C70668B1087840F004
:1035D000200008E040F08400107095F8C70618B18C
:1035E000087840F0800008701C802348007880062E
:1035F00009D522480178062905D1802C03D020491D
:103600000C800721017070BD2DE9F04104460020B7
:10361000FCF78AFE0D4F4FF08056C7F89C60194AA0
:10362000D06884209060054800218C460568ED1C18
:1036300036E00000C8E10720DCE10720D0E10720E8
:1036400000C0024000C00F400000103400C009203C
:10365000A0E1072088030010D4E10720CCE1072077
:1036600028C0072080DD072060D9072062EF0720EF
:10367000FAE10720F9E1072007C0072086030010C0
:103680008403001000000340D068032902D2C2F86E
:1036900008C000E09460D368D806FCD4491C89B205
:1036A000A942F1D3C7F89860BDE8F041FCF72DBE00
:1036B0002DE9F047FA4DA5200026287095F8000462
:1036C000DD2801D0C5F8F463DD2085F80004082268
:1036D000691CF448FDF7DAFEF14906220931F24887
:1036E000FDF7D4FE2E62052285F8D162002085F810
:1036F000DA2264212B18401CC0B283F8D2120428AD
:10370000F8D385F8F013012785F8CA764FF0020840
:1037100085F8D68285F8CC6285F8CD6285F8CE72C0
:1037200085F8026485F8D96245F66560A5F8DC0283
:1037300085F8D76285F8D06285F8E96485F8E27388
:1037400085F8DB22082085F8F50285F898624FF0AD
:10375000030985F8F6920003A5F8E402A5F8E662ED
:1037600000202918401CC0B281F8BD620328F8D39C
:10377000CB48283000F51C7100F8016B8842FBD360
:1037800000202918401CC0B281F8A5620C28F8D38B
:10379000C64800F1D80100F8016B8842FBD3DFF87E
:1037A00010A3002404EB840005EBC0010AEBC00069
:1037B00001F2FA21FDF760FE641CE4B2032CF1D3A0
:1037C00085F8F79285F8F89285F8F9820024DFF8F9
:1037D000E492DFF8E4A211E004EB440005EB800181
:1037E00009EB840001F27231FDF746FE3AF814004D
:1037F00005EB4401641CA1F8D203E4B295F8F5028C
:10380000A042E9D8C5F8E86285F8F26285F8F3626B
:1038100085F8EC6385F8F46285F8E363042085F8A5
:10382000E7034FF44050A5F8E80385F8EA63182051
:1038300085F8ED0385F8EE6385F8EF6385F8CB86B0
:1038400085F8F16385F8CD7685F8F963012027E6E0
:10385000F0B5934D002640F2DC5085F8CF6285F834
:103860000164A5F8DE024000A5F8E0028010A5F88A
:10387000E202642085F8D8029048914A0127017835
:1038800012884842494202EB400201EB8101114497
:1038900001EB4000401CA5F8C002A5F8C202A5F843
:1038A000C462A5F8C662A5F8C862A5F8CA6200207D
:1038B00085F808654FF0C70CC822291805EB4003AE
:1038C00081F8EA7481F8EF64A3F8F464A3F8FE6465
:1038D00095F8DB3281F8033481F808C481F80D24AF
:1038E00081F8122481F8172481F81C24002105EBAB
:1038F00000135C18491CC9B284F821241029F8D39C
:1039000000EB4003002105EBC3035C18491CC9B25E
:1039100084F871241829F8D3401CC0B20528CCD3F0
:103920007F2085F8EF04B5F8C80266490004C86432
:103930000E654865F0BD2DE9FC4763A00024D0E981
:103940000010CDE90010FDF79BF9614E72B6E94613
:10395000604D4FF0070845F6C05719F80400641C85
:10396000E4B22860052C0AD2C5F804805949C5E99B
:1039700002870846B04728680028EED00DE0052CE5
:103980000BD14FF4E04068604548A8604FF4805088
:10399000C5E903074F490846B04762B6286810B129
:1039A0000020BDE8FC870120FBE72DE9F05FDFF890
:1039B00028B13B4F05004FF000084FF0040441F2DE
:1039C000E80A38D1DBF80000610280B389463B4841
:1039D0004E464B460078524641423948006800EB5B
:1039E00041012F48491CFFF70FFDB146354E0FE04E
:1039F000012CECD84A463949294811F0E9FB706D91
:103A0000000CA7F8C802716DA7F8CA12A7F8C60281
:103A10003878A52803D197F80004DD2808D0642061
:103A20001AF012FA641E14F0FF04E1D105E00EE072
:103A30001CB165B10CB1012D02D1FFF739FE8046F2
:103A4000FFF706FF022D02D12120FFF73FFDFFF710
:103A500072FF4FF0FF3620B931464FF47A7000F014
:103A600032FDDBF800005C46C8B1B8F1000F03D0AE
:103A70001E20FFF72BFD3DE0B5BB4FF48466B7F881
:103A8000C2123346554652461548FFF7BDFCB7F8FB
:103A9000C81233462A461348FFF7B6FC2AE024E052
:103AA00028C00720040002000501020022C30720ED
:103AB0000C00020084000200E8FF0100D4E10720AE
:103AC000CCE10720004002403234353233000000A0
:103AD000F11FFF1FB0E10720C8E1072000700000C0
:103AE00060D9072080DD072004E031464FF4FF70E5
:103AF00000F0E9FC2068786240467AE48C490022B4
:103B0000B1F8C802A1F8C602A1F8CA228949000486
:103B1000C86448658848017821F0C0010170874871
:103B2000017821F0C001017070478148B0F8C212DD
:103B3000A0F8C0120021A0F8C41270472DE9F0418E
:103B40007F4E8048356800F013F9DFF8FC810021D2
:103B50007EA0D8F80020921D00F0E3FB040038D4CA
:103B6000D8F80000C11C8C4201D34FF400757A4A8A
:103B7000784984420F46116008D821460020FCF79E
:103B8000C9FB082141F2D200326814E00021084646
:103B9000FCF7C0FBD8F80000411C8C4204D1042182
:103BA00041F2D100326806E0811C8C4206D104212A
:103BB00041F2D3003268FCF7B2FB05E06749201AF6
:103BC00001EB4027A7F5C067A9B2384600F040FDD9
:103BD000BDE7BDE8F08130B5554CB4F8C202B4F889
:103BE000C012401A5E4909780CD5574B4A421B68EF
:103BF00003EB42054B4203EB83032B4403EB4202EE
:103C00009A1A10444FF48062B2FBF1F1C9084143A3
:103C1000B4F8C40201EBD00030BD70B5444C0025AF
:103C2000B4F8C802B4F8C612884205D1B4F8CA0282
:103C300010B90320FFF74AFCB4F8CA02484E0A3014
:103C400080B2A4F8CA0231784FF48062B2FBF1F17D
:103C5000814233D83A48B4F8C81202684148FFF7A5
:103C6000EDFA3178384A48424942126801EB810145
:103C700002EB4002114401EB4000B4F8C8120023EB
:103C8000401C491C884202D8A4F8C83201E0A4F8BC
:103C9000C812B4F8C822B4F8C6128A4208D1012565
:103CA000491C884202D8A4F8C63201E0A4F8C61222
:103CB000A4F8CA3201211046FFF7F4FBB4F8CA0297
:103CC000B4F8C81200EB01401A494865284670BD97
:103CD00070B5174C234D030AB4F8CA22AB546B1CC1
:103CE000D054A81C0B0A1354401C1154401C11182A
:103CF000062002F00EFAB4F8CA12E81D01440520AD
:103D000002F007FA18480068002810D0FFF785FF76
:103D100000280CD015480078400603D594F8CC064E
:103D2000012804D0BDE870400B20FFF7CFBB70BD69
:103D300028C0072000400240F9E10720FAE10720EF
:103D4000D0E10720793D0000CCE107200A506167EF
:103D50006500000060CC0720DCE107200070000057
:103D6000D4E1072080DD0720C8E10720D6E1072045
:103D7000F6490860002070472DE9F0410446F448F8
:103D80004FF0FF350278E0B2D10704D0F1490B7D46
:103D90009B06FCD50870910710D5EF494FF0804382
:103DA0004FF47A770E7DB60607D4DE68BE42F9D2AC
:103DB000FCF766FF2846BDE8F0810870510709D579
:103DC000E649D1F8C410C90104D5E5490B7D9B062D
:103DD000FCD50870100705D52146002012F099FB8C
:103DE000A042F9D10120E6E770B5D84D04460A2873
:103DF00002D129680D20884720462968BDE8704017
:103E00000847D94AD74B11885854491C11800120C2
:103E100070472DE9F047D54D04462860D44ECC4F6D
:103E2000DFF85083DFF85093DFF850A314E04CB173
:103E3000286820B1307828B10020BDE8F0874FF025
:103E4000FF30FAE73878800603D598F8000001289B
:103E500008D8012019F0F8FF99F800109AF800002E
:103E60008142E4D00120E8E7C4480078C2490978DB
:103E7000884201D10020704701207047C048007877
:103E8000C0490978884201D100207047012070475D
:103E90002DE9F047B54C054620604FF0FF3AB64E8D
:103EA000B34F40F6B839DFF8D4820DE0206825B171
:103EB00008B1387830B15046BFE718B9FCF7E0FEDA
:103EC000C4F800901AF0FEF8317898F800008142AA
:103ED000ECD03078401CC0B23070AB49085CACE725
:103EE000F0B5A24E30604FF0FF30A34CA34DA64F6B
:103EF000DFF87CC211E022782B789A4209D0227830
:103F0000521C227019B12A78BA5C8A4201D1012070
:103F1000F0BD9CF80020002AFAD13268002AEAD1CC
:103F2000F0BD10B50446FCF7ABFE94490978924AFF
:103F300011702046BDE81040AAE70A2054E710B5EA
:103F4000044602E02020FFF74FFF641EFAD210BDA6
:103F500010B5044602E00820FFF746FF641EE4B2F5
:103F6000F9D210BD10B5FFF73FFF2E20FFF73CFF41
:103F7000BDE81040202037E70D2803D00A2801D0E3
:103F80000020704701207047804991F8D112022922
:103F900000D900210278002A01D00C2A06D07047EF
:103FA00010F8012F0C2AFBD1491EC9B20029F7D104
:103FB000401C704710B5FFF7E7FF044604E00C28EB
:103FC00005D0641CFFF710FF20780028F7D110BD42
:103FD00010B5044605E0641CFFF706FF20780D28A5
:103FE00002D020780028F6D110BD70B50E4600240E
:103FF000FFF7CAFF054611E028780C2802D00021FF
:1040000028B100E001210022114309D101E0012281
:10401000FAE76D1CFFF7E8FE641CE4B2B442EBD390
:10402000204670BD10B50C46FFF7C4FF2046BDE822
:104030001040BFE770B50546002455F82400641C05
:10404000E4B20178002902D0FFF7B4FFF5E770BDB4
:1040500010B5002805D0FFF7ADFFBDE810400A20DD
:10406000C2E610BD10B504460078FDF7DBF908B1D3
:10407000204600E04648BDE81040E9E710B5044698
:104080002220FFF7B1FE2046FFF794FFBDE8104065
:104090002220A9E6F0B501F03F0230230A2589B0BD
:1040A00011F0C00104D0402906D0802905D101E0DB
:1040B000202302E0102500E0022512B1511EC9B2F2
:1040C00000E0212100268DF82060B0FBF5F605FB0D
:1040D000160606F00F07B0FBF5F02E4E0DF11F048B
:1040E000F75D8DF81F700FE058B1B0FBF5F705FBD9
:1040F0001707B0FBF5F007F00F07F75D04F8017D37
:1041000002E042B104F8013D491EC9B2ECD202E01E
:10411000641CFFF769FE20780028F9D1022D06D033
:10412000102D02D16820FFF75FFE09B0F0BD6220BC
:10413000F9E731B504240DF1030503E015F8010991
:10414000FFF71AFE641EE4B2F8D238BD00C00720A3
:1041500007C0072000C000400000014000C00F4021
:104160000080094060CC0720C4E107204403001010
:1041700006C0072072030010390300103803001036
:10418000400300104103001060C9072028C0072029
:10419000261F0200A00502002DE9F0470026174661
:1041A0008846054647F2305AB1465046FFF7B9FEF9
:1041B000041E04DC0EB185F8009000203DE60D2CB5
:1041C00004D0082C0CD07F2C0AD000E00A24612FE8
:1041D00014D0642FE0B226D0FDF72CF930BB2BE0D1
:1041E00006B3761EF6B208206D1EFFF7FDFD2020F7
:1041F000FFF7FAFD0820FFF7F7FD1FE0E0B2FDF73B
:1042000011F978B13F2C1BD03A2C19D0E0B205F847
:10421000010BFFF7E9FD5C2C02D10C2005F8010C25
:10422000761CF6B20AE0FDF705F938B1E0B205F800
:10423000010BFFF7D9FDF3E7BC42F7D00A2C01D000
:104240004645B2D3304649460246401C05F8011B9C
:10425000C0B24245F8D33046EFE510B5FFF79CFFFA
:1042600004460A20FFF7C0FD204610BD70B50024AB
:104270000D4606462A2A01D101246122681EC1B2D8
:10428000F848FFF789FF60B1012811D0002804DD4C
:104290002A46F449304610F09BFFBDE870400A20E2
:1042A000A2E51CB1F0A0FFF785FEF6E73046FAE77D
:1042B000EC4800782028EBD100203070EDE72DE9A4
:1042C000F0410F46804600241D46164610460A213E
:1042D00002E0B0FBF1F0641C0028FAD14046FFF781
:1042E00069FE98F800003F2802D03D20FFF77CFDD2
:1042F000E1B26422DB48FFF7B0FF78B1D948FDF79F
:10430000A8F8B842EAD3B042E8D8002D05D0B0FBF7
:10431000F5F105FB11010029E0D14CE54FF0FF302C
:1043200049E50023CBE710B51C46FFF7FAFF00284C
:1043300002DA4FF0FF3010BD2070012010BD2DE9D2
:10434000F0471E46DDF82080174689468246002544
:104350000A20FFF749FD49465046FFF763FEC4A017
:10436000FFF728FE2D220321BE48FFF715FF0400AA
:1043700015D0BC4801782D2901D10125401CFDF73D
:1043800068F8C0B265B1012CE1D90028DFD08028DF
:10439000DDD8404206E0B042D9DC88F800004CE5A8
:1043A0007F28D4D840B2B842D1DBF4E770B50446D8
:1043B0000D460A20FFF718FD2846FFF7D3FD2046DB
:1043C000BDE87040F6E510B5044619B10146A948AC
:1043D000FFF7ECFF0A20FFF707FDA748FFF7EAFD0C
:1043E0002046FFF701FDBDE810403F20FCE410B57A
:1043F0000C46FFF7DFFD01212046FFF7E4FF47F2FF
:104400003050FFF78EFD0446C0B2FDF713F818B127
:104410002046FFF7E9FC07E04FF0FF32522C02D0B4
:10442000482C09D000E014460A20FFF7DDFC0A20E2
:10443000FFF7DAFC204610BD904900200860F2E743
:1044400010B504460A20FFF7CFFC8D492046FFF740
:10445000E9FD47F23050FFF764FDC0B2432820D099
:10446000884940F0200091F8D1228749895C814237
:1044700001D1012100E00021792804D00023194353
:1044800003D0012407E00123F9E78049895C8142D8
:1044900008D14FF0FF34FFF7A7FC0A20FFF7A4FC78
:1044A000204610BD0024F8E710B504462020FFF791
:1044B0009BFC7748FFF77EFD002C03D0BDE8104041
:1044C0000A2091E410BD70B50D0004462CD00A20DE
:1044D000FFF78AFC6E48FFF76DFD002C01DAC4F18E
:1044E000C8041C226B492046FDF74BF8002805DB69
:1044F000694951F82000FFF75DFD03E08421204663
:10450000FFF7C8FD681C06D02020FFF76DFC0521D1
:104510002846FFF7BFFD0A20FFF766FC5F480068EA
:1045200010B120B2FEF7D2FF284670BD70B50E461E
:104530001D461446C2F3072111B1FFF737FF01E012
:10454000FFF738FD200CC00702D055A0FFF732FD61
:10455000600CC00703D1E1B23046FFF79BFD514824
:10456000854205D02020FFF73FFC2846FFF722FDBB
:10457000A00C03D0BDE870400A2035E470BD2DE9E1
:10458000FF5F8946002747F2305B4FF0FF3803F0AA
:10459000C00603F00F05DDF838A0FFF70BFD00247F
:1045A0000BE0641CE0B240F0300109EB0700FFF7BC
:1045B000FDFE07EB0A00C7B2E4B2AC42F1D3C02E55
:1045C0001FD0802E22D00A20FFF70EFC3F20FFF7DD
:1045D0000BFC5846FFF7A5FC041E22DDE0B2FCF7F9
:1045E00029FFF0B12046FFF7FFFB04F00F04012C78
:1045F00012DBAC4210DC0298641E4FF0010804701C
:104600001CE0681C40F03000012102E045F0300061
:104610000021FFF7D8FEDCE7C02E02D1681C8442DF
:104620000CD0482C04D02046FFF7A6FC30B903E09C
:1046300012490020086001E0002CC0DA0A20FFF7D0
:10464000D3FB0A20FFF7D0FB04B04046BDE8F09F43
:104650002DE9F0410E46054600244FF4A07747F2BD
:10466000305840E060CC07202A2A2A2A00000000A7
:10467000203D200099080200B108020060030010EC
:104680008A06020028C007206606020069060200AA
:10469000691F0200F40102002C020200C8E1072099
:1046A0003A200000FE6F0000B4FBF7F007FB10405B
:1046B00018B914B14046FFF734FC200709D10A208D
:1046C000FFF792FB85212046FFF7E4FC3A20FFF735
:1046D0008BFB15F8010B8221FFF7DCFC2020FFF794
:1046E00083FB641CA4B2B442DED316E62DE9F0418C
:1046F0001D4617460C46060003D546422D20FFF7FF
:1047000073FB96FBF4F096FBF4F104FB116639465B
:10471000FFF7C0FC4DB13C2C03D02C20FFF764FB0D
:1047200013E03A20FFF760FB01E03C2C0DD164243C
:104730000BE006EB86004700B7FBF4F0C6B246F08C
:104740003000FFF751FB06FB14766D1EEDB2F0D280
:10475000E3E510B50446AFF2B801F948FFF762FC93
:1047600002231A4664212046FFF7C0FFBDE810402F
:10477000F4A06DE42DE9F041F348FFF769FCF34C38
:10478000F34DF44FF44E40F6B8382078297888423B
:1047900008D02078401C20702878385CFFF7ECFBAC
:1047A000002809D1306818B9FCF76AFAC6F8008009
:1047B000052019F049FBE8E7AFE52DE9F05FE74F89
:1047C000DFF89C83DFF89C931E4615468A46834695
:1047D000002404EB4600401CC0B240F030015846B3
:1047E000FFF7E4FD2020FFF7FFFA5046FFF7E2FB5A
:1047F0002020FFF7F9FAC4F10100C0EBC00007EB7D
:104800008000FFF7D7FBAFF26810FFF7D3FB2878E3
:104810000021FFF73FFC20206D1CFFF7E5FA98F818
:10482000CC0200EB800101EB0900FFF7C3FB641C25
:10483000E4B2012CCDD909E72DE9F0412E26002460
:1048400005460327B4FBF7F007FB104078B130466C
:10485000FFF7CAFA15F8010BC221FFF71BFC022C67
:1048600000D93A26641CE4B2062CEBD355E53B2074
:10487000EEE72DE9F05FBC4B1C680625B1FBF5F6B1
:10488000BA4F0C44DFF8C4A23A80DFF8E4829946BC
:10489000DFF8C0B285181DE0D9F800104B468C42F5
:1048A00002D14FF0FF30D1E69AF800C05246A84935
:1048B00009788C450CD01178491CC9B211701BF8CD
:1048C000012008F80020401C38801868841901E095
:1048D00019F0F8FB38888542DED883B2002208F848
:1048E0000320B3E62DE9F047002780463D464FF010
:1048F000010909FA05F010EA080F24D017B12C209D
:10490000FFF772FA05EB45009A49C0EB45104418D1
:1049100020780C280CD1924890F8D10205E014F8C8
:10492000011F0C29FBD1401EC0B20028F7D1641C26
:10493000002614F8010BFFF757FA761CF6B2022E88
:10494000F7D37F1CFFB26D1CEDB2062DD1D935E433
:104950001CB504461D200090872301AA854986487E
:10496000FFF70DFE00280DDD9DF8041001208840A2
:10497000C1B28DF8041022780A4201D08A4300E0C7
:104980000A4322701CBD2DE9F05F0F46764983462D
:104990000024086826460A68C5192046954201D2B7
:1049A00008603D46DFF8C4918246A9F8000001E0A6
:1049B000641CA4B21BF804000028F9D1884663499E
:1049C0000A7863480078824224D0D8F8000000EBCF
:1049D00057050878401CC0B208705E49644A0B5CF9
:1049E000B9F8000031191354401C80B2A9F8000036
:1049F000814213D802F800A08BB232465C49584677
:104A0000FDF7F0F8002802DDB9F800001EE6761C7C
:104A1000B6B203E0FCF734F919F054FBD8F8000003
:104A20008542CCD84FF0FF3010E62DE9F74F002437
:104A300091468A462546AFF6CF37042A01D1AFF614
:104A4000C3374A4E0020308001E0641CA4B20098B5
:104A5000005D0028F9D140480160DFF814818346E9
:104A6000B84770B34FEA5A01CBF80010B9F1040F00
:104A70001DD036490878401CC0B2087035490A5C20
:104A8000308808F80020401C30803188281988427E
:104A90001AD8002208F8012083B22A463449009827
:104AA000FDF7A0F8002809DD3088BDE8FE8F334906
:104AB0000878401CC0B208703149E0E76D1CADB207
:104AC00002E0FFE7FCF7DCF8DBF800000028C7D1C4
:104AD000401EEAE72DE9F05F234901250A680B68CB
:104AE000141800229C4201D20A6004461F4EDFF8CF
:104AF00060B0DFF858901E4F92463280884699F891
:104B0000002049469BF8000082423CD00878401CB7
:104B1000C0B208700F49085C0A2807D00D2805D0DC
:104B200031887854491C3180002530E055BB0A2873
:104B30002DD1308807F800A0401C80B2308085E578
:104B40000C10020020560000D80D0200390300109E
:104B50003803001060C90720440300103415020018
:104B600028C00720A400020048030010C4E1072069
:104B700060CC0720691402003714020041030010C2
:104B800060CB072003E0FCF77BF819F09BFAD8F81C
:104B900000008442B3D84FF0FF3057E570B50146AE
:104BA000FE48012400EB041212788A4211D100EB76
:104BB0000415681DFFF7FEF9687830B1F8A0FFF71B
:104BC000F9F968780021FFF765FAFFF7B6F9204692
:104BD00070BD641CE4B2072CE4D302D1401DFFF782
:104BE00037FA002070BD70B500242546EEA0FFF70F
:104BF000E1F9002201212046FEF755F878B1822123
:104C00002046FFF747FA04212046FFF743FAEDA0BC
:104C1000FFF7D0F92046FFF7C1FF6D1CEDB2A41CD1
:104C200014F0FF04E5D102212846FFF733FABDE86E
:104C30007040E5A0FFF70CBA2DE9F34F002687B0CE
:104C400089463746E448FFF7F5F9B9F1580F09D01E
:104C5000FFF773F94FF0000A0DF11008FCF710F898
:104C6000002405E0DDA0FFF7F3F9F3E7022C01D201
:104C7000250101E025014035E8B240F00C01022297
:104C80000798FEF742F828F814003046FFF774F949
:104C900080B138F814002035000A00D06D1C0A20BD
:104CA00019F0D2F838F81400022145EA00220798DA
:104CB000FDF7F9FF641CE4B2042CD7D33046FFF7AC
:104CC0005BF9002878D1B9F1580F24D01020FFF7F4
:104CD0003FF900244546042135F81400FFF7DAF9BE
:104CE000641CE4B2042CF6D3B9F1580F50D047F24B
:104CF0003050FFF716F90646482E6CD0A6F1310069
:104D000003285AD806F00700401EC7B2012FA5D9C4
:104D10003F1DFFB2A2E7B94C4FF08070A063461070
:104D2000E663B749B74DDFF8E0B2C1F800A0B74875
:104D3000C5F800A0CBF800A001680268114301602B
:104D4000B3490A680B681A430A60826A42F0060295
:104D50008262886A40F0360088627D2019F074F81B
:104D60002868C0000190A6637000E0637D20C5F84C
:104D700000A019F069F8A248006880000290DBF8F2
:104D80000000800000902868C00003902C209EE75F
:104D900000246D46072155F82400FFF77BF9641CB9
:104DA000E4B2042CF6D36420FFF772F80646994863
:104DB0000078994908709FE70DE02D2E09D02B2E21
:104DC000A8D1042040EA071201210798FDF76BFFE4
:104DD00044E70820F6E789494FF40000C8638B498F
:104DE000C1F828A0C1F828A0FFF7A7F8FFF7A5F899
:104DF00009B0BDE8F08F2DE9F041FF22012187A025
:104E0000FFF78FFA0646FFF798F8002E79DDF0B22B
:104E100000220121FDF747FF002864D083A0FFF79F
:104E2000C9F8F0B2FFF7BAFE5C4901EB001898F838
:104E30000250022D02D10120FCF790FD7EA180A03E
:104E4000FFF7F0F8FFF779F800241BE0022D39D0C6
:104E5000F0B201222146FDF758FF0700EED40021F1
:104E60002046FFF717F90920FEF7BEFF0920FEF7DD
:104E7000BBFF98F804103846FFF70CF9FFF75DF810
:104E8000641CE4B298F80300A042DFD8002FD5DB01
:104E9000012D01D0022D34D16C48FFF7D1FA002842
:104EA0002FDD67A0FF220021401CFFF73AFAC4B2B1
:104EB0004FF48072002166A0FFF733FA0746022DF7
:104EC00007D008E00C2040EA0410C1B2F0B2022280
:104ED000C1E72007040E44EA0722F0B20221FDF7E1
:104EE000E2FE0028AAD14FF0FF31022D05D040F29A
:104EF0000920BDE8F041FFF7E6BA40F20A20F8E7E2
:104F0000FFE7BDE8F0812DE9F047050052484FF07A
:104F100000044FF0FF0601D0504800265049FFF72B
:104F200081F83046FEF770FB05210020FFF7B2F84C
:104F3000384FDFF83081384E4FF00209214600200B
:104F4000FBF7E8F94FF000024FF004010DB18320A8
:104F500000E08120FBF7E3F9600708D10520FEF7A8
:104F6000F7FF05212046FFF795F8FBF789FE0022A1
:104F700004216020FBF7D3F90020FBF7D5F9B9EB4A
:104F8000901F08D130783978884204D1D8F80000D1
:104F9000641C8442D2D3052066E000003005020084
:104FA0002C204943000000000A526573706F6E6444
:104FB000696E672049324320646576696365733A98
:104FC0000A00000064090000206465766963657367
:104FD00020666F756E640A00EC02020020696D7035
:104FE000312F7320696D70322F7320696D70332FEC
:104FF0007320696D70342F730000000000C0092019
:105000001CC00720500300104C0300100000094092
:105010000040094038030010390300100A44657647
:10502000696365206164647265737300493243206B
:1050300064657669636520000956616C75650000DA
:105040000A5265676973746572000000501F0200A0
:105050000A56616C756500009C0A0200BA0A0200DB
:10506000EF0A0200CCE10720FEF772FF0521601C69
:10507000FFF710F83078397888420BD1D8F8000063
:10508000844203D1F748FEF795FF06E00020FFF7C2
:105090000BFA02E03078401C3070FBF736F92046FE
:1050A000BDE8F08770B5FEF748FFFDF7F4FFFEF7A7
:1050B00032F9ED4C08B1ED4809E000212068FEF717
:1050C000E9FF2068802801D2E9A000E0E9A0FEF70E
:1050D00071FFE948FEF7BCFF206858B3E748FEF7C8
:1050E00069FFE748FFF7ACF900281EDD0020FFF755
:1050F0000AFFE44C2168884202D10120FFF703FF38
:10510000E14D28784100E148B0F8C202FEF7CAF943
:10511000287822684100404202EB4000401CFEF724
:10512000C1F9FEF702FDFEF7E9FCBDE87040D8A02A
:10513000FEF740BFBDE87040FEF7FFBE2DE9F05F0F
:105140004FF0000705003E4607D10021084601F058
:105150003DF80021012001F039F8112000F017FC82
:10516000DFF830B301218BF80C109BF800109BF88E
:10517000002011438BF80010DFF81C9340F24C41E3
:10518000C9F80010DFF814834FF0000AC8F800A037
:10519000112000F0F1FB05E00A2018F055FED9F8C7
:1051A000000018B1D8F800000028F5D0D9F80000A8
:1051B00020B34446D8F80080C4F800A002E00A20DA
:1051C00018F042FE20680028F9D02468112000F071
:1051D000DEFB02218BF80C109BF800109BF80020DE
:1051E00011438BF80010112000F0C6FBAC49A4EB72
:1051F00008000C1A03D50127644200E0012615B906
:10520000A8A0FEF7D7FE322C00DCB6B175B900209D
:10521000FFF74AF956B917B12D20FEF7E5FD002139
:105220002046FEF737FFA1A0FEF7C4FE4FF0FF3186
:1052300040F21220FFF747F903E015B98948FEF75D
:1052400007FFBDE8F05FFEF778BE70B502220121CE
:1052500098A0FFF766F8C0B2012802D002280AD051
:105260001AE04FF0FF3201219948FFF75AF8012167
:10527000FDF7B6F910E04FF47A7201219548FFF777
:1052800050F80546002402E02046FEF71FF92046AC
:10529000641C24B2A842F7D3BDE87040FEF74DBEAF
:1052A0002DE9F0478C4D07004FF0000401D0FDF7C9
:1052B000F2FEDFF828824FF0C0790A2640F6FF7A26
:1052C000C8F83C90E105C8F83810012018F0BCFD82
:1052D0000220FBF7E4FE012C19D041F6C811484327
:1052E000B0FBFAF025F8020B2046641CE4B2022859
:1052F000E6D3664CF80707D0B4F8EE02B0FBF6F040
:10530000FFF727FAFEF719FEB4F8EE02C8E6C0EB85
:10531000001000EB8000B0FBF6F0E3E710B570483A
:10532000FEF796FE6FA17048FEF77CFEFDF7B3FE18
:105330004FF4FA74FBF7A4FCFBF7D4FE0421FEF74C
:10534000A9FE2046FEF765FD002803DA0420FEF7DB
:10535000FFFDEFE7FEF7F1FDBDE81040FEF7EDBD04
:1053600070B55F48FEF774FE03214FF4C270FCF77E
:1053700019F932210020FCF748FAC0B2FEF7FCFD13
:1053800000283BD103216F20FCF70CF932210020CB
:10539000FCF73BFAC0B2FEF7EFFD00282ED1032147
:1053A0004FF49670FCF7FEF832210020FCF72DFA3E
:1053B000C0B2FEF7E1FD002820D100214FF4F470C7
:1053C000FCF7F0F832210020FCF71FFAC0B2FEF71C
:1053D000D3FD002812D14FF4FA74251D0021204678
:1053E000FCF7E0F832210020FCF70FFAC0B2FEF71C
:1053F000C3FD002802D1641CAC42EFD970BD2DE979
:10540000F05F4FF0000A40F2F71756463A46514611
:1054100036A0FEF786FF0546B0F5C87F06DA37A04E
:1054200003220121801CFEF77CFF0646C8220121D1
:1054300035A0FEF776FF040000D500242848FEF7CB
:1054400007FE4FF47A70002D03DBA8464FF0000BE7
:1054500002E00025B8468346002E6ADB06F0FF090D
:10546000F6B287E0070B0200C8E107203B0A020002
:10547000204D4200204B42004D0A0200AA0F0200BC
:105480000B0B0200CCE10720D4E1072028C0072045
:105490000A0A00000040024044030010E4E1072033
:1054A00040420F000A0A5254432000002070706DE1
:1054B000000000000A53656C6563742044617461E8
:1054C0002F50726F746F636F6C2028312F32290058
:1054D00047100200BA10020014C3072000C00920C0
:1054E000D80D0200203D20002A0B02000A456E74F0
:1054F0006572206E756D6265720000002D20436F2D
:105500006C6F7220000000004C4544206475747973
:10551000206379636C65203128302E352529202EB3
:105520002E2E203230302831303025292000000046
:10553000FFE7FA494FF00109834691F8D66219E076
:105540000CB9FCF7F8F84F460DE039462846FCF751
:1055500029F8E1B25846FCF725F9C0B28246FEF7B9
:105560000BFD10B97F1CB742EFDD5046FEF704FD7E
:1055700010B96D1C4545E3D9FBF723FEFEF7DDFCB2
:10558000BDE8F05FFEF7D9BC2DE9F05F40F28F185F
:10559000FBF717FE4FF4FA7018F056FCE04E307827
:1055A00028B9E0A303220021DF48FEF7BFFFFDF783
:1055B000A3FC01254FF0FF3BDFF860A342E0022D82
:1055C00001D94FF0C70829464046FBF7EBFF0124FD
:1055D000322740F2EE29307848B90520FEF7B8FCB2
:1055E00003212046FEF756FDCEA0FEF7E3FCFBF7B5
:1055F00009FE6043B0FBF7F000B90120C1B2484694
:10560000FCF7D0F8FEF7B8FC58B96400802C0BD03A
:10561000C82CE0D340F2DC50FEF783FCFEF7ACFC74
:1056200020B15846BDE8F09F6424D4E70121084624
:10563000FBF729FEFBF7C5FD4FF4FA7018F004FCE8
:105640006D1CEDB29AF8D602A842B8D2307808B9EB
:10565000FEF773FC0120E5E72DE9F0410125AF1EBF
:10566000AE4E1CE029467C20FBF79CFF0124FBF793
:10567000C9FD4006010EFA20FCF7C7F8FEF77CFCD6
:1056800028B9FA20FEF74DFCFEF776FC08B1384643
:1056900037E4641CE4B2062CE9D96D1CEDB296F82F
:1056A000D602A842DED201202BE42DE9F0479F4F1D
:1056B0009A4E012538784FF0FF39304440F2771880
:1056C00090F8034450E096F8980210B12046FDF798
:1056D00040FC38780121304490F81724A24204D8C5
:1056E00096F8D622032A00D1032190F81204A04292
:1056F00004D896F8D602012800D902212046FBF7EB
:1057000051FFFBF77FFD4006010E4046FCF74AF8CB
:10571000FEF732FCA8B92046FCF701F918B10121C7
:10572000FBF740FF0FE03878304490F80D04A042BA
:1057300009D8FBF746FD4046FEF7F3FBFEF71CFCDD
:1057400048B14846ACE4FBF75DFD4006010E40461B
:10575000FCF728F8F2E73878304490F80804A042C3
:1057600000D16D426019C4B23878304490F8030417
:10577000A042A8D9012093E4FEB56D48002407C8D3
:105780008DE807006B48FEF715FC644D6E4695F8F2
:10579000EA0338B1FDF79FFB20B1FDF79CFB63499D
:1057A000401E087056F82400641CE4B280470028AC
:1057B00006DB40F2DC50FEF7B4FBFEF7DDFB70B118
:1057C000FDF769FCFBF7B7FF95F8EA0310B15A49FA
:1057D00001200870FEF7B1FBFEF7AFFBFEBD022C07
:1057E00000D9002400F070F90028D0D15348007887
:1057F0000007CCD55248406B4000C8D55148012124
:10580000006818F0FDFBFA2018F01EFB4E4903203B
:105810000870BCE708B54DA0FEF7CCFB6B466422D0
:1058200000214EA0FEF77FFD9DF8000058B1012138
:10583000BC20FBF7B7FE9DF800004006010E4FF0BC
:10584000FF30FBF7AFFF0320FCF788F845480078EE
:1058500045490870FBF7B5FC0020FCF77FF808BD50
:1058600070B52E4C414DB4F8E803297920F00700BB
:105870000843A4F8E8030120FCF770F8002804DDD1
:1058800058210846FFF7D8F905E04FF0FF3140F204
:105890000920FEF718FE94F8E713B4F8E803695CF2
:1058A00020F007000843A4F8E803BDE8704000209A
:1058B000FCF754B870B5194C214E4FF40045206ADE
:1058C00020F040002062B561294A03218A20FDF7BB
:1058D000EAF9C8B141F2130204218A20FDF7E3F985
:1058E000244A04218A20FDF7DEF947F23050FEF702
:1058F00018FB102204218A20FDF7D5F9206A40F018
:1059000040002062012070BDF5614FF0FF314FF47F
:105910000370FEF7D8FD002070BD000028C00720EE
:1059200006C0072020250000DC190200D7E107206F
:10593000B4050200D80D0200E0E10720D6E10720FF
:1059400000C0092058030010FBE107204C4544200B
:105950004272696768746E657373000020696E2017
:10596000250000003803001039030010F8FF010083
:10597000162060001007070700F01F020121914068
:105980004009800000F1E020C0F80011704700F0ED
:105990001F02012191404009800000F1E020C0F881
:1059A00080117047F94DDFF8E893DFF8E8A3DFF8DE
:1059B000E883DFF8E8B34FF0FF31012018F03AFB3D
:1059C000002011F0B5FD014640F22620FEF77BFDD8
:1059D00000286FD111F052F8014640F22620FEF760
:1059E00072FD002859D198F8000040F0080088F8AE
:1059F000000089F800009AF8D70230B1E848002189
:105A0000017002E00A2018F01FFA002011F026F8B9
:105A10000028F7D0E3A0FEF7CDFAE84EE84F1AE0F1
:105A2000002010F057FD040010D112E031782878E2
:105A3000401C814208D0002010F05EFD2978491CEE
:105A4000C9B22970785401E018F03CFB641E02D3FF
:105A5000ECE718F037FBDBF834004000E0D498F8AE
:105A60000000444620F0080088F8000089F8000093
:105A7000002011F0C7F8014640F22620FEF723FD72
:105A800010B9D0A0FEF796FA9AF8D70228B120787C
:105A9000C00702D0C24801210170002012F09CF919
:105AA000014640F22620FEF70EFDCC48C16C41F0C5
:105AB0000051C1644FF40021CBF83C10C8480121CB
:105AC000006818F091FA76E7C448406810F070500A
:105AD00000D00120704710B5044617F0F5FA68B9F8
