:020000040000FA
:1000000030340010850200008D0200008F020000D5
:100010009102000093020000950200000000000021
:10002000000000000000000000000000A503000028
:1000300099020000000000001D04000059040000A7
:100040009F0200009F0200000F0B0000A90B0000A0
:100050004F0B0000F90900003D0A0000A90A00004A
:100060009F020000290C0000B93F01009F02000020
:100070009F0200009F0200009F0200009F020000FC
:100080009F020000796100008B330000E30A00004A
:10009000F90A00009F0200009F0200009F0200007A
:1000A000956900009F020000956D00009F0200000E
:1000B0009F0200009F0200009F0200009F020000BC
:1000C0009F0200009F0200009F02000000F002F863
:1000D00000F080F80AA090E8000C82448344AAF162
:1000E0000107DA4501D100F075F8AFF2090EBAE860
:1000F0000F0013F0010F18BFFB1A43F0010318475C
:10010000B4380200E43802000A444FF0000C10F842
:10011000013B13F0070408BF10F8014B1D1108BF85
:1001200010F8015B641E05D010F8016B641E01F825
:10013000016BF9D113F0080F1EBF10F8014BAD1C75
:100140000C1B09D16D1E58BF01F801CBFAD505E093
:1001500014F8016B01F8016B6D1EF9D59142D6D3ED
:1001600070470000103A24BF78C878C1FAD8520707
:1001700024BF30C830C144BF04680C607047000021
:100180000023002400250026103A28BF78C1FBD8A0
:10019000520728BF30C148BF0B6070471FB59DE8AC
:1001A000030015F0A5FC15F03FFF0400002000211E
:1001B0001FF032FE401C606015F09EFB1FBD10B5A5
:1001C00015F012FC10BD03B4FFF7F9FF03BC14F0E7
:1001D00040FF000006F0B2FE1146FFF7DFFF1DF002
:1001E00059FF044800211EF04BF81DF065FF00F098
:1001F0006EF80000A4030010FEE7FEE71A4810B5F1
:10020000007848B11FF0B6FA30B1184900EB400051
:1002100001EB4010603810BD154810BD154A10B5EF
:1002200011680346082900D3FEE7134800EB0110CC
:10023000491C186011601EF0E1FD012010BD0A4943
:100240000978002905D000684FF6FF71DFF82CC04F
:1002500000DF704704490978002903D00068DFF8FF
:1002600020C000DF7047000075040010981A0010CD
:10027000D42A0010BC030010F81D0010E5EE0100A8
:100280000DEE01000948804709480047FEE7FEE7F8
:10029000FEE7FEE7FEE7FEE7FEE7FEE7FEE7FEE736
:1002A00004480549054A064B70470000554D0100BA
:1002B000CD000000302C0010303400103030001021
:1002C0003030001000487047D42A001070470446B0
:1002D000AFF300802046FFF776FF70477047704706
:1002E00010B5044606F0FAFD0068005DC00602D5B0
:1002F00004F1200010BD204610BD704721436587E2
:1003000040F2010CC1F2000C604740F2270CC1F230
:10031000000C604740F23F0CC1F2000C604740F215
:10032000271CC1F2000C604740F2730CC1F2000CB4
:10033000604740F2BF1CC1F2000C604780F309889F
:100340007047EFF309807047684680F309880448D6
:100350000078C00714BF0220032080F31488704780
:10036000F76E0000DFF818C0EFF305831B0618BF17
:100370006047EFF31483DB0708BF604700DF704777
:10038000FDE70100DFF818C0EFF305831B0618BF77
:100390006047EFF31483DB0708BF604700DF704757
:1003A00095EA0100EFF30980816911F8021CF1B9A7
:1003B00090E80F10E047EFF3098C8CE80700144B2E
:1003C00093E8060091420FD039B12CE9F00FC1F843
:1003D00028C00CB41EF050FF0CBC1A60D2F828C024
:1003E000BCE8F00F8CF309886FF0020E704710B56F
:1003F000084A1268914209D8074C54F8214090E805
:100400000F10A047EFF3098C8CE80F0010BD00001F
:100410007C040010D8630100D86301001EF096FD33
:100420000C4B93E80600914210D0EFF3098C2CE9B5
:10043000F00FC1F828C00CB41EF01EFF0CBC1A60EF
:10044000D2F828C0BCE8F00F8CF309886FF0020ED8
:10045000704700007C0400101EF0D6FFE0E70000AB
:10046000FFF74BFF1EF0D0FFDAE700002DE9F05F49
:1004700000273C4614F012FCDFF8F8B3DBF88001EB
:1004800010F00B0F01D01DF005FE1DF015FEDFF87A
:10049000E8A3DFF8E893FA4DBAF800000026A0F5CB
:1004A00025414FF00108023945D04AF201518842F6
:1004B00041D0DBF880114BF2036241F3800C0CF168
:1004C000010C904201D1012100E000215CEA010C05
:1004D00016D085F8D1622E62904201D089F8008052
:1004E000E84999F800C081F800C0DFF89CC3642196
:1004F000CCF80010E5490E70E5490E70E5490E7024
:10050000904201D0AAF80060E348E4490670E4484C
:1005100081F800800670E3480670E3480670E348FF
:100520000670E3480670E34800EB07117F1CFFB23A
:100530000E70032FF8D300F0B7FD00F0F1FB00F0D0
:100540003EFC05F032FE4FF4FA4000F0B3FBDA480F
:1005500003F082FCDBF880015F4640F38001BAF8CB
:100560000020491CA2F5364003380FD0002001437B
:1005700015D0FA201DF082FD02F042FF2043C4B2E4
:10058000002003F086FA012802D006E00120EEE701
:10059000CA4803F0CBFD641CE4B200F067FD02F032
:1005A000DDFB00B34FF0FF314FF4027004F009F8A7
:1005B000641CE4B2B048DFF808B30088A0F5254118
:1005C000023962D04AF2015188425ED095F820008B
:1005D000C00730D002F079FC00282CDA296A0A2002
:1005E00088430BD104E0286A40F001002862E1E76B
:1005F000480703D595F8E203022803D240F2092008
:1006000003F0DFFF95F82000800605D44FF0FF319E
:1006100040F20A2003F0D5FF95F82000400608D4E8
:1006200095F8E30328B14FF0FF314FF4037003F066
:10063000C8FF641CE4B2D7F8800110F0090F0CD099
:100640004FF48471CBF85C1001F059F94FF4A471A8
:10065000CBF85C102021CBF858109A480068A0B164
:1006600099489A4A007812684100404202EB4000E3
:10067000401C02F08CFFB5F8C202012102F087FF96
:10068000B5F8C802012102F082FF02F08DFCDFF80C
:1006900040A28AF8000000F015FB77480088A0F51A
:1006A000254102397DD04AF2015188427AD0D7F8EB
:1006B0008011490726D5A0F53641033922D09AF892
:1006C0000000C00602D589F8008001E089F80060CA
:1006D0006C4899F80010017095F8F30258B14FF486
:1006E000E1200DF005FA95F8CC0601284FF0000046
:1006F00005D00DF01EFA1F2002F05DFF0BE110F097
:1007000065F9F8E7D7F88001C00770D0012002F042
:1007100052FF704890F824106F4801706C480078C0
:10072000C00602D56D4981F8008032201DF0A6FC7C
:10073000DFF8ACA110218AF8001095F8F40210B18E
:1007400018218AF8001095F8F20260B10CF045FF0C
:1007500030B19AF8001041F080018AF8001006E0EC
:10076000641CE4B203E0E87B08B10CF036FC95F8B9
:10077000F30298B301200DF080FC00282FDD9AF8D9
:10078000001041F040018AF8001095F8EC0310B316
:10079000002012F0C7FB002818DD0320CBF81C0056
:1007A00001E0D3E046E0D7F88001C00708D04D490A
:1007B00095F8ED030870C0EB001081004A480180F5
:1007C0009AF8001041F004018AF80010002012F09D
:1007D00041FB4648067000200DF0ABF901E0641CB7
:1007E000E4B24FF000011CB140F2F51002E092E0DB
:1007F00040F2F71000F048FF00214FF4FA6001F0DA
:1008000043F8334A1078C10610D495F8D71269B965
:1008100095F8E213022909D0042907D099F80010AD
:10082000184B21F0010189F80010197080F01000B8
:10083000107070E0202002F0BEFE0822691C2C48D7
:1008400000F096FE2549404681F800809AF8001095
:10085000090651D495F8F202012807D04FF49620EA
:100860000CF0AEFB2349062008704FE04FF4E12066
:10087000F6E7000000C00F400CC0072007C00720AB
:1008800028C00720D8E1072018C00720D7E107209B
:1008900007E2072008C00720F8E10720E0E1072071
:1008A0005DEF07207203001064EF072065EF07205B
:1008B000FCE107207CEF0720613E0000F404020009
:1008C00000C00920C8E10720D4E10720CCE10720BF
:1008D000D5E10720004002405AEF072065030010D1
:1008E000D6E1072006E2072004E2072009C007201E
:1008F000380202000AC007202E49097831B12E497A
:1009000008702E49087002200DF013F9B5F8C802DE
:10091000012102F03CFE2A490320087029482B4996
:1009200006702948067081F8008029480670294819
:10093000067029482D490670284806702848067018
:10094000284806702848068014200870D7F88001CF
:10095000400703D14FF4967002F02DFED7F88001C6
:10096000D7F880110843C7F880012148006810B10A
:10097000122000F013F8132000F010F81D484FF477
:1009800000210680CBF83C104900CBF8381000F06D
:10099000A8FC0BF043FA0020BDE8F09F00F01F0216
:1009A000012191404009800000F1E020C0F80011D1
:1009B00070470000F8E1072008C00720FCE107208D
:1009C000FBE10720F9E10720FAE1072006C0072034
:1009D0005DEF0720720300105EEF07205FEF072036
:1009E00060EF072061EF072062EF0720C3EF0720C9
:1009F000C8E107200CC00720FE4908B5886800F050
:100A00000E00022804D0042803D0087D8DF80000D1
:100A100008BDF94A507948B10A78F8490878401C6D
:100A2000C0B2087001F65C210A5408BD097810783C
:100A3000401CC0B21070F24A115408BDF14918B4FC
:100A4000886800F00E00022804D0042804D0087D35
:100A50008DF8000018BC7047E84AE74BD078800654
:100A60000DD554781078401C844217D0097810783E
:100A7000401CC0B2107002F65C221154EAE75C78A8
:100A80001878401C844209D009781878401CC0B2FC
:100A90001870DB4B195406209071DBE70120987029
:100AA00018BC062000F0FABCD74908B5886800F0E9
:100AB0000E00022810D0042801D0087D0EE0CE4A96
:100AC000537A107A401C834207D00978107A401C70
:100AD000C0B21072CD4A115408BD08788DF80000DC
:100AE00008BDC64901208870C948D0F8401141F0BE
:100AF0000201C0F840117047BF490020C870C448C7
:100B0000D0F8401141F00401C0F840117047C148CD
:100B1000816801F57A718161B8490A6912B10A697F
:100B2000521E0A61B44AD36813B1D3685B1ED36006
:100B300013695B1C1361CA68521CCA6003E0016838
:100B400002681143016001680029F8D17047B2487A
:100B5000806AC0060FD4B1480168C9060CD5A64901
:100B60008A69521C8A6103E0016841F0100101604A
:100B70000168C906F8D470470168890610D59F49F5
:100B80008A69521C8A6103E0016841F0200101601A
:100B900001688906F8D47047016802681143016052
:100BA00001680029F8D170479B4810B5816A924AC4
:100BB000C90617D5D3780021182B00D3D170984BD4
:100BC0005B6DDB040CD5C16A964BD47843F82410D6
:100BD000046BD17803EB8103491CD1709C6609E05A
:100BE000D17007E05169491C516103E00168026856
:100BF0001143016001680029F8D110BD854B10B583
:100C00009968894A03E09C68641A0A2C0BD2D4685C
:100C1000E406F8D4906003E09868401A142802D2E1
:100C2000D068C006F8D410BD70B5804D286810F4A7
:100C3000282F27D1FFF764FB704E04241C36305D4B
:100C4000FFF7DCFF641E14F0FF04F8D16A498879CD
:100C500004281DD004208871C979C0B20843FFF769
:100C6000CDFF6F4840228265416D4906FCD5C265C3
:100C7000674850F8C41F21F480610160286820F49F
:100C8000282028606A48016802681143016070BD2D
:100C90000820E0E772B6AA214807017255210172C7
:100CA00062B6704772B6AA214807017255210172D7
:100CB00062B670474FF47A714843C9064860032012
:100CC0000870E7E710B5142000F0E8FB132000F0EF
:100CD000E5FB122000F0E2FB4D4C0720C4F8480170
:100CE0000020C4F84C010621122004F5A07400F085
:100CF000EBFB0F21132000F0E7FB0C21142000F088
:100D0000E3FB2068216808432060122000F0D1FB3B
:100D1000132000F0CEFBBDE81040142000F0C9BB4A
:100D200070B53B4850F8C41F424A1143016039482E
:100D300002244460C46001254561816801F57A712F
:100D40008161016802681143016045600D21204600
:100D500000F0BAFB022000F096FB2F4844602F49B8
:100D60004C60C460CC60026803681A4302600A6881
:100D70000B681A430A600022826282628D604560BD
:100D80004D602B484461F921C16046F62001C164E1
:100D90000E21032000F098FB032000F074FB1021CB
:100DA000042000F091FB042000F06DFB1C210920C1
:100DB00000F08AFBBDE87040092000F064BB1448D5
:100DC00010B550F8C41F41F0080101600948002126
:100DD0004160072101728321017304210170032105
:100DE0000173852180F82810012141601E21052012
:100DF00022E0000000C000403803001004C00720BB
:100E000060C90720000001400080094060CB072036
:100E100000C00F4000800040000009400040094031
:100E200000C0092028C807200000034000C002407D
:100E3000008001404400C00000F046FBBDE81040C7
:100E4000052000F020BB2DE9F041FE4DFE4E48F29A
:100E50002A070324C8B156F8C41F41F010013160BD
:100E6000FA4900224A6007220A7283220A73B0F507
:100E7000165F1ED08522B0F5E13F1ED0B0F5E12F00
:100E80001ED0B0F5962F1FD020E0062000F006FB04
:100E90002869B843286156F8C40F20F0100030606C
:100EA000EB48C17821F00201C170EA488461BDE8D5
:100EB000F08168200870212004E00820087004E018
:100EC0000C70C120886201E00C708A620C73087C8F
:100ED00040F0C00008740120486028693843286148
:100EE0001D21062000F0F0FABDE8F041062000F0D8
:100EF000CABA70B50E46044672B6D749887AA0427F
:100F000004D162B63046FFF79EFF2EE0D04D012897
:100F100003D1E87820F00200E8708C7262B60320FA
:100F20001DF0ACF8CB48012C07D001220221022C85
:100F300006D0032C07D0002070BD0321C16104E05E
:100F4000C261816101E0C16182613046FFF77BFFD0
:100F500003201DF093F872B6012C05D1E878010644
:100F600002D540F00200E87062B6012070BD10B5F5
:100F700072B6B94CA17A814201D062B610BD62B698
:100F8000012812D0B248C07800060ED5B0482430EF
:100F900090F8F202012805D04FF49621BDE81040E8
:100FA0000120A6E74FF4E121F8E70020FFF74BFF0F
:100FB00072B60320A749C8610020A072DDE72DE9C1
:100FC000F041A04FA04D040012D04FF4E1384FF48F
:100FD0001656B4F5E12F03D0444501D0B4421AD1DE
:100FE000D5F8C400C00117D5072000F057FA18E063
:100FF0009749C87820F00400C87098490870072005
:1010000000F04CFA386820F4A000386055F8C40F9E
:1010100020F0807028604AE755F8C40F40F08070D7
:101020002860386840F4A00038608D480021416095
:1010300007210172832101730121B44201D13022C1
:1010400002E0444502D10422027000E00170032254
:101050000273852280F8282041601F21072000F0BC
:1010600033FABDE8F041072000F00DBA784879491D
:1010700024304FF4004290F8E3330BB18A6100E072
:10108000CA6190F8E2034FF4803201280AD00228A6
:1010900008D0042806D0CA61032802D16949000596
:1010A000C86570478A61F7E7664B30B44FF47560E6
:1010B00018604FF4BE1058604FF0A8701861654872
:1010C000402181616749C1614FF091618163664947
:1010D000C1635D49D1F88021D20704D06022C26586
:1010E0004FF4847203E04FF4A472C265202282653B
:1010F0004FF08054C0F89840D1F88011544A490705
:1011000008D511894AF20155A94218D0A1F5254503
:10111000023D14D0002151715449016054490162CB
:101120004FF4B4710164C0F880404FF44C2018644F
:101130004FF4201058644F48D86430BC96E751797A
:10114000127951EA020502D04FF00055856341B192
:101150003F49243191F8EC13032902D04FF40011D8
:101160008161002AD8D08463D6E743498A688B68B6
:101170009B1A8342FBD3704710B5334CD4F8C4108C
:1011800041F48051C4F8C41001223C49824042EA33
:1011900001033B490B600B6843F080730B600B6BE2
:1011A0001342FCD001EB800000690022C0F30B1059
:1011B0000A6054F8C41F21F48051216010BD30B57D
:1011C000204C25692069400503D5206920F4806002
:1011D000206120494FF0C070C8630320FFF7CCFFA7
:1011E0002561800830BD2DE9F05FDFF864A08046FE
:1011F0000AF11C0A05249AF800000025C0F38100BA
:10120000032800D10125DFF87C90D9F8141021F0D3
:101210000101C9F81410FFF773F80E4E4027F76567
:10122000DFF820B0DBF81000400530D40220FFF7D3
:10123000E5FCB765706D4006FCD5F7650DB1FFF7AD
:1012400064F821E000C0024000C00F4000000140EF
:1012500004C0072000C0092038030010D8E107208F
:10126000008009400004240000001431438425005C
:1012700000009C3503080820008000400002200088
:10128000004003400080014003201CF0F7FE98F866
:10129000000038B19449D8F80020CA6198F80400D9
:1012A00081F8200055B1D9F8141041F00101C9F8B6
:1012B00014100CE0285DFFF7A1FC00E05546641E09
:1012C000E4B2F7D2B765706D4006FCD5F765DBF880
:1012D000101041F48061CBF81010BDE8F05FFFF70B
:1012E00014B870B58148016921F4806101618048BA
:1012F000D0F8C400400604D57E48416921F00101C0
:1013000041617D4C4025E565FEF7FAFF0220FFF7BD
:1013100075FCA565606D4006FCD5E565BDE87040CF
:10132000FEF7F3BF7549002009794A070AD40A0776
:1013300001D5012006E0CA0601D5022002E04906D7
:1013400000D50320684A2432104490F8D21292F853
:10135000CA0600EB8000401D48430A21B0FBF1F0B3
:10136000704730B5604D0B4630B9FFF7DBFF696958
:1013700048436421B0FBF1F0C8245BB95A496B695A
:10138000243191F8F02391F8CA16491C59434A4375
:10139000B2FBF4F388B1C82800D3C7207BB1C82BB7
:1013A00000D3C723534AC0F1C7019164536211644B
:1013B000C721C72805D3546404E00120EEE70123C8
:1013C000F0E7516491617920106548480169490549
:1013D00008D4C16911F4401F04D19169491E91607C
:1013E00009215160C16941F44011C16130BD4448D7
:1013F00041688907FCD4017D8906F9D570473A4ACE
:1014000010B54AF20250108102F1240090F8CE0289
:1014100020B13C48016841F0040101603448D0F833
:10142000801021F00201C0F88010AA24C0F88C407E
:101430005523C0F88C30D0F888108901FBD4D0F83F
:10144000801021F00101C0F88010C0F88C40C0F875
:101450008C30D0F88810C901FBD40121C0F80411E8
:101460000023C0F80C31C0F8C03020BFFFF712FCD9
:10147000138113F06FFC4FF4FA40FFF71BFCBDE83B
:10148000104013F00BBC00F01F02012191404009F5
:10149000800000F1E020C0F80011704700F01F024A
:1014A000012191404009800000F1E020C0F8801146
:1014B000704700F01F02012191404009800000F1B7
:1014C000E020C0F880127047C906090E002806DA2D
:1014D00000F00F0000F1E02080F8141D704700F1CB
:1014E000E02080F80014704704C0072000C00240CC
:1014F00000C00F400080014000C0092038030010E8
:1015000000C0004010ED00E0202803D37E2801D861
:101510000120704700207047302803D3392801D8B4
:101520000120704700207047A0F16101192901D8FE
:101530002038C0B2704700B50146002207E002EB38
:10154000820011F8012B02F00F0202EB4002087832
:10155000FFF7E2FF0028F2D1104600BD02E001F8DB
:10156000012B401C0278002AF9D100200870704736
:1015700004E0521E01F8013BD2B2401C0378002B5C
:10158000F7D10020521ED2B202D301F8010BF9E7C5
:10159000704730B5FD4CFE4B05E01A8810F8015B32
:1015A000A554521C1A80491EF7D230BD10B5F74C15
:1015B000F74B04E019886254491C1980401C0278DA
:1015C000002AF7D110BD10B50146002001E0401CF3
:1015D00080B211F8012B002AF9D1ED4BEB4A040A35
:1015E00019885454491C89B25054491C198010BDA3
:1015F00030B5044610460023E64A09E0E55C5B1C72
:1016000085EA10259BB232F8155085EA002080B299
:101610008B42F3D330BD0022EAE7F0B50022DE4E64
:10162000A0F1010E1CE006EB820C1546DCF8D04060
:101630002946274609E006EB8103D3F8D030A342C0
:1016400001D21C460D46491CC9B28142F3D306EBB8
:101650008501521C51F8D03FCCF8D030D2B20F6087
:101660007245E0DBF0BD30B503004FF0FF3409D028
:10167000002005E031F810509D4204D0401CC0B25B
:101680009042F7D3204630BD2DE9FE4F0546C3A05A
:1016900000240DC8C44F8DE80D000526DFF80C832B
:1016A000A1463C70B5F5C87F09D2880701D508204E
:1016B0003870C80763D0387840F004004DE0BC496A
:1016C0000869400545D598F80000430741D50B69E6
:1016D0008A4623F480630B614FF0E0234915C3F879
:1016E0008011C0F38101DFF8CCB2032906D040F0AD
:1016F000800088F80000FEF703FE07E080218BF8E9
:10170000001019E018F80600FFF778FA761EF6B216
:10171000F8D2A94840228265416D4906FCD5C265D0
:10172000A64850F8C41F21F480610160DAF8001067
:1017300021F42821CAF8001032201CF09FFCA04898
:10174000416921F001014161092001F0F0FA8BF8B3
:101750000090B5F5FA7F02D2302038700FE0B5F571
:10176000FC7F2AD2B5F5FB7F01D2202000E040208B
:101770003870E80702D04FF07C6400E0914C3B7871
:1017800088F80030B5F5FA7F43D200216E460A2270
:10179000B5FBF2F002FB1050B5FBF2F5375CC1EB84
:1017A000C10C07FA0CF73C4313F00C0F1BD038B1F7
:1017B000012811D007281BD10EE088F8009028E0FE
:1017C00039B1E80702D1A81E02280FD244F0005414
:1017D0000EE044F080540BE011B144F4C01407E073
:1017E00044F4C02404E0012902D108B924F47E5451
:1017F000491CC9B20229CBD3E80701D044F4031431
:10180000022D06D3042D02D244F4803401E044F0CA
:101810007074C8F80140BDE8FE8F10B5FFF7CFFC2B
:1018200000FB00F101FB00F240F2EB53B2FBF3F2DC
:10183000891A6FF4037200FB0210634908444FF4E5
:101840007A71B0FBF1F0614982080868A2EB90025E
:10185000104408605E4991F8E313002913D0C0EBEF
:101860000010C821B0FBF1F010F0FF0000D1012002
:10187000010341EA002040F018020221BDE81040B7
:101880008A2001F088BA10BD2DE9F0410446FF29F5
:1018900002D00846FFF765FD4E48FFF7A4FC002C78
:1018A00023DB4D4E30784D4D28704D4F0AE0FFF749
:1018B000F1F901201CF0E2FB14B1641E02D105E035
:1018C000387818B9287831788842F0D0287831787B
:1018D000884207D02878401CC0B228704149085C73
:1018E000BDE8F0814FF0FF30FAE70020F8E710B5CF
:1018F000FFF7CAFF0446FFF7F4FC204610BD2DE9B0
:10190000F047334F00264FF4FA7897F8D6020228B2
:1019100001D24FF47A7801254FF0FF392946BC20D7
:10192000FFF7B2FE97F8D602A8421BD30124E1B21A
:101930004046FFF7A9FF6400802CF8D9012D4FF035
:10194000C80122D04046FFF79FFFFFF7CAFC0121E4
:101950000846FFF706FD40461CF090FB6D1CEDB2FB
:10196000032DDBD397F8CD0201213044C830FFF7B7
:101970008BFE97F8D2024006010E4846FFF784FF1F
:10198000BDE8F047012003F057BC2DE060CC0720F4
:10199000C4E107206C05020028C807203F065B4F02
:1019A000666D7D077F6F00003C03001020C007209C
:1019B00000C002403F03001000C0092000C00F40DB
:1019C000008001400000C0F3400D030018C0072054
:1019D00028C00720F66E00003803001039030010FD
:1019E00006C0072060C907204846FFF74DFF0020CA
:1019F00003F0D4FC6421B0FBF1F640461CF03EFB42
:101A0000A3E770B5FE4AFF4D0021127895F8F54224
:101A100005EB021310E003EB410292F821648642C9
:101A200008D892F82224824204D905EB4100B0F88C
:101A3000D20370BD491CC9B28C42ECD8002070BDE5
:101A40002DE9F047EF4F04003946B7F8E803B1F845
:101A5000E81320F0010040F45055EB4821F0070155
:101A60004FF0FF394FF480224FF0020641F45051FD
:101A70005FD0C263DFF89483012C24D9032C07D1F3
:101A8000E34B4246E3A002F0CFFD002002F0C5FA8E
:101A900040F25640054306EB05220321422001F0A7
:101AA0007AF9032C27D0282002F02FFA25F440558C
:101AB00006EB05220321422001F06DF9032C24D00E
:101AC000052002F022FA4CF6F970054097F8E80379
:101AD000032100F00700284340F49A6506EB052235
:101AE000422001F058F978B3032C18D0CB48007885
:101AF00002F00BFA25E0C64B42462946C5A002F08B
:101B000093FD002002F089FAD0E7C14B42462946F6
:101B1000C0A002F089FD002002F07FFAD3E7BC4BA1
:101B200042462946BBA002F07FFD002002F075FA74
:101B300007E0826306EB01220321422001F02BF92A
:101B400010B10120BDE8F087FFE74846FAE770B51D
:101B5000AC4DB449B24CB5F8DC0248431EF0F7FA7C
:101B6000B14AB24B1EF06EF91EF0C4FA00EB400110
:101B7000C9000A22B1FBF2F2AD492060B1FBF2F1DB
:101B8000AC4A116095F8CC326BB14FF47A7358437C
:101B900040F24963B0FBF3F020604FF47A704143A8
:101BA000B1FBF3F0106095F8D80211684843642146
:101BB000B0FBF1F0106095F8DB02216848439E49C4
:101BC000B1FBF0F09549097808449C492D30086034
:101BD00070BD70B502469A488A4E03680A20B3FB6E
:101BE000F0F03244C1B292F8035400208D4211D873
:101BF00092F808448C420DD3A5420BD096F8D042FF
:101C0000084654B192F81C0496F8E92402448A422A
:101C100001D8081A70BD002070BD92F81C14C829A4
:101C200001D0084670BD96F8CF120029FAD0C72B14
:101C3000F8D803F1C80070BD724910B5034691F899
:101C4000D6220120022A0FD36D496E4C032A09784F
:101C5000214404D191F817249A4200D8032091F826
:101C60001214994200D8022010BD70B5754D0020A5
:101C70002880754802F0F0F874A002F017FA614C61
:101C8000E07BFFF741FC30B104F10F0002F00EFAE7
:101C90005F2002F025F96E4829880144042004F0F1
:101CA000B6FA5F2002F01CF9C321D4F8E80202F072
:101CB0006DFA2E2002F014F966A002F0F7F9BDE8E3
:101CC0007040002002F00CB9F0B5002507462C4604
:101CD000064601E06D1CEDB216F8010B0028F9D1A3
:101CE000384610E08E5C521C90F800C092B26645F7
:101CF00003D1641CE4B2401C01E000243846AC422D
:101D000001D11046F0BD9A42ECD14FF0FF30F0BD4A
:101D100070B500244FF480652B4641F2E80221465D
:101D20004B4801F0E6FB4A494B4AD1F8FC028018C7
:101D300005D04A4A801806D0494AD04203D107202C
:101D400051F820200AB1002070BD401CC0B20A2802
:101D5000F6D9002051F82020401CC0B214440728B6
:101D6000F8D3C869001BC861294639480AF096FCB7
:101D700040F2024382220021354801F0BAFB0120E3
:101D800070BD10B5374C207848B101F00DF900282E
:101D900005DB3549097829B1344901200870002054
:101DA000207010BD3249F9E72DE9F05F314B044650
:101DB000002518783049087030480278DFF8C0B044
:101DC0008BF80020DFF87C802E4EDFF8BCA0A946FF
:101DD000A8F800502E2C07D1307840F02000307049
:101DE0002A4802788AF80020194FFEF753FF22494B
:101DF0000A7820480078824277D00878401C47E073
:101E0000D7E1072028C0072000C009208400050072
:101E1000F66E00004943333700000000C3EF07208F
:101E2000ECE10720A0860100FD1873D7D47720418C
:101E300000180D8FF0E1072040AC2700F4E10720E7
:101E4000E8E10720C4E10720FB3E000053435F00A8
:101E500060CC072056544600DFBC9A78A9EC307558
:101E600013CF12CF06C007207803001065EF0720BC
:101E7000D5E107203803001039030010400300109B
:101E80004103001007C0072005C0072004C0072039
:101E9000C0B20870F9490D5CB8F800003D54401C10
:101EA00080B2A8F8000007F80090284602F0E0F899
:101EB000B8B33878212805D041280BD000216128FB
:101EC00014D008E0307840F002003070781C02F046
:101ED000EDF81DE001210022114303D0317841F0DB
:101EE00002013170242803D004E028E00122F3E746
:101EF000022C09D0307840F002003070E04802F047
:101F0000D5F8022C04D006E0307840F00400F4E765
:101F10000A2001F0A5FFA8F80090307820F0060014
:101F20003070172D0DD1307840F002003070D5A000
:101F300002F0BCF8307820F00200307001E0022C92
:101F400002D02E2C10D01EE0CF4800789BF8002045
:101F50005946904217D00878CC4A0244401C087079
:101F6000107801F0BDFF0EE09AF800205146C848F5
:101F70000078824207D00878C64A0244401C0870A4
:101F8000107801F06DFF1A2D7FF42FAF2E2C03D1A6
:101F9000307820F020003070BDE8F09F2DE9F05F30
:101FA0004FF4165500264FF4FA40FEF783FEBA4967
:101FB0000878820705D5BDE8F05FB849B8A002F0FF
:101FC000ADB8DFF8E0828946352188F80000B6A078
:101FD00002F08BFAA0F1310104297CD2322804D01E
:101FE000332805D0342806D007E04FF4E13504E06B
:101FF0004FF4962501E04FF4E1253421B8A002F01A
:1020000074FA04463138032865D2DFF804B3312C62
:1020100004D0322C11D0332C49D04FE03321BDA055
:1020200002F063FAA0F131010229B5D2322800D1C1
:102030002E2628460AF0C4FF40E0C1A002F084F832
:10204000DFF81CA39AF8F30238B10CF061F8071E10
:1020500024DD9AF8F30220B10EE001200BF069FDB7
:10206000F5E728460BF044FDDBF814105846490309
:1020700002D54FF48021C161012F04DD43F6982180
:10208000B8A002F0FEFCBAA0401C02F00FF820201D
:1020900001F026FFBA4802F057F80FE098F8001058
:1020A00089F80010B7A1BA4802F038F82BE00220F6
:1020B00010F0D0FE2846FEF782FF0226B5480078D1
:1020C00008B1FFF75EFE01201BF0D8FF4F4699F8DC
:1020D0000000454600E01AE088F800003046FFF7AF
:1020E00063FE332C02D1002010F0B4FEAA48007821
:1020F000FEF73DFF287838704FF48020CBF81800A9
:1021000064201BF0BBFFBDE8F05F01F092BF43E726
:1021100070B59349072081F8EA03A0A1A0A001F0BF
:10212000FDFF202001F0DCFE9A4D0024012001F08B
:102130008BFF00F048FF012102F028F8C82001F0D1
:102140006CFFC0B22C7001F093FF0028EED0BDE808
:10215000704001F06EBF30B5814D4FF4004000215A
:10216000A5F8E40205F5397001236A1892F8A54232
:10217000012C0DD192F8B1220488102A03D203FA5F
:1021800002F2944303E0103A03FA02F2144304808B
:10219000491CC9B20C29E8D330BD70B5704C221867
:1021A00092F8A532012B0BD0022B3BD100218A20C3
:1021B00092F8B1220125102A06D29540294306E063
:1021C000B4F8E4124420F3E7103A9540A943012BF8
:1021D00009D0022B0CD075496D4801F09FFFBDE876
:1021E000704001F026BF022202EB012203210FE022
:1021F00094F8200040060ED511F00700EFD001063C
:1022000041EA004141EA002040F0100204218A2006
:1022100000F0C1FDE3E74FF0FF314FF4037002F02F
:10222000D0F9DCE770BD10F8011B01E05140401C03
:1022300002782A2A01D0002AF8D1084670470246BF
:10224000002059B107E0521C2C2B01D1491EC9B204
:10225000401C002903D01378002BF4D100207047D4
:1022600010F8011B41B102E0401C402904D0017864
:102270000029F9D1012070479AE0000060C90720C9
:1022800060CC07202B2B2B004003001060CB0720D5
:1022900004C0072060CA072007C007205A1F020099
:1022A0000A000000D8E1072053656C656374204282
:1022B00061756420726174650A312E2039363030C0
:1022C0000A322E203131353230300A332E2033306D
:1022D000373230300A342E20343630383030000077
:1022E00053656C656374204D6F64656D0A312E20F3
:1022F000426C7565746F6F74680A322E2047534DB7
:102300002F475052530A332E2047505300000000ED
:1023100000C0092053656C65637420426C75657458
:102320006F6F74680A312E204C61697264203733F4
:102330003053410A322E20524E34363738000000D6
:102340000A506F7765722047534D2F554D545320D7
:102350006D6F64656D2E20576169742E2E2E0000FE
:1023600028C00720504220444F4E450D0000000079
:10237000204D6F64656D2F456D61696C0000000034
:102380008C17020047534D2F475052530000000056
:10239000A521020006C00720420300103A200000D9
:1023A0005475726E2073776974636800622102004D
:1023B000002060E72DE9F84FFC4EDFF8F483054676
:1023C00031784FF0FF3488F8001000F0DCFEF94857
:1023D000C16941F44011C16101220021462000F091
:1023E0000CFDC0F3001703220221442000F005FD7C
:1023F000009020F40040022101EB00220321442040
:1024000000F0C9FC002824D0EB484FF4FA79C0F85A
:1024100000901FB106E002680AB903E0E7490A78B4
:10242000002AF8D0E4480068002812D005201BF0EC
:1024300025FEFFF7A6FC4FF0010A86F800A01B203E
:1024400001F00EFD35B1012D59D0022D6DD0032DB7
:102450006ED070E0DA49DB4881F800A00178DA48F4
:102460000170DA4D2978DFF868B38BF80010DFF8D7
:10247000489340F6B831C9F8001037E0D2490A78DD
:10248000D048007882420CD098F8000020F001007B
:1024900030700878401CC0B20870CE49085C01F06A
:1024A000DFFC9BF800005C462978884215D086F84E
:1024B00000A02078401CC0B22070C749085C01F021
:1024C000CFFCC648017841B121782A78914204D1E5
:1024D00000210170062000F02AFCD9F800004C46CB
:1024E00020B9FEF7D7FB40F6B8302060B34800783B
:1024F0000028C3D0B2490020012408701BE00AF074
:10250000CAFB04463F214D46484601F065FD0028C0
:1025100011DB522001F0A4FC2021284601F05CFDD3
:102520000A21284601F058FD05E00AF04FFC01E0C1
:102530000AF00CFC0446AA49009841EA0022032153
:10254000442000F028FC17B90A201BF097FDFFF784
:1025500018FC98F800003070002C08DA601C09D0D4
:1025600014F10C0F03D02146D22002F02AF82046A5
:10257000BDE8F88F4FF0FF314FF4FA70F5E72DE921
:10258000F05F4FF0050B4FF0640A96A001F08EFD4E
:1025900000244FF0FF39DFF85C8201F04AFD042C83
:1025A00008D095A0801C01F081FD0121601C01F084
:1025B000EDFD14E093A001F079FD98F8E2130329F2
:1025C0000DD1B8F8E40241F6026141EA002203218C
:1025D000442000F0E0FB8E494FF480308861AFF278
:1025E00044218CA001F09AFD042C06D208EB0407CC
:1025F00097F8D25207F2D22702E098F8F053874FAB
:102600000321284601F0C2FD022C03D204F101018E
:10261000284604E006D14FF0000105F5C870FFF729
:1026200033F803E0032C15D0042C17D009EB450038
:10263000C1B20020FFF728F9064601F019FD20B3CA
:10264000641CE4B25C45A8D300F09DFDBDE8F05FDA
:1026500001F0EFBC002140F2F710E0E7012128462D
:10266000FFF712F898F8F01398F8D20209EB41013D
:1026700009EB4000C9B2C0B2FEF773FE6848FEF72E
:10268000B2FD002001F0C9FCD6E72B2E04D02D2E80
:1026900006D01B2E09D011E055450FD26D1C02E06B
:1026A000012D0BD96D1E3D7008E098F8E203022859
:1026B00001D0042802D10020FFF77CFE032001F0A6
:1026C000C3FC91E72DE9F34F012485B01220CDE939
:1026D0000004484806270026B0F8C8B206984FF410
:1026E0007A7AA0463546B146029628B14C4B4D4AFF
:1026F00021464D4801F098FF002007F01BFE90B1E5
:102700003C48B0F8CA02E8B348490844811E10F8B2
:10271000019C0D78C11E0E78011F09780091411FA0
:1027200010F8068C0F7833494048B1F8CA2210449B
:1027300003903F48806800F00F0202EB0900401C44
:1027400000F0FF09B9F13B0F26D96D1CA9F13C003F
:10275000EDB200F0FF093B2D1ED93C3D761CF6B2D0
:10276000EDB2172E18D9183E08F1010000F0FF084D
:10277000F6B2B8F11C0F0FD9A8F11C0000F0FF0849
:102780007F1C00E056E0FFB20C2F05D90C3F0098EB
:10279000FFB2401CC0B200900A20B4FBF0F200FB74
:1027A00012400028019876D078E0000007C007208A
:1027B000D8E1072000C002404403001006C00720F3
:1027C0003D03001004C0072005C007203803001097
:1027D0003903001060CA072060C907203A030010BF
:1027E000020080004C4544204272696768746E653F
:1027F0007373000028C007202D20436F6C6F722078
:102800000000000050574D2065787465726E00001E
:1028100000C0092020696E202500000018C4072090
:10282000F66E0000060001008312020080DD072022
:1028300000800040FE4DBBF1000F1ED0ABF1010146
:1028400028784FF48067B7FBF0F00A26B0FBF6F06B
:10285000401C00EB8000430041F2D202F54800F03A
:1028600048FE2878B7FBF0F0B0FBF6F000EB8001F3
:10287000F04800EB41000A3048E72978EE4A484228
:102880004942126801EB810102EB4002114401EB65
:102890004001D5E7FFE7404240B2019000FB0AF05B
:1028A0000FFA80FBAAF101000FFA80FAE34890F8D2
:1028B000DB0200EB8001BAEB410F03DC4FF47A7AC4
:1028C000FEF7E8F903984FEA1B21017003980021F5
:1028D00080F801B08170C17000F1040B069868B1F6
:1028E0008BF800808BF8017000998BF802108BF840
:1028F00003608BF804508BF8059013E0CF48B0F8D4
:10290000CA12CC48001D0144062003F080FCCB48CD
:10291000B0F8CA12C748C01D0144052003F077FC77
:102920008BF80540C648006820B101F0EAF908B10B
:10293000012002900698A8B16420B4FBF0F100FBDE
:10294000114010B1059884420CD1062001F07CFBA7
:102950000621204601F01AFC0A2001F015FB01F0C7
:1029600087FB28B920460599641C8842FFF4DBAE3A
:102970000298002805D007B00B20BDE8F04F00F00A
:102980001ABE07B0BDE8F08F2DE9FC5FFA20019078
:1029900000F00AFBDFF8A482064698F8F20201284C
:1029A00029D04FF496200090002E7DDBA548A64943
:1029B000F4B20078097860400840DFF890A2A44F94
:1029C000DFF890B200064FF001094FF000054AD53C
:1029D0002006387837D4800610D58BF800500120B7
:1029E0000DF0F4FF9BF8000018B100F0DDFA0600CE
:1029F00007D4F4B205E04FF4E120D4E7C8201BF07F
:102A00003DFB00980AF0DCFA48B393484A4680F848
:102A1000009098F8EC134046022901D28F490D70BE
:102A200039788F4B41F0820139700621197090F886
:102A3000F2122E2901D18B490A7098F8D70270B191
:102A40008AF800500BE0874920F0820038700D7042
:102A500098F8D71219B1C00701D08AF800908BF806
:102A60000050814805707749097884EA0100764969
:102A700009780840400649D57C48007818B398F892
:102A8000CC0600BB7A4E60061ED402200BF051F833
:102A900041F2707177A001F0F4FF387840F0420005
:102AA000387098F8D71200E09FE009B18AF800501A
:102AB000694A82F8009086F8009098F8EC030228A2
:102AC00020D2664805701DE03078D8B140F6B831A4
:102AD00069A001F0D6FF002804DA6A4801886A4834
:102AE00001F034FE694835704FF4802181613878F7
:102AF00020F04200387098F8D71219B1C00701D001
:102B00008AF800908BF80050574805704D480078BF
:102B10006040C00623D55E49E00617D54E485D4E9D
:102B2000032380F8009038784A4640F0010038705E
:102B30003370800604D5087810B95749082008700A
:102B400098F8D70238B18AF8002004E0387820F0ED
:102B5000010038700D708BF80050434805709BF8E9
:102B600000005E46DFF800B19BF8001008430DD06E
:102B700098F8EA0338B114201BF080FA00F023FA29
:102B8000464981F8009035708BF800503248017842
:102B900031B3057001981BF071FA414801F0C6FA93
:102BA0003048007818B13FA001F080FA06E03F48B5
:102BB00001F07CFA0021362001F083FC3C480078CB
:102BC0003C4908703C48056098F8D71209B98AF862
:102BD000005098F8EC03022802D22E490320087016
:102BE00036493878087017480470BDE8FC9F3448AF
:102BF0004BF203610180FEF774FB154800788006F4
:102C000002D501200DF0E2FE2E4850F8C41F41F419
:102C1000906101601D492C48C8632C4802210025A1
:102C20000170457085702A482B460322006851E0E8
:102C3000D4E1072080DD0720CCE1072028C0072051
:102C4000C8E10720D5E10720D6E1072066EF07207D
:102C500007C0072006C007206503001009C0072031
:102C60000AC007208703001065EF072008C007206F
:102C7000F8E1072030300D00434152524945520DD2
:102C800000000000C4E1072060CC072000C009203C
:102C900080030010FBE1072086030010E0E107201D
:102CA000D804020050494E203D2000004209020095
:102CB000380300103903001060030010D8E107202A
:102CC0000CC0072000C00F4000001034A0E1072016
:102CD0008803001044691B492120A047072000F009
:102CE0006AFC194819494FF40062007809684042AB
:102CF00001EB40011648491C00F018FB144C154824
:102D0000B4F8CA22B4F8C81204F2C22400F00EFBD0
:102D100062882188104800F009FB4FF08040456030
:102D200003210170AA21017255210172FEE700F012
:102D30001F02012191404009800000F1E020C0F80D
:102D400000117047A0E10720D4E10720CCE1072063
:102D500028C0072080DD072060D9072070B5F7481C
:102D6000F74C016A21F001010162206881680020AE
:102D700088470646206801690220884740EA060520
:102D80002068A021826A02209047EE4A2843202131
:102D900082F8001470BD2DE9F0410E46EA49E84D75
:102DA00040080A602968002332464C69E649A0477A
:102DB000E64FB86806EBC60101EB061100EBC10453
:102DC00002E0B868A04204D82868C06A8047C007FB
:102DD000F7D12868C06A8047C00707D12868406AD1
:102DE0008047B04202D10120BDE8F081286801216E
:102DF000826A042090470020F6E72DE9F84F144638
:102E00000022DFF8449300924FF0FF3889F8001059
:102E1000102C02D94046BDE8F88FC94E4FEA500A3F
:102E2000012330681A46C84945695046A847C74F2C
:102E3000BD68C83507E0B868A84204D93068C06AE0
:102E40008047C0071ED13068C06A8047C007F2D1F2
:102E50000098002833DB3068002322468569BA4990
:102E60005046A847B86804EBC40101EB041100EB1D
:102E7000C1050AE0B868A84207D93068C06A80472F
:102E8000C00702D0CDF8008019E03068C06A8047E2
:102E9000C007EFD10098002811DB3068406A8047F6
:102EA000A0420CD16846032C07D84946641EE4B200
:102EB00003D30A5D00F8012BF8E70098ABE7306810
:102EC0000121826A04209047A4E770B5A04801253B
:102ED0002905816332201BF0D1F89E4A032142204C
:102EE000FFF759FFAE1E002859D09A4A0321121D40
:102EF0004220FFF750FF914C06220321206A40F048
:102F0000020020624420FFF746FFF0B194F8E2137C
:102F1000022901D0042905D1B4F8E40240F40040AC
:102F2000A4F8E402B4F8E402022101EB0022032138
:102F30004420FFF730FF20B1206A40F004002062F7
:102F400003E094F8E203022829D24FF6037202212B
:102F50004620FFF720FF10B3206A012240F008004E
:102F600020625C215820FFF748FF002817DB206A09
:102F700040F02000206294F8E30398B1764A0321E0
:102F80008A20FFF708FF60B141F2130204218A2072
:102F9000FFF701FF206A40F04000206202E0304667
:102FA00070BD3546284670BD10B50122002146206F
:102FB000FFF723FF002805DA40F2092000F0FBFAB2
:102FC0004FF0FF3010BD10B5FFF7EEFF0721814332
:102FD00008D05A4890F8DA02401C884202D3491EB1
:102FE000C8B210BD002010BD70B5544D102495F826
:102FF0002000400708D5B5F8E402022101EB0022C9
:1030000003214420FFF7C7FE95F8E203032803D10C
:103010004F494FF48030C86195F82000400603D432
:1030200009E0641EE4B206D3102204218A20FFF7CF
:10303000B2FE0028F5D04948C16921F44011C161B0
:1030400070BD2DE9F05F464B3C4E4FF000091B78F8
:10305000B6F8E42203EB43034D4610244946B34639
:1030600006EBC30A4FF0010C0BEB010696F8A532F4
:10307000FBB10AEB410797F87184804511D8012B09
:1030800002D0022B07D00CE096F8B1820CFA08F8B7
:1030900048EA020205E096F8B1820CFA08F848EA1C
:1030A000050597F8727487420FD8012B02D0022BC6
:1030B00006D00AE096F8B1320CFA03F39A4304E022
:1030C00096F8B1320CFA03F39D43491CC9B20C299E
:1030D000CAD39BF820005E46400718D522EA124763
:1030E000022000EB072203214420FFF754FEB6F82C
:1030F000E412B9420BD096F8E203032805D1380751
:1031000003D013494FF4803088614FF0010996F8DD
:103110002000400634D568072BD0280640EA054039
:1031200040EA052040F010052A4604218A20FFF7D6
:1031300032FEB8B124B34FF0010921E028C00720C6
:10314000880300100AE000E0A0E1072000800040B2
:1031500000C00920020001001620600000C00240EB
:10316000D7E10720641EE4B2DED3E3E7641EE4B2D5
:1031700006D2102204218A20FFF70DFE0028F5D088
:103180004846BDE8F09F10B5FEF7ABF8BDE810402B
:103190002AE7000010B5052409E0574819F0CCFFD4
:1031A00040B155481AF0D6F80A201AF067FF641E9D
:1031B000F3D200E054B151A019F0E6FF4FF4806360
:1031C0000022181A8A4101DA012010BD002010BD2A
:1031D00070B54B4C4B48216812F04CFF05462068F7
:1031E00012F027F8284670BD10B547A147A012F08D
:1031F000AFF84349086028B1FFF7EAFF002801DB78
:10320000012010BD002010BD70B504463C4DC00724
:1032100003D0286808B111F0CDFFA00703D5686876
:1032200008B111F0C7FF600706D5A868002803D0D1
:10323000BDE8704011F0BEBF70BD10B5FFF7C8FF0C
:1032400035A1304812F084F82D490028486000D09C
:10325000012010BD2A4810B5012243689102294877
:1032600012F0BCFF012801D06FF00A0010BD2B49FD
:1032700091F82820027091F82420427011F8202F34
:1032800082700A7BC2700A7E0271898BC180002025
:10329000704710B522A11B4812F05AF818490028AF
:1032A000886000D0012010BD2DE9F05FDFF854A048
:1032B000DFF84CB01B4E8846814600244FF48067EF
:1032C000C6F800A050463A460121DBF8083012F05B
:1032D000ECFE05000DD014493B4682220978306887
:1032E00004FB018100F005F9641CBD4201D14C458D
:1032F000E6D32046BDE8F09F3102020055303A0087
:103300008C03001060CC0720610000005553424937
:103310004E464F2E545854007700000000400240A3
:1033200072000000DCE10720D4E107202DE9F04124
:103330000E46FA491446096821B3F949F94F8846FF
:1033400008601DE03D68AC4200D8254600210846D3
:10335000FCF7E0FF2A4604218420FCF7E0FF314619
:10336000761C0020FCF7D6FF002204218820FCF701
:10337000D6FF3868D8F80020241A0244C8F8002084
:10338000002CDFDC3046BDE8F081E748016921F41C
:1033900080610161E54850F8C41F41F4906101600B
:1033A000E449E348C863FDF775FCE34802210322C2
:1033B0000170002141708170E0480B46DE490068D1
:1033C00044692120A047DE48DE494FF400620078BE
:1033D0000968404201EB4001DB48491CFFF7A6FFAA
:1033E000D94CDA48B4F8CA22B4F8C81204F2C2249C
:1033F000FFF79CFF62882188D548FFF797FFFEE71B
:103400002DE9F05FC54D002408272C60FCF778FFFC
:10341000C349C948CB4E08600470C24C40F6FF7ADD
:103420004FF4047B80464FF484790222012141F25B
:103430009F00FCF774FF98F800101F2908D00120A6
:103440001AF01CFE28687F1E3FD00028EDD03DE01A
:1034500098F8010024380528F4D2DFE800F00309C9
:1034600010151D004FF40070286040F2FF702AE034
:1034700001202860C6F800A0C4F80090E2E702200E
:103480002860C6F800A004E00420286041F6FF7020
:103490003060C4F800B0D5E708202860022201217E
:1034A00041F2D700FCF73BFF98F8001098F80100B4
:1034B000814206D141F6FF7030604FF48460206095
:1034C000C0E747F6FF703060D6E748B121684FF497
:1034D0008460B0FBF1F09A4908700020BDE8F09FCD
:1034E0009749012008700020306020604FF4FF7081
:1034F000F4E72DE9F0470D46A2F580511E46174628
:103500004FF00409D23903D0A7F58051E83901D131
:103510004FF00809DFF80CA2DAF80040A4B3822FBC
:1035200001D1A64200D81C46DFF8F48129466D1C63
:10353000C8F800000020FCF7EDFE22464946384658
:10354000FCF7EDFE822F1FD1DAF800105046C2467C
:10355000741A804616E0DAF80020D8F80060911955
:10356000CAF80010B44200D8264629466D1C002037
:10357000FCF7D0FE324649463846FCF7D0FED8F874
:103580000000241A002CE6DC2846BDE8F08770B560
:103590000D46634904466848086009E02146641CFA
:1035A0000020FCF7B7FE002204218120FCF7B7FEC3
:1035B0006D1EF3D270BD70B5634D0446010AB5F8B7
:1035C000C402634A1154511C4454491C014406204E
:1035D00002F01DFE5E48B5F8C412401D01440520EE
:1035E00002F015FEB5F8C402554E083080B2A5F8B9
:1035F000C40231784FF48062B2FBF1F1814233D8DA
:103600000020A5F8C4024548006830B14548B5F827
:10361000C21202684E48FFF789FE3078494942429B
:103620004042096800EB800001EB42010844B5F814
:10363000C212884201D800EB4201491CA5F8C2120F
:103640008BB2B5F8C0128B420AD1884205D800EB84
:103650004200401CA5F8C00202E0491CA5F8C012B7
:1036600001211846FFF793FF3A4BB3F9000084425B
:1036700030D0A4F1DC003849384AB0F5A07F09D930
:103680001F2C07D01078460723D40C2C0DD0802C8B
:1036900015D01EE0107840F01400107095F8C706A1
:1036A000B8B1087840F0100012E040F0240010702B
:1036B00095F8C70668B1087840F0200008E040F0AF
:1036C0008400107095F8C70618B1087840F08000A3
:1036D00008701C8022480078800609D521480178AE
:1036E000062905D1802C03D01F490C8007210170C9
:1036F00070BD2DE9F04104460020FCF715FE0D4F8A
:103700004FF08056C7F89C60184AD06884209060BB
:10371000044800218C460568ED1C35E0C8E107200F
:10372000DCE10720D0E1072000C0024000C00F40CC
:103730000000103400C00920A0E107208803001019
:10374000D4E10720CCE1072028C0072080DD072036
:1037500060D9072062EF0720FAE10720F9E107208E
:1037600007C00720860300108403001000000340F8
:10377000D068032902D2C2F808C000E09460D36880
:10378000D806FCD4491C89B2A942F1D3C7F8986085
:10379000BDE8F041FCF7B9BD2DE9F047FA4DA52091
:1037A0000026287095F80004DD2801D0C5F8F463E0
:1037B000DD2085F800040822691CF448FDF7D8FED6
:1037C000F14906220931F248FDF7D2FE2E620522A8
:1037D00085F8D162002085F8DA2264212B18401C7C
:1037E000C0B283F8D2120428F8D385F8F013012769
:1037F00085F8CA764FF0020885F8D68285F8CC6243
:1038000085F8CD6285F8CE7285F8026485F8D962B4
:1038100045F66560A5F8DC0285F8D76285F8D062C8
:1038200085F8E96485F8E27385F8DB22082085F8DD
:10383000F50285F898624FF0030985F8F6920003C7
:10384000A5F8E402A5F8E66200202918401CC0B2E1
:1038500081F8BD620328F8D3CB48283000F51C71ED
:1038600000F8016B8842FBD300202918401CC0B22D
:1038700081F8A5620C28F8D3C64800F1D80100F8F9
:10388000016B8842FBD3DFF810A3002404EB840013
:1038900005EBC0010AEBC00001F2FA21FDF75EFE64
:1038A000641CE4B2032CF1D385F8F79285F8F89202
:1038B00085F8F9820024DFF8E492DFF8E4A211E051
:1038C00004EB440005EB800109EB840001F2723146
:1038D000FDF744FE3AF8140005EB4401641CA1F81E
:1038E000D203E4B295F8F502A042E9D8C5F8E8623F
:1038F00085F8F26285F8F36285F8EC6385F8F46286
:1039000085F8E363042085F8E7034FF44050A5F8F9
:10391000E80385F8EA63182085F8ED0385F8EE637F
:1039200085F8EF6385F8CB8685F8F16385F8CD7669
:1039300085F8F963012028E6F0B5934D002640F2A2
:10394000DC5085F8CF6285F80164A5F8DE024000FE
:10395000A5F8E0028010A5F8E202642085F8D802FC
:103960009048914A0127017812884842494202EB67
:10397000400201EB8101114401EB4000401CA5F81D
:10398000C002A5F8C202A5F8C462A5F8C662A5F8EF
:10399000C862A5F8CA62002085F808654FF0C70C18
:1039A000C822291805EB400381F8EA7481F8EF6416
:1039B000A3F8F464A3F8FE6495F8DB3281F80334CD
:1039C00081F808C481F80D2481F8122481F81724A5
:1039D00081F81C24002105EB00135C18491CC9B2B6
:1039E00084F821241029F8D300EB4003002105EBD3
:1039F000C3035C18491CC9B284F871241829F8D390
:103A0000401CC0B20528CCD37F2085F8EF04B5F860
:103A1000C80266490004C8640E654865F0BD2DE91A
:103A2000FC4763A00024D0E90010CDE90010FDF7A9
:103A300031F9614E72B6E946604D4FF0070845F620
:103A4000C05719F80400641CE4B22860052C0AD29F
:103A5000C5F804805949C5E902870846B047286877
:103A60000028EED00DE0052C0BD14FF4E04068604B
:103A70004548A8604FF48050C5E903074F49084600
:103A8000B04762B6286810B10020BDE8FC8701206D
:103A9000FBE72DE9F05FDFF828B13B4F05004FF061
:103AA00000084FF0040441F2E80A38D1DBF80000C6
:103AB000610280B389463B484E464B4600785246E9
:103AC00041423948006800EB41012F48491CFFF78B
:103AD00010FDB146354E0FE0012CECD84A4639496D
:103AE000294811F08AFC706D000CA7F8C802716DAE
:103AF000A7F8CA12A7F8C6023878A52803D197F804
:103B00000004DD2808D064201AF0B8FA641E14F00E
:103B1000FF04E1D105E00EE01CB165B10CB1012D4F
:103B200002D1FFF739FE8046FFF706FF022D02D1D2
:103B30002120FFF740FDFFF772FF4FF0FF3620B95D
:103B400031464FF47A7000F03CFDDBF800005C4633
:103B5000C8B1B8F1000F03D01E20FFF72CFD3DE0E7
:103B6000B5BB4FF48466B7F8C21233465546524689
:103B70001548FFF7BEFCB7F8C81233462A4613486B
:103B8000FFF7B7FC2AE024E028C007203802020033
:103B90003903020022C3072040020200B8020200DB
:103BA0001C020200D4E10720CCE1072000400240C3
:103BB0003234353233000000F11FFF1FB0E107201F
:103BC000C8E107200070000060D9072080DD0720D1
:103BD00004E031464FF4FF7000F0F3FC2068786297
:103BE00040467BE48C490022B1F8C802A1F8C60225
:103BF000A1F8CA2289490004C86448658848017848
:103C000021F0C00101708748017821F0C0010170E6
:103C100070478148B0F8C212A0F8C0120021A0F885
:103C2000C41270472DE9F0417F4E8048356800F09E
:103C300013F9DFF8FC8100217EA0D8F80020921D46
:103C400000F0EDFB040038D4D8F80000C11C8C4211
:103C500001D34FF400757A4A784984420F461160C7
:103C600008D821460020FCF755FB082141F2D2007C
:103C7000326814E000210846FCF74CFBD8F800003D
:103C8000411C8C4204D1042141F2D100326806E08B
:103C9000811C8C4206D1042141F2D3003268FCF72A
:103CA0003EFB05E06749201A01EB4027A7F5C067F6
:103CB000A9B2384600F04AFDBDE7BDE8F08130B555
:103CC000554CB4F8C202B4F8C012401A5E490978E3
:103CD0000CD5574B4A421B6803EB42054B4203EBA2
:103CE00083032B4403EB42029A1A10444FF4806280
:103CF000B2FBF1F1C9084143B4F8C40201EBD000B2
:103D000030BD70B5444C0025B4F8C802B4F8C612F2
:103D1000884205D1B4F8CA0210B90320FFF74BFC62
:103D2000B4F8CA02484E0A3080B2A4F8CA02317808
:103D30004FF48062B2FBF1F1814233D83A48B4F8D3
:103D4000C81202684148FFF7F1FA3178384A484210
:103D50004942126801EB810102EB4002114401EB80
:103D60004000B4F8C8120023401C491C884202D805
:103D7000A4F8C83201E0A4F8C812B4F8C822B4F814
:103D8000C6128A4208D10125491C884202D8A4F8EB
:103D9000C63201E0A4F8C612A4F8CA3201211046C6
:103DA000FFF7F5FBB4F8CA02B4F8C81200EB014003
:103DB0001A494865284670BD70B5174C234D030A53
:103DC000B4F8CA22AB546B1CD054A81C0B0A135471
:103DD000401C1154401C1118062002F018FAB4F8C7
:103DE000CA12E81D0144052002F011FA18480068C3
:103DF000002810D0FFF785FF00280CD01548007868
:103E0000400603D594F8CC06012804D0BDE87040E4
:103E10000B20FFF7D0BB70BD28C007200040024038
:103E2000F9E10720FAE10720D0E10720613E000018
:103E3000CCE107200A5061676500000060CC0720D4
:103E4000DCE1072000700000D4E1072080DD0720BE
:103E5000C8E10720D6E10720FA4908600020704732
:103E60002DE9F0410446F8484FF0FF350278E0B202
:103E7000D10704D0F5490B7D9B06FCD5087091074E
:103E800018D5F3494FF080434FF47A774E6D76079B
:103E90000BD5DE68BE42F9D202E0DE68BE4205D232
:103EA000FCF7F8FE2846BDE8F081EA490E7DB6062B
:103EB000F3D50870510709D5E749D1F8C410C901F5
:103EC00004D5E6490B7D9B06FCD50870100705D587
:103ED0002146002012F037FCA042F9D10120E2E790
:103EE00070B5D84D04460A2802D129680D208847AC
:103EF00020462968BDE870400847DA4AD84B118847
:103F00005854491C1180012070472DE9F047D64DC7
:103F100004462860D54ECC4FDFF85483DFF8549325
:103F2000DFF854A314E04CB1286820B1307828B1F0
:103F30000020BDE8F0874FF0FF30FAE738788006C0
:103F400003D598F80000012808D801201AF096F847
:103F500099F800109AF800008142E4D00120E8E7C7
:103F6000C5480078C3490978884201D100207047CC
:103F700001207047C1480078C1490978884201D1C1
:103F800000207047012070472DE9F047B64C0546E8
:103F900020604FF0FF3AB74EB44F40F6B839DFF823
:103FA000D8820DE0206825B108B1387830B150468C
:103FB000BFE718B9FCF76EFEC4F800901AF09CF940
:103FC000317898F800008142ECD03078401CC0B2C3
:103FD0003070AC49085CACE7F0B5A34E30604FF0F0
:103FE000FF30A44CA44DA74FDFF880C211E0227827
:103FF0002B789A4209D02278521C227019B12A7863
:10400000BA5C8A4201D10120F0BD9CF80020002A50
:10401000FAD13268002AEAD1F0BD10B50446FCF7A7
:1040200039FE95490978934A11702046BDE8104041
:10403000AAE70A2054E710B5044602E02020FFF763
:104040004FFF641EFAD210BD10B5044602E00820EE
:10405000FFF746FF641EE4B2F9D210BD10B5FFF7BA
:104060003FFF2E20FFF73CFFBDE81040202037E740
:104070000D2803D00A2801D0002070470120704786
:10408000814991F8D112022900D900210278002A31
:1040900001D00C2A06D0704710F8012F0C2AFBD152
:1040A000491EC9B20029F7D1401C704710B5FFF76F
:1040B000E7FF044604E00C2805D0641CFFF710FF5E
:1040C00020780028F7D110BD10B5044605E0641C27
:1040D000FFF706FF20780D2802D020780028F6D1BF
:1040E00010BD70B50E460024FFF7CAFF054611E06B
:1040F00028780C2802D0002128B100E001210022FC
:10410000114309D101E00122FAE76D1CFFF7E8FE37
:10411000641CE4B2B442EBD3204670BD10B50C462B
:10412000FFF7C4FF2046BDE81040BFE770B5054665
:10413000002455F82400641CE4B20178002902D060
:10414000FFF7B4FFF5E770BD10B5002805D0FFF705
:10415000ADFFBDE810400A20C2E610BD10B5044610
:104160000078FDF7D1F908B1204600E04748BDE8E6
:104170001040E9E710B504462220FFF7B1FE2046C3
:10418000FFF794FFBDE810402220A9E6F0B501F04A
:104190003F0230230A2589B011F0C00104D0402924
:1041A00006D0802905D101E0202302E0102500E09F
:1041B000022512B1511EC9B200E0212100268DF85E
:1041C0002060B0FBF5F605FB160606F00F07B0FB06
:1041D000F5F02F4E0DF11F04F75D8DF81F700FE005
:1041E00058B1B0FBF5F705FB1707B0FBF5F007F08A
:1041F0000F07F75D04F8017D02E042B104F8013DCC
:10420000491EC9B2ECD202E0641CFFF769FE2078B7
:104210000028F9D1022D06D0102D02D16820FFF719
:104220005FFE09B0F0BD6220F9E731B504240DF15D
:10423000030503E015F80109FFF712FE641EE4B25E
:10424000F8D238BD00C0072007C0072000C00040DA
:1042500000C009200000014000C00F40008009405C
:1042600060CC0720C4E107204403001006C00720EB
:1042700072030010390300103803001040030010CF
:104280004103001060C9072028C0072062210200F6
:10429000DC0702002DE9F047002617468846054650
:1042A00047F2305AB1465046FFF7B7FE041E04DC11
:1042B0000EB185F8009000203BE60D2C04D0082CB0
:1042C0000CD07F2C0AD000E00A24612F14D0642F78
:1042D000E0B226D0FDF720F930BB2BE006B3761E06
:1042E000F6B208206D1EFFF7FBFD2020FFF7F8FD5A
:1042F0000820FFF7F5FD1FE0E0B2FDF705F978B102
:104300003F2C1BD03A2C19D0E0B205F8010BFFF777
:10431000E7FD5C2C02D10C2005F8010C761CF6B2EE
:104320000AE0FDF7F9F838B1E0B205F8010BFFF744
:10433000D7FDF3E7BC42F7D00A2C01D04645B2D3F3
:10434000304649460246401C05F8011BC0B24245B2
:10435000F8D33046EDE510B5FFF79CFF04460A2080
:10436000FFF7BEFD204610BD70B500240D46064681
:104370002A2A01D101246122681EC1B2F848FFF740
:1043800089FF60B1012811D0002804DD2A46F449D4
:10439000304611F032F8BDE870400A20A0E51CB1AB
:1043A000F0A0FFF783FEF6E73046FAE7EC48007826
:1043B0002028EBD100203070EDE72DE9F0410F46C9
:1043C000804600241D46164610460A2102E0B0FB36
:1043D000F1F0641C0028FAD14046FFF767FE98F818
:1043E00000003F2802D03D20FFF77AFDE1B26422B1
:1043F000DB48FFF7B0FF78B1D948FDF79CF8B84229
:10440000EAD3B042E8D8002D05D0B0FBF5F105FBAA
:1044100011010029E0D146E54FF0FF3043E50023CC
:10442000CBE710B51C46FFF7FAFF002802DA4FF081
:10443000FF3010BD2070012010BD2DE9F0471E4651
:10444000DDF8208017468946824600250A20FFF7BE
:1044500047FD49465046FFF761FEC4A0FFF726FE20
:104460002D220321BE48FFF715FF040015D0BC48DC
:1044700001782D2901D10125401CFDF75CF8C0B25F
:1044800065B1012CE1D90028DFD08028DDD8404279
:1044900006E0B042D9DC88F800004AE57F28D4D88D
:1044A00040B2B842D1DBF4E770B504460D460A20AD
:1044B000FFF716FD2846FFF7D1FD2046BDE8704006
:1044C000F4E510B5044619B10146A948FFF7ECFF21
:1044D0000A20FFF705FDA748FFF7E8FD2046FFF794
:1044E000FFFCBDE810403F20FAE410B50C46FFF792
:1044F000DDFD01212046FFF7E4FF47F23050FFF7D2
:104500008CFD0446C0B2FDF707F818B12046FFF74E
:10451000E7FC07E04FF0FF32522C02D0482C09D0C4
:1045200000E014460A20FFF7DBFC0A20FFF7D8FC66
:10453000204610BD904900200860F2E710B50446FF
:104540000A20FFF7CDFC8D492046FFF7E7FD47F233
:104550003050FFF762FDC0B2432820D0884940F0B8
:10456000200091F8D1228749895C814201D1012143
:1045700000E00021792804D00023194303D001244E
:1045800007E00123F9E78049895C814208D14FF0B7
:10459000FF34FFF7A5FC0A20FFF7A2FC204610BD60
:1045A0000024F8E710B504462020FFF799FC77486F
:1045B000FFF77CFD002C03D0BDE810400A208FE4FB
:1045C00010BD70B50D0004462CD00A20FFF788FC02
:1045D0006E48FFF76BFD002C01DAC4F1C8041C2201
:1045E0006B492046FDF73FF8002805DB694951F883
:1045F0002000FFF75BFD03E084212046FFF7C6FDA6
:10460000681C06D02020FFF76BFC05212846FFF729
:10461000BDFD0A20FFF764FC5F48006810B120B2BE
:10462000FEF7C9FF284670BD70B50E461D461446FC
:10463000C2F3072111B1FFF737FF01E0FFF736FDA5
:10464000200CC00702D055A0FFF730FD600CC0075A
:1046500003D1E1B23046FFF799FD5148854205D0BC
:104660002020FFF73DFC2846FFF720FDA00C03D0DB
:10467000BDE870400A2033E470BD2DE9FF5F894634
:10468000002747F2305B4FF0FF3803F0C00603F01D
:104690000F05DDF838A0FFF709FD00240BE0641CCE
:1046A000E0B240F0300109EB0700FFF7FDFE07EB39
:1046B0000A00C7B2E4B2AC42F1D3C02E1FD0802EA4
:1046C00022D00A20FFF70CFC3F20FFF709FC5846D8
:1046D000FFF7A3FC041E22DDE0B2FCF71DFFF0B1E2
:1046E0002046FFF7FDFB04F00F04012C12DBAC4267
:1046F00010DC0298641E4FF0010804701CE0681C76
:1047000040F03000012102E045F030000021FFF7C9
:10471000D8FEDCE7C02E02D1681C84420CD0482CA5
:1047200004D02046FFF7A4FC30B903E01249002072
:10473000086001E0002CC0DA0A20FFF7D1FB0A2054
:10474000FFF7CEFB04B04046BDE8F09F2DE9F041F5
:104750000E46054600244FF4A07747F2305840E05B
:1047600060CC07202A2A2A2A00000000203D2000D1
:10477000D50A0200ED0A020060030010C60802001C
:1047800028C00720A2080200A5080200A5210200F7
:104790003004020068040200C8E107203A2000004B
:1047A000F66E0000B4FBF7F007FB104018B914B127
:1047B0004046FFF732FC200709D10A20FFF790FBA3
:1047C00085212046FFF7E2FC3A20FFF789FB15F828
:1047D000010B8221FFF7DAFC2020FFF781FB641C2C
:1047E000A4B2B442DED316E62DE9F0411D461746C9
:1047F0000C46060003D546422D20FFF771FB96FBC1
:10480000F4F096FBF4F104FB11663946FFF7BEFCA9
:104810004DB13C2C03D02C20FFF762FB13E03A2073
:10482000FFF75EFB01E03C2C0DD164240BE006EBAE
:1048300086004700B7FBF4F0C6B246F03000FFF741
:104840004FFB06FB14766D1EEDB2F0D2E3E510B51A
:104850000446AFF2B801F948FFF760FC02231A469C
:1048600064212046FFF7C0FFBDE81040F4A06BE4D0
:104870002DE9F041F348FFF767FCF34CF34DF44F9B
:10488000F44E40F6B83820782978884208D020784D
:10489000401C20702878385CFFF7EAFB002809D11B
:1048A000306818B9FCF7F6F9C6F80080052019F051
:1048B000E5FBE8E7AFE52DE9F05FE74FDFF89C8324
:1048C000DFF89C931E4615468A468346002404EB77
:1048D0004600401CC0B240F030015846FFF7E4FDEE
:1048E0002020FFF7FDFA5046FFF7E0FB2020FFF7FE
:1048F000F7FAC4F10100C0EBC00007EB8000FFF73E
:10490000D5FBAFF26810FFF7D1FB28780021FFF745
:104910003DFC20206D1CFFF7E3FA98F8CC0200EB79
:10492000800101EB0900FFF7C1FB641CE4B2012C1C
:10493000CDD909E72DE9F0412E26002405460327AD
:10494000B4FBF7F007FB104078B13046FFF7C8FA28
:1049500015F8010BC221FFF719FC022C00D93A26E9
:10496000641CE4B2062CEBD355E53B20EEE72DE9C1
:10497000F05FBC4B1C680625B1FBF5F6BA4F0C4442
:10498000DFF8C4A23A80DFF8E4829946DFF8C0B2CB
:1049900085181DE0D9F800104B468C4202D14FF02B
:1049A000FF30D1E69AF800C05246A84909788C45F4
:1049B0000CD01178491CC9B211701BF8012008F8FD
:1049C0000020401C38801868841901E019F094FC1C
:1049D00038888542DED883B2002208F80320B3E687
:1049E0002DE9F047002780463D464FF0010909FABE
:1049F00005F010EA080F24D017B12C20FFF770FA49
:104A000005EB45009A49C0EB4510441820780C2866
:104A10000CD1924890F8D10205E014F8011F0C293E
:104A2000FBD1401EC0B20028F7D1641C002614F848
:104A3000010BFFF755FA761CF6B2022EF7D37F1C56
:104A4000FFB26D1CEDB2062DD1D935E41CB504467C
:104A50001D200090872301AA85498648FFF70DFE97
:104A600000280DDD9DF8041001208840C1B28DF8AA
:104A7000041022780A4201D08A4300E00A432270DF
:104A80001CBD2DE9F05F0F46764983460024086877
:104A900026460A68C5192046954201D208603D465F
:104AA000DFF8C4918246A9F8000001E0641CA4B2BA
:104AB0001BF804000028F9D1884663490A78634846
:104AC0000078824224D0D8F8000000EB570508781F
:104AD000401CC0B208705E49644A0B5CB9F8000023
:104AE00031191354401C80B2A9F80000814213D838
:104AF00002F800A08BB232465C495846FDF7E4F854
:104B0000002802DDB9F800001EE6761CB6B203E00C
:104B1000FCF7C0F819F0F0FBD8F800008542CCD8BB
:104B20004FF0FF3010E62DE9F74F002491468A46FA
:104B30002546AFF6D337042A01D1AFF6C7374A4E20
:104B40000020308001E0641CA4B20098005D0028C1
:104B5000F9D140480160DFF814818346B84770B34B
:104B60004FEA5A01CBF80010B9F1040F1DD03649B5
:104B70000878401CC0B2087035490A5C308808F8D3
:104B80000020401C30803188281988421AD8002221
:104B900008F8012083B22A4634490098FDF794F8BA
:104BA000002809DD3088BDE8FE8F33490878401CB5
:104BB000C0B208703149E0E76D1CADB202E0FFE71A
:104BC000FCF768F8DBF800000028C7D1401EEAE7D0
:104BD0002DE9F05F234901250A680B6814180022AB
:104BE0009C4201D20A6004461F4EDFF860B0DFF835
:104BF00058901E4F92463280884699F800204946C8
:104C00009BF8000082423CD00878401CC0B208707B
:104C10000F49085C0A2807D00D2805D03188785440
:104C2000491C3180002530E055BB0A282DD1308841
:104C300007F800A0401C80B2308085E548120200D1
:104C40002056000014100200390300103803001031
:104C500060C90720440300107017020028C0072015
:104C6000D802020048030010C4E1072060CC0720EE
:104C7000A5160200731602004103001060CB072046
:104C800003E0FCF707F819F037FBD8F8000084427E
:104C9000B3D84FF0FF3057E570B50146FE48012408
:104CA00000EB041212788A4211D100EB0415681D42
:104CB000FFF7FCF9687830B1F8A0FFF7F7F96878EA
:104CC0000021FFF763FAFFF7B4F9204670BD641CBA
:104CD000E4B2072CE4D302D1401DFFF735FA0020DF
:104CE00070BD70B500242546EEA0FFF7DFF9002265
:104CF00001212046FEF74FF878B182212046FFF7C8
:104D000045FA04212046FFF741FAEDA0FFF7CEF95E
:104D10002046FFF7C1FF6D1CEDB2A41C14F0FF0488
:104D2000E5D102212846FFF731FABDE87040E5A041
:104D3000FFF70ABA2DE9F34F002687B089463746B8
:104D4000E448FFF7F3F9B9F1580F09D0FFF771F90B
:104D50004FF0000A0DF11008FBF79CFF002405E05E
:104D6000DDA0FFF7F1F9F3E7022C01D2250101E004
:104D700025014035E8B240F00C0102220798FEF709
:104D80003CF828F814003046FFF772F980B138F883
:104D900014002035000A00D06D1C0A2019F06EF9AD
:104DA00038F81400022145EA00220798FDF7F3FFC6
:104DB000641CE4B2042CD7D33046FFF759F900281D
:104DC00078D1B9F1580F24D01020FFF73DF9002415
:104DD0004546042135F81400FFF7D8F9641CE4B205
:104DE000042CF6D3B9F1580F50D047F23050FFF7EA
:104DF00014F90646482E6CD0A6F1310003285AD883
:104E000006F00700401EC7B2012FA5D93F1DFFB213
:104E1000A2E7B94C4FF08070A0634610E663B74933
:104E2000B74DDFF8E0B2C1F800A0B748C5F800A060
:104E3000CBF800A00168026811430160B3490A6819
:104E40000B681A430A60826A42F006028262886A2C
:104E500040F0360088627D2019F010F92868C00003
:104E60000190A6637000E0637D20C5F800A019F0F2
:104E700005F9A248006880000290DBF8000080007D
:104E800000902868C00003902C209EE700246D4607
:104E9000072155F82400FFF779F9641CE4B2042CCB
:104EA000F6D36420FFF770F80646994800789949D0
:104EB00008709FE70DE02D2E09D02B2EA8D10420DD
:104EC00040EA071201210798FDF765FF44E7082033
:104ED000F6E789494FF40000C8638B49C1F828A060
:104EE000C1F828A0FFF7A5F8FFF7A3F809B0BDE8BF
:104EF000F08F2DE9F041FF22012187A0FFF78FFA03
:104F00000646FFF796F8002E79DDF0B20022012167
:104F1000FDF741FF002864D083A0FFF7C7F8F0B287
:104F2000FFF7BAFE5C4901EB001898F80250022D19
:104F300002D10120FCF784FD7EA180A0FFF7EEF8EE
:104F4000FFF777F800241BE0022D39D0F0B20122E0
:104F50002146FDF752FF0700EED400212046FFF75F
:104F600015F90920FEF7BCFF0920FEF7B9FF98F8F4
:104F700004103846FFF70AF9FFF75BF8641CE4B247
:104F800098F80300A042DFD8002FD5DB012D01D017
:104F9000022D34D16C48FFF7D1FA00282FDD67A02D
:104FA000FF220021401CFFF73AFAC4B24FF480728E
:104FB000002166A0FFF733FA0746022D07D008E06C
:104FC0000C2040EA0410C1B2F0B20222C1E720076F
:104FD000040E44EA0722F0B20221FDF7DCFE0028AD
:104FE000AAD14FF0FF31022D05D040F20920BDE8D3
:104FF000F041FFF7E6BA40F20A20F8E7FFE7BDE824
:10500000F0812DE9F047050052484FF000044FF0C1
:10501000FF0601D0504800265049FFF77FF8304680
:10502000FEF767FB05210020FFF7B0F8384FDFF8E7
:105030003081384E4FF0020921460020FBF76AF913
:105040004FF000024FF004010DB1832000E08120F9
:10505000FBF765F9600708D10520FEF7F5FF05218C
:105060002046FFF793F8FBF715FE0022042160208D
:10507000FBF755F90020FBF757F9B9EB901F08D162
:1050800030783978884204D1D8F80000641C844212
:10509000D2D3052066E000006C0702002C204943B3
:1050A000000000000A526573706F6E64696E6720BD
:1050B00049324320646576696365733A0A000000EB
:1050C00064090000206465766963657320666F7506
:1050D0006E640A002805020020696D70312F73206C
:1050E000696D70322F7320696D70332F7320696D75
:1050F00070342F730000000000C009201CC007207E
:10510000500300104C03001000000940004009400B
:1051100038030010390300100A446576696365207E
:105120006164647265737300493243206465766913
:10513000636520000956616C756500000A52656759
:1051400069737465720000008C2102000A56616C5C
:1051500075650000D80C0200F60C02002B0D020051
:10516000CCE10720FEF770FF0521601CFFF70EF869
:105170003078397888420BD1D8F80000844203D1C6
:10518000F748FEF793FF06E00020FFF70BFA02E076
:105190003078401C3070FBF7B8F82046BDE8F08747
:1051A00070B5FEF746FFFDF7EEFFFEF729F9ED4C6F
:1051B00008B1ED4809E000212068FEF7E7FF20680C
:1051C000802801D2E9A000E0E9A0FEF76FFFE948DE
:1051D000FEF7BAFF206858B3E748FEF767FFE748D5
:1051E000FFF7ACF900281EDD0020FFF70AFFE44CB2
:1051F0002168884202D10120FFF703FFE14D2878A2
:105200004100E148B0F8C202FEF7C1F928782268EF
:105210004100404202EB4000401CFEF7B8F9FEF7A7
:10522000F8FCFEF7DFFCBDE87040D8A0FEF73EBFFB
:10523000BDE87040FEF7FDBE2DE9F05F4FF00007BE
:1052400005003E4607D10021084601F03DF8002147
:10525000012001F039F8112000F017FCDFF830B31D
:1052600001218BF80C109BF800109BF800201143D3
:105270008BF80010DFF81C9340F24C41C9F8001085
:10528000DFF814834FF0000AC8F800A0112000F0E6
:10529000F1FB05E00A2018F0F1FED9F8000018B182
:1052A000D8F800000028F5D0D9F8000020B3444613
:1052B000D8F80080C4F800A002E00A2018F0DEFE52
:1052C00020680028F9D02468112000F0DEFB0221BC
:1052D0008BF80C109BF800109BF8002011438BF802
:1052E0000010112000F0C6FBAC49A4EB08000C1A1A
:1052F00003D50127644200E0012615B9A8A0FEF7F6
:10530000D5FE322C00DCB6B175B90020FFF74AF9A2
:1053100056B917B12D20FEF7E3FD00212046FEF718
:1053200035FFA1A0FEF7C2FE4FF0FF3140F2122080
:10533000FFF747F903E015B98948FEF705FFBDE817
:10534000F05FFEF776BE70B50222012198A0FFF74C
:1053500066F8C0B2012802D002280AD01AE04FF045
:10536000FF3201219948FFF75AF80121FDF7AAF908
:1053700010E04FF47A7201219548FFF750F8054686
:10538000002402E02046FEF716F92046641C24B2F1
:10539000A842F7D3BDE87040FEF74BBE2DE9F047B9
:1053A0008C4D07004FF0000401D0FDF7ECFEDFF854
:1053B00028824FF0C0790A2640F6FF7AC8F83C9060
:1053C000E105C8F83810012018F058FE0220FBF75C
:1053D000D3FE012C19D041F6C8114843B0FBFAF0B6
:1053E00025F8020B2046641CE4B20228E6D3664C82
:1053F000F80707D0B4F8EE02B0FBF6F0FFF727FA93
:10540000FEF717FEB4F8EE02C8E6C0EB001000EBA2
:105410008000B0FBF6F0E3E710B57048FEF794FEAD
:105420006FA17048FEF77AFEFDF7ADFE4FF4FA74F7
:10543000FBF730FCFBF7C3FE0421FEF7A7FE204676
:10544000FEF763FD002803DA0420FEF7FDFDEFE719
:10545000FEF7EFFDBDE81040FEF7EBBD70B55F480D
:10546000FEF772FE03214FF4C270FCF70DF93221F2
:105470000020FCF73CFAC0B2FEF7FAFD00283BD151
:1054800003216F20FCF700F932210020FCF72FFAEE
:10549000C0B2FEF7EDFD00282ED103214FF4967027
:1054A000FCF7F2F832210020FCF721FAC0B2FEF737
:1054B000DFFD002820D100214FF4F470FCF7E4F860
:1054C00032210020FCF713FAC0B2FEF7D1FD00280C
:1054D00012D14FF4FA74251D00212046FCF7D4F8B0
:1054E00032210020FCF703FAC0B2FEF7C1FD00280C
:1054F00002D1641CAC42EFD970BD2DE9F05F4FF0D2
:10550000000A40F2F71756463A46514636A0FEF7D3
:1055100086FF0546B0F5C87F06DA37A003220121D1
:10552000801CFEF77CFF0646C822012135A0FEF74D
:1055300076FF040000D500242848FEF705FE4FF44E
:105540007A70002D03DBA8464FF0000B02E0002527
:10555000B8468346002E6ADB06F0FF09F6B287E004
:10556000430D0200C8E10720770C0200204D4200E5
:10557000204B4200890C0200E6110200470D020098
:10558000CCE10720D4E1072028C007200A0A000048
:105590000040024044030010E4E1072040420F00B5
:1055A0000A0A5254432000002070706D0000000071
:1055B0000A53656C65637420446174612F50726F87
:1055C000746F636F6C2028312F3229008312020020
:1055D000F612020014C3072000C0092014100200B4
:1055E000203D2000660D02000A456E746572206E33
:1055F000756D6265720000002D20436F6C6F722024
:10560000000000004C454420647574792063796380
:105610006C65203128302E352529202E2E2E203263
:10562000303028313030252920000000FFE7FA49CA
:105630004FF00109834691F8D66219E00CB9FCF7E6
:10564000ECF84F460DE039462846FCF71DF8E1B26C
:105650005846FCF719F9C0B28246FEF709FD10B9A9
:105660007F1CB742EFDD5046FEF702FD10B96D1CFE
:105670004545E3D9FBF735FEFEF7DBFCBDE8F05FFF
:10568000FEF7D7BC2DE9F05F40F28F18FBF729FE3B
:105690004FF4FA7018F0F2FCE04E307828B9E0A32D
:1056A00003220021DF48FEF7BFFFFDF79DFC012527
:1056B0004FF0FF3BDFF860A342E0022D01D94FF02D
:1056C000C70829464046FBF7DFFF0124322740F296
:1056D000EE29307848B90520FEF7B6FC03212046B4
:1056E000FEF754FDCEA0FEF7E1FCFBF71BFE604386
:1056F000B0FBF7F000B90120C1B24846FCF7C4F88E
:10570000FEF7B6FC58B96400802C0BD0C82CE0D34F
:1057100040F2DC50FEF781FCFEF7AAFC20B15846AF
:10572000BDE8F09F6424D4E701210846FBF719FE89
:10573000FBF7D7FD4FF4FA7018F0A0FC6D1CEDB22A
:105740009AF8D602A842B8D2307808B9FEF771FCB0
:105750000120E5E72DE9F0410125AF1EAE4E1CE02A
:1057600029467C20FBF790FF0124FBF7DBFD400678
:10577000010EFA20FCF7BBF8FEF77AFC28B9FA20F4
:10578000FEF74BFCFEF774FC08B1384637E4641CA6
:10579000E4B2062CE9D96D1CEDB296F8D602A84207
:1057A000DED201202BE42DE9F0479F4F9A4E0125D0
:1057B00038784FF0FF39304440F2771890F80344BE
:1057C00050E096F8980210B12046FDF73AFC387880
:1057D0000121304490F81724A24204D896F8D6222A
:1057E000032A00D1032190F81204A04204D896F8AD
:1057F000D602012800D902212046FBF745FFFBF71E
:1058000091FD4006010E4046FCF73EF8FEF730FCE5
:10581000A8B92046FCF7F5F818B10121FBF734FFD1
:105820000FE03878304490F80D04A04209D8FBF717
:1058300058FD4046FEF7F1FBFEF71AFC48B148461A
:10584000ACE4FBF76FFD4006010E4046FCF71CF888
:10585000F2E73878304490F80804A04200D16D4255
:105860006019C4B23878304490F80304A042A8D933
:10587000012093E4FEB56D48002407C88DE80700B9
:105880006B48FEF713FC644D6E4695F8EA0338B199
:10589000FDF799FB20B1FDF796FB6349401E0870A8
:1058A00056F82400641CE4B28047002806DB40F26E
:1058B000DC50FEF7B2FBFEF7DBFB70B1FDF763FCDB
:1058C000FBF7ABFF95F8EA0310B15A4901200870C5
:1058D000FEF7AFFBFEF7ADFBFEBD022C00D90024A6
:1058E00000F070F90028D0D1534800780007CCD5DB
:1058F0005248406B4000C8D551480121006818F05B
:1059000099FCFA2018F0BAFB4E4903200870BCE756
:1059100008B54DA0FEF7CAFB6B46642200214EA0DD
:10592000FEF77FFD9DF8000058B10121BC20FBF778
:10593000ABFE9DF800004006010E4FF0FF30FBF774
:10594000A3FF0320FCF77CF8454800784549087020
:10595000FBF7C7FC0020FCF773F808BD70B52E4CB0
:10596000414DB4F8E803297920F007000843A4F872
:10597000E8030120FCF764F8002804DD58210846FC
:10598000FFF7D8F905E04FF0FF3140F20920FEF7AC
:1059900018FE94F8E713B4F8E803695C20F00700F8
:1059A0000843A4F8E803BDE870400020FCF748B8BD
:1059B00070B5194C214E4FF40045206A20F040008C
:1059C0002062B561294A03218A20FDF7E4F9C8B1B4
:1059D00041F2130204218A20FDF7DDF9244A042153
:1059E0008A20FDF7D8F947F23050FEF716FB102257
:1059F00004218A20FDF7CFF9206A40F040002062A0
:105A0000012070BDF5614FF0FF314FF40370FEF7D8
:105A1000D8FD002070BD000028C0072006C0072068
:105A200020250000181C0200D7E10720F007020023
:105A300014100200E0E10720D6E1072000C0092091
:105A400058030010FBE107204C454420427269676F
:105A500068746E657373000020696E202500000075
:105A600038030010390300102C02020016206000D9
:105A70001007070700F01F02012191404009800034
:105A800000F1E020C0F80011704700F01F02012172
:105A900091404009800000F1E020C0F8801170477B
:105AA000F94DDFF8E893DFF8E8A3DFF8E883DFF8E3
:105AB000E8B34FF0FF31012018F0D6FB002011F0C1
:105AC00051FE014640F22620FEF77BFD00286FD1F3
:105AD00011F0EEF8014640F22620FEF772FD002894
