:020000040000FA
:1000000030340010850200008D0200008F020000D5
:100010009102000093020000950200000000000021
:10002000000000000000000000000000A503000028
:1000300099020000000000001D04000059040000A7
:100040009F0200009F020000FB0A0000950B0000C9
:100050003B0B0000E5090000290A0000950A00009A
:100060009F020000150C0000A54501009F02000042
:100070009F0200009F0200009F0200009F020000FC
:100080009F0200009D62000073330000CF0A000051
:10009000E50A00009F0200009F0200009F0200008E
:1000A000B96A00009F020000B96E00009F020000C4
:1000B0009F0200009F0200009F0200009F020000BC
:1000C0009F0200009F0200009F02000000F002F863
:1000D00000F080F80AA090E8000C82448344AAF162
:1000E0000107DA4501D100F075F8AFF2090EBAE860
:1000F0000F0013F0010F18BFFB1A43F0010318475C
:10010000104D0200404D02000A444FF0000C10F860
:10011000013B13F0070408BF10F8014B1D1108BF85
:1001200010F8015B641E05D010F8016B641E01F825
:10013000016BF9D113F0080F1EBF10F8014BAD1C75
:100140000C1B09D16D1E58BF01F801CBFAD505E093
:1001500014F8016B01F8016B6D1EF9D59142D6D3ED
:1001600070470000103A24BF78C878C1FAD8520707
:1001700024BF30C830C144BF04680C607047000021
:100180000023002400250026103A28BF78C1FBD8A0
:10019000520728BF30C148BF0B6070471FB59DE8AC
:1001A000030016F0F4F816F08EFB04000020002186
:1001B00020F080FA401C606015F0E2FF1FBD10B512
:1001C00016F056F810BD03B4FFF7F9FF03BC15F0A5
:1001D00036FA000015F00AFB1146FFF7DFFF1EF0AC
:1001E000A5FB044800211EF097FC1EF0B1FB00F0B7
:1001F0006EF80000A8030010FEE7FEE71A4810B5ED
:10020000007848B11FF004FF30B1184900EB4000FE
:1002100001EB4010603810BD154810BD154A10B5EF
:1002200011680346082900D3FEE7134800EB0110CC
:10023000491C186011601FF02FFA012010BD0A49F7
:100240000978002905D000684FF6FF71DFF82CC04F
:1002500000DF704704490978002903D00068DFF8FF
:1002600020C000DF7047000079040010981A0010C9
:10027000D42A0010C0030010F81D001081F70100FF
:10028000A9F601000948804709480047FEE7FEE754
:10029000FEE7FEE7FEE7FEE7FEE7FEE7FEE7FEE736
:1002A00004480549054A064B7047000041530100C8
:1002B000CD000000302C0010303400103030001021
:1002C0003030001000487047D42A001070470446B0
:1002D000AFF300802046FFF776FF421E12F8013F81
:1002E000002BFBD111F8013B002B02F8013BF9D1A7
:1002F0007047704770477047704770472143658764
:1003000040F2010CC1F2000C604740F2270CC1F230
:10031000000C604740F23F0CC1F2000C604740F215
:10032000271CC1F2000C604740F2730CC1F2000CB4
:10033000604740F2BF1CC1F2000C604780F309889F
:100340007047EFF309807047684680F309880448D6
:100350000078C00714BF0220032080F31488704780
:1003600028370200DFF818C0EFF305831B0618BF1B
:100370006047EFF31483DB0708BF604700DF704777
:1003800099F00100DFF818C0EFF305831B0618BFD2
:100390006047EFF31483DB0708BF604700DF704757
:1003A00031F30100EFF30980816911F8021CF1B902
:1003B00090E80F10E047EFF3098C8CE80700144B2E
:1003C00093E8060091420FD039B12CE9F00FC1F843
:1003D00028C00CB41FF09EFB0CBC1A60D2F828C0D9
:1003E000BCE8F00F8CF309886FF0020E704710B56F
:1003F000084A1268914209D8074C54F8214090E805
:100400000F10A047EFF3098C8CE80F0010BD00001F
:100410008004001038800000388000001FF0E4F9EC
:100420000C4B93E80600914210D0EFF3098C2CE9B5
:10043000F00FC1F828C00CB41FF06CFB0CBC1A60A4
:10044000D2F828C0BCE8F00F8CF309886FF0020ED8
:1004500070470000800400101FF024FCE0E700005B
:100460001EF004FC1FF01EFCDAE700002DE9F05F2F
:1004700000273C4614F008FFDFF810A4DAF88001EA
:1004800010F00B0F01D01EF051FA1EF061FADFF8E8
:1004900000B4DFF800944FF00108BBF80000FE4EF6
:1004A0000025A0F52541023945D04AF20151884284
:1004B00041D0DAF880114BF2036241F3800C0CF169
:1004C000010C904201D1012100E000215CEA010C05
:1004D00016D086F8D1523562904201D089F800805A
:1004E000EE4999F800C081F800C0DFF8B4C3642178
:1004F000CCF80010EB490D70EB490D70EB490D7015
:10050000904201D0ABF80050E948EA490570EA484A
:1005100081F800800570E9480570E9480570E948F0
:100520000570E9480570E94800EB07117F1CFFB230
:100530000D70032FF8D300F0AEFD00F0E7FB00F0E4
:1005400034FC05F0C4FE4FF4FA4000F0A9FBE0488B
:1005500003F076FCDAF88001BBF8002040F380015C
:10056000491CA2F5364003380FD00020014315D0B6
:10057000FA201EF0CFF902F037FF2043C4B200206A
:1005800003F07BFA012802D006E00120EEE7D14813
:1005900003F0C0FD641CE4B200F05FFD02F0D2FB8A
:1005A00000B34FF0FF3144F2692004F048F8641CB6
:1005B000E4B2B748DFF820B30088A0F5254102393E
:1005C00061D04AF2015188425DD096F82000C00700
:1005D00030D002F06EFC00282CDA316A0A20884301
:1005E0000BD104E0306A40F001003062E1E74807D7
:1005F00003D596F8E203022803D244F26A2004F0FD
:100600001EF896F82000800605D44FF0FF3144F222
:100610006B2004F014F896F82000400608D496F8F1
:10062000E30328B14FF0FF3144F26C2004F007F8E7
:10063000641CE4B2DAF8800110F0090F0BD04FF41B
:1006400084705F46CBF85C0001F051F94FF4A47060
:10065000F8652020B865A1480068A0B1A048A14A6B
:10066000007812684100404202EB4000401C02F05A
:1006700082FFB6F8C202012102F07DFFB6F8C8027F
:10068000012102F078FF02F083FC974F387000F0F0
:100690000FFB7F480088A0F5254102397DD04AF242
:1006A000015188427AD0DAF880215146520725D587
:1006B000A0F53642033A21D03878C00602D589F831
:1006C000008001E089F80050744899F8001001702A
:1006D00096F8F30258B1854800680DF003FD96F8CE
:1006E000CC0601284FF0000005D00DF01CFD1F20A6
:1006F00002F055FFC6E010F065FCF8E7D1F8800184
:10070000C0076ED0012002F04AFF794890F824001B
:100710007849087074480078C00602D5764981F897
:10072000008032201EF0F6F8744F1020387096F8D2
:10073000F40208B11820387096F8F20288B10DF072
:10074000ACF930B986F8F2520CF02FFE96F8F202AE
:1007500020B1387840F08000387006E0641CE4B2C4
:1007600003E0F07B08B10CF020FE96F8F30278B3BA
:1007700001200DF076FF00282BDD387840F0400096
:10078000387096F8EC0300B3002012F0C9FE002880
:1007900016DD0320CBF81C0001E0D5E044E0DAF8D8
:1007A0008001C00708D0564996F8ED0308705549F6
:1007B000C0EB001080000880387840F004003870EA
:1007C000002012F045FE5048057000200DF0ABFCF3
:1007D00001E0641CE4B24FF000011CB140F2F510DE
:1007E00002E04FE040F2F71000F046FF00214FF426
:1007F000FA6001F041F83C4A1078C10610D496F82E
:10080000D71269B996F8E213022909D0042907D052
:1008100099F80010214B21F0010189F8001019709E
:1008200080F0100010702DE0202002F0B8FE0822A9
:10083000711C364800F094FE2F49404681F8008034
:10084000397809060FD496F8F2124FF4E1205229B4
:1008500003D0012901D04FF496200CF019FB2C494C
:100860000620087009E01249097831B10F49087073
:100870001549087002200DF056FCB6F8C802012197
:1008800002F079FE23490320087045E000C00F40C4
:100890000CC0072007C0072028C00720D8E1072088
:1008A00018C00720D7E1072007E2072008C007206B
:1008B000F8E10720E0E107205DEF07207603001054
:1008C00064EF072065EF0720FCE107207CEF07209D
:1008D000493E0000500C020000C00920C8E107207A
:1008E000D4E10720CCE10720D5E107203803001030
:1008F000004002405AEF072069030010D6E10720AC
:1009000006E2072004E2072009C00720D50A0200FA
:100910000AC00720FBE10720254827490570254824
:10092000057081F800802548057025480570254828
:10093000294905702448057024480570244805702D
:100940002448058014200870DAF8800154464007D6
:1009500003D14FF4967002F022FED4F88001D4F84F
:1009600080110843C4F880011C48006810B11220AF
:1009700000F013F8132000F010F819484FF400218C
:100980000580CBF83C104900CBF8381000F0A1FCF2
:100990000BF0B4F90020BDE8F09F00F01F02012128
:1009A00091404009800000F1E020C0F8001170473C
:1009B000F9E10720FAE1072006C007205DEF0720D4
:1009C000760300105EEF07205FEF072060EF07203F
:1009D00061EF072062EF0720C3EF0720C8E107207F
:1009E0000CC00720FE4908B5886800F00E000228F8
:1009F00004D0042803D0087D8DF8000008BDF94A12
:100A0000507948B10A78F8490878401CC0B208709B
:100A100001F65C210A5408BD09781078401CC0B268
:100A20001070F24A115408BDF14918B4886800F0FA
:100A30000E00022804D0042804D0087D8DF80000A0
:100A400018BC7047E84AE74BD07880060DD554783B
:100A50001078401C844217D009781078401CC0B22E
:100A6000107002F65C221154EAE75C781878401C9A
:100A7000844209D009781878401CC0B21870DB4B4A
:100A8000195406209071DBE70120987018BC0620ED
:100A900000F0FCBCD74908B5886800F00E000228B9
:100AA00010D0042801D0087D0EE0CE4A537A107A87
:100AB000401C834207D00978107A401CC0B21072E3
:100AC000CD4A115408BD08788DF8000008BDC6490C
:100AD00001208870C948D0F8401141F00201C0F8E7
:100AE00040117047BF490020C870C448D0F8401179
:100AF00041F00401C0F840117047C148816801F518
:100B00007A718161B8490A6912B10A69521E0A6193
:100B1000B44AD36813B1D3685B1ED36013695B1CFE
:100B20001361CA68521CCA6003E00168026811437D
:100B3000016001680029F8D17047B248806AC00698
:100B40000FD4B1480168C9060CD5A6498A69521C60
:100B50008A6103E0016841F0100101600168C90683
:100B6000F8D470470168890610D59F498A69521CDC
:100B70008A6103E0016841F0200101600168890693
:100B8000F8D47047016802681143016001680029C8
:100B9000F8D170479B4810B5816A924AC90617D5AB
:100BA000D3780021182B00D3D170984B5B6DDB04F8
:100BB0000CD5C16A964BD47843F82410046BD178D5
:100BC00003EB8103491CD1709C6609E0D17007E0FA
:100BD0005169491C516103E00168026811430160D9
:100BE00001680029F8D110BD854B10B59968894A74
:100BF00003E09C68641A0A2C0BD2D468E406F8D48B
:100C0000906003E09868401A142802D2D068C006A9
:100C1000F8D410BD70B5804D286810F4282F27D166
:100C2000FFF76EFB704E04241C36305DFFF7DCFFCF
:100C3000641E14F0FF04F8D16A49887904281DD095
:100C400004208871C979C0B20843FFF7CDFF6F480F
:100C500040228265416D4906FCD5C265674850F85F
:100C6000C41F21F480610160286820F428202860D6
:100C70006A48016802681143016070BD0820E0E71E
:100C800072B6AA21480701725521017262B67047F7
:100C900072B6AA21480701725521017262B67047E7
:100CA0004FF47A714843C906486003200870E7E7AB
:100CB00010B5142000F0EAFB132000F0E7FB12202F
:100CC00000F0E4FB4D4C0720C4F848010020C4F8B4
:100CD0004C010621122004F5A07400F0EDFB0F2159
:100CE000132000F0E9FB0C21142000F0E5FB206844
:100CF000216808432060122000F0D3FB132000F08D
:100D0000D0FBBDE81040142000F0CBBB70B53B48D1
:100D100050F8C41F424A114301603948022444601C
:100D2000C46001254561816801F57A7181610168BE
:100D300002681143016045600D21204600F0BCFBB4
:100D4000022000F098FB2F4844602F494C60C4609B
:100D5000CC60026803681A4302600A680B681A4391
:100D60000A600022826282628D6045604D602B487D
:100D70004461F921C16046F62001C1640E210320BF
:100D800000F09AFB032000F076FB1021042000F015
:100D900093FB042000F06FFB1C21092000F08CFB6A
:100DA000BDE87040092000F066BB144810B550F84B
:100DB000C41F41F00801016009480021416007217A
:100DC00001728321017304210170032101738521C4
:100DD00080F82810012141601E21052022E000003A
:100DE00000C000403C03001004C0072060C9072079
:100DF000000001400080094060CB072000C00F4088
:100E000000800040000009400040094000C0092067
:100E100028C807200000034000C0024000800140B5
:100E20004400C00000F048FBBDE81040052000F081
:100E300022BB2DE9F041FE4DFE4E48F22A07032465
:100E4000C8B156F8C41F41F010013160FA490022C0
:100E50004A6007220A7283220A73B0F5165F1ED019
:100E60008522B0F5E13F1ED0B0F5E12F1ED0B0F5E0
:100E7000962F1FD020E0062000F008FB2869B84319
:100E8000286156F8C40F20F010003060EB48C1789C
:100E900021F00201C170EA488461BDE8F081682058
:100EA0000870212004E00820087004E00C70C120C4
:100EB000886201E00C708A620C73087C40F0C0000C
:100EC0000874012048602869384328611D210620E4
:100ED00000F0F2FABDE8F041062000F0CCBA70B59F
:100EE0000E46044672B6D749887AA04204D162B64B
:100EF0003046FFF79EFF2EE0D04D012803D1E87861
:100F000020F00200E8708C7262B603201DF002FD32
:100F1000CB48012C07D001220221022C06D0032C41
:100F200007D0002070BD0321C16104E0C26181616E
:100F300001E0C16182613046FFF77BFF03201DF0B5
:100F4000E9FC72B6012C05D1E878010602D540F023
:100F50000200E87062B6012070BD10B572B6B94CDF
:100F6000A17A814201D062B610BD62B6012813D0C9
:100F7000B248C07800060FD5B0484FF4E1212430C4
:100F800090F8F202522803D0012801D04FF49621A4
:100F9000BDE810400120A2E70020FFF74AFF72B62B
:100FA0000320A749C8610020A072DCE72DE9F041C9
:100FB0009F4FA04D040012D04FF4E1384FF4165665
:100FC000B4F5E12F03D0444501D0B4421AD1D5F88D
:100FD000C400C00117D5072000F058FA18E097495F
:100FE000C87820F00400C87097490870072000F006
:100FF0004DFA386820F4A000386055F8C40F20F08E
:101000008070286049E755F8C40F40F08070286070
:10101000386840F4A00038608C4800214160072106
:101020000172832101730121B44201D1302202E017
:10103000444502D10422027000E0017003220273D1
:10104000852280F8282041601F21072000F034FA13
:10105000BDE8F041072000F00EBA78487849243006
:101060004FF4004290F8E3330BB18A6100E0CA61AB
:1010700090F8E2034FF4803201280AD0022808D009
:10108000042806D0CA61032802D169490005C86551
:1010900070478A61F7E7664B30B44FF475601860AB
:1010A0004FF4BE1058604FF0A8701861644840219A
:1010B00081616749C1614FF0916181636549C16395
:1010C0005C49D1F88021D20704D06022C2654FF478
:1010D000847203E04FF4A472C265202282654FF04F
:1010E0008054C0F89840D1F88011544A490708D577
:1010F00011894AF20155A94218D0A1F52545023DB2
:1011000014D00021517154490160544901624FF4D7
:10111000B4710164C0F880404FF44C2018644FF45F
:10112000201058644E48D86430BC96E75179127943
:1011300051EA020502D04FF00055856341B13F49A5
:10114000243191F8EC13032902D04FF4001181618E
:10115000002AD8D08463D6E742498A688B689B1AF4
:101160008342FBD3704710B5324CD4F8C41041F41D
:101170008051C4F8C41001223B49824042EA010375
:101180003A490B600B6843F080730B600B6B1342A2
:10119000FCD001EB800000690022C0F30B100A6054
:1011A00054F8C41F21F48051216010BD30B5204C8B
:1011B00025692069400503D5206920F480602061FD
:1011C0001F494FF0C070C8630320FFF7CCFF2561B3
:1011D000800830BD2DE9F05FDFF860A080460AF19D
:1011E0001C0A05249AF800000025C0F3810003289A
:1011F00000D10125DFF87890D9F8141021F0010111
:10120000C9F81410FFF77CF80D4E4027F765DFF89A
:1012100020B0DBF81000400531D40220FFF7E4FCD9
:10122000B765706D4006FCD5F76505B122E023E097
:1012300000C0024000C00F400000014004C0072071
:1012400000C009203C030010D8E1072000800940BD
:1012500000042400000014314384250000009C3564
:1012600003080820008000400002200000400340E6
:1012700000800140FFF749F803201DF04BFB98F870
:10128000000038B19449D8F80020CA6198F80400E9
:1012900081F8200055B1D9F8141041F00101C9F8C6
:1012A00014100CE0285DFFF79FFC00E05546641E1B
:1012B000E4B2F7D2B765706D4006FCD5F765DBF890
:1012C000101041F48061CBF81010BDE8F05FFFF71B
:1012D0001CB870B58148016921F4806101618048C2
:1012E000D0F8C400400604D57E48416921F00101D0
:1012F00041617D4C4025E565FFF702F80220FFF7CC
:1013000073FCA565606D4006FCD5E565BDE87040E1
:10131000FEF7FBBF7549002009794A070AD40A077E
:1013200001D5012006E0CA0601D5022002E04906E7
:1013300000D50320684A2432104490F8D21292F863
:10134000CA0600EB8000401D48430A21B0FBF1F0C3
:10135000704730B5604D0B4630B9FFF7DBFF696968
:1013600048436421B0FBF1F0C8245BB95A496B696A
:10137000243191F8F02391F8CA16491C59434A4385
:10138000B2FBF4F388B1C82800D3C7207BB1C82BC7
:1013900000D3C723534AC0F1C7019164536211645B
:1013A000C721C72805D3546404E00120EEE70123D8
:1013B000F0E7516491617920106548480169490559
:1013C00008D4C16911F4401F04D19169491E91608C
:1013D00009215160C16941F44011C16130BD4448E7
:1013E00041688907FCD4017D8906F9D570473A4ADE
:1013F00010B54AF20250108102F1240090F8CE029A
:1014000020B13C48016841F0040101603448D0F843
:10141000801021F00201C0F88010AA24C0F88C408E
:101420005523C0F88C30D0F888108901FBD4D0F84F
:10143000801021F00101C0F88010C0F88C40C0F885
:101440008C30D0F88810C901FBD40121C0F80411F8
:101450000023C0F80C31C0F8C03020BFFFF710FCEB
:10146000138113F06DFF4FF4FA40FFF719FCBDE84C
:10147000104013F009BF00F01F0201219140400904
:10148000800000F1E020C0F80011704700F01F025A
:10149000012191404009800000F1E020C0F8801156
:1014A000704700F01F02012191404009800000F1C7
:1014B000E020C0F880127047C906090E002806DA3D
:1014C00000F00F0000F1E02080F8141D704700F1DB
:1014D000E02080F80014704704C0072000C00240DC
:1014E00000C00F400080014000C009203C030010F4
:1014F00000C0004010ED00E0202803D37E2801D872
:101500000120704700207047302803D3392801D8C4
:101510000120704700207047A0F16101192901D80E
:101520002038C0B2704700B50146002207E002EB48
:10153000820011F8012B02F00F0202EB4002087842
:10154000FFF7E2FF0028F2D1104600BD02E001F8EB
:10155000012B401C0278002AF9D100200870704746
:1015600004E0521E01F8013BD2B2401C0378002B6C
:10157000F7D10020521ED2B202D301F8010BF9E7D5
:10158000704730B5FD4CFE4B05E01A8810F8015B42
:10159000A554521C1A80491EF7D230BD10B5F74C25
:1015A000F74B04E019886254491C1980401C0278EA
:1015B000002AF7D110BD10B50146002001E0401C03
:1015C00080B211F8012B002AF9D1ED4BEB4A040A45
:1015D00019885454491C89B25054491C198010BDB3
:1015E00030B5044610460023E64A09E0E55C5B1C82
:1015F00085EA10259BB232F8155085EA002080B2AA
:101600008B42F3D330BD0022EAE7F0B50022DE4E74
:10161000A0F1010E1CE006EB820C1546DCF8D04070
:101620002946274609E006EB8103D3F8D030A342D0
:1016300001D21C460D46491CC9B28142F3D306EBC8
:101640008501521C51F8D03FCCF8D030D2B20F6097
:101650007245E0DBF0BD30B503004FF0FF3409D038
:10166000002005E031F810509D4204D0401CC0B26B
:101670009042F7D3204630BD2DE9FE4F0546C3A06A
:1016800000240DC8C44F8DE80D000526DFF80C833B
:10169000A1463C70B5F5C87F09D2880701D508205E
:1016A0003870C80763D0387840F004004DE0BC497A
:1016B0000869400545D598F80000430741D50B69F6
:1016C0008A4623F480630B614FF0E0234915C3F889
:1016D0008011C0F38101DFF8CCB2032906D040F0BD
:1016E000800088F80000FEF70BFE07E080218BF8F1
:1016F000001019E018F80600FFF776FA761EF6B229
:10170000F8D2A94840228265416D4906FCD5C265E0
:10171000A64850F8C41F21F480610160DAF8001077
:1017200021F42821CAF8001032201DF0F3F8A04857
:10173000416921F001014161092001F0EBFA8BF8C8
:101740000090B5F5FA7F02D2302038700FE0B5F581
:10175000FC7F2AD2B5F5FB7F01D2202000E040209B
:101760003870E80702D04FF07C6400E0914C3B7881
:1017700088F80030B5F5FA7F43D200216E460A2280
:10178000B5FBF2F002FB1050B5FBF2F5375CC1EB94
:10179000C10C07FA0CF73C4313F00C0F1BD038B107
:1017A000012811D007281BD10EE088F8009028E00E
:1017B00039B1E80702D1A81E02280FD244F0005424
:1017C0000EE044F080540BE011B144F4C01407E083
:1017D00044F4C02404E0012902D108B924F47E5461
:1017E000491CC9B20229CBD3E80701D044F4031441
:1017F000022D06D3042D02D244F4803401E044F0DB
:101800007074C8F80140BDE8FE8F10B5FFF7CEFC3C
:1018100000FB00F101FB00F240F2EB53B2FBF3F2EC
:10182000891A6FF4037200FB0210634908444FF4F5
:101830007A71B0FBF1F0614982080868A2EB90026E
:10184000104408605E4991F8E313002913D0C0EBFF
:101850000010C821B0FBF1F010F0FF0000D1012012
:10186000010341EA002040F018020221BDE81040C7
:101870008A2001F084BA10BD2DE9F0410446FF2909
:1018800002D00846FFF765FD4E48FFF7A3FC002C89
:1018900023DB4D4E30784D4D28704D4F0AE0FFF759
:1018A000EFF901201DF036F814B1641E02D105E0F5
:1018B000387818B9287831788842F0D0287831788B
:1018C000884207D02878401CC0B228704149085C83
:1018D000BDE8F0814FF0FF30FAE70020F8E710B5DF
:1018E000FFF7CAFF0446FFF7F4FC204610BD2DE9C0
:1018F000F047334F00264FF4FA7897F8D6020228C3
:1019000001D24FF47A7801254FF0FF392946BC20E7
:10191000FFF7B2FE97F8D602A8421BD30124E1B22A
:101920004046FFF7A9FF6400802CF8D9012D4FF045
:10193000C80122D04046FFF79FFFFFF7CAFC0121F4
:101940000846FFF706FD40461CF0E4FF6D1CEDB2B3
:10195000032DDBD397F8CD0201213044C830FFF7C7
:101960008BFE97F8D2024006010E4846FFF784FF2F
:10197000BDE8F047012003F0EABC2DE060CC072071
:10198000C4E10720C80C020028C807203F065B4FAF
:10199000666D7D077F6F00004003001020C00720A8
:1019A00000C002404303001000C0092000C00F40E7
:1019B000008001400000C0F3400D030018C0072064
:1019C00028C00720CD0A02003C0300103D03001090
:1019D00006C0072060C907204846FFF74DFF0020DA
:1019E00003F068FD6421B0FBF1F640461CF092FF65
:1019F000A3E770B5FE4AFF4D0021127895F8F54235
:101A000005EB021310E003EB410292F821648642D9
:101A100008D892F82224824204D905EB4100B0F89C
:101A2000D20370BD491CC9B28C42ECD8002070BDF5
:101A30002DE9F047EF4F04003946B7F8E803B1F855
:101A4000E81320F0010040F45055EB4821F0070165
:101A50004FF0FF394FF480224FF0020641F450510D
:101A60005FD0C263DFF89483012C24D9032C07D103
:101A7000E34B4246E3A002F000FE002002F0C1FA70
:101A800040F25640054306EB05220321422001F0B7
:101A900076F9032C27D0282002F02BFA25F44055A4
:101AA00006EB05220321422001F069F9032C24D022
:101AB000052002F01EFA4CF6F970054097F8E8038D
:101AC000032100F00700284340F49A6506EB052245
:101AD000422001F054F978B3032C18D0CB48007899
:101AE00002F007FA25E0C64B42462946C5A002F09F
:101AF000C4FD002002F085FAD0E7C14B42462946DA
:101B0000C0A002F0BAFD002002F07BFAD3E7BC4B84
:101B100042462946BBA002F0B0FD002002F071FA57
:101B200007E0826306EB01220321422001F027F93E
:101B300010B10120BDE8F087FFE74846FAE770B52D
:101B4000AC4DB449B24CB5F8DC0248431EF04DFF31
:101B5000B14AB24B1EF0C4FD1EF01AFF00EB40016B
:101B6000C9000A22B1FBF2F2AD492060B1FBF2F1EB
:101B7000AC4A116095F8CC326BB14FF47A7358438C
:101B800040F24963B0FBF3F020604FF47A704143B8
:101B9000B1FBF3F0106095F8D80211684843642156
:101BA000B0FBF1F0106095F8DB02216848439E49D4
:101BB000B1FBF0F09549097808449C492D30086044
:101BC00070BD70B502469A488A4E03680A20B3FB7E
:101BD000F0F03244C1B292F8035400208D4211D883
:101BE00092F808448C420DD3A5420BD096F8D0420F
:101BF000084654B192F81C0496F8E92402448A423B
:101C000001D8081A70BD002070BD92F81C14C829B4
:101C100001D0084670BD96F8CF120029FAD0C72B24
:101C2000F8D803F1C80070BD724910B5034691F8A9
:101C3000D6220120022A0FD36D496E4C032A09785F
:101C4000214404D191F817249A4200D8032091F836
:101C50001214994200D8022010BD70B5754D0020B5
:101C60002880754802F0ECF874A002F013FA614C79
:101C7000E07BFFF741FC30B104F10F0002F00AFAFB
:101C80005F2002F021F96E4829880144042004F005
:101C900050FB5F2002F018F9C321D4F8E80202F0EB
:101CA00069FA2E2002F010F966A002F0F3F9BDE8FF
:101CB0007040002002F008B9F0B5002507462C4618
:101CC000064601E06D1CEDB216F8010B0028F9D1B3
:101CD000384610E08E5C521C90F800C092B2664507
:101CE00003D1641CE4B2401C01E000243846AC423D
:101CF00001D11046F0BD9A42ECD14FF0FF30F0BD5B
:101D000070B500244FF480652B4641F2E80221466D
:101D10004B4801F0E2FB4A494B4AD1F8FC028018DB
:101D200005D04A4A801806D0494AD04203D107203C
:101D300051F820200AB1002070BD401CC0B20A2812
:101D4000F6D9002051F82020401CC0B214440728C6
:101D5000F8D3C869001BC861294639480AF006FC57
:101D600040F2024382220021354801F0B6FB0120F7
:101D700070BD10B5374C207848B101F009F9002842
:101D800005DB3549097829B1344901200870002064
:101D9000207010BD3249F9E72DE9F05F314B044660
:101DA000002518783049087030480278DFF8C0B054
:101DB0008BF80020DFF87C802E4EDFF8BCA0A9460F
:101DC000A8F800502E2C07D1307840F02000307059
:101DD0002A4802788AF80020194FFEF751FF22495D
:101DE0000A7820480078824277D00878401C47E083
:101DF000D7E1072028C0072000C009208400050083
:101E0000CD0A02004943333700000000C3EF07202A
:101E1000ECE10720A0860100FD1873D7D47720419C
:101E200000180D8FF0E1072040AC2700F4E10720F7
:101E3000E8E10720C4E10720E33E000053435F00D0
:101E400060CC072056544600DFBC9A78A9EC307568
:101E500013CF12CF06C007207C03001065EF0720C8
:101E6000D5E107203C0300103D030010440300109F
:101E70004503001007C0072005C0072004C0072045
:101E8000C0B20870F9490D5CB8F800003D54401C20
:101E900080B2A8F8000007F80090284602F0DCF8AD
:101EA000B8B33878212805D041280BD0002161280B
:101EB00014D008E0307840F002003070781C02F056
:101EC000E9F81DE001210022114303D0317841F0EF
:101ED00002013170242803D004E028E00122F3E756
:101EE000022C09D0307840F002003070E04802F057
:101EF000D1F8022C04D006E0307840F00400F4E77A
:101F00000A2001F0A1FFA8F80090307820F0060028
:101F10003070172D0DD1307840F002003070D5A010
:101F200002F0B8F8307820F00200307001E0022CA6
:101F300002D02E2C10D01EE0CF4800789BF8002055
:101F40005946904217D00878CC4A0244401C087089
:101F5000107801F0B9FF0EE09AF800205146C84809
:101F60000078824207D00878C64A0244401C0870B4
:101F7000107801F069FF1A2D7FF42FAF2E2C03D1BA
:101F8000307820F020003070BDE8F09F2DE9F05F40
:101F90004FF4165500264FF4FA40FEF781FEBA4979
:101FA0000878820705D5BDE8F05FB849B8A002F00F
:101FB000A9B8DFF8E0828946352188F80000B6A08C
:101FC00002F087FAA0F1310104297CD2322804D032
:101FD000332805D0342806D007E04FF4E13504E07B
:101FE0004FF4962501E04FF4E1253421B8A002F02A
:101FF00070FA04463138032865D2DFF804B3312C77
:1020000004D0322C11D0332C49D04FE03321BDA065
:1020100002F05FFAA0F131010229B5D2322800D1D5
:102020002E2628460AF034FF40E0C1A002F080F8D6
:10203000DFF81CA39AF8F30238B10CF05CFB071E22
:1020400024DD9AF8F30220B10EE001200CF06BF8C9
:10205000F5E728460CF046F8DBF81410584649031B
:1020600002D54FF48021C161012F04DD43F6982190
:10207000B8A002F02DFDBAA0401C02F00BF8202001
:1020800001F022FFBA4802F053F80FE098F8001070
:1020900089F8001044F2516002F0C3FA2BE00220EC
:1020A00011F0D6F92846FEF781FF0226B1480078E4
:1020B00008B1FFF75EFE01201CF02CFC4F4699F89A
:1020C0000000454600E01AE088F800003046FFF7BF
:1020D00063FE332C02D1002011F0BAF9A648007833
:1020E000FEF73BFF287838704FF48020CBF81800BB
:1020F00064201CF00FFCBDE8F05F01F08EBF43E7E9
:1021000070B59349072081F8EA039CA19CA001F0D7
:10211000F9FF202001F0D8FE964D0024012001F0A7
:1021200087FF00F044FF012102F024F8C82001F0ED
:1021300068FFC0B22C7001F08FFF0028EED0BDE820
:10214000704001F06ABF30B5814D4FF4004000216E
:10215000A5F8E40205F5397001236A1892F8A54242
:10216000012C0DD192F8B1220488102A03D203FA6F
:1021700002F2944303E0103A03FA02F2144304809B
:10218000491CC9B20C29E8D330BD70B5704C221877
:1021900092F8A532012B0BD0022B3BD100218A20D3
:1021A00092F8B1220125102A06D29540294306E073
:1021B000B4F8E4124420F3E7103A9540A943012B08
:1021C00009D0022B0CD07149714801F09BFFBDE88A
:1021D000704001F022BF022202EB012203210FE036
:1021E00094F8200040060ED511F00700EFD001064C
:1021F00041EA004141EA002040F0100204218A2017
:1022000000F0BDFDE3E74FF0FF3144F2526002F011
:1022100016FADCE770BD10F8011B01E05140401CCC
:1022200002782A2A01D0002AF8D1084670470246CF
:10223000002059B107E0521C2C2B01D1491EC9B214
:10224000401C002903D01378002BF4D100207047E4
:1022500010F8011B41B102E0401C402904D0017874
:102260000029F9D10120704794E0000060C90720DF
:1022700060CC07202B2B2B004403001060CB0720E1
:1022800004C0072060CA072007C007200A2C0200EC
:102290000A000000D8E1072053656C656374204292
:1022A00061756420726174650A312E2039363030D0
:1022B0000A322E203131353230300A332E2033307D
:1022C000373230300A342E20343630383030000087
:1022D00053656C656374204D6F64656D0A312E2003
:1022E000426C7565746F6F74680A322E2047534DC7
:1022F0002F475052530A332E2047505300000000FE
:1023000000C0092053656C65637420426C75657468
:102310006F6F74680A312E204C6169726420373304
:102320003053410A322E20524E34363738000000E6
:102330000A506F7765722047534D2F554D545320E7
:102340006D6F64656D2E20576169742E2E2E00000E
:1023500028C00720504220444F4E450D0000000089
:10236000204D6F64656D2F456D61696C0000000044
:102370003C24020006C00720460300103A2000005B
:102380005475726E2073776974636800122E0200B0
:10239000552E0200002066E72DE9F84FFB4EDFF8CE
:1023A000F083054631784FF0FF3488F8001000F0D4
:1023B000DEFEF848C16941F44011C16101220021EB
:1023C000462000F00EFDC0F3001703220221442036
:1023D00000F007FD009020F40040022101EB0022F4
:1023E0000321442000F0CBFC002824D0EA484FF41D
:1023F000FA7BC0F800B01FB106E002680AB903E03A
:10240000E6490A78002AF8D081460068002812D0F0
:1024100005201CF07FFAFFF7ACFC4FF0010A86F8AC
:1024200000A01B2001F010FD35B1012D57D0022D69
:102430006BD0032D6CD06EE0D949DA4881F800A04A
:102440000178D9480170D94D2978DFF864B38BF849
:10245000001040F6B831C9F8001037E0D2490A78C8
:10246000D048007882420CD098F8000020F001009B
:1024700030700878401CC0B20870CE49085C01F08A
:10248000E3FC9BF800005C462978884215D086F86A
:1024900000A02078401CC0B22070C749085C01F041
:1024A000D3FCC648017841B121782A78914204D101
:1024B00000210170062000F02DFCD9F800004C46E8
:1024C00020B9FEF7DDFB40F6B8302060B348007855
:1024D0000028C3D0B2480021012401701BE00AF09B
:1024E00042FB04463F215D46584601F069FD002845
:1024F00011DB522001F0A8FC2021284601F060FDEC
:102500000A21284601F05CFD05E00AF0C7FB01E066
:102510000AF084FB0446AA49009841EA00220321FC
:10252000442000F02CFC17B90A201CF0F3F9FFF747
:1025300020FC98F800003070002C09DA601C0AD0EA
:1025400014F10C0F04D0214644F2546002F077F8E5
:102550002046BDE8F88F4FF0FF3144F25360F5E7B5
:102560002DE9F05F4FF0050B4FF0640A95A001F0E4
:1025700091FD00244FF0FF39DFF8588201F04DFD46
:10258000042C08D094A0801C01F084FD0121601C63
:1025900001F0F0FD14E093A001F07CFD98F8E21347
:1025A00003290DD1B8F8E40241F6026141EA0022A4
:1025B0000321442000F0E3FB8D494FF48030886113
:1025C000AFF248218BA001F09DFD042C06D208EB50
:1025D000040797F8D25207F2D22702E098F8F05396
:1025E000864F0321284601F0C5FD022C03D204F1D9
:1025F0000101284604E006D14FF0000105F5C8703E
:10260000FFF73AF803E0032C15D0042C17D009EBA0
:102610004500C1B20020FFF72FF9064601F01CFD6E
:1026200020B3641CE4B25C45A8D300F0A0FDBDE873
:10263000F05F01F0F2BC002140F2F710E0E7012169
:102640002846FFF719F898F8F01398F8D20209EB2A
:10265000410109EB4000C9B2C0B2FEF77AFE6848FA
:10266000FEF7B8FD002001F0CCFCD6E72B2E04D0FD
:102670002D2E06D01B2E09D011E055450FD26D1C12
:1026800002E0012D0BD96D1E3D7008E098F8E203C1
:10269000022801D0042802D10020FFF77DFE03208C
:1026A00001F0C6FC91E72DE9F34F012485B012201B
:1026B000CDE90004474806270026B0F8C8B20698BE
:1026C0004FF47A7AA0463546B146029628B14C4B73
:1026D0004C4A21464C4801F0D0FF002007F0DAFDBB
:1026E00090B13C48B0F8CA02F0B348490844811E92
:1026F00010F8019C0D78C11E0E78011F0978009119
:10270000411F10F8068C0F7832494048B1F8CA22B0
:10271000104403903E48806800F00F0202EB09006D
:10272000401C00F0FF09B9F13B0F26D96D1CA9F13F
:102730003C00EDB200F0FF093B2D1ED93C3D761C5C
:10274000F6B2EDB2172E18D9183E08F1010000F0CC
:10275000FF08F6B2B8F11C0F0FD9A8F11C007F1CBE
:1027600000F0FF08FFB200E054E00C2F05D90C3F49
:102770000098FFB2401CC0B200900A20B4FBF0F2F7
:1027800000FB12400028019875D077E007C00720B1
:10279000D8E1072000C002404803001006C007200F
:1027A0004103001004C0072005C007203C030010AF
:1027B0003D03001060CA072060C907203E030010D7
:1027C000020080004C4544204272696768746E655F
:1027D0007373000028C007202D20436F6C6F722098
:1027E0000000000050574D2065787465726E00003F
:1027F00000C0092020696E202500000018C40720B1
:10280000CD0A020006000100331F020080DD072010
:1028100000800040FE4DBBF1000F1ED0ABF1010166
:1028200028784FF48067B7FBF0F00A26B0FBF6F08B
:10283000401C00EB8000430041F2D202F54800F05A
:102840004CFE2878B7FBF0F0B0FBF6F000EB80010F
:10285000F04800EB41000A3049E72978EE4A484247
:102860004942126801EB810102EB4002114401EB85
:102870004001D5E7FFE7404240B2019000FB0AF07B
:102880000FFA80FBAAF101000FFA80FAE34890F8F2
:10289000DB0200EB8001BAEB410F03DC4FF47A7AE4
:1028A000FEF7EEF903984FEA1B210170039800210F
:1028B00080F801B08170C17000F1040B069868B116
:1028C0008BF800808BF8017000998BF802108BF860
:1028D00003608BF804508BF8059013E0CF48B0F8F4
:1028E000CA12CC48001D0144062003F022FDCB484B
:1028F000B0F8CA12C748C01D0144052003F019FDF5
:102900008BF80540C648006820B101F0EEF908B127
:10291000012002900698A8B16420B4FBF0F100FBFE
:10292000114010B1059884420CD1062001F080FBC3
:102930000621204601F01EFC0A2001F019FB01F0DF
:102940008BFB28B920460599641C8842FFF4DCAE55
:102950000298002805D007B00B20BDE8F04F00F02A
:102960001EBE07B0BDE8F08F2DE9FC5FFA20019094
:1029700000F00EFBDFF8A48206464FF4E12098F841
:10298000F212522903D0012901D04FF49620009071
:10299000002E7DDBA348A449F4B20078097860409A
:1029A0000840DFF888A2A24FDFF888B200064FF097
:1029B00001094FF0000549D52006387836D4800645
:1029C0000DD58BF8005001200EF0FCFA9BF80000AA
:1029D00018B100F0DDFA060004D4F4B202E0C82019
:1029E0001BF098FF00980AF053FA58B392484A46F1
:1029F000414680F8009098F8EC03022801D28F48F5
:102A0000057038788E4B40F08200387006201870C0
:102A100091F8F2022E2801D0522801D18948027083
:102A200098F8D70270B18AF800500BE0854920F081
:102A3000820038700D7098F8D71219B1C00701D014
:102A40008AF800908BF800507F4805707549097826
:102A500084EA0100744909780840400649D57B485A
:102A6000007818B398F8CC0600BB794E60061ED4E7
:102A700002200BF058FB41F2707176A002F028F8AA
:102A8000387840F04200387098F8D70218B100E06A
:102A90009EE08AF80050684981F8009086F800901E
:102AA00098F8EC03022820D2644805701DE03078C5
:102AB000D8B140F6B83168A002F00AF8002804DA6C
:102AC00068480188684801F08AFE684935704FF40B
:102AD00080208861387820F04200387098F8D7124A
:102AE00019B1C00701D08AF800908BF80050564801
:102AF00005704C4800786040C00623D55C49E0066C
:102B000017D54D485B4E032380F8009038784A462D
:102B100040F0010038703370800604D5087810B991
:102B200055480821017098F8D70238B18AF800207A
:102B300004E0387820F0010038700D708BF80050F8
:102B4000414805709BF800005E46DFF8FCB09BF83A
:102B5000001008430DD098F8EA0338B114201BF098
:102B6000D9FE00F024FA454981F8009035708BF8C1
:102B700000503148017831B3057001981BF0CAFE4E
:102B80003F4801F0C7FA2F48007818B13DA001F086
:102B900081FA06E03D4801F07DFA0021362001F07F
:102BA00084FC3B4800783B4908703B48056098F836
:102BB000D71209B98AF8005098F8EC03022802D21B
:102BC0002C4903200870354938780870154804707E
:102BD000BDE8FC9F32484BF203610180FEF779FBB0
:102BE00013480078800602D501200EF0EBF92D483D
:102BF00050F8C41F41F4906101601C492A48C86321
:102C00002A4802210025017045708570284851E04E
:102C1000D4E1072080DD0720CCE1072028C0072071
:102C2000C8E10720D5E10720D6E1072066EF07209D
:102C300007C0072006C007206903001009C007204D
:102C40000AC007208B03001065EF072008C007208B
:102C5000F8E1072030300D00434152524945520DF2
:102C600000000000C4E1072060CC072000C009205C
:102C700084030010FBE107208A030010E0E1072035
:102C8000340C020050494E203D200000F215020095
:102C90003C0300103D03001064030010D8E107203E
:102CA0000CC0072000C00F4000001034A0E1072036
:102CB0008C030010006803222B4644691B49212025
:102CC000A047072000F06BFC19481A494FF4006236
:102CD00000780968404201EB40011748491C00F0A8
:102CE00019FB154C1548B4F8CA22B4F8C81204F2FE
:102CF000C22400F00FFB62882188114800F00AFB13
:102D00004FF08040456003210170AA2101725521D6
:102D10000172FEE700F01F0201219140400980008E
:102D200000F1E020C0F8001170470000A0E107208A
:102D3000D4E10720CCE1072028C0072080DD072050
:102D400060D9072070B5F748F74C016A21F00101FE
:102D50000162206881680020884706462068016972
:102D60000220884740EA06052068A021826A0220E6
:102D70009047EE4A2843202182F8001470BD2DE9C7
:102D8000F0410E46EA49E84D40080A6029680023F0
:102D900032464C69E649A047E64FB86806EBC601E3
:102DA00001EB061100EBC10402E0B868A04204D8B0
:102DB0002868C06A8047C007F7D12868C06A804782
:102DC000C00707D12868406A8047B04202D101207D
:102DD000BDE8F08128680121826A04209047002024
:102DE000F6E72DE9F84F14460022DFF844930092ED
:102DF0004FF0FF3889F80010102C02D94046BDE88A
:102E0000F88FC94E4FEA500A012330681A46C84964
:102E100045695046A847C74FBD68C83507E0B86840
:102E2000A84204D93068C06A8047C0071ED1306804
:102E3000C06A8047C007F2D10098002833DB3068B1
:102E4000002322468569BA495046A847B86804EB72
:102E5000C40101EB041100EBC1050AE0B868A84207
:102E600007D93068C06A8047C00702D0CDF800801B
:102E700019E03068C06A8047C007EFD10098002889
:102E800011DB3068406A8047A0420CD16846032CB1
:102E900007D84946641EE4B203D30A5D00F8012B4B
:102EA000F8E70098ABE730680121826A0420904778
:102EB000A4E770B5A04801252905816332201BF0E5
:102EC00029FD9E4A03214220FFF759FFAE1E00282C
:102ED00059D09A4A0321121D4220FFF750FF914C0E
:102EE00006220321206A40F0020020624420FFF7FE
:102EF00046FFF0B194F8E213022901D0042905D16C
:102F0000B4F8E40240F40040A4F8E402B4F8E402A7
:102F1000022101EB002203214420FFF730FF20B102
:102F2000206A40F00400206203E094F8E2030228E3
:102F300029D24FF6037202214620FFF720FF10B37B
:102F4000206A012240F0080020625C215820FFF72F
:102F500048FF002817DB206A40F02000206294F828
:102F6000E30398B1764A03218A20FFF708FF60B196
:102F700041F2130204218A20FFF701FF206A40F08A
:102F80004000206202E0304670BD3546284670BDE4
:102F900010B5012200214620FFF723FF002805DAA3
:102FA00040F2092000F0FBFA4FF0FF3010BD10B5E1
:102FB000FFF7EEFF0721814308D05A4890F8DA0264
:102FC000401C884202D3491EC8B210BD002010BD6B
:102FD00070B5544D102495F82000400708D5B5F879
:102FE000E402022101EB002203214420FFF7C7FE87
:102FF00095F8E203032803D14F494FF48030C861AC
:1030000095F82000400603D409E0641EE4B206D31C
:10301000102204218A20FFF7B2FE0028F5D049488B
:10302000C16921F44011C16170BD2DE9F05F464BCB
:103030003C4E4FF000091B78B6F8E42203EB430343
:103040004D4610244946B34606EBC30A4FF0010C27
:103050000BEB010696F8A532FBB10AEB410797F896
:103060007184804511D8012B02D0022B07D00CE0CF
:1030700096F8B1820CFA08F848EA020205E096F8E0
:10308000B1820CFA08F848EA050597F8727487428D
:103090000FD8012B02D0022B06D00AE096F8B132ED
:1030A0000CFA03F39A4304E096F8B1320CFA03F3F6
:1030B0009D43491CC9B20C29CAD39BF820005E4627
:1030C000400718D522EA1247022000EB072203210D
:1030D0004420FFF754FEB6F8E412B9420BD096F83C
:1030E000E203032805D1380703D013494FF4803099
:1030F00088614FF0010996F82000400634D5680732
:103100002BD0280640EA054040EA052040F0100593
:103110002A4604218A20FFF732FEB8B124B34FF0CB
:10312000010921E028C007208C0300100AE000E01C
:10313000A0E107200080004000C00920020001003B
:103140001620600000C00240D7E10720641EE4B2F0
:10315000DED3E3E7641EE4B206D2102204218A2003
:10316000FFF70DFE0028F5D04846BDE8F09F10B5EA
:10317000FEF7AFF8BDE810402AE7000010B50524BF
:1031800009E057481AF024FC40B155481AF02EFDCA
:103190000A201BF0BFFB641EF3D200E054B151A023
:1031A0001AF03EFC4FF480630022181A8A4101DABB
:1031B000012010BD002010BD70B54B4C4B4821685C
:1031C00013F0A5FB0546206812F01BFC284670BDD5
:1031D00010B547A147A012F0A3FC4349086028B1ED
:1031E000FFF7EAFF002801DB012010BD002010BD21
:1031F00070B504463C4DC00703D0286808B104F000
:10320000FFFEA00703D5686808B104F0F9FE600767
:1032100006D5A868002803D0BDE8704004F0F0BED1
:1032200070BD10B5FFF7C8FF35A1304812F078FC2B
:103230002D490028486000D0012010BD2A4810B553
:10324000012243689102294813F015FC012801D09E
:103250006FF00A0010BD2B4991F82820027091F8F8
:103260002420427011F8202F82700A7BC2700A7EDF
:103270000271898BC1800020704710B522A11B48C4
:1032800012F04EFC18490028886000D0012010BDC3
:103290002DE9F05FDFF854A0DFF84CB01B4E8846F4
:1032A000814600244FF48067C6F800A050463A4695
:1032B0000121DBF8083013F045FB05000DD014495F
:1032C0003B4682220978306804FB018100F005F951
:1032D000641CBD4201D14C45E6D32046BDE8F09FB9
:1032E000CE0A020055303A009003001060CC07204F
:1032F00061000000555342494E464F2E5458540029
:10330000770000000040024072000000DCE107206E
:10331000D4E107202DE9F0410E46FA491446096828
:1033200021B3F949F94F884608601DE03D68AC4279
:1033300000D8254600210846FCF7ECFF2A46042168
:103340008420FCF7ECFF3146761C0020FCF7E2FFFE
:10335000002204218820FCF7E2FF3868D8F800201A
:10336000241A0244C8F80020002CDFDC3046BDE8F7
:10337000F081E748016921F480610161E54850F876
:10338000C41F41F490610160E449E348C863FDF75C
:1033900077FCE34802210322017000214170817013
:1033A000E0480B46DE49006844692120A047DE481A
:1033B000DE494FF4006200780968404201EB4001A9
:1033C000DB48491CFFF7A6FFD94CDA48B4F8CA22FB
:1033D000B4F8C81204F2C224FFF79CFF6288218867
:1033E000D548FFF797FFFEE72DE9F05FC54D0024B4
:1033F00008272C60FCF784FFC349C948CB4E0860FE
:103400000470C24C40F6FF7A4FF4047B80464FF4C0
:1034100084790222012141F29F00FCF780FF98F895
:1034200000101F2908D001201BF074FA28687F1EA5
:103430003FD00028EDD03DE098F801002438052861
:10344000F4D2DFE800F0030910151D004FF40070FE
:10345000286040F2FF702AE001202860C6F800A032
:10346000C4F80090E2E702202860C6F800A004E05B
:103470000420286041F6FF703060C4F800B0D5E742
:10348000082028600222012141F2D700FCF747FF03
:1034900098F8001098F80100814206D141F6FF70BB
:1034A00030604FF484602060C0E747F6FF70306002
:1034B000D6E748B121684FF48460B0FBF1F09A4937
:1034C00008700020BDE8F09F974901200870002097
:1034D000306020604FF4FF70F4E72DE9F0470D46AF
:1034E000A2F580511E4617464FF00409D23903D089
:1034F000A7F58051E83901D14FF00809DFF80CA297
:10350000DAF80040A4B3822F01D1A64200D81C46AD
:10351000DFF8F48129466D1CC8F800000020FCF794
:10352000F9FE224649463846FCF7F9FE822F1FD1A4
:10353000DAF800105046C246741A804616E0DAF8EF
:103540000020D8F800609119CAF80010B44200D8E1
:10355000264629466D1C0020FCF7DCFE3246494613
:103560003846FCF7DCFED8F80000241A002CE6DC14
:103570002846BDE8F08770B50D46634904466848A3
:10358000086009E02146641C0020FCF7C3FE00220D
:1035900004218120FCF7C3FE6D1EF3D270BD70B50F
:1035A000634D0446010AB5F8C402634A1154511C24
:1035B0004454491C0144062002F0BBFE5E48B5F8A5
:1035C000C412401D0144052002F0B3FEB5F8C40248
:1035D000554E083080B2A5F8C40231784FF48062AD
:1035E000B2FBF1F1814233D80020A5F8C40245486E
:1035F000006830B14548B5F8C21202684E48FFF77E
:1036000089FE3078494942424042096800EB800017
:1036100001EB42010844B5F8C212884201D800EB20
:103620004201491CA5F8C2128BB2B5F8C0128B42F8
:103630000AD1884205D800EB4200401CA5F8C00220
:1036400002E0491CA5F8C01201211846FFF793FFBC
:103650003A4BB3F90000844230D0A4F1DC00384981
:10366000384AB0F5A07F09D91F2C07D0107846073B
:1036700023D40C2C0DD0802C15D01EE0107840F0F7
:103680001400107095F8C706B8B1087840F0100023
:1036900012E040F02400107095F8C70668B1087871
:1036A00040F0200008E040F08400107095F8C70654
:1036B00018B1087840F0800008701C80224800781B
:1036C000800609D521480178062905D1802C03D030
:1036D0001F490C800721017070BD2DE9F04104469F
:1036E0000020FCF721FE0D4F4FF08056C7F89C607C
:1036F000184AD06884209060044800218C460568F0
:10370000ED1C35E0C8E10720DCE10720D0E107200F
:1037100000C0024000C00F400000103400C009206B
:10372000A0E107208C030010D4E10720CCE10720A2
:1037300028C0072080DD072060D9072062EF07201E
:10374000FAE10720F9E1072007C007208A030010EB
:103750008803001000000340D068032902D2C2F899
:1037600008C000E09460D368D806FCD4491C89B234
:10377000A942F1D3C7F89860BDE8F041FCF7C5BD98
:103780002DE9F047FA4DA5200026287095F8000491
:10379000DD2801D0C5F8F463DD2085F80004082297
:1037A000691CF448FDF7DCFEF14906220931F248B4
:1037B000FDF7D6FE2E62052285F8D162002085F83D
:1037C000DA2264212B18401CC0B283F8D2120428DC
:1037D000F8D385F8F013012785F8CA764FF0020870
:1037E00085F8D68285F8CC6285F8CD6285F8CE72F0
:1037F00085F8026485F8D96245F66560A5F8DC02B3
:1038000085F8D76285F8D06285F8E96485F8E273B7
:1038100085F8DB22082085F8F50285F898624FF0DC
:10382000030985F8F6920003A5F8E402A5F8E6621C
:1038300000202918401CC0B281F8BD620328F8D3CB
:10384000CB48283000F51C7100F8016B8842FBD38F
:1038500000202918401CC0B281F8A5620C28F8D3BA
:10386000C64800F1D80100F8016B8842FBD3DFF8AD
:1038700010A3002404EB840005EBC0010AEBC00098
:1038800001F2FA21FDF762FE641CE4B2032CF1D3CD
:1038900085F8F79285F8F89285F8F9820024DFF828
:1038A000E492DFF8E4A211E004EB440005EB8001B0
:1038B00009EB840001F27231FDF748FE3AF814007A
:1038C00005EB4401641CA1F8D203E4B295F8F502BB
:1038D000A042E9D8C5F8E86285F8F26285F8F3629B
:1038E00085F8EC6385F8F46285F8E363042085F8D5
:1038F000E7034FF44050A5F8E80385F8EA63182081
:1039000085F8ED0385F8EE6385F8EF6385F8CB86DF
:1039100085F8F16385F8CD7685F8F963012028E60E
:10392000F0B5934D002640F2DC5085F8CF6285F863
:103930000164A5F8DE024000A5F8E0028010A5F8B9
:10394000E202642085F8D8029048914A0127017864
:1039500012884842494202EB400201EB81011144C6
:1039600001EB4000401CA5F8C002A5F8C202A5F872
:10397000C462A5F8C662A5F8C862A5F8CA620020AC
:1039800085F808654FF0C70CC822291805EB4003DD
:1039900081F8EA7481F8EF64A3F8F464A3F8FE6494
:1039A00095F8DB3281F8033481F808C481F80D24DE
:1039B00081F8122481F8172481F81C24002105EBDA
:1039C00000135C18491CC9B284F821241029F8D3CB
:1039D00000EB4003002105EBC3035C18491CC9B28E
:1039E00084F871241829F8D3401CC0B20528CCD320
:1039F0007F2085F8EF04B5F8C80266490004C86462
:103A00000E654865F0BD2DE9FC4763A00024D0E9B0
:103A10000010CDE90010FDF733F9614E72B6E946AA
:103A2000604D4FF0070845F6C05719F80400641CB4
:103A3000E4B22860052C0AD2C5F804805949C5E9CA
:103A400002870846B04728680028EED00DE0052C14
:103A50000BD14FF4E04068604548A8604FF48050B7
:103A6000C5E903074F490846B04762B6286810B158
:103A70000020BDE8FC870120FBE72DE9F05FDFF8BF
:103A800028B13B4F05004FF000084FF0040441F20D
:103A9000E80A38D1DBF80000610280B389463B4870
:103AA0004E464B460078524641423948006800EB8A
:103AB00041012F48491CFFF710FDB146354E0FE07C
:103AC000012CECD84A463949294812F0CDF8706DDE
:103AD000000CA7F8C802716DA7F8CA12A7F8C602B1
:103AE0003878A52803D197F80004DD2808D0642091
:103AF0001AF010FF641E14F0FF04E1D105E00EE09F
:103B00001CB165B10CB1012D02D1FFF739FE804621
:103B1000FFF706FF022D02D12120FFF740FDFFF73E
:103B200072FF4FF0FF3620B9314643F6826000F055
:103B300086FDDBF800005C46C8B1B8F1000F03D089
:103B40001E20FFF72CFD3DE0B5BB4FF48466B7F8AF
:103B5000C2123346554652461548FFF7BEFCB7F829
:103B6000C81233462A461348FFF7B7FC2AE024E080
:103B700028C00720D50A0200D60B020022C3072066
:103B8000DD0A0200550B0200B80A0200D4E107204A
:103B9000CCE10720004002403234353233000000CF
:103BA000F11FFF1FB0E10720C8E1072000700000EF
:103BB00060D9072080DD072004E0314643F68160AC
:103BC00000F03DFD2068786240467BE48C4900228D
:103BD000B1F8C802A1F8C602A1F8CA2289490004B6
:103BE000C86448658848017821F0C00101708748A1
:103BF000017821F0C001017070478148B0F8C2120D
:103C0000A0F8C0120021A0F8C41270472DE9F041BD
:103C10007F4E8048356800F013F9DFF8FC81002101
:103C20007EA0D8F80020921D00F0EDFB040038D4EF
:103C3000D8F80000C11C8C4201D34FF400757A4AB9
:103C4000784984420F46116008D821460020FCF7CD
:103C500061FB082141F2D200326814E000210846DD
:103C6000FCF758FBD8F80000411C8C4204D1042119
:103C700041F2D100326806E0811C8C4206D1042159
:103C800041F2D3003268FCF74AFB05E06749201A8D
:103C900001EB4027A7F5C067A9B2384600F09FFDA9
:103CA000BDE7BDE8F08130B5554CB4F8C202B4F8B8
:103CB000C012401A5E4909780CD5574B4A421B681E
:103CC00003EB42054B4203EB83032B4403EB42021D
:103CD0009A1A10444FF48062B2FBF1F1C9084143D3
:103CE000B4F8C40201EBD00030BD70B5444C0025DF
:103CF000B4F8C802B4F8C612884205D1B4F8CA02B2
:103D000010B90320FFF74BFCB4F8CA02484E0A3042
:103D100080B2A4F8CA0231784FF48062B2FBF1F1AC
:103D2000814233D83A48B4F8C81202684148FFF7D4
:103D3000F1FA3178384A48424942126801EB810170
:103D400002EB4002114401EB4000B4F8C81200231A
:103D5000401C491C884202D8A4F8C83201E0A4F8EB
:103D6000C812B4F8C822B4F8C6128A4208D1012594
:103D7000491C884202D8A4F8C63201E0A4F8C61251
:103D8000A4F8CA3201211046FFF7F5FBB4F8CA02C5
:103D9000B4F8C81200EB01401A494865284670BDC6
:103DA00070B5174C234D030AB4F8CA22AB546B1CF0
:103DB000D054A81C0B0A1354401C1154401C111859
:103DC000062002F0B6FAB4F8CA12E81D0144052034
:103DD00002F0AFFA18480068002810D0FFF785FFFE
:103DE00000280CD015480078400603D594F8CC067E
:103DF000012804D0BDE870400B20FFF7D0BB70BD98
:103E000028C0072000400240F9E10720FAE107201E
:103E1000D0E10720493E0000CCE107200A5061674D
:103E20006500000060CC0720DCE107200070000086
:103E3000D4E1072080DD0720C8E10720D6E1072074
:103E4000FA490860002070472DE9F0410446F8481F
:103E50004FF0FF350278E0B2D10704D0F5490B7D71
:103E60009B06FCD50870910718D5F3494FF08043A5
:103E70004FF47A774E6D76070BD5DE68BE42F9D2E5
:103E800002E0DE68BE4205D2FCF7FAFE2846BDE835
:103E9000F081EA490E7DB606F3D50870510709D5C1
:103EA000E749D1F8C410C90104D5E6490B7D9B064A
:103EB000FCD50870100705D52146002013F08FF8B7
:103EC000A042F9D10120E2E770B5D84D04460A2896
:103ED00002D129680D20884720462968BDE8704036
:103EE0000847DA4AD84B11885854491C11800120E0
:103EF00070472DE9F047D64D04462860D54ECC4F8B
:103F0000DFF85483DFF85493DFF854A314E04CB186
:103F1000286820B1307828B10020BDE8F0874FF044
:103F2000FF30FAE73878800603D598F800000128BA
:103F300008D801201AF0EEFC99F800109AF8000059
:103F40008142E4D00120E8E7C5480078C3490978F8
:103F5000884201D10020704701207047C148007895
:103F6000C1490978884201D100207047012070477B
:103F70002DE9F047B64C054620604FF0FF3AB74EAA
:103F8000B44F40F6B839DFF8D8820DE0206825B18B
:103F900008B1387830B15046BFE718B9FCF770FE69
:103FA000C4F800901AF0F4FD317898F800008142CE
:103FB000ECD03078401CC0B23070AC49085CACE743
:103FC000F0B5A34E30604FF0FF30A44CA44DA74F86
:103FD000DFF880C211E022782B789A4209D022784B
:103FE000521C227019B12A78BA5C8A4201D1012090
:103FF000F0BD9CF80020002AFAD13268002AEAD1EC
:10400000F0BD10B50446FCF73BFE95490978934A8C
:1040100011702046BDE81040AAE70A2054E710B509
:10402000044602E02020FFF74FFF641EFAD210BDC5
:1040300010B5044602E00820FFF746FF641EE4B214
:10404000F9D210BD10B5FFF73FFF2E20FFF73CFF60
:10405000BDE81040202037E70D2803D00A2801D002
:104060000020704701207047814991F8D112022940
:1040700000D900210278002A01D00C2A06D070470E
:1040800010F8012F0C2AFBD1491EC9B20029F7D123
:10409000401C704710B5FFF7E7FF044604E00C280A
:1040A00005D0641CFFF710FF20780028F7D110BD61
:1040B00010B5044605E0641CFFF706FF20780D28C4
:1040C00002D020780028F6D110BD70B50E4600242D
:1040D000FFF7CAFF054611E028780C2802D000211E
:1040E00028B100E001210022114309D101E00122A1
:1040F000FAE76D1CFFF7E8FE641CE4B2B442EBD3B0
:10410000204670BD10B50C46FFF7C4FF2046BDE841
:104110001040BFE770B50546002455F82400641C24
:10412000E4B20178002902D0FFF7B4FFF5E770BDD3
:1041300010B5002805D0FFF7ADFFBDE810400A20FC
:10414000C2E610BD10B504460078FDF7D5F908B1F8
:10415000204600E04748BDE81040E9E710B50446B6
:104160002220FFF7B1FE2046FFF794FFBDE8104084
:104170002220A9E6F0B501F03F0230230A2589B0DC
:1041800011F0C00104D0402906D0802905D101E0FA
:10419000202302E0102500E0022512B1511EC9B211
:1041A00000E0212100268DF82060B0FBF5F605FB2C
:1041B000160606F00F07B0FBF5F02F4E0DF11F04A9
:1041C000F75D8DF81F700FE058B1B0FBF5F705FBF8
:1041D0001707B0FBF5F007F00F07F75D04F8017D56
:1041E00002E042B104F8013D491EC9B2ECD202E03E
:1041F000641CFFF769FE20780028F9D1022D06D053
:10420000102D02D16820FFF75FFE09B0F0BD6220DB
:10421000F9E731B504240DF1030503E015F80109B0
:10422000FFF712FE641EE4B2F8D238BD00C00720CA
:1042300007C0072000C0004000C009200000014066
:1042400000C00F400080094060CC0720C4E1072077
:104250004803001006C00720760300103D0300103D
:104260003C030010440300104503001060C9072000
:1042700028C00720122E0200380F02002DE9F04757
:10428000002617468846054647F2305AB146504642
:10429000FFF7B7FE041E04DC0EB185F80090002085
:1042A0003BE60D2C04D0082C0CD07F2C0AD000E06B
:1042B0000A24612F14D0642FE0B226D0FDF724F930
:1042C00030BB2BE006B3761EF6B208206D1EFFF75A
:1042D000FBFD2020FFF7F8FD0820FFF7F5FD1FE0AC
:1042E000E0B2FDF709F978B13F2C1BD03A2C19D078
:1042F000E0B205F8010BFFF7E7FD5C2C02D10C20C2
:1043000005F8010C761CF6B20AE0FDF7FDF838B1AD
:10431000E0B205F8010BFFF7D7FDF3E7BC42F7D099
:104320000A2C01D04645B2D3304649460246401CCD
:1043300005F8011BC0B24245F8D33046EDE510B593
:10434000FFF79CFF04460A20FFF7BEFD204610BD84
:1043500070B500240D4606462A2A01D101246122A7
:10436000681EC1B2FB48FFF789FF60B1012811D078
:10437000002804DD2A46F749304611F075FCBDE8F7
:1043800070400A20A0E51CB1F3A0FFF783FEF6E71A
:104390003046FAE7EF4800782028EBD10020307053
:1043A000EDE72DE9F0410F46804600241D461646F4
:1043B00010460A2102E0B0FBF1F0641C0028FAD19B
:1043C0004046FFF767FE98F800003F2802D03D20E6
:1043D000FFF77AFDE1B26422DE48FFF7B0FF78B163
:1043E000DC48FDF7A0F8B842EAD3B042E8D8002D87
:1043F00005D0B0FBF5F105FB11010029E0D146E540
:104400004FF0FF3043E50023CBE710B51C46FFF724
:10441000FAFF002802DA4FF0FF3010BD20700120B3
:1044200010BD2DE9F0471E46DDF82080174689466D
:10443000824600250A20FFF747FD49465046FFF710
:1044400061FEC7A0FFF726FE2D220321C148FFF71A
:1044500015FF040015D0BF4801782D2901D1012591
:10446000401CFDF760F8C0B265B1012CE1D900280D
:10447000DFD08028DDD8404206E0B042D9DC88F8A1
:1044800000004AE57F28D4D840B2B842D1DBF4E737
:1044900070B504460D460A20FFF716FD2846FFF7C3
:1044A000D1FD2046BDE87040F4E510B5044619B1D1
:1044B0000146AC48FFF7ECFF0A20FFF705FDAA48CC
:1044C000FFF7E8FD2046FFF7FFFCBDE810403F2066
:1044D000FAE410B50C46FFF7DDFD01212046FFF799
:1044E000E4FF47F23050FFF78CFD0446C0B2FDF701
:1044F0000BF818B12046FFF7E7FC07E04FF0FF325A
:10450000522C02D0482C09D000E014460A20FFF7B4
:10451000DBFC0A20FFF7D8FC204610BD93490020A1
:104520000860F2E710B504460A20FFF7CDFC904979
:104530002046FFF7E7FD47F23050FFF762FDC0B2BB
:10454000432820D08B4940F0200091F8D1228A499D
:10455000895C814201D1012100E00021792804D049
:104560000023194303D0012407E00123F9E783491D
:10457000895C814208D14FF0FF34FFF7A5FC0A2087
:10458000FFF7A2FC204610BD0024F8E710B57C4BD5
:10459000002202EB420453F8244084420CD129B19A
:1045A00002EB420003EB80000079087002EB42004E
:1045B00003EB8000806810BD521C6E2AE9D309B15C
:1045C00046200870002010BD38B505466946FFF743
:1045D000DDFF04464620FFF777FC00212846FFF761
:1045E000C9FD2020FFF770FC0CB1204602E02846F0
:1045F00000F077FBFFF74EFD17E670B505460C4659
:104600000846FFF7E1FF15B10A20FFF75DFC5D48A2
:104610000068002804D020B2BDE87040FEF7BFBF9C
:1046200070BD10B50446FFF7CFFF56490968002951
:1046300004D020B2BDE81040FEF7B1BF10BD70B588
:104640000C00054617D00A20FFF73EFC2846FFF76E
:10465000BBFF601C06D02020FFF736FC052120465A
:10466000FFF788FD0A20FFF72FFC4648006810B1CD
:1046700028B2FEF794FF204670BD70B50E461D4669
:104680001446C2F3072111B1FFF702FF01E0FFF763
:1046900001FD200CC00702D03BA0FFF7FBFC600C23
:1046A000C00703D1E1B23046FFF764FD37488542C9
:1046B00005D02020FFF708FC2846FFF7EBFCA00CF4
:1046C00004D0BDE870400A20FFF7FEBB70BD2DE9A5
:1046D000FF5F8946002747F2305B4FF0FF3803F059
:1046E000C00603F00F05DDF838A0FFF7D3FC002467
:1046F0000BE0641CE0B240F0300109EB0700FFF76B
:10470000C7FE07EB0A00C7B2E4B2AC42F1D3C02E39
:104710003ED0802E41D00A20FFF7D6FB3F20FFF786
:10472000D3FB5846FFF76DFC041E41DDE0B2FCF7F9
:10473000EBFE70B12046FFF7C7FB04F00F04012C1D
:1047400031DBAC422FDC0298641E4FF0010804708C
:104750003BE02DE060CC07202A2A2A2A0000000036
:10476000203D2000851702009D1702006403001001
:104770007615020028C007205215020055150200C8
:104780004C0F0200C8E107203A200000CD0A0200C9
:10479000681C40F03000012102E045F030000021AB
:1047A000FFF783FEBDE7C02E02D1681C84420CD007
:1047B000482C04D02046FFF74FFC30B903E0FF49F6
:1047C0000020086001E0002CA1DA0A20FFF77CFB42
:1047D0000A20FFF779FB04B04046BDE8F09F2DE9C1
:1047E000F0410E46054600244FF4A07747F23058BA
:1047F0001EE0B4FBF7F007FB104018B914B14046B7
:10480000FFF7FFFB200709D10A20FFF75DFB852199
:104810002046FFF7AFFC3A20FFF756FB15F8010BD7
:104820008221FFF7A7FC2020FFF74EFB641CA4B2F7
:10483000B442DED3E3E52DE9F0411D4617460C46B0
:10484000060003D546422D20FFF73EFB96FBF4F011
:1048500096FBF4F104FB11663946FFF78BFC4DB172
:104860003C2C03D02C20FFF72FFB13E03A20FFF75E
:104870002BFB01E03C2C0DD164240BE006EB860001
:104880004700B7FBF4F0C6B246F03000FFF71CFB60
:1048900006FB14766D1EEDB2F0D2B0E510B50446FD
:1048A000AFF21C11C648FFF72DFC02231A46642103
:1048B0002046FFF7C0FFBDE81040C2A038E42DE954
:1048C000F041C148FFF734FCC04CC14DC14FC24E4E
:1048D00040F6B83820782978884208D02078401CE3
:1048E00020702878385CFFF7B7FB002809D13068C2
:1048F00018B9FCF7C5F9C6F8008005201AF00AF8C7
:10490000E8E77CE52DE9F05FB44FDFF8D482DFF80B
:10491000D4921E4615468A468346002404EB460080
:10492000401CC0B240F030015846FFF7B1FD2020D6
:10493000FFF7CAFA5046FFF7ADFB2020FFF7C4FA95
:10494000C4F10100C0EBC00007EB8000FFF7A2FB41
:10495000AFF2CC10FFF79EFB28780021FFF70AFC8E
:1049600020206D1CFFF7B0FA98F8CC0200EB800114
:1049700001EB0900FFF78EFB641CE4B2012CCDD9DA
:104980002BE72DE9F0412E26002405460327B4FB32
:10499000F7F007FB104078B13046FFF795FA15F8AD
:1049A000010BC221FFF7E6FB022C00D93A26641C5A
:1049B000E4B2062CEBD322E53B20EEE72DE9F05FD5
:1049C000894B1C680625B1FBF5F6884F0C44DFF8CF
:1049D000FCA13A80DFF818829946DFF8F8B1851813
:1049E0001DE0D9F800104B468C4202D14FF0FF3049
:1049F000F3E69AF800C05246754909788C450CD008
:104A00001178491CC9B211701BF8012008F8002068
:104A1000401C38801868841901E01AF0B9F8388809
:104A20008542DED883B2002208F80320D5E62DE9BE
:104A3000F047002780463D464FF0010909FA05F08E
:104A400010EA080F24D017B12C20FFF73DFA05EB30
:104A500045006849C0EB4510441820780C280CD15B
:104A60005F4890F8D10205E014F8011F0C29FBD132
:104A7000401EC0B20028F7D1641C002614F8010BB8
:104A8000FFF722FA761CF6B2022EF7D37F1CFFB294
:104A90006D1CEDB2062DD1D950E41CB504461D2085
:104AA0000090872301AA53495348FFF710FE0028BE
:104AB0000DDD9DF8041001208840C1B28DF804106E
:104AC00022780A4201D08A4300E00A4322701CBDCA
:104AD0002DE9F05F0F4644498346002408682646C6
:104AE0000A68C5192046954201D208603D46DFF8A4
:104AF000FC908246A9F8000001E0641CA4B21BF8F7
:104B000004000028F9D1884630490A7830480078F6
:104B1000824224D0D8F8000000EB57050878401CEA
:104B2000C0B208702B49324A0B5CB9F80000311949
:104B30001354401C80B2A9F80000814213D802F837
:104B400000A08BB232462A495846FDF7B5F8002836
:104B500002DDB9F8000040E6761CB6B203E0FCF7CF
:104B60008FF81AF015F8D8F800008542CCD84FF02D
:104B7000FF3032E62DE9F74F002491468A4625465C
:104B8000AFF63B47042A01D1AFF62F47174E00205E
:104B9000308001E0641CA4B20098005D0028F9D1C7
:104BA0000D480160DFF848808346B84730B34FEACC
:104BB0005A01CBF80010B9F1040F20E06403001093
:104BC000F81E020020560000C41C02003D03001025
:104BD0003C03001060C90720480300102024020095
:104BE00028C00720750B02004C030010C4E1072009
:104BF00060CC0720552302002323020028E01DD0AB
:104C00004A490878401CC0B2087049490A5C30889B
:104C100008F80020401C308031882819884219D8B3
:104C2000002208F8012083B22A4642490098FDF785
:104C300043F8002809DD3088BDE8FE8F3E4908783A
:104C4000401CC0B208703D49E0E76D1CADB201E008
:104C5000FCF716F8DBF800000028A6D1401EEBE7B1
:104C60002DE9F05F364901250A680B681418002207
:104C70009C4201D20A600446324EDFF8CCB0DFF825
:104C8000AC902C4F92463280884699F800204946D5
:104C90009BF80000824219D00878401CC0B208700E
:104CA0002349085C0A2807D00D2805D0318878549C
:104CB000491C318000250DE065B90A280AD13088E9
:104CC00007F800A0401C80B2308086E5FBF7D8FFD3
:104CD00019F05EFFD8F800008442D6D84FF0FF30BC
:104CE0007BE54FF47A71B0FBF1F00B380A281AD249
:104CF000DFE800F00507090B0D0F1113151713A0BE
:104D0000704715A0704716A0704719A070471AA0E9
:104D100070471AA070471BA070471CA070471EA0C8
:104D200070471EA0704720A0704700003D03001090
:104D300060C9072060CC07204503001060CB072026
:104D40004C030010C4E107203C030010426C756561
:104D5000746F6F746800000047534D2F4C5445002A
:104D60004B6F6D6D756E696B6174696F6E000000DD
:104D70004D5154540000000047505300466C61737D
:104D80006800000053797374656D000048617264B7
:104D900077617265000000005553420053797374C7
:104DA000656D7465737400003F00000070B50146C6
:104DB000FE48012400EB041212788A4211D100EB64
:104DC0000415681DFFF766F9687830B1F8A0FFF7A1
:104DD00061F968780021FFF7CDF9FFF71EF9204649
:104DE00070BD641CE4B2072CE4D302D1401DFFF770
:104DF0009FF9002070BD70B500242546EEA0FFF796
:104E000049F9002201212046FDF7B9FF78B182213E
:104E10002046FFF7AFF904212046FFF7ABF9EDA0DC
:104E2000FFF738F92046FFF7C1FF6D1CEDB2A41C57
:104E300014F0FF04E5D102212846FFF79BF9BDE8F5
:104E40007040E5A0FFF774B92DE9F34F002687B055
:104E500089463746E448FFF75DF9B9F1580F09D0A4
:104E6000FFF7DBF84FF0000A0DF11008FBF708FF21
:104E7000002405E0DDA0FFF75BF9F3E7022C01D287
:104E8000250101E025014035E8B240F00C01022285
:104E90000798FDF7A6FF28F814003046FFF7DCF866
:104EA00080B138F814002035000A00D06D1C0A20AB
:104EB00019F030FD38F81400022145EA0022079865
:104EC000FDF75DFF641CE4B2042CD7D33046FFF736
:104ED000C3F8002878D1B9F1580F24D01020FFF77B
:104EE000A7F800244546042135F81400FFF742F9DD
:104EF000641CE4B2042CF6D3B9F1580F50D047F239
:104F00003050FFF77EF80646482E6CD0A6F13100EF
:104F100003285AD806F00700401EC7B2012FA5D9B2
:104F20003F1DFFB2A2E7B94C4FF08070A06346105E
:104F3000E663B749B74DDFF8E0B2C1F800A0B74863
:104F4000C5F800A0CBF800A0016802681143016019
:104F5000B3490A680B681A430A60826A42F0060283
:104F60008262886A40F0360088627D2019F0D2FCA7
:104F70002868C0000190A6637000E0637D20C5F83A
:104F800000A019F0C7FCA248006880000290DBF87E
:104F90000000800000902868C00003902C209EE74D
:104FA00000246D46072155F82400FFF7E3F8641C40
:104FB000E4B2042CF6D36420FEF7DAFF06469948E3
:104FC0000078994908709FE70DE02D2E09D02B2E0F
:104FD000A8D1042040EA071201210798FDF7CFFE6F
:104FE00044E70820F6E789494FF40000C8638B497D
:104FF000C1F828A0C1F828A0FFF70FF8FFF70DF8B7
:1050000009B0BDE8F08F2DE9F041FF22012187A012
:10501000FFF7F9F90646FFF700F8002E79DDF0B248
:1050200000220121FDF7ABFE002864D083A0FFF72A
:1050300031F8F0B2FFF7BAFE5C4901EB001898F8BE
:105040000250022D02D10120FCF7F2FC7EA180A0CB
:10505000FFF758F8FEF7E1FF00241BE0022D39D0DE
:10506000F0B201222146FDF7BCFE0700EED400217C
:105070002046FFF77FF80920FEF726FF0920FEF7FC
:1050800023FF98F804103846FFF774F8FEF7C5FFC1
:10509000641CE4B298F80300A042DFD8002FD5DBEF
:1050A000012D01D0022D34D16C48FFF73BFA0028C6
:1050B0002FDD67A0FF220021401CFFF7A4F9C4B236
:1050C0004FF48072002166A0FFF79DF90746022D7C
:1050D00007D008E00C2040EA0410C1B2F0B202226E
:1050E000C1E72007040E44EA0722F0B20221FDF7CF
:1050F00046FE0028AAD14FF0FF31022D05D044F61C
:105100002260BDE8F041FFF79ABA44F62160F8E763
:10511000FFE7BDE8F0812DE9F047050052484FF068
:1051200000044FF0FF0601D0504800265049FEF71A
:10513000E9FF3046FEF7D1FA05210020FFF71AF803
:10514000384FDFF83081384E4FF0020921460020F9
:10515000FBF7E0F84FF000024FF004010DB183209F
:1051600000E08120FBF7DBF8600708D10520FEF79F
:105170005FFF05212046FEF7FDFFFBF781FD0022C2
:1051800004216020FBF7CBF80020FBF7CDF8B9EB4A
:10519000901F08D130783978884204D1D8F80000BF
:1051A000641C8442D2D3052066E00000C80E0200D1
:1051B0002C204943000000000A526573706F6E6432
:1051C000696E672049324320646576696365733A86
:1051D0000A00000064090000206465766963657355
:1051E00020666F756E640A00840C020020696D7081
:1051F000312F7320696D70322F7320696D70332FDA
:105200007320696D70342F730000000000C0092006
:105210001CC0072054030010500300100000094078
:10522000004009403C0300103D0300100A4465762D
:105230006963652061646472657373004932432059
:1052400064657669636520000956616C75650000C8
:105250000A52656769737465720000003C2E020093
:105260000A56616C7565000088190200A6190200D3
:10527000DB190200CCE10720FEF7DAFE0521601CF5
:10528000FEF778FF3078397888420CD1D8F80000E2
:10529000844203D1F848FEF7FDFE07E044F62360A0
:1052A000FFF7BFF902E03078401C3070FBF72DF8B3
:1052B0002046BDE8F08770B5FEF7AFFEFDF757FF5B
:1052C000FEF792F8ED4C08B1ED4809E000212068A6
:1052D000FEF750FF2068802801D2EAA000E0EAA093
:1052E000FEF7D8FEE948FEF723FF206858B3E848E8
:1052F000FEF7D0FEE748FFF715F900281EDD002075
:10530000FFF709FFE44C2168884202D10120FFF732
:1053100002FFE24D28784100E148B0F8C202FEF7F2
:105320002AF9287822684100404202EB4000401CE4
:10533000FEF721F9FEF761FCFEF748FCBDE870407E
:10534000D8A0FEF7A7BEBDE87040FEF766BE2DE907
:10535000F05F4FF0000705003E4607D100210846E8
:1053600001F044F80021012001F040F8112000F084
:1053700018FCDFF834B301218BF80C109BF80010F7
:105380009BF8002011438BF80010DFF8209340F2C7
:105390004C41C9F80010DFF818834FF0000AC8F834
:1053A00000A0112000F0F2FB05E00A2019F0B2FA8B
:1053B000D9F8000018B1D8F800000028F5D0D9F8C5
:1053C000000020B34446D8F80080C4F800A002E0F2
:1053D0000A2019F09FFA20680028F9D024681120CB
:1053E00000F0DFFB02218BF80C109BF800109BF8FB
:1053F000002011438BF80010112000F0C7FBAD49CD
:10540000A4EB08000C1A03D50127644200E0012632
:1054100015B9A9A0FEF73EFE322C00DCBEB17DB965
:1054200044F62460FFF7FDF856B917B12D20FEF7BA
:105430004BFD00212046FEF79DFEA1A0FEF72AFEAF
:105440004FF0FF3144F62560FFF7F9F803E015B996
:105450008948FEF76DFEBDE8F05FFEF7DEBD70B572
:105460000222012198A0FEF7CEFFC0B2012802D08F
:1054700002280AD01AE04FF0FF3201219948FEF7C6
:10548000C2FF0121FDF70FF910E04FF47A720121FC
:105490009548FEF7B8FF0546002402E02046FEF7D7
:1054A0007EF82046641C24B2A842F7D3BDE87040C1
:1054B000FEF7B3BD2DE9F0478C4D07004FF0000417
:1054C00001D0FDF754FEDFF828824FF0C0790A269C
:1054D00040F6FF7AC8F83C90E105C8F83810012082
:1054E00019F018FA0220FBF73EFE012C19D041F604
:1054F000C8114843B0FBFAF025F8020B2046641CA3
:10550000E4B20228E6D3664CF80707D0B4F8EE02FE
:10551000B0FBF6F0FFF7C2F9FEF77FFDB4F8EE023C
:10552000C7E6C0EB001000EB8000B0FBF6F0E3E74D
:1055300010B57048FEF7FCFD6FA17048FEF7E2FD64
:10554000FDF715FE4FF4FA74FBF79AFBFBF72EFEFE
:105550000421FEF70FFE2046FEF7CBFC002803DAFD
:105560000420FEF765FDEFE7FEF757FDBDE81040AC
:10557000FEF753BD70B55F48FEF7DAFD03214FF427
:10558000C270FCF779F832210020FCF7A8F9C0B20C
:10559000FEF762FD00283BD103216F20FCF76CF879
:1055A00032210020FCF79BF9C0B2FEF755FD002820
:1055B0002ED103214FF49670FCF75EF832210020C3
:1055C000FCF78DF9C0B2FEF747FD002820D100217D
:1055D0004FF4F470FCF750F832210020FCF77FF90B
:1055E000C0B2FEF739FD002812D14FF4FA74251D20
:1055F00000212046FCF740F832210020FCF76FF92B
:10560000C0B2FEF729FD002802D1641CAC42EFD9DC
:1056100070BD2DE9F05F4FF0000A40F2F7175646D3
:105620003A46514636A0FEF7EEFE0546B0F5C87F75
:1056300006DA37A003220121801CFEF7E4FE0646AD
:10564000C822012135A0FEF7DEFE040000D50024AB
:105650002848FEF76DFD4FF47A70002D03DBA84655
:105660004FF0000B02E00025B8468346002E6ADBAF
:1056700006F0FF09F6B287E0F3190200C8E107203F
:1056800027190200204D4200204B42003919020028
:10569000961E0200F7190200CCE10720D4E1072092
:1056A00028C007200A0A00000040024048030010FA
:1056B000E4E1072040420F000A0A52544320000050
:1056C0002070706D000000000A53656C65637420E3
:1056D000446174612F50726F746F636F6C20283156
:1056E0002F322900331F0200A61F020014C3072017
:1056F00000C00920C41C0200203D2000161A020030
:105700000A456E746572206E756D626572000000E8
:105710002D20436F6C6F7220000000004C45442028
:1057200064757479206379636C65203128302E3577
:105730002529202E2E2E20323030283130302529B8
:1057400020000000FFE7FA494FF00109834691F875
:10575000D66219E00CB9FCF758F84F460DE039460F
:105760002846FBF789FFE1B25846FCF785F8C0B23E
:105770008246FEF771FC10B97F1CB742EFDD504640
:10578000FEF76AFC10B96D1C4545E3D9FBF7A1FD96
:10579000FEF743FCBDE8F05FFEF73FBC2DE9F05F8C
:1057A00040F28F18FBF795FD4FF4FA7019F0B2F83C
:1057B000E04E307828B9E0A303220021DF48FEF74D
:1057C0005CFFFDF705FC01254FF0FF3BDFF860A310
:1057D00042E0022D01D94FF0C70829464046FBF7A9
:1057E0004BFF0124322740F2EE29307848B90520DA
:1057F000FEF71EFC03212046FEF7BCFCCEA0FEF700
:1058000049FCFBF787FD6043B0FBF7F000B90120CE
:10581000C1B24846FCF730F8FEF71EFC58B96400E8
:10582000802C0BD0C82CE0D340F2DC50FEF7E9FB13
:10583000FEF712FC20B15846BDE8F09F6424D4E77F
:1058400001210846FBF785FDFBF743FD4FF4FA7095
:1058500019F060F86D1CEDB29AF8D602A842B8D2E1
:10586000307808B9FEF7D9FB0120E5E72DE9F041D2
:105870000125AF1EAE4E1CE029467C20FBF7FCFE46
:105880000124FBF747FD4006010EFA20FCF727F83C
:10589000FEF7E2FB28B9FA20FEF7B3FBFEF7DCFBCC
:1058A00008B1384635E4641CE4B2062CE9D96D1C15
:1058B000EDB296F8D602A842DED2012029E42DE905
:1058C000F0479F4F9A4E012538784FF0FF3930440A
:1058D00040F2771890F8034450E096F8980210B11F
:1058E0002046FDF7A2FB38780121304490F81724B8
:1058F000A24204D896F8D622032A00D1032190F8B8
:105900001204A04204D896F8D602012800D9022138
:105910002046FBF7B1FEFBF7FDFC4006010E4046BA
:10592000FBF7AAFFFEF798FBA8B92046FCF761F841
:1059300018B10121FBF7A0FE0FE03878304490F851
:105940000D04A04209D8FBF7C4FC4046FEF759FB02
:10595000FEF782FB48B14846ABE4FBF7DBFC4006B0
:10596000010E4046FBF788FFF2E73878304490F8A4
:105970000804A04200D16D426019C4B238783044A6
:1059800090F80304A042A8D9012092E4FEB56D4826
:10599000002407C88DE807006B48FEF77BFB644DC9
:1059A0006E4695F8EA0338B1FDF701FB20B1FDF72B
:1059B000FEFA6349401E087056F82400641CE4B2E5
:1059C0008047002806DB40F2DC50FEF71AFBFEF7AA
:1059D00043FB70B1FDF7CBFBFBF717FF95F8EA032C
:1059E00010B15A4901200870FEF717FBFEF715FBAE
:1059F000FEBD022C00D9002400F070F90028D0D19F
:105A0000534800780007CCD55248406B4000C8D5B9
:105A100051480121006819F059F8FA2018F07AFF6E
:105A20004E4903200870BCE708B54DA0FEF732FBD5
:105A30006B46642200214EA0FEF7E7FC9DF80000B3
:105A400058B10121BC20FBF717FE9DF8000040066D
:105A5000010E4FF0FF30FBF70FFF0320FBF7E8FFCD
:105A60004548007845490870FBF733FC0020FBF7F8
:105A7000DFFF08BD70B52E4C414DB4F8E80329791D
:105A800020F007000843A4F8E8030120FBF7D0FF4B
:105A9000002804DD58210846FFF7D6F905E04FF04D
:105AA000FF3144F62660FEF7CAFD94F8E713B4F818
:105AB000E803695C20F007000843A4F8E803BDE8A8
:105AC00070400020FBF7B4BF70B5194C214E4FF465
:105AD0000045206A20F040002062B561294A032178
