:020000040000FA
:1000000030340010850200008D0200008F020000D5
:100010009102000093020000950200000000000021
:10002000000000000000000000000000A503000028
:1000300099020000000000001D04000059040000A7
:100040009F0200009F0200002F0B0000C90B000060
:100050006F0B0000190A00005D0A0000C90A0000C9
:100060009F020000490C0000F14501009F020000C2
:100070009F0200009F0200009F0200009F020000FC
:100080009F020000A1620000D3330000030B0000B8
:10009000190B00009F0200009F0200009F02000059
:1000A000BD6A00009F020000BD6E00009F020000BC
:1000B0009F0200009F0200009F0200009F020000BC
:1000C0009F0200009F0200009F02000000F002F863
:1000D00000F080F80AA090E8000C82448344AAF162
:1000E0000107DA4501D100F075F8AFF2090EBAE860
:1000F0000F0013F0010F18BFFB1A43F0010318475C
:1001000048410200784102000A444FF0000C10F808
:10011000013B13F0070408BF10F8014B1D1108BF85
:1001200010F8015B641E05D010F8016B641E01F825
:10013000016BF9D113F0080F1EBF10F8014BAD1C75
:100140000C1B09D16D1E58BF01F801CBFAD505E093
:1001500014F8016B01F8016B6D1EF9D59142D6D3ED
:1001600070470000103A24BF78C878C1FAD8520707
:1001700024BF30C830C144BF04680C607047000021
:100180000023002400250026103A28BF78C1FBD8A0
:10019000520728BF30C148BF0B6070471FB59DE8AC
:1001A000030016F0F0F816F08AFB0400002000218E
:1001B00020F07AFA401C606015F0E6FF1FBD10B514
:1001C00016F05AF810BD03B4FFF7F9FF03BC15F0A1
:1001D0005CFA000015F00EFB1146FFF7DFFF1EF082
:1001E0009FFB044800211EF091FC1EF0ABFB00F0C9
:1001F0006EF80000A8030010FEE7FEE71A4810B5ED
:10020000007848B11FF0FEFE30B1184900EB400005
:1002100001EB4010603810BD154810BD154A10B5EF
:1002200011680346082900D3FEE7134800EB0110CC
:10023000491C186011601FF029FA012010BD0A49FD
:100240000978002905D000684FF6FF71DFF82CC04F
:1002500000DF704704490978002903D00068DFF8FF
:1002600020C000DF7047000079040010981A0010C9
:10027000D42A0010C0030010F81D001075F701000B
:100280009DF601000948804709480047FEE7FEE760
:10029000FEE7FEE7FEE7FEE7FEE7FEE7FEE7FEE736
:1002A00004480549054A064B704700008D5301007C
:1002B000CD000000302C0010303400103030001021
:1002C0003030001000487047D42A001070470446B0
:1002D000AFF300802046FFF776FF421E12F8013F81
:1002E000002BFBD111F8013B002B02F8013BF9D1A7
:1002F0007047704770477047704770472143658764
:1003000040F2010CC1F2000C604740F2270CC1F230
:10031000000C604740F23F0CC1F2000C604740F215
:10032000271CC1F2000C604740F2730CC1F2000CB4
:10033000604740F2BF1CC1F2000C604780F309889F
:100340007047EFF309807047684680F309880448D6
:100350000078C00714BF0220032080F31488704780
:10036000DC330200DFF818C0EFF305831B0618BF6B
:100370006047EFF31483DB0708BF604700DF704777
:100380008DF00100DFF818C0EFF305831B0618BFDE
:100390006047EFF31483DB0708BF604700DF704757
:1003A00025F30100EFF30980816911F8021CF1B90E
:1003B00090E80F10E047EFF3098C8CE80700144B2E
:1003C00093E8060091420FD039B12CE9F00FC1F843
:1003D00028C00CB41FF098FB0CBC1A60D2F828C0DF
:1003E000BCE8F00F8CF309886FF0020E704710B56F
:1003F000084A1268914209D8074C54F8214090E805
:100400000F10A047EFF3098C8CE80F0010BD00001F
:1004100080040010F86F0000F86F00001FF0DEF994
:100420000C4B93E80600914210D0EFF3098C2CE9B5
:10043000F00FC1F828C00CB41FF066FB0CBC1A60AA
:10044000D2F828C0BCE8F00F8CF309886FF0020ED8
:1004500070470000800400101FF01EFCE0E7000061
:100460001EF0FEFB1FF018FCDAE700002DE9F05F3C
:1004700000273C4614F02EFFDFF804B4DBF88001BF
:1004800010F00B0F01D01EF04BFA1EF05BFADFF8F4
:10049000F4A3DFF8F493FD4DBAF800000026A0F5B0
:1004A00025414FF00108023945D04AF201518842F6
:1004B00041D0DBF880114BF2036241F3800C0CF168
:1004C000010C904201D1012100E000215CEA010C05
:1004D00016D085F8D1622E62904201D089F8008052
:1004E000EB4999F800C081F800C0DFF8A8C3642187
:1004F000CCF80010E8490E70E8490E70E8490E701B
:10050000904201D0AAF80060E648E7490670E74843
:1005100081F800800670E6480670E6480670E648F6
:100520000670E6480670E64800EB07117F1CFFB234
:100530000E70032FF8D300F0CCFD00F001FC00F0AA
:100540004EFC05F0C6FE4FF4FA4000F0C3FBDD4858
:1005500003F0AAFCDBF880015F4640F38001BAF8A3
:100560000020491CA2F5364003380FD0002001437B
:1005700015D0FA201EF0C8F902F066FF2043C4B27D
:10058000002003F0AAFA012802D006E00120EEE7DD
:10059000CD4803F0F3FD641CE4B200F07CFD02F0F2
:1005A00001FC08B3C94A4FF0FF314FF4027004F068
:1005B00055F8641CE4B2B348DFF814B30088A0F522
:1005C0002541023968D04AF20151884264D095F839
:1005D0002000C00736D002F09CFC002832DA296ADD
:1005E0000A2088430BD104E0286A40F00100286209
:1005F000E1E7480703D595F8E203022805D2B34A9C
:1006000040F209200A3204F029F895F8200080060B
:1006100007D4AE4A4FF0FF310B3240F20A2004F00B
:100620001DF895F8200040060AD495F8E30338B188
:10063000A64A4FF0FF310C324FF4037004F00EF86D
:10064000641CE4B2D7F8800110F0090F0CD04FF40D
:100650008471CBF85C1001F068F94FF4A471CBF809
:100660005C102021CBF858109A480068A0B19A4835
:100670009A4A007812684100404202EB4000401C58
:1006800002F0A9FFB5F8C202012102F0A4FFB5F8FB
:10069000C802012102F09FFF02F0AAFCDFF840A28D
:1006A0008AF8000000F01EFB76480088A0F525417E
:1006B00002397DD04AF2015188427AD0D7F88011B0
:1006C000490726D5A0F53641033922D09AF8000013
:1006D000C00602D589F8008001E089F800606C4806
:1006E00099F80010017095F8F30258B17D48006840
:1006F0000DF008FD95F8CC0601284FF0000005D05C
:100700000DF021FD1F2002F07AFF14E110F074FCBF
:10071000F8E7D7F88001C00770D0012002F06FFF22
:10072000714890F82410714801706D480078C00637
:1007300002D56F4880F8008032201EF0E5F8DFF81F
:10074000B4A110218AF8001095F8F40210B1182114
:100750008AF8001095F8F20260B10DF0C4F930B1DA
:100760009AF8001041F080018AF8001006E0641C3D
:10077000E4B203E0E87B08B10CF037FD95F8F30232
:1007800098B301200DF083FF00282FDD9AF80010A8
:1007900041F040018AF8001095F8EC0310B30020F6
:1007A00012F0DAFE002818DD0320CBF81C0001E06F
:1007B000DCE046E0D7F88001C00708D04E4995F844
:1007C000ED0308704D49C0EB0010800008809AF8D6
:1007D000001041F004018AF80010002012F054FECD
:1007E0004748067000200DF0AEFC01E0641CE4B246
:1007F0004FF000011CB140F2F51002E09BE040F226
:10080000F71000F057FF00214FF4FA6001F052F8A2
:10081000334A1078C10610D495F8D71269B995F803
:10082000E213022909D0042907D099F80010184BC7
:1008300021F0010189F80010197080F0100010708B
:1008400079E0202002F0DBFE0822691C2D4800F030
:10085000A5FE2749404681F800809AF80010090655
:100860005AD495F8F202522850D0012851D04FF4B2
:1008700096200CF06FFB24490620087056E000001B
:1008800000C00F400CC0072007C0072028C0072069
:10089000D8E1072018C00720D7E1072007E207208A
:1008A00008C00720F8E10720E0E107205DEF0720FE
:1008B0007603001064EF072065EF0720FCE10720B6
:1008C0007CEF0720B13E0000840D0200CE11010034
:1008D00000C00920C8E10720D4E10720CCE10720AF
:1008E000D5E1072038030010004002405AEF0720EE
:1008F00069030010D6E1072006E2072004E2072082
:1009000009C00720C90A02000AC007204FF4E130DD
:10091000AFE74FF4E120ACE72E49097831B12E4919
:1009200008702E49087002200DF00DFCB5F8C802C1
:10093000012102F050FE2A490320087029482B4962
:1009400006702948067081F80080294806702948F9
:10095000067029482D4906702848067028480670F8
:10096000284806702848068014200870D7F88001AF
:10097000400703D14FF4967002F041FED7F8800192
:10098000D7F880110843C7F880012148006810B1EA
:10099000122000F013F8132000F010F81D484FF457
:1009A00000210680CBF83C104900CBF8381000F04D
:1009B000ADFC0BF0FDF90020BDE8F09F00F01F0238
:1009C000012191404009800000F1E020C0F80011B1
:1009D00070470000F8E1072008C00720FCE107206D
:1009E000FBE10720F9E10720FAE1072006C0072014
:1009F0005DEF0720760300105EEF07205FEF072012
:100A000060EF072061EF072062EF0720C3EF0720A8
:100A1000C8E107200CC00720FE4908B5886800F02F
:100A20000E00022804D0042803D0087D8DF80000B1
:100A300008BDF94A507948B10A78F8490878401C4D
:100A4000C0B2087001F65C210A5408BD097810781C
:100A5000401CC0B21070F24A115408BDF14918B4DC
:100A6000886800F00E00022804D0042804D0087D15
:100A70008DF8000018BC7047E84AE74BD078800634
:100A80000DD554781078401C844217D0097810781E
:100A9000401CC0B2107002F65C221154EAE75C7888
:100AA0001878401C844209D009781878401CC0B2DC
:100AB0001870DB4B195406209071DBE70120987009
:100AC00018BC062000F0FFBCD74908B5886800F0C4
:100AD0000E00022810D0042801D0087D0EE0CE4A76
:100AE000537A107A401C834207D00978107A401C50
:100AF000C0B21072CD4A115408BD08788DF80000BC
:100B000008BDC64901208870C948D0F8401141F09D
:100B10000201C0F840117047BF490020C870C448A6
:100B2000D0F8401141F00401C0F840117047C148AD
:100B3000816801F57A718161B8490A6912B10A695F
:100B4000521E0A61B44AD36813B1D3685B1ED360E6
:100B500013695B1C1361CA68521CCA6003E0016818
:100B600002681143016001680029F8D17047B2485A
:100B7000806AC0060FD4B1480168C9060CD5A649E1
:100B80008A69521C8A6103E0016841F0100101602A
:100B90000168C906F8D470470168890610D59F49D5
:100BA0008A69521C8A6103E0016841F020010160FA
:100BB00001688906F8D47047016802681143016032
:100BC00001680029F8D170479B4810B5816A924AA4
:100BD000C90617D5D3780021182B00D3D170984BB4
:100BE0005B6DDB040CD5C16A964BD47843F82410B6
:100BF000046BD17803EB8103491CD1709C6609E03A
:100C0000D17007E05169491C516103E00168026835
:100C10001143016001680029F8D110BD854B10B562
:100C20009968894A03E09C68641A0A2C0BD2D4683C
:100C3000E406F8D4906003E09868401A142802D2C1
:100C4000D068C006F8D410BD70B5804D286810F487
:100C5000282F27D1FFF754FB704E04241C36305D3B
:100C6000FFF7DCFF641E14F0FF04F8D16A498879AD
:100C700004281DD004208871C979C0B20843FFF749
:100C8000CDFF6F4840228265416D4906FCD5C265A3
:100C9000674850F8C41F21F480610160286820F47F
:100CA000282028606A48016802681143016070BD0D
:100CB0000820E0E772B6AA214807017255210172A7
:100CC00062B6704772B6AA214807017255210172B7
:100CD00062B670474FF47A714843C90648600320F2
:100CE0000870E7E710B5142000F0EDFB132000F0CA
:100CF000EAFB122000F0E7FB4D4C0720C4F8480146
:100D00000020C4F84C010621122004F5A07400F064
:100D1000F0FB0F21132000F0ECFB0C21142000F05D
:100D2000E8FB2068216808432060122000F0D6FB11
:100D3000132000F0D3FBBDE81040142000F0CEBB20
:100D400070B53B4850F8C41F424A1143016039480E
:100D500002244460C46001254561816801F57A710F
:100D60008161016802681143016045600D212046E0
:100D700000F0BFFB022000F09BFB2F4844602F498E
:100D80004C60C460CC60026803681A4302600A6861
:100D90000B681A430A600022826282628D6045609D
:100DA0004D602B484461F921C16046F62001C164C1
:100DB0000E21032000F09DFB032000F079FB1021A1
:100DC000042000F096FB042000F072FB1C21092097
:100DD00000F08FFBBDE87040092000F069BB1448AB
:100DE00010B550F8C41F41F0080101600948002106
:100DF00041600721017283210173042101700321E5
:100E00000173852180F82810012141601E210520F1
:100E100022E0000000C000403C03001004C0072096
:100E200060C90720000001400080094060CB072016
:100E300000C00F4000800040000009400040094011
:100E400000C0092028C807200000034000C002405D
:100E5000008001404400C00000F04BFBBDE81040A2
:100E6000052000F025BB2DE9F041FE4DFE4E48F275
:100E70002A070324C8B156F8C41F41F0100131609D
:100E8000FA4900224A6007220A7283220A73B0F5E7
:100E9000165F1ED08522B0F5E13F1ED0B0F5E12FE0
:100EA0001ED0B0F5962F1FD020E0062000F00BFBDF
:100EB0002869B843286156F8C40F20F0100030604C
:100EC000EB48C17821F00201C170EA488461BDE8B5
:100ED000F08168200870212004E00820087004E0F8
:100EE0000C70C120886201E00C708A620C73087C6F
:100EF00040F0C00008740120486028693843286128
:100F00001D21062000F0F5FABDE8F041062000F0B2
:100F1000CFBA70B50E46044672B6D749887AA04259
:100F200004D162B63046FFF79EFF2EE0D04D012877
:100F300003D1E87820F00200E8708C7262B60320DA
:100F40001DF0E2FCCB48012C07D001220221022C2B
:100F500006D0032C07D0002070BD0321C16104E03E
:100F6000C261816101E0C16182613046FFF77BFFB0
:100F700003201DF0C9FC72B6012C05D1E8780106EA
:100F800002D540F00200E87062B6012070BD10B5D5
:100F900072B6B94CA17A814201D062B610BD62B678
:100FA000012817D0B248C078000613D5B0482430C5
:100FB00090F8F202522807D0012808D04FF4962169
:100FC000BDE810400120A4E74FF4E131F8E74FF409
:100FD000E121F5E70020FFF746FF72B60320A5499F
:100FE000C8610020A072D8E72DE9F0419D4F9E4DC9
:100FF000040012D04FF4E1384FF41656B4F5E12F47
:1010000003D0444501D0B4421AD1D5F8C400C00180
:1010100017D5072000F057FA18E09549C87820F056
:101020000400C87095490870072000F04CFA386831
:1010300020F4A000386055F8C40F20F080702860BC
:1010400045E755F8C40F40F080702860386840F4D8
:10105000A00038608A480021416007210172832185
:1010600001730121B44201D1302202E0444502D192
:101070000422027000E0017003220273852280F8CE
:10108000282041601F21072000F033FABDE8F0411D
:10109000072000F00DBA7648764924304FF400421C
:1010A00090F8E3330BB18A6100E0CA6190F8E20383
:1010B0004FF4803201280AD0022808D0042806D034
:1010C000CA61032802D167490005C86570478A6173
:1010D000F7E7644B30B44FF4756018604FF4BE10FE
:1010E00058604FF0A87018616248402181616549DD
:1010F000C1614FF0916181636349C1635A49D1F87D
:101100008021D20704D06022C2654FF4847203E0CC
:101110004FF4A472C265202282654FF08054C0F85B
:101120009840D1F88011524A490708D511894AF2EE
:101130000155A94218D0A1F52545023D14D0002142
:10114000517152490160524901624FF4B471016416
:10115000C0F880404FF44C2018644FF420105864BD
:101160004C48D86430BC96E75179127951EA0205AF
:1011700002D04FF00055856341B13D49243191F8CB
:10118000EC13032902D04FF400118161002AD8D05A
:101190008463D6E740498A688B689B1A8342FBD3F5
:1011A000704710B5304CD4F8C41041F48051C4F8E5
:1011B000C41001223949824042EA010338490B60D8
:1011C0000B6843F080730B600B6B1342FCD001EB98
:1011D000800000690022C0F30B100A6054F8C41F9D
:1011E00021F48051216010BD30B51E4C2569206965
:1011F000400503D5206920F4806020611D494FF02F
:10120000C070C8630320FFF7CCFF2561800830BDA4
:101210002DE9F05FDFF858A080460AF11C0A05248A
:101220009AF800000025C0F38100032800D10125B1
:10123000DFF87090D9F8141021F00101C9F81410EA
:10124000FFF75EF80B4E4027F765DFF818B0DBF8C4
:101250001000400530D40220FFF7E0FCB765706D48
:10126000400621E000C0024000C00F4000000140E5
:1012700004C0072000C009203C030010D8E107206B
:10128000008009400004240000001431438425003C
:1012900000009C3503080820008000400002200068
:1012A0000040034000800140D9D5F7650DB1FFF73C
:1012B0002CF803201DF028FB98F8000038B1954960
:1012C000D8F80020CA6198F8040081F8200055B1D0
:1012D000D9F8141041F00101C9F814100CE0285D90
:1012E000FFF79CFC00E05546641EE4B2F7D2B765F8
:1012F000706D4006FCD5F765DBF8101041F4806195
:10130000CBF81010BDE8F05FFEF7FFBF70B5824864
:10131000016921F4806101618048D0F8C400400671
:1013200004D57F48416921F0010141617D4C402590
:10133000E565FEF7E5FF0220FFF770FCA565606D2F
:101340004006FCD5E565BDE87040FEF7DEBF764996
:10135000002009794A070AD40A0701D5012006E0CE
:10136000CA0601D5022002E0490600D50320694AD9
:101370002432104490F8D21292F8CA0600EB800092
:10138000401D48430A21B0FBF1F0704730B5614D74
:101390000B4630B9FFF7DBFF696948436421B0FBB6
:1013A000F1F0C8245BB95B496B69243191F8F023F3
:1013B00091F8CA16491C59434A43B2FBF4F388B169
:1013C000C82800D3C7207BB1C82B00D3C723544AF9
:1013D000C0F1C701916453621164C721C72805D3C6
:1013E000546404E00120EEE70123F0E751649161C9
:1013F0007920106548480169490508D4C16911F48C
:10140000401F04D19169491E916009215160C16951
:1014100041F44011C16130BD444841688907FCD4A2
:10142000017D8906F9D570473A4A10B54AF2025053
:10143000108102F1240090F8CE0220B13C480168EE
:1014400041F0040101603548D0F8801021F002011C
:10145000C0F88010AA24C0F88C405523C0F88C3006
:10146000D0F888108901FBD4D0F8801021F0010158
:10147000C0F88010C0F88C40C0F88C30D0F88810CC
:10148000C901FBD40121C0F804110023C0F80C31BC
:10149000C0F8C03020BFFFF70DFC138113F076FFBA
:1014A0004FF4FA40FFF716FCBDE8104013F012BFEE
:1014B00000F01F02012191404009800000F1E0206E
:1014C000C0F80011704700F01F020121914040094F
:1014D000800000F1E020C0F88011704700F01F028A
:1014E000012191404009800000F1E020C0F8801205
:1014F0007047C906090E002806DA00F00F0000F157
:10150000E02080F8141D704700F1E02080F80014FE
:101510007047000004C0072000C0024000C00F4018
:101520000080014000C009203C03001000C00040C2
:1015300010ED00E0202803D37E2801D80120704759
:1015400000207047302803D3392801D80120704784
:1015500000207047A0F16101192901D82038C0B2DC
:10156000704700B50146002207E002EB820011F847
:10157000012B02F00F0202EB40020878FFF7E2FFB6
:101580000028F2D1104600BD02E001F8012B401CFA
:101590000278002AF9D100200870704704E0521E3A
:1015A00001F8013BD2B2401C0378002BF7D1002098
:1015B000521ED2B202D301F8010BF9E7704730B5E1
:1015C000FD4CFE4B05E01A8810F8015BA554521C37
:1015D0001A80491EF7D230BD10B5F74CF74B04E026
:1015E00019886254491C1980401C0278002AF7D1DE
:1015F00010BD10B50146002001E0401C80B211F87A
:10160000012B002AF9D1ED4BEB4A040A19885454F6
:10161000491C89B25054491C198010BD30B504468C
:1016200010460023E64A09E0E55C5B1C85EA1025CC
:101630009BB232F8155085EA002080B28B42F3D37A
:1016400030BD0022EAE7F0B50022DE4EA0F1010E27
:101650001CE006EB820C1546DCF8D04029462746F4
:1016600009E006EB8103D3F8D030A34201D21C4637
:101670000D46491CC9B28142F3D306EB8501521CC9
:1016800051F8D03FCCF8D030D2B20F607245E0DBD9
:10169000F0BD30B503004FF0FF3409D0002005E065
:1016A00031F810509D4204D0401CC0B29042F7D394
:1016B000204630BD2DE9FE4F0546C3A000240DC8CD
:1016C000C44F8DE80D000526DFF80C83A1463C7061
:1016D000B5F5C87F09D2880701D508203870C8073A
:1016E00063D0387840F004004DE0BC4908694005FB
:1016F00045D598F80000430741D50B698A4623F485
:1017000080630B614FF0E0234915C3F88011C0F3EB
:101710008101DFF8CCB2032906D040F0800088F8C0
:101720000000FEF7EDFD07E080218BF8001019E0C6
:1017300018F80600FFF772FA761EF6B2F8D2A9483A
:1017400040228265416D4906FCD5C265A64850F825
:10175000C41F21F480610160DAF8001021F428210F
:10176000CAF8001032201DF0CFF8A048416921F0DE
:1017700001014161092001F0FBFA8BF80090B5F5F9
:10178000FA7F02D2302038700FE0B5F5FC7F2AD204
:10179000B5F5FB7F01D2202000E040203870E8073B
:1017A00002D04FF07C6400E0914C3B7888F8003028
:1017B000B5F5FA7F43D200216E460A22B5FBF2F05E
:1017C00002FB1050B5FBF2F5375CC1EBC10C07FA18
:1017D0000CF73C4313F00C0F1BD038B1012811D08B
:1017E00007281BD10EE088F8009028E039B1E807FF
:1017F00002D1A81E02280FD244F000540EE044F09B
:1018000080540BE011B144F4C01407E044F4C02448
:1018100004E0012902D108B924F47E54491CC9B25C
:101820000229CBD3E80701D044F40314022D06D3D8
:10183000042D02D244F4803401E044F07074C8F8FE
:101840000140BDE8FE8F10B5FFF7CEFC00FB00F1B4
:1018500001FB00F240F2EB53B2FBF3F2891A6FF492
:10186000037200FB0210634908444FF47A71B0FB25
:10187000F1F0614982080868A2EB90021044086008
:101880005E4991F8E313002913D0C0EB0010C82182
:10189000B0FBF1F010F0FF0000D10120010341EA9C
:1018A000002040F018020221BDE810408A2001F01B
:1018B00096BA10BD2DE9F0410446FF2902D0084632
:1018C000FFF764FD4E48FFF7A3FC002C23DB4D4ED1
:1018D00030784D4D28704D4F0AE0FFF7EBF90120AD
:1018E0001DF012F814B1641E02D105E0387818B961
:1018F000287831788842F0D028783178884207D02B
:101900002878401CC0B228704149085CBDE8F081CD
:101910004FF0FF30FAE70020F8E710B5FFF7CAFFF5
:101920000446FFF7F3FC204610BD2DE9F047334F86
:1019300000264FF4FA7897F8D602022801D24FF425
:101940007A7801254FF0FF392946BC20FFF7B2FE17
:1019500097F8D602A8421BD30124E1B24046FFF714
:10196000A9FF6400802CF8D9012D4FF0C80122D0C6
:101970004046FFF79FFFFFF7C9FC01210846FFF72C
:1019800005FD40461CF0C0FF6D1CEDB2032DDBD3FE
:1019900097F8CD0201213044C830FFF78BFE97F84D
:1019A000D2024006010E4846FFF784FFBDE8F0472B
:1019B000012003F0ACBC2DE060CC0720C4E107207F
:1019C000FC0D020028C807203F065B4F666D7D07AF
:1019D0007F6F00004003001020C0072000C00240BD
:1019E0004303001000C0092000C00F4000800140E8
:1019F0000000C0F3400D030018C0072028C00720D6
:101A0000C10A02003C0300103D03001006C007207D
:101A100060C907204846FFF74DFF002003F02DFD69
:101A20006421B0FBF1F640461CF06EFFA3E770B5F1
:101A3000FE4AFF4D0021127895F8F54205EB02139E
:101A400010E003EB410292F82164864208D892F834
:101A50002224824204D905EB4100B0F8D20370BDC4
:101A6000491CC9B28C42ECD8002070BD2DE9F0476A
:101A7000EF4F04003946B7F8E803B1F8E81320F057
:101A8000010040F45055EB4821F007014FF0FF39B9
:101A90004FF480224FF0020641F450515FD0C263F0
:101AA000DFF89483012C24D9032C07D1E34B424661
:101AB000E3A002F00CFE002002F0D7FA40F25640FC
:101AC000054306EB05220321422001F088F9032C8F
:101AD00027D0282002F041FA25F4405506EB0522D4
:101AE0000321422001F07BF9032C24D0052002F0D1
:101AF00034FA4CF6F970054097F8E803032100F03A
:101B00000700284340F49A6506EB0522422001F0C5
:101B100066F978B3032C18D0CB48007802F01DFA90
:101B200025E0C64B42462946C5A002F0D0FD002064
:101B300002F09BFAD0E7C14B42462946C0A002F012
:101B4000C6FD002002F091FAD3E7BC4B424629467D
:101B5000BBA002F0BCFD002002F087FA07E0826320
:101B600006EB01220321422001F039F910B10120D6
:101B7000BDE8F087FFE74846FAE770B5AC4DB449D9
:101B8000B24CB5F8DC0248431EF029FFB14AB24B13
:101B90001EF0A0FD1EF0F6FE00EB4001C9000A2277
:101BA000B1FBF2F2AD492060B1FBF2F1AC4A116039
:101BB00095F8CC326BB14FF47A73584340F24963D5
:101BC000B0FBF3F020604FF47A704143B1FBF3F0C7
:101BD000106095F8D802116848436421B0FBF1F019
:101BE000106095F8DB02216848439E49B1FBF0F094
:101BF0009549097808449C492D30086070BD70B53E
:101C000002469A488A4E03680A20B3FBF0F0324439
:101C1000C1B292F8035400208D4211D892F80844C2
:101C20008C420DD3A5420BD096F8D042084654B151
:101C300092F81C0496F8E92402448A4201D8081A52
:101C400070BD002070BD92F81C14C82901D0084650
:101C500070BD96F8CF120029FAD0C72BF8D803F13F
:101C6000C80070BD724910B5034691F8D622012014
:101C7000022A0FD36D496E4C032A0978214404D1FE
:101C800091F817249A4200D8032091F8121499422F
:101C900000D8022010BD70B5754D00202880754811
:101CA00002F002F974A002F029FA614CE07BFFF720
:101CB00041FC30B104F10F0002F020FA5F2002F085
:101CC00037F96E4829880144042004F034FB5F2072
:101CD00002F02EF9C321D4F8E80202F07FFA2E2098
:101CE00002F026F966A002F009FABDE87040002073
:101CF00002F01EB9F0B5002507462C46064601E065
:101D00006D1CEDB216F8010B0028F9D1384610E031
:101D10008E5C521C90F800C092B2664503D1641CE0
:101D2000E4B2401C01E000243846AC4201D1104628
:101D3000F0BD9A42ECD14FF0FF30F0BD70B50024F9
:101D40004FF480652B4641F2E80221464B4801F0F2
:101D5000F4FB4A494B4AD1F8FC02801805D04A4AA4
:101D6000801806D0494AD04203D1072051F82020DC
:101D70000AB1002070BD401CC0B20A28F6D900206C
:101D800051F82020401CC0B214440728F8D3C86979
:101D9000001BC861294639480AF04AFC40F2024358
:101DA00082220021354801F0C8FB012070BD10B52A
:101DB000374C207848B101F01BF9002805DB354984
:101DC000097829B13449012008700020207010BD25
:101DD0003249F9E72DE9F05F314B044600251878C8
:101DE0003049087030480278DFF8C0B08BF8002026
:101DF000DFF87C802E4EDFF8BCA0A946A8F8005082
:101E00002E2C07D1307840F0200030702A4802781C
:101E10008AF80020194FFEF74DFF22490A78204822
:101E20000078824277D00878401C47E0D7E107204D
:101E300028C0072000C0092084000500C10A020054
:101E40004943333700000000C3EF0720ECE10720CF
:101E5000A0860100FD1873D7D477204100180D8F9C
:101E6000F0E1072040AC2700F4E10720E8E107207B
:101E7000C4E107204B3F000053435F0060CC0720C4
:101E800056544600DFBC9A78A9EC307513CF12CFB8
:101E900006C007207C03001065EF0720D5E107206E
:101EA0003C0300103D0300104403001045030010E4
:101EB00007C0072005C0072004C00720C0B2087073
:101EC000FA490D5CB8F800003D54401C80B2A8F8F7
:101ED000000007F80090284602F0F2F8B8B338780E
:101EE000212805D041280BD00021612814D008E01A
:101EF000307840F002003070781C02F0FFF81DE0EE
:101F000001210022114303D0317841F002013170E8
:101F1000242803D004E028E00122F3E7022C09D0B2
:101F2000307840F002003070E14802F0E7F8022C0F
:101F300004D006E0307840F00400F4E70A2001F015
:101F4000B7FFA8F80090307820F006003070172D09
:101F50000DD1307840F002003070D6A002F0CEF8FB
:101F6000307820F00200307001E0022C02D02E2CDC
:101F700010D01EE0D04800789BF8002059469042CF
:101F800017D00878CD4A0244401C0870107801F040
:101F9000CFFF0EE09AF800205146C94800788242EF
:101FA00007D00878C74A0244401C0870107801F036
:101FB0007FFF1A2D7FF42FAF2E2C03D1307820F025
:101FC00020003070BDE8F09F2DE9F05F4FF416550A
:101FD00000264FF4FA40FEF77DFEBB4908788207E1
:101FE00005D5BDE8F05FB949B9A002F0BFB8DFF888
:101FF000E4828946352188F80000B7A002F09DFAF6
:10200000A0F1310104297CD2322804D0332805D034
:10201000342806D007E04FF4E13504E04FF496256C
:1020200001E04FF4E1253421B9A002F086FA04461C
:102030003138032865D2DFF808B3312C04D0322CB4
:1020400011D0332C49D04FE03321BEA002F075FAF5
:10205000A0F131010229B5D2322800D12E2628461E
:102060000AF078FF40E0C2A002F096F8DFF820A363
:102070009AF8F30238B10CF058FB071E24DD9AF8E9
:10208000F30220B10EE001200CF05DF8F5E72846E0
:102090000CF038F8DBF814105846490302D54FF419
:1020A0008021C161012F04DD43F69821B9A002F01F
:1020B0003EFDBBA0401C02F021F8202001F038FFBB
:1020C000BB4802F069F80FE098F8001089F800109A
:1020D000B849B9A002F0A5FA2BE0022011F0D4F91A
:1020E0002846FEF781FF0226B648007808B1FFF7C0
:1020F0005EFE01201CF008FC4F4699F800004546A2
:1021000000E01AE088F800003046FFF763FE332C49
:1021100002D1002011F0B8F9AB480078FEF737FF84
:10212000287838704FF48020CBF8180064201CF019
:10213000EBFBBDE8F05F01F0A4BF43E770B5944945
:10214000072081F8EA03A1A1A1A002F00FF8202046
:1021500001F0EEFE9B4D0024012001F09DFF00F0F8
:1021600056FF012102F03AF8C82001F07EFFC0B20C
:102170002C7001F0A5FF0028EED0BDE8704001F002
:1021800080BF30B5824D4FF400400021A5F8E40235
:1021900005F5397001236A1892F8A542012C0DD17A
:1021A00092F8B1220488102A03D203FA02F294436F
:1021B00003E0103A03FA02F214430480491CC9B246
:1021C0000C29E8D330BD70B5714C221892F8A532B5
:1021D000012B0BD0022B3DD100218A2092F8B12295
:1021E0000125102A06D29540294306E0B4F8E412EE
:1021F0004420F3E7103A9540A943012B09D0022B64
:102200000CD07649764801F0B1FFBDE8704001F08E
:1022100038BF022202EB012203210FE094F82000D4
:1022200040060ED511F00700EFD0010641EA00414B
:1022300041EA002040F0100204218A2000F0CFFD86
:10224000E3E75C4A4FF0FF3154324FF4037002F081
:1022500005FADAE770BD10F8011B01E05140401C9F
:1022600002782A2A01D0002AF8D10846704702468F
:10227000002059B107E0521C2C2B01D1491EC9B2D4
:10228000401C002903D01378002BF4D100207047A4
:1022900010F8011B41B102E0401C402904D0017834
:1022A0000029F9D1012070479CE0000060C9072097
:1022B00060CC07202B2B2B004403001060CB0720A1
:1022C00004C0072060CA072007C00720EA270200D1
:1022D0000A000000D8E1072053656C656374204252
:1022E00061756420726174650A312E203936303090
:1022F0000A322E203131353230300A332E2033303D
:10230000373230300A342E20343630383030000046
:1023100053656C656374204D6F64656D0A312E20C2
:10232000426C7565746F6F74680A322E2047534D86
:102330002F475052530A332E2047505300000000BD
:1023400000C0092053656C65637420426C75657428
:102350006F6F74680A312E204C61697264203733C4
:102360003053410A322E20524E34363738000000A6
:102370000A506F7765722047534D2F554D545320A7
:102380006D6F64656D2E20576169742E2E2E0000CE
:1023900028C00720504220444F4E450D0000000049
:1023A000204D6F64656D2F456D61696C0000000004
:1023B0001C200200163B010047534D2F475052533B
:1023C0000000000006C00720460300103A2000006D
:1023D0005475726E2073776974636800F229020085
:1023E000352A020000205EE72DE9F84FFD4EDFF8A8
:1023F000F883054631784FF0FF3488F8001000F07C
:10240000E6FEFA48C16941F44011C1610122002190
:10241000462000F016FDC0F30017032202214420DD
:1024200000F00FFD009020F40040022101EB00229B
:102430000321442000F0D3FC002824D0EC484FF4C2
:10244000FA79C0F800901FB106E002680AB903E00B
:10245000E8490A78002AF8D0E5480068002812D038
:1024600005201CF051FAFFF7A2FC4FF0010A86F894
:1024700000A01B2001F01CFD35B1012D59D0022D0B
:102480006DD0032D6ED070E0DB49DC4881F800A0F0
:102490000178DB480170DB4D2978DFF86CB38BF8ED
:1024A0000010DFF84C9340F6B831C9F8001037E05F
:1024B000D3490A78D148007882420CD098F80000BD
:1024C00020F0010030700878401CC0B20870CF497D
:1024D000085C01F0EDFC9BF800005C46297888421E
:1024E00015D086F800A02078401CC0B22070C849E2
:1024F000085C01F0DDFCC748017841B121782A78F9
:10250000914204D100210170062000F031FCD9F87D
:1025100000004C4620B9FEF7CDFB40F6B8302060F5
:10252000B44800780028C3D0B349002001240870C3
:102530001BE00AF07AFB04463F214D46484601F075
:1025400073FD002811DB522001F0B2FC2021284647
:1025500001F06AFD0A21284601F066FD05E00AF057
:10256000FFFB01E00AF0BCFB0446AB49009841EADE
:1025700000220321442000F032FC17B90A201CF08D
:10258000C3F9FFF714FC98F800003070002C09DA4A
:10259000601C0AD014F10C0F04D0A04A2146D220AE
:1025A00002F05CF82046BDE8F88F9C4A4FF0FF31FE
:1025B000921E4FF4FA70F3E72DE9F05F4FF0050B30
:1025C0004FF0640A96A001F099FD00244FF0FF3906
:1025D000DFF85C8201F055FD042C08D095A0801C2A
:1025E00001F08CFD0121601C01F0F8FD14E094A0C5
:1025F00001F084FD98F8E21303290DD1B8F8E40244
:1026000041F6026141EA00220321442000F0E7FB89
:102610008E494FF480308861AFF250218CA001F0D8
:10262000A5FD042C06D208EB040797F8D25207F256
:10263000D22702E098F8F053874F0321284601F093
:10264000CDFD022C03D204F10101284604E006D19D
:102650004FF0000105F5C870FFF72CF803E0032CDC
:1026600015D0042C17D009EB4500C1B20020FFF7AC
:1026700021F9064601F024FD20B3641CE4B25C4558
:10268000A8D300F0A4FDBDE8F05F01F0FABC002182
:1026900040F2F710E0E701212846FFF70BF898F821
:1026A000F01398F8D20209EB410109EB4000C9B2DE
:1026B000C0B2FEF76BFE6948FEF7AAFD002001F0EC
:1026C000D4FCD6E72B2E04D02D2E06D01B2E09D0FD
:1026D00011E055450FD26D1C02E0012D0BD96D1E86
:1026E0003D7008E098F8E203022801D0042802D1E6
:1026F0000020FFF779FE032001F0CEFC91E72DE9E1
:10270000F34F012485B01220CDE900044848062784
:102710000026B0F8C8B206984FF47A7AA04635463B
:10272000B146029628B14D4B4D4A21464D4801F025
:10273000CEFF002007F0C3FD90B13D48B0F8CA02BB
:10274000F0B349490844811E10F8019C0D78C11E60
:102750000E78011F09780091411F10F8068C0F7840
:1027600033494148B1F8CA22104403903F48806879
:1027700000F00F0202EB0900401C00F0FF09B9F164
:102780003B0F26D96D1CA9F13C00EDB200F0FF090A
:102790003B2D1ED93C3D761CF6B2EDB2172E18D952
:1027A000183E08F1010000F0FF08F6B2B8F11C0F66
:1027B0000FD9A8F11C007F1C00F0FF08FFB200E059
:1027C00056E00C2F05D90C3F0098FFB2401CC0B258
:1027D00000900A20B4FBF0F200FB124000280198A0
:1027E00077D079E007C00720D8E1072000C0024079
:1027F0004803001006C007204103001004C0072052
:1028000005C007203C0300103D03001060CA0720EC
:1028100060C907203E03001002008000213C010037
:102820004C4544204272696768746E65737300009A
:1028300028C007202D20436F6C6F7220000000001D
:1028400050574D2065787465726E000000C00920F5
:1028500020696E202500000018C40720C10A02006C
:1028600006000100131B020080DD072000800040ED
:10287000FE4DBBF1000F1ED0ABF1010128784FF4E3
:102880008067B7FBF0F00A26B0FBF6F0401C00EBC7
:102890008000430041F2D202F54800F04EFE287855
:1028A000B7FBF0F0B0FBF6F000EB8001F04800EB76
:1028B00041000A3047E72978EE4A48424942126807
:1028C00001EB810102EB4002114401EB4001D5E72D
:1028D000FFE7404240B2019000FB0AF00FFA80FB94
:1028E000AAF101000FFA80FAE34890F8DB0200EB4E
:1028F0008001BAEB410F03DC4FF47A7AFEF7DAF984
:1029000003984FEA1B2101700398002180F801B061
:102910008170C17000F1040B069868B18BF80080DB
:102920008BF8017000998BF802108BF803608BF81C
:1029300004508BF8059013E0CF48B0F8CA12CC4889
:10294000001D0144062003F0F6FCCB48B0F8CA1283
:10295000C748C01D0144052003F0EDFC8BF805407D
:10296000C648006820B101F0F4F908B101200290D6
:102970000698A8B16420B4FBF0F100FB114010B13F
:10298000059884420CD1062001F086FB06212046E2
:1029900001F024FC0A2001F01FFB01F091FB28B993
:1029A00020460599641C8842FFF4DAAE029800289C
:1029B00005D007B00B20BDE8F04F00F020BE07B0F7
:1029C000BDE8F08F2DE9FC5FFA20019000F010FBCC
:1029D000DFF8A482064698F8F20252282BD001288C
:1029E0002CD04FF496200090002E7DDBA448A54902
:1029F000F4B20078097860400840DFF88CA2A34F59
:102A0000DFF88CB200064FF001094FF000054DD5FC
:102A1000200638783AD4800613D58BF80050012070
:102A20000EF0EAFA9BF8000018B100F0E1FA060097
:102A30000AD4F4B208E04FF4E130D4E74FF4E120D7
:102A4000D1E7C8201BF060FF00980AF083FA48B372
:102A500090484A4680F8009098F8EC1340460229C6
:102A600001D28D490D7039788C4B41F0820139705B
:102A70000621197090F8F2122E2901D188490A70A6
:102A800098F8D70270B18AF800500BE0844920F022
:102A9000820038700D7098F8D71219B1C00701D0B4
:102AA0008AF800908BF800507E48057074490978C8
:102AB00084EA0100734909780840400649D57A48FC
:102AC000007818B398F8CC0600BB784E60061ED488
:102AD00002200BF038FB41F2707175A002F027F86C
:102AE000387840F0420000E0A2E0387098F8D71241
:102AF00009B18AF80050674A82F8009086F8009081
:102B000098F8EC03022820D2634805701DE0307865
:102B1000D8B140F6B83167A002F009F8002804DA0D
:102B200067480188674801F089FE674835704FF4AF
:102B300080218161387820F04200387098F8D712EF
:102B400019B1C00701D08AF800908BF800505548A1
:102B500005704B4800786040C00623D55B49E0060D
:102B600017D54C485A4E032380F8009038784A46CF
:102B700040F0010038703370800604D5087810B931
:102B800054490820087098F8D70238B18AF8002014
:102B900004E0387820F0010038700D708BF8005098
:102BA000404805709BF800005E46DFF8F8B09BF8DF
:102BB000001008430DD098F8EA0338B114201BF038
:102BC000A3FE00F024FA444981F8009035708BF898
:102BD00000503048017831B3057001981BF094FE25
:102BE0003E4801F0CBFA2E48007818B13CA001F025
:102BF00085FA06E03C4801F081FA0021362001F018
:102C000088FC3A4800783A4908703A48056098F8D4
:102C1000D71209B98AF8005098F8EC03022802D2BA
:102C20002B49032008703449387808701448047020
:102C3000BDE8FC9F31484BF203610180FEF766FB63
:102C400012480078800602D501200EF0D5F92C48F4
:102C500050F8C41F41F4906101601B492948C863C2
:102C6000294802210025017045704FE0D4E107207A
:102C700080DD0720CCE1072028C00720C8E107201D
:102C8000D5E10720D6E1072066EF072007C007201F
:102C900006C007206903001009C007200AC00720EA
:102CA0008B03001065EF072008C00720F8E107201C
:102CB00030300D00434152524945520D0000000092
:102CC000C4E1072060CC072000C009208403001065
:102CD000FBE107208A030010E0E10720680D0200F5
:102CE00050494E203D200000D21102003C0300104C
:102CF0003D03001064030010D8E107200CC007203A
:102D000000C00F4000001034A0E1072085701E486D
:102D100003222B4600681D4944692120A047072053
:102D200000F06DFC1A481B494FF4006200780968F6
:102D3000404201EB40011848491C00F01BFB164CB7
:102D40001648B4F8CA22B4F8C81204F2C22400F03B
:102D500011FB62882188124800F00CFB4FF0804084
:102D6000456003210170AA21017255210172FEE71D
:102D700000F01F02012191404009800000F1E02095
:102D8000C0F80011704700008C030010A0E107207C
:102D9000D4E10720CCE1072028C0072080DD0720F0
:102DA00060D9072070B5F748F74C016A21F001019E
:102DB0000162206881680020884706462068016912
:102DC0000220884740EA06052068A021826A022086
:102DD0009047EE4A2843202182F8001470BD2DE967
:102DE000F0410E46EA49E84D40080A602968002390
:102DF00032464C69E649A047E64FB86806EBC60183
:102E000001EB061100EBC10402E0B868A04204D84F
:102E10002868C06A8047C007F7D12868C06A804721
:102E2000C00707D12868406A8047B04202D101201C
:102E3000BDE8F08128680121826A042090470020C3
:102E4000F6E72DE9F84F14460022DFF8449300928C
:102E50004FF0FF3889F80010102C02D94046BDE829
:102E6000F88FC94E4FEA500A012330681A46C84904
:102E700045695046A847C74FBD68C83507E0B868E0
:102E8000A84204D93068C06A8047C0071ED13068A4
:102E9000C06A8047C007F2D10098002833DB306851
:102EA000002322468569BA495046A847B86804EB12
:102EB000C40101EB041100EBC1050AE0B868A842A7
:102EC00007D93068C06A8047C00702D0CDF80080BB
:102ED00019E03068C06A8047C007EFD10098002829
:102EE00011DB3068406A8047A0420CD16846032C51
:102EF00007D84946641EE4B203D30A5D00F8012BEB
:102F0000F8E70098ABE730680121826A0420904717
:102F1000A4E770B5A04801252905816332201BF084
:102F2000F3FC9E4A03214220FFF759FFAE1E002802
:102F300059D09A4A0321121D4220FFF750FF914CAD
:102F400006220321206A40F0020020624420FFF79D
:102F500046FFF0B194F8E213022901D0042905D10B
:102F6000B4F8E40240F40040A4F8E402B4F8E40247
:102F7000022101EB002203214420FFF730FF20B1A2
:102F8000206A40F00400206203E094F8E203022883
:102F900029D24FF6037202214620FFF720FF10B31B
:102FA000206A012240F0080020625C215820FFF7CF
:102FB00048FF002817DB206A40F02000206294F8C8
:102FC000E30398B1764A03218A20FFF708FF60B136
:102FD00041F2130204218A20FFF701FF206A40F02A
:102FE0004000206202E0304670BD3546284670BD84
:102FF00010B5012200214620FFF723FF002805DA43
:1030000040F2092000F0FBFA4FF0FF3010BD10B580
:10301000FFF7EEFF0721814308D05A4890F8DA0203
:10302000401C884202D3491EC8B210BD002010BD0A
:1030300070B5544D102495F82000400708D5B5F818
:10304000E402022101EB002203214420FFF7C7FE26
:1030500095F8E203032803D14F494FF48030C8614B
:1030600095F82000400603D409E0641EE4B206D3BC
:10307000102204218A20FFF7B2FE0028F5D049482B
:10308000C16921F44011C16170BD2DE9F05F464B6B
:103090003C4E4FF000091B78B6F8E42203EB4303E3
:1030A0004D4610244946B34606EBC30A4FF0010CC7
:1030B0000BEB010696F8A532FBB10AEB410797F836
:1030C0007184804511D8012B02D0022B07D00CE06F
:1030D00096F8B1820CFA08F848EA020205E096F880
:1030E000B1820CFA08F848EA050597F8727487422D
:1030F0000FD8012B02D0022B06D00AE096F8B1328D
:103100000CFA03F39A4304E096F8B1320CFA03F395
:103110009D43491CC9B20C29CAD39BF820005E46C6
:10312000400718D522EA1247022000EB07220321AC
:103130004420FFF754FEB6F8E412B9420BD096F8DB
:10314000E203032805D1380703D013494FF4803038
:1031500088614FF0010996F82000400634D56807D1
:103160002BD0280640EA054040EA052040F0100533
:103170002A4604218A20FFF732FEB8B124B34FF06B
:10318000010921E028C007208C0300100AE000E0BC
:10319000A0E107200080004000C0092002000100DB
:1031A0001620600000C00240D7E10720641EE4B290
:1031B000DED3E3E7641EE4B206D2102204218A20A3
:1031C000FFF70DFE0028F5D04846BDE8F09F10B58A
:1031D000FEF79CF8BDE810402AE7000010B5052472
:1031E00009E057481AF0EEFB40B155481AF0F8FCD8
:1031F0000A201BF089FB641EF3D200E054B151A0F9
:103200001AF008FC4FF480630022181A8A4101DA90
:10321000012010BD002010BD70B54B4C4B482168FB
:1032200013F071FB0546206812F0EFFB284670BDD5
:1032300010B547A147A012F077FC4349086028B1B8
:10324000FFF7EAFF002801DB012010BD002010BDC0
:1032500070B504463C4DC00703D0286808B103F0A0
:1032600085FEA00703D5686808B103F07FFE6007FC
:1032700006D5A868002803D0BDE8704003F076BEEC
:1032800070BD10B5FFF7C8FF35A1304812F04CFCF7
:103290002D490028486000D0012010BD2A4810B5F3
:1032A000012243689102294813F0E1FB012801D073
:1032B0006FF00A0010BD2B4991F82820027091F898
:1032C0002420427011F8202F82700A7BC2700A7E7F
:1032D0000271898BC1800020704710B522A11B4864
:1032E00012F022FC18490028886000D0012010BD8F
:1032F0002DE9F05FDFF854A0DFF84CB01B4E884694
:10330000814600244FF48067C6F800A050463A4634
:103310000121DBF8083013F011FB05000DD0144932
:103320003B4682220978306804FB018100F005F9F0
:10333000641CBD4201D14C45E6D32046BDE8F09F58
:10334000C20A020055303A009003001060CC0720FA
:1033500061000000555342494E464F2E54585400C8
:10336000770000000040024072000000DCE107200E
:10337000D4E107202DE9F0410E46FA4914460968C8
:1033800021B3F949F94F884608601DE03D68AC4219
:1033900000D8254600210846FCF7BCFF2A46042138
:1033A0008420FCF7BCFF3146761C0020FCF7B2FFFE
:1033B000002204218820FCF7B2FF3868D8F80020EA
:1033C000241A0244C8F80020002CDFDC3046BDE897
:1033D000F081E748016921F480610161E54850F816
:1033E000C41F41F490610160E449E348C863FDF7FC
:1033F00061FCE348022103220170002141708170C9
:10340000E0480B46DE49006844692120A047DE48B9
:10341000DE494FF4006200780968404201EB400148
:10342000DB48491CFFF7A6FFD94CDA48B4F8CA229A
:10343000B4F8C81204F2C224FFF79CFF6288218806
:10344000D548FFF797FFFEE72DE9F05FC54D002453
:1034500008272C60FCF754FFC349C948CB4E0860CD
:103460000470C24C40F6FF7A4FF4047B80464FF460
:1034700084790222012141F29F00FCF750FF98F865
:1034800000101F2908D001201BF03EFA28687F1E7B
:103490003FD00028EDD03DE098F801002438052801
:1034A000F4D2DFE800F0030910151D004FF400709E
:1034B000286040F2FF702AE001202860C6F800A0D2
:1034C000C4F80090E2E702202860C6F800A004E0FB
:1034D0000420286041F6FF703060C4F800B0D5E7E2
:1034E000082028600222012141F2D700FCF717FFD3
:1034F00098F8001098F80100814206D141F6FF705B
:1035000030604FF484602060C0E747F6FF703060A1
:10351000D6E748B121684FF48460B0FBF1F09A49D6
:1035200008700020BDE8F09F974901200870002036
:10353000306020604FF4FF70F4E72DE9F0470D464E
:10354000A2F580511E4617464FF00409D23903D028
:10355000A7F58051E83901D14FF00809DFF80CA236
:10356000DAF80040A4B3822F01D1A64200D81C464D
:10357000DFF8F48129466D1CC8F800000020FCF734
:10358000C9FE224649463846FCF7C9FE822F1FD1A4
:10359000DAF800105046C246741A804616E0DAF88F
:1035A0000020D8F800609119CAF80010B44200D881
:1035B000264629466D1C0020FCF7ACFE32464946E3
:1035C0003846FCF7ACFED8F80000241A002CE6DCE4
:1035D0002846BDE8F08770B50D4663490446684843
:1035E000086009E02146641C0020FCF793FE0022DD
:1035F00004218120FCF793FE6D1EF3D270BD70B5DF
:10360000634D0446010AB5F8C402634A1154511CC3
:103610004454491C0144062002F08DFE5E48B5F872
:10362000C412401D0144052002F085FEB5F8C40215
:10363000554E083080B2A5F8C40231784FF480624C
:10364000B2FBF1F1814233D80020A5F8C40245480D
:10365000006830B14548B5F8C21202684E48FFF71D
:1036600089FE3078494942424042096800EB8000B7
:1036700001EB42010844B5F8C212884201D800EBC0
:103680004201491CA5F8C2128BB2B5F8C0128B4298
:103690000AD1884205D800EB4200401CA5F8C002C0
:1036A00002E0491CA5F8C01201211846FFF793FF5C
:1036B0003A4BB3F90000844230D0A4F1DC00384921
:1036C000384AB0F5A07F09D91F2C07D010784607DB
:1036D00023D40C2C0DD0802C15D01EE0107840F097
:1036E0001400107095F8C706B8B1087840F01000C3
:1036F00012E040F02400107095F8C70668B1087811
:1037000040F0200008E040F08400107095F8C706F3
:1037100018B1087840F0800008701C8022480078BA
:10372000800609D521480178062905D1802C03D0CF
:103730001F490C800721017070BD2DE9F04104463E
:103740000020FCF7F1FD0D4F4FF08056C7F89C604C
:10375000184AD06884209060044800218C4605688F
:10376000ED1C35E0C8E10720DCE10720D0E10720AF
:1037700000C0024000C00F400000103400C009200B
:10378000A0E107208C030010D4E10720CCE1072042
:1037900028C0072080DD072060D9072062EF0720BE
:1037A000FAE10720F9E1072007C007208A0300108B
:1037B0008803001000000340D068032902D2C2F839
:1037C00008C000E09460D368D806FCD4491C89B2D4
:1037D000A942F1D3C7F89860BDE8F041FCF795BD68
:1037E0002DE9F047FB4DA5200026287095F8000430
:1037F000DD2801D0C5F8F463DD2085F80004082237
:10380000691CF548FDF7CAFEF24906220931F34862
:10381000FDF7C4FE2E62052285F8D162002085F8EE
:10382000DA2264212B18401CC0B283F8D21204287B
:10383000F8D385F8F013012785F8CA764FF002080F
:1038400085F8D68285F8CC6285F8CD6285F8CE728F
:1038500085F8026485F8D96245F66560A5F8DC0252
:1038600085F8D76285F8D06285F8E96485F8E27357
:1038700085F8DB22082085F8F50285F898624FF07C
:10388000030985F8F6920003A5F8E402A5F8E662BC
:1038900000202918401CC0B281F8BD620328F8D36B
:1038A000CC48283000F51C7100F8016B8842FBD32E
:1038B00000202918401CC0B281F8A5620C28F8D35A
:1038C000C74800F1D80100F8016B8842FBD3DFF84C
:1038D00014A3002404EB840005EBC0010AEBC00034
:1038E00001F2FA21FDF750FE641CE4B2032CF1D37F
:1038F00085F8F79285F8F89285F8F9820024DFF8C8
:10390000E892DFF8E8A211E004EB440005EB800147
:1039100009EB840001F27231FDF736FE3AF814002B
:1039200005EB4401641CA1F8D203E4B295F8F5025A
:10393000A042E9D8C5F8E86285F8F26285F8F3623A
:1039400085F8EC6385F8F46285F8E363042085F874
:10395000E7034FF44050A5F8E80385F8EA63182020
:1039600085F8ED0385F8EE6385F8EF6385F8CB867F
:1039700085F8F16385F8CD7685F8F963012028E6AE
:10398000F0B5944D002640F2DC5085F8CF6285F802
:103990000164A5F8DE024000A5F8E0028010A5F859
:1039A000E202642085F8D8029148924A0127017802
:1039B00012884842494202EB400201EB8101114466
:1039C00001EB4000401CA5F8C002A5F8C202A5F812
:1039D000C462A5F8C662A5F8C862A5F8CA6200204C
:1039E00085F808654FF0C70CC822291805EB40037D
:1039F00081F8EA7481F8EF64A3F8F464A3F8FE6434
:103A000095F8DB3281F8033481F808C481F80D247D
:103A100081F8122481F8172481F81C24002105EB79
:103A200000135C18491CC9B284F821241029F8D36A
:103A300000EB4003002105EBC3035C18491CC9B22D
:103A400084F871241829F8D3401CC0B20528CCD3BF
:103A50007F2085F8EF04B5F8C80267490004C86400
:103A60000E654865F0BD2DE9FC4764A00024D0E94F
:103A70000010CDE90010FDF71DF9624E72B6E9465F
:103A8000614D4FF0070845F6C05719F80400641C53
:103A9000E4B22860052C0AD2C5F804805A49C5E969
:103AA00002870846B04728680028EED00DE0052CB4
:103AB0000BD14FF4E04068604648A8604FF4805056
:103AC000C5E9030750490846B04762B6286810B1F7
:103AD0000020BDE8FC870120FBE72DE9F05FDFF85F
:103AE0002CB13C4F05004FF000084FF0040441F2A8
:103AF000E80A38D1DBF80000610280B389463C480F
:103B00004E464B460078524641423A48006800EB28
:103B100041013048491CFFF710FDB146364E0FE019
:103B2000012CECD84A463A492A4812F0A1F8706DA7
:103B3000000CA7F8C802716DA7F8CA12A7F8C60250
:103B40003878A52803D197F80004DD2808D0642030
:103B50001AF0DAFE641E14F0FF04E1D105E00EE075
:103B60001CB165B10CB1012D02D1FFF739FE8046C1
:103B7000FFF706FF022D02D12120FFF740FDFFF7DE
:103B800072FF4FF0FF3630B94EF6194231464FF40E
:103B90007A7000F063FDDBF800005C46C8B1B8F154
:103BA000000F03D01E20FFF72AFD3FE0B5BB4FF406
:103BB0008466B7F8C2123346554652461548FFF799
:103BC000BCFCB7F8C81233462A461348FFF7B5FCC9
:103BD0002CE024E028C00720C90A0200CA0B02001A
:103BE00022C30720D10A0200490B0200AC0A0200DE
:103BF000D4E10720CCE107200040024032343532C6
:103C000033000000F11FFF1FB0E10720C8E10720CB
:103C10000070000060D9072080DD072006E04EF626
:103C2000254231464FF4FF7000F018FD206878629D
:103C3000404677E48C490022B1F8C802A1F8C602D8
:103C4000A1F8CA2289490004C864486588480178F7
:103C500021F0C00101708748017821F0C001017096
:103C600070478148B0F8C212A0F8C0120021A0F835
:103C7000C41270472DE9F0417F4E8048356800F04E
:103C800013F9DFF8FC8100217EA0D8F80020921DF6
:103C900000F0EDFB040038D4D8F80000C11C8C42C1
:103CA00001D34FF400757A4A784984420F46116077
:103CB00008D821460020FCF72DFB082141F2D20054
:103CC000326814E000210846FCF724FBD8F8000015
:103CD000411C8C4204D1042141F2D100326806E03B
:103CE000811C8C4206D1042141F2D3003268FCF7DA
:103CF00016FB05E06749201A01EB4027A7F5C067CE
:103D0000A9B2384600F09AFDBDE7BDE8F08130B5B4
:103D1000554CB4F8C202B4F8C012401A5E49097892
:103D20000CD5574B4A421B6803EB42054B4203EB51
:103D300083032B4403EB42029A1A10444FF480622F
:103D4000B2FBF1F1C9084143B4F8C40201EBD00061
:103D500030BD70B5444C0025B4F8C802B4F8C612A2
:103D6000884205D1B4F8CA0210B90320FFF747FC16
:103D7000B4F8CA02484E0A3080B2A4F8CA023178B8
:103D80004FF48062B2FBF1F1814233D83A48B4F883
:103D9000C81202684148FFF7EDFA3178384A4842C4
:103DA0004942126801EB810102EB4002114401EB30
:103DB0004000B4F8C8120023401C491C884202D8B5
:103DC000A4F8C83201E0A4F8C812B4F8C822B4F8C4
:103DD000C6128A4208D10125491C884202D8A4F89B
:103DE000C63201E0A4F8C612A4F8CA320121104676
:103DF000FFF7F1FBB4F8CA02B4F8C81200EB0140B7
:103E00001A494865284670BD70B5174C234D030A02
:103E1000B4F8CA22AB546B1CD054A81C0B0A135420
:103E2000401C1154401C1118062002F084FAB4F80A
:103E3000CA12E81D0144052002F07DFA1848006806
:103E4000002810D0FFF785FF00280CD01548007817
:103E5000400603D594F8CC06012804D0BDE8704094
:103E60000B20FFF7CCBB70BD28C0072000400240EC
:103E7000F9E10720FAE10720D0E10720B13E000078
:103E8000CCE107200A5061676500000060CC072084
:103E9000DCE1072000700000D4E1072080DD07206E
:103EA000C8E10720D6E10720FA49086000207047E2
:103EB0002DE9F0410446F8484FF0FF350278E0B2B2
:103EC000D10704D0F5490B7D9B06FCD508709107FE
:103ED00018D5F3494FF080434FF47A774E6D76074B
:103EE0000BD5DE68BE42F9D202E0DE68BE4205D2E2
:103EF000FCF7E0FE2846BDE8F081EA490E7DB606F3
:103F0000F3D50870510709D5E749D1F8C410C901A4
:103F100004D5E6490B7D9B06FCD50870100705D536
:103F20002146002013F055F8A042F9D10120E2E724
:103F300070B5D84D04460A2802D129680D2088475B
:103F400020462968BDE870400847DA4AD84B1188F6
:103F50005854491C1180012070472DE9F047D64D77
:103F600004462860D54ECC4FDFF85483DFF85493D5
:103F7000DFF854A314E04CB1286820B1307828B1A0
:103F80000020BDE8F0874FF0FF30FAE73878800670
:103F900003D598F80000012808D801201AF0B4FCD5
:103FA00099F800109AF800008142E4D00120E8E777
:103FB000C5480078C3490978884201D1002070477C
:103FC00001207047C1480078C1490978884201D171
:103FD00000207047012070472DE9F047B64C054698
:103FE00020604FF0FF3AB74EB44F40F6B839DFF8D3
:103FF000D8820DE0206825B108B1387830B150463C
:10400000BFE718B9FCF756FEC4F800901AF0BAFDE5
:10401000317898F800008142ECD03078401CC0B272
:104020003070AC49085CACE7F0B5A34E30604FF09F
:10403000FF30A44CA44DA74FDFF880C211E02278D6
:104040002B789A4209D02278521C227019B12A7812
:10405000BA5C8A4201D10120F0BD9CF80020002A00
:10406000FAD13268002AEAD1F0BD10B50446FCF757
:1040700021FE95490978934A11702046BDE8104009
:10408000AAE70A2054E710B5044602E02020FFF713
:104090004FFF641EFAD210BD10B5044602E008209E
:1040A000FFF746FF641EE4B2F9D210BD10B5FFF76A
:1040B0003FFF2E20FFF73CFFBDE81040202037E7F0
:1040C0000D2803D00A2801D0002070470120704736
:1040D000814991F8D112022900D900210278002AE1
:1040E00001D00C2A06D0704710F8012F0C2AFBD102
:1040F000491EC9B20029F7D1401C704710B5FFF71F
:10410000E7FF044604E00C2805D0641CFFF710FF0D
:1041100020780028F7D110BD10B5044605E0641CD6
:10412000FFF706FF20780D2802D020780028F6D16E
:1041300010BD70B50E460024FFF7CAFF054611E01A
:1041400028780C2802D0002128B100E001210022AB
:10415000114309D101E00122FAE76D1CFFF7E8FEE7
:10416000641CE4B2B442EBD3204670BD10B50C46DB
:10417000FFF7C4FF2046BDE81040BFE770B5054615
:10418000002455F82400641CE4B20178002902D010
:10419000FFF7B4FFF5E770BD10B5002805D0FFF7B5
:1041A000ADFFBDE810400A20C2E610BD10B50446C0
:1041B0000078FDF7BFF908B1204600E04748BDE8A8
:1041C0001040E9E710B504462220FFF7B1FE204673
:1041D000FFF794FFBDE810402220A9E6F0B501F0FA
:1041E0003F0230230A2589B011F0C00104D04029D4
:1041F00006D0802905D101E0202302E0102500E04F
:10420000022512B1511EC9B200E0212100268DF80D
:104210002060B0FBF5F605FB160606F00F07B0FBB5
:10422000F5F02F4E0DF11F04F75D8DF81F700FE0B4
:1042300058B1B0FBF5F705FB1707B0FBF5F007F039
:104240000F07F75D04F8017D02E042B104F8013D7B
:10425000491EC9B2ECD202E0641CFFF769FE207867
:104260000028F9D1022D06D0102D02D16820FFF7C9
:104270005FFE09B0F0BD6220F9E731B504240DF10D
:10428000030503E015F80109FFF712FE641EE4B20E
:10429000F8D238BD00C0072007C0072000C000408A
:1042A00000C009200000014000C00F40008009400C
:1042B00060CC0720C4E107204803001006C0072097
:1042C000760300103D0300103C030010440300106F
:1042D0004503001060C9072028C00720F22902000A
:1042E0006C1002002DE9F047002617468846054667
:1042F00047F2305AB1465046FFF7B7FE041E04DCC1
:104300000EB185F8009000203BE60D2C04D0082C5F
:104310000CD07F2C0AD000E00A24612F14D0642F27
:10432000E0B226D0FDF70EF930BB2BE006B3761EC7
:10433000F6B208206D1EFFF7FBFD2020FFF7F8FD09
:104340000820FFF7F5FD1FE0E0B2FDF7F3F878B1C4
:104350003F2C1BD03A2C19D0E0B205F8010BFFF727
:10436000E7FD5C2C02D10C2005F8010C761CF6B29E
:104370000AE0FDF7E7F838B1E0B205F8010BFFF706
:10438000D7FDF3E7BC42F7D00A2C01D04645B2D3A3
:10439000304649460246401C05F8011BC0B2424562
:1043A000F8D33046EDE510B5FFF79CFF04460A2030
:1043B000FFF7BEFD204610BD70B500240D46064631
:1043C0002A2A01D101246122681EC1B2F848FFF7F0
:1043D00089FF60B1012811D0002804DD2A46F44984
:1043E000304611F045FCBDE870400A20A0E51CB144
:1043F000F0A0FFF783FEF6E73046FAE7EC480078D6
:104400002028EBD100203070EDE72DE9F0410F4678
:10441000804600241D46164610460A2102E0B0FBE5
:10442000F1F0641C0028FAD14046FFF767FE98F8C7
:1044300000003F2802D03D20FFF77AFDE1B2642260
:10444000DB48FFF7B0FF78B1D948FDF78AF8B842EA
:10445000EAD3B042E8D8002D05D0B0FBF5F105FB5A
:1044600011010029E0D146E54FF0FF3043E500237C
:10447000CBE710B51C46FFF7FAFF002802DA4FF031
:10448000FF3010BD2070012010BD2DE9F0471E4601
:10449000DDF8208017468946824600250A20FFF76E
:1044A00047FD49465046FFF761FEC4A0FFF726FED0
:1044B0002D220321BE48FFF715FF040015D0BC488C
:1044C00001782D2901D10125401CFDF74AF8C0B221
:1044D00065B1012CE1D90028DFD08028DDD8404229
:1044E00006E0B042D9DC88F800004AE57F28D4D83D
:1044F00040B2B842D1DBF4E770B504460D460A205D
:10450000FFF716FD2846FFF7D1FD2046BDE87040B5
:10451000F4E510B5044619B10146A948FFF7ECFFD0
:104520000A20FFF705FDA748FFF7E8FD2046FFF743
:10453000FFFCBDE810403F20FAE410B50C46FFF741
:10454000DDFD01212046FFF7E4FF47F23050FFF781
:104550008CFD0446C0B2FCF7F5FF18B12046FFF70A
:10456000E7FC07E04FF0FF32522C02D0482C09D074
:1045700000E014460A20FFF7DBFC0A20FFF7D8FC16
:10458000204610BD904900200860F2E710B50446AF
:104590000A20FFF7CDFC8D492046FFF7E7FD47F2E3
:1045A0003050FFF762FDC0B2432820D0884940F068
:1045B000200091F8D1228749895C814201D10121F3
:1045C00000E00021792804D00023194303D00124FE
:1045D00007E00123F9E78049895C814208D14FF067
:1045E000FF34FFF7A5FC0A20FFF7A2FC204610BD10
:1045F0000024F8E770B504460D462020FFF798FC2C
:104600007648FFF77BFD76A0FFF778FD002128466E
:10461000FFF7E4FD002C03D0BDE870400A2087E4DA
:1046200070BD70B505460C466C48FFF767FD6CA081
:10463000FFF764FD00212046FFF7D0FD2020FFF7A3
:1046400077FC2846FFF75AFD664A1268002A04D014
:1046500020B2BDE87040FEF7D2BF70BD70B51646FF
:104660000D00044631D00A20FFF762FC5B48FFF7DB
:1046700045FD5BA0FFF742FD00213046FFF7AEFD90
:10468000002C01DAC4F1C8041C2257492046FDF76A
:1046900000F8040007D42020FFF74AFC534850F8E4
:1046A0002400FFF72BFD681C06D02020FFF740FCFC
:1046B00005212846FFF792FD0A20FFF739FC4948FB
:1046C000006810B130B2FEF79AFF284670BD70B591
:1046D0000E461D461446C2F3072111B1FFF70CFF29
:1046E00001E0FFF70BFD200CC00702D040A0FFF750
:1046F00005FD600CC00703D1E1B23046FFF76EFD47
:104700003C48854205D02020FFF712FC2846FFF7E1
:10471000F5FCA00C03D0BDE870400A2008E470BD91
:104720002DE9FF5F8946002747F2305B4FF0FF38E5
:1047300003F0C00603F00F05DDF838A0FFF7DEFC3C
:1047400000240BE0641CE0B240F0300109EB0700EC
:10475000FFF7D2FE07EB0A00C7B2E4B2AC42F1D3D6
:10476000C02E1FD0802E47D00A20FFF7E1FB3F204C
:10477000FFF7DEFB5846FFF778FC041E47DDE0B28A
:10478000FCF7E0FE98B12046FFF7D2FB04F00F04DF
:10479000012C37DBAC4235DC0298641E4FF0010877
:1047A000047041E0681C40F03000012127E02EE059
:1047B00060CC07202A2A2A2A00000000203D200081
:1047C000651302007D1302006403001056110200FD
:1047D00028C007203211020035110200352A0200DC
:1047E00044544300C8E10720C00C0200F80C02004A
:1047F0003A200000C10A020045F030000021FFF716
:1048000088FEB7E7C02E02D1681C84420CD0482C29
:1048100004D02046FFF754FC30B903E0FE490020E5
:10482000086001E0002C9BDA0A20FFF781FB0A20D8
:10483000FFF77EFB04B04046BDE8F09F2DE9F04154
:104840000E46054600244FF4A07747F230581EE08C
:10485000B4FBF7F007FB104018B914B14046FFF75E
:1048600004FC200709D10A20FFF762FB85212046BE
:10487000FFF7B4FC3A20FFF75BFB15F8010B822130
:10488000FFF7ACFC2020FFF753FB641CA4B2B4423A
:10489000DED3E8E52DE9F0411D4617460C4606003B
:1048A00003D546422D20FFF743FB96FBF4F096FB21
:1048B000F4F104FB11663946FFF790FC4DB13C2C36
:1048C00003D02C20FFF734FB13E03A20FFF730FB36
:1048D00001E03C2C0DD164240BE006EB8600470080
:1048E000B7FBF4F0C6B246F03000FFF721FB06FB41
:1048F00014766D1EEDB2F0D2B5E510B50446AFF2F8
:104900001011C648FFF732FC02231A4664212046E4
:10491000FFF7C0FFBDE81040C1A03DE42DE9F04124
:10492000C048FFF739FCC04CC04DC14FC14E40F6E6
:10493000B83820782978884208D02078401C207028
:104940002878385CFFF7BCFB002809D1306818B91B
:10495000FCF7B0F9C6F80080052019F0D5FFE8E7AC
:1049600081E52DE9F05FB44FDFF8D082DFF8D09217
:104970001E4615468A468346002404EB4600401C2A
:10498000C0B240F030015846FFF7B6FD2020FFF7D7
:10499000CFFA5046FFF7B2FB2020FFF7C9FAC4F167
:1049A0000100C0EBC00007EB8000FFF7A7FBAFF2F0
:1049B000C010FFF7A3FB28780021FFF70FFC202091
:1049C0006D1CFFF7B5FA98F8CC0200EB800101EB03
:1049D0000900FFF793FB641CE4B2012CCDD92BE74F
:1049E0002DE9F0412E26002405460327B4FBF7F0FD
:1049F00007FB104078B13046FFF79AFA15F8010B23
:104A0000C221FFF7EBFB022C00D93A26641CE4B26A
:104A1000062CEBD327E53B20EEE72DE9F05F894B31
:104A20001C680625B1FBF5F6874F0C44DFF8F8A1AA
:104A30003A80DFF818829946DFF8F4B185181DE056
:104A4000D9F800104B468C4202D14FF0FF30F3E60C
:104A50009AF800C05246754909788C450CD01178F7
:104A6000491CC9B211701BF8012008F80020401C35
:104A700038801868841901E01AF084F83888854273
:104A8000DED883B2002208F80320D5E62DE9F047EE
:104A9000002780463D464FF0010909FA05F010EA6B
:104AA000080F24D017B12C20FFF742FA05EB450080
:104AB0006749C0EB4510441820780C280CD15F489A
:104AC00090F8D10205E014F8011F0C29FBD1401E1B
:104AD000C0B20028F7D1641C002614F8010BFFF7C0
:104AE00027FA761CF6B2022EF7D37F1CFFB26D1C9C
:104AF000EDB2062DD1D907E41CB504461D20009067
:104B0000872301AA52495348FFF70AFE00280DDD0A
:104B10009DF8041001208840C1B28DF8041022785D
:104B20000A4201D08A4300E00A4322701CBD2DE9ED
:104B3000F05F0F46434983460024086826460A680A
:104B4000C5192046954201D208603D46DFF8F8902D
:104B50008246A9F8000001E0641CA4B21BF804001E
:104B60000028F9D1884630490A78304800788242D6
:104B700024D0D8F8000000EB57050878401CC0B2DC
:104B800008702B49314A0B5CB9F8000031191354F5
:104B9000401C80B2A9F80000814213D802F800A09E
:104BA0008BB2324629495846FDF7A4F8002802DDA9
:104BB000B9F8000040E6761CB6B203E0FCF77AF8DC
:104BC00019F0E0FFD8F800008542CCD84FF0FF3054
:104BD00032E62DE9F74F002491468A462546AFF686
:104BE0002F47042A01D1AFF62347174E002030800B
:104BF00001E0641CA4B20098005D0028F9D10D48C2
:104C00000160DFF848808346B84720B14FEA5A0177
:104C1000CBF8001020E04AE064030010D81A02002C
:104C200020560000A41802003D0300103C030010B1
:104C300060C90720480300100020020028C0072098
:104C4000690B02004C030010C4E1072060CC072070
:104C5000351F0200031F0200B9F1040F1DD03849AF
:104C60000878401CC0B2087036490A5C308808F8E1
:104C70000020401C308031882819884219D8002231
:104C800008F8012083B22A462F490098FDF732F830
:104C9000002809DD3088BDE8FE8F2C490878401CCB
:104CA000C0B208702A49E0E76D1CADB201E0FCF724
:104CB00001F8DBF800000028A6D1401EEBE72DE943
:104CC000F05F244901250A680B68141800229C42F1
:104CD00001D20A600446204EDFF880B0DFF8609011
:104CE000194F92463280884699F8002049469BF831
:104CF0000000824219D00878401CC0B208701149E7
:104D0000085C0A2807D00D2805D031887854491C42
:104D1000318000250DE065B90A280AD1308807F8EE
:104D200000A0401C80B2308086E5FBF7C3FF19F07D
:104D300029FFD8F800008442D6D84FF0FF307BE539
:104D40003D03001060C9072060CC07204503001018
:104D500060CB07204C030010C4E107203C03001087
:104D600070B50146FE48012400EB041212788A4215
:104D700011D100EB0415681DFFF7C0F9687830B158
:104D8000F8A0FFF7BBF968780021FFF727FAFFF7D3
:104D900078F9204670BD641CE4B2072CE4D302D13C
:104DA000401DFFF7F9F9002070BD70B500242546BD
:104DB000EEA0FFF7A3F9002201212046FEF70FF82D
:104DC00078B182212046FFF709FA04212046FFF737
:104DD00005FAEDA0FFF792F92046FFF7C1FF6D1C21
:104DE000EDB2A41C14F0FF04E5D102212846FFF720
:104DF000F5F9BDE87040E5A0FFF7CEB92DE9F34F16
:104E0000002687B089463746E448FFF7B7F9B9F17D
:104E1000580F09D0FFF735F94FF0000A0DF11008CF
:104E2000FBF748FF002405E0DDA0FFF7B5F9F3E745
:104E3000022C01D2250101E025014035E8B240F005
:104E40000C0102220798FDF7FCFF28F814003046F9
:104E5000FFF736F980B138F814002035000A00D089
:104E60006D1C0A2019F050FD38F81400022145EAA3
:104E700000220798FDF7B3FF641CE4B2042CD7D3DB
:104E80003046FFF71DF9002878D1B9F1580F24D02A
:104E90001020FFF701F900244546042135F81400DD
:104EA000FFF79CF9641CE4B2042CF6D3B9F1580F57
:104EB00050D047F23050FFF7D8F80646482E6CD055
:104EC000A6F1310003285AD806F00700401EC7B2E9
:104ED000012FA5D93F1DFFB2A2E7B94C4FF080705A
:104EE000A0634610E663B749B74DDFF8E0B2C1F8FA
:104EF00000A0B748C5F800A0CBF800A00168026880
:104F000011430160B3490A680B681A430A60826A58
:104F100042F006028262886A40F0360088627D2094
:104F200019F0F2FC2868C0000190A6637000E063ED
:104F30007D20C5F800A019F0E7FCA24800688000B9
:104F40000290DBF80000800000902868C000039009
:104F50002C209EE700246D46072155F82400FFF71A
:104F60003DF9641CE4B2042CF6D36420FFF734F856
:104F7000064699480078994908709FE70DE02D2E64
:104F800009D02B2EA8D1042040EA0712012107984E
:104F9000FDF725FF44E70820F6E789494FF40000B4
:104FA000C8638B49C1F828A0C1F828A0FFF769F8A9
:104FB000FFF767F809B0BDE8F08F2DE9F041FF2257
:104FC000012187A0FFF753FA0646FFF75AF8002E93
:104FD0007CDDF0B200220121FDF701FF002864D042
:104FE00083A0FFF78BF8F0B2FFF7BAFE5C4901EB44
:104FF000001898F80250022D02D10120FCF736FD6E
:105000007EA180A0FFF7B2F8FFF73BF800241BE079
:10501000022D39D0F0B201222146FDF712FF070020
:10502000EED400212046FFF7D9F80920FEF780FFD3
:105030000920FEF77DFF98F804103846FFF7CEF8F8
:10504000FFF71FF8641CE4B298F80300A042DFD811
:10505000002FD5DB012D01D0022D37D16C48FFF791
:1050600095FA002832DD67A0FF220021401CFFF7DF
:10507000FEF9C4B24FF48072002166A0FFF7F7F981
:105080000746022D07D008E00C2040EA0410C1B208
:10509000F0B20222C1E72007040E44EA0722F0B270
:1050A0000221FDF79CFE0028AAD14FF0FF31022D0E
:1050B00006D05A4A40F20920BDE8F041FFF7CEBAC7
:1050C000564A40F20A20521EF6E7FFE7BDE8F0819B
:1050D0002DE9F047050052484FF000044FF0FF065D
:1050E00001D0504800265049FFF740F83046FEF7FF
:1050F00024FB05210020FFF771F8374FDFF82C81E2
:10510000364E4FF0020921460020FBF703F94FF01D
:1051100000024FF004010DB1832000E08120FBF775
:10512000FEF8600708D10520FEF7B6FF05212046EE
:10513000FFF754F8FBF7BEFD002204216020FBF7C7
:10514000EEF80020FBF7F0F8B9EB901F73D1307840
:10515000397888426FD1D8F80000641C844268E036
:10516000FC0F02002C204943000000000A52657326
:10517000706F6E64696E672049324320646576699A
:105180006365733A0A0000006409000020646576D4
:105190006963657320666F756E640A00B80D02005E
:1051A00020696D70312F7320696D70322F73206903
:1051B0006D70332F7320696D70342F730000000001
:1051C00000C009201CC00720540300105003001029
:1051D00000000940004009403C0300103D0300105E
:1051E0000A4465766963652061646472657373005F
:1051F0004932432064657669636520000956616C15
:10520000756500000A526567697374657200000075
:105210001C2A02000A56616C756500007087010047
:105220006815020086150200BB150200CCE10720BC
:1052300001E0FFF468AF0520FEF72EFF0521601C9A
:10524000FEF7CCFF3078397888420CD1D8F80000CE
:10525000844203D1FA48FEF751FF07E0F9490020E4
:10526000FFF7C8F902E03078401C3070FBF74DF8CA
:105270002046BDE8F08770B5FEF703FFFDF7A7FFF6
:10528000FEF7E2F8F04C08B1F04809E00021206890
:10529000FEF7A4FF2068802801D2EDA000E0EDA079
:1052A000FEF72CFFEC48FEF777FF206858B3EB4879
:1052B000FEF724FFEA48FFF769F900281EDD002009
:1052C000FFF706FFE74C2168884202D10120FFF773
:1052D000FFFEE54D28784100E448B0F8C202FEF731
:1052E0007AF9287822684100404202EB4000401CD5
:1052F000FEF771F9FEF7B5FCFEF79CFCBDE87040C7
:10530000DBA0FEF7FBBEBDE87040FEF7BABE2DE99C
:10531000F05F4FF0000705003E4607D10021084628
:1053200001F066F80021012001F062F8112000F080
:1053300022FCDFF840B301218BF80C109BF8001021
:105340009BF8002011438BF80010DFF82C9340F2FB
:105350004C41C9F80010DFF824834FF0000AC8F868
:1053600000A0112000F0FCFB05E00A2019F0CCFAA7
:10537000D9F8000018B1D8F800000028F5D0D9F805
:10538000000020B34446D8F80080C4F800A002E032
:105390000A2019F0B9FA20680028F9D024681120F1
:1053A00000F0E9FB02218BF80C109BF800109BF831
:1053B000002011438BF80010112000F0D1FBB04900
:1053C000A4EB08000C1A03D50127644200E0012673
:1053D00015B9ACA0FEF792FE322C00DCD6B185B92F
:1053E000984900205531FFF705F956B917B12D201E
:1053F000FEF79EFD00212046FEF7F0FEA3A0FEF77B
:105400007DFE904A4FF0FF315D3240F21220FFF7EF
:1054100025F903E015B98A48FEF7BEFEBDE8F05F46
:10542000FEF72FBE70B5022201219AA0FFF71FF8E8
:10543000C0B2012802D002280AD01AE04FF0FF3291
:1054400001219B48FFF713F80121FDF758F910E0FF
:105450004FF47A7201219748FFF709F805460024B6
:1054600002E02046FEF7CBF82046641C24B2A84296
:10547000F7D3BDE87040FEF704BE2DE9F0478E4D2E
:1054800007004FF0000401D0FDF7A1FEDFF82C82E9
:105490004FF0C0790A2640F6FF7AC8F83C90E10543
:1054A000C8F83810012019F02FFA0220FBF779FE16
:1054B000012C19D041F6C8114843B0FBFAF025F889
:1054C000020B2046641CE4B20228E6D3674CF807BE
:1054D00007D0B4F8EE02B0FBF6F0FFF70EFAFEF7D5
:1054E000D0FDB4F8EE02C4E6C0EB001000EB800083
:1054F000B0FBF6F0E3E710B57148FEF74DFE71A181
:105500007148FEF733FEFDF762FE4FF4FA74FBF7C5
:10551000D1FBFBF769FE0421FEF760FE2046FEF793
:105520001CFD002803DA0420FEF7B6FDEFE7FEF7C6
:10553000A8FDBDE81040FEF7A4BD70B56048FEF7B9
:105540002BFE03214FF4C270FCF7B4F83221002087
:10555000FCF7E3F9C0B2FEF7B3FD00283BD103210D
:105560006F20FCF7A7F832210020FCF7D6F9C0B273
:10557000FEF7A6FD00282ED103214FF49670FCF70C
:1055800099F832210020FCF7C8F9C0B2FEF798FD67
:10559000002820D100214FF4F470FCF78BF8322161
:1055A0000020FCF7BAF9C0B2FEF78AFD002812D13C
:1055B0004FF4FA74251D00212046FCF77BF83221B8
:1055C0000020FCF7AAF9C0B2FEF77AFD002802D14C
:1055D000641CAC42EFD970BD2DE9F05F4FF0000ABA
:1055E00040F2F71756463A46514638A0FEF73FFFBD
:1055F0000546B0F5C87F06DA38A003220121801CD9
:10560000FEF735FF0646C822012137A0FEF72FFF1F
:10561000040000D500242A48FEF7BEFD4FF47A703E
:10562000002D03DBA8464FF0000B02E00025B84632
:105630008346002E6CDB06F0FF09F6B289E067E0D6
:10564000D315020094870100C8E107200715020066
:10565000204D4200204B420019150200761A02002C
:10566000D7150200CCE10720D4E1072028C007208D
:105670000A0A00000040024048030010E4E107204D
:1056800040420F000A0A5254432000002070706DFF
:10569000000000000A53656C656374204461746106
:1056A0002F50726F746F636F6C2028312F32290076
:1056B000131B0200861B020014C3072000C0092030
:1056C000A4180200203D2000F61502000A456E7461
:1056D0006572206E756D6265720000002D20436F4B
:1056E0006C6F7220000000004C4544206475747992
:1056F000206379636C65203128302E352529202ED2
:105700002E2E203230302831303025292000000064
:10571000FB494FF00109834691F8D66219E00CB9B4
:10572000FCF791F84F460DE039462846FBF7C2FFDB
:10573000E1B25846FCF7BEF8C0B28246FEF7C0FCA4
:1057400010B97F1CB742EFDD5046FEF7B9FC10B927
:105750006D1C4545E3D9FBF7D9FDFEF792FCBDE88A
:10576000F05FFEF78EBC2DE9F05F40F28F18FBF77B
:10577000CDFD4FF4FA7019F0C7F8E24E307828B931
:10578000E1A303220021E148FEF7A1FFFDF750FC51
:1057900001254FF0FF3BDFF868A342E0022D01D95D
:1057A0004FF0C70829464046FBF784FF0124322703
:1057B00040F2EE29307848B90520FEF76DFC032150
:1057C0002046FEF70BFDD0A0FEF798FCFBF7BFFDCF
:1057D0006043B0FBF7F000B90120C1B24846FCF7C6
:1057E00069F8FEF76DFC58B96400802C0BD0C82C0A
:1057F000E0D340F2DC50FEF738FCFEF761FC20B14C
:105800005846BDE8F09F6424D4E701210846FBF721
:10581000BDFDFBF77BFD4FF4FA7019F075F86D1CB8
:10582000EDB29AF8D602A842B8D2307808B9FEF79D
:1058300028FC0120E5E72DE9F0410125AF1EB04E1F
:105840001CE029467C20FBF735FF0124FBF77FFD98
:105850004006010EFA20FCF760F8FEF731FC28B98B
:10586000FA20FEF702FCFEF72BFC08B138462DE4C7
:10587000641CE4B2062CE9D96D1CEDB296F8D60290
:10588000A842DED2012021E42DE9F047A04F9C4E32
:10589000012538784FF0FF39304440F2771890F8FE
:1058A000034450E096F8980210B12046FDF7EDFB56
:1058B00038780121304490F81724A24204D896F891
:1058C000D622032A00D1032190F81204A04204D862
:1058D00096F8D602012800D902212046FBF7EAFEFD
:1058E000FBF735FD4006010E4046FBF7E3FFFEF7F0
:1058F000E7FBA8B92046FCF79AF818B10121FBF79D
:10590000D9FE0FE03878304490F80D04A04209D851
:10591000FBF7FCFC4046FEF7A8FBFEF7D1FB48B1C5
:105920004846A6E4FBF713FD4006010E4046FBF790
:10593000C1FFF2E73878304490F80804A04200D163
:105940006D426019C4B23878304490F80304A04224
:10595000A8D901208DE4FEB56E48002407C88DE863
:1059600007006D48FEF7CAFB654D6E4695F8EA03E1
:1059700038B1FDF74CFB20B1FDF749FB6449401EEF
:10598000087056F82400641CE4B28047002806DB47
:1059900040F2DC50FEF769FBFEF792FB70B1FDF7B9
:1059A00016FCFBF750FF95F8EA0310B15B490120A4
:1059B0000870FEF766FBFEF764FBFEBD022C00D903
:1059C000002400F07CF90028D0D155480078000769
:1059D000CCD55448406B4000C8D5534801210068DD
:1059E00019F06EF8FA2018F08FFF50490320087064
:1059F000BCE708B54EA0FEF781FB6B466422002190
:105A00004FA0FEF736FD9DF8000058B10121BC20E3
:105A1000FBF750FE9DF800004006010E4FF0FF30EE
:105A2000FBF748FF0320FCF721F847480078474977
:105A30000870FBF76BFC0020FCF718F808BD70B588
:105A40002F4C434DB4F8E803297920F007000843B0
:105A5000A4F8E8030120FCF709F8002804DD582128
:105A60000846FFF7CBF906E03A4A4FF0FF3140F223
:105A70000920FEF7F3FD94F8E713B4F8E803695C36
:105A800020F007000843A4F8E803BDE870400020B8
:105A9000FBF7ECBF70B51A4C224E4FF40045206A5C
:105AA00020F040002062B5612B4A03218A20FDF7D7
:105AB00096F9C8B141F2130204218A20FDF78FF94B
:105AC000264A04218A20FDF78AF947F23050FEF772
:105AD000CCFA102204218A20FDF781F9206A40F0D7
